{
  "abi": [
    {
      "inputs": [
        {
          "internalType": "contract IGatewayRegistry",
          "name": "gatewayRegistry",
          "type": "address"
        },
        {
          "internalType": "contract IChainlinkOracle",
          "name": "btcEthPriceOracle",
          "type": "address"
        },
        {
          "internalType": "contract IChainlinkOracle",
          "name": "gasPriceOracle",
          "type": "address"
        },
        {
          "internalType": "contract IRenBtcEthConverter",
          "name": "renBtcConverter",
          "type": "address"
        },
        {
          "internalType": "uint256",
          "name": "cacheTimeToLive",
          "type": "uint256"
        },
        {
          "internalType": "uint256",
          "name": "maxLoanDuration",
          "type": "uint256"
        },
        {
          "internalType": "uint256",
          "name": "targetEthReserve",
          "type": "uint256"
        },
        {
          "internalType": "uint256",
          "name": "maxGasProfitShareBips",
          "type": "uint256"
        },
        {
          "internalType": "address",
          "name": "zeroFeeRecipient",
          "type": "address"
        },
        {
          "internalType": "address",
          "name": "_asset",
          "type": "address"
        },
        {
          "internalType": "address",
          "name": "_proxyContract",
          "type": "address"
        }
      ],
      "stateMutability": "nonpayable",
      "type": "constructor"
    },
    {
      "inputs": [],
      "name": "AlreadyInitialized",
      "type": "error"
    },
    {
      "inputs": [],
      "name": "InvalidCompactString",
      "type": "error"
    },
    {
      "inputs": [],
      "name": "InvalidDynamicBorrowFee",
      "type": "error"
    },
    {
      "inputs": [],
      "name": "InvalidModuleType",
      "type": "error"
    },
    {
      "inputs": [],
      "name": "InvalidNullValue",
      "type": "error"
    },
    {
      "inputs": [],
      "name": "InvalidSelector",
      "type": "error"
    },
    {
      "inputs": [],
      "name": "InvalidSigner",
      "type": "error"
    },
    {
      "inputs": [],
      "name": "InvalidTypeHash",
      "type": "error"
    },
    {
      "inputs": [
        {
          "internalType": "uint256",
          "name": "loanId",
          "type": "uint256"
        }
      ],
      "name": "LoanDoesNotExist",
      "type": "error"
    },
    {
      "inputs": [
        {
          "internalType": "uint256",
          "name": "loanId",
          "type": "uint256"
        }
      ],
      "name": "LoanIdNotUnique",
      "type": "error"
    },
    {
      "inputs": [
        {
          "internalType": "uint256",
          "name": "loanId",
          "type": "uint256"
        }
      ],
      "name": "LoanNotExpired",
      "type": "error"
    },
    {
      "inputs": [
        {
          "internalType": "address",
          "name": "moduleAsset",
          "type": "address"
        }
      ],
      "name": "ModuleAssetDoesNotMatch",
      "type": "error"
    },
    {
      "inputs": [],
      "name": "ModuleDoesNotExist",
      "type": "error"
    },
    {
      "inputs": [],
      "name": "NotGovernance",
      "type": "error"
    },
    {
      "inputs": [
        {
          "internalType": "uint256",
          "name": "deadline",
          "type": "uint256"
        },
        {
          "internalType": "uint256",
          "name": "timestamp",
          "type": "uint256"
        }
      ],
      "name": "PermitDeadlineExpired",
      "type": "error"
    },
    {
      "inputs": [
        {
          "internalType": "address",
          "name": "module",
          "type": "address"
        },
        {
          "internalType": "address",
          "name": "borrower",
          "type": "address"
        },
        {
          "internalType": "uint256",
          "name": "borrowAmount",
          "type": "uint256"
        },
        {
          "internalType": "uint256",
          "name": "loanId",
          "type": "uint256"
        },
        {
          "internalType": "bytes",
          "name": "data",
          "type": "bytes"
        }
      ],
      "name": "ReceiveLoanError",
      "type": "error"
    },
    {
      "inputs": [],
      "name": "Reentrancy",
      "type": "error"
    },
    {
      "inputs": [
        {
          "internalType": "address",
          "name": "module",
          "type": "address"
        },
        {
          "internalType": "address",
          "name": "borrower",
          "type": "address"
        },
        {
          "internalType": "uint256",
          "name": "repaidAmount",
          "type": "uint256"
        },
        {
          "internalType": "uint256",
          "name": "loanId",
          "type": "uint256"
        },
        {
          "internalType": "bytes",
          "name": "data",
          "type": "bytes"
        }
      ],
      "name": "RepayLoanError",
      "type": "error"
    },
    {
      "inputs": [],
      "name": "ZeroShares",
      "type": "error"
    },
    {
      "anonymous": false,
      "inputs": [
        {
          "indexed": true,
          "internalType": "address",
          "name": "owner",
          "type": "address"
        },
        {
          "indexed": true,
          "internalType": "address",
          "name": "spender",
          "type": "address"
        },
        {
          "indexed": false,
          "internalType": "uint256",
          "name": "value",
          "type": "uint256"
        }
      ],
      "name": "Approval",
      "type": "event"
    },
    {
      "anonymous": false,
      "inputs": [
        {
          "indexed": true,
          "internalType": "address",
          "name": "caller",
          "type": "address"
        },
        {
          "indexed": true,
          "internalType": "address",
          "name": "owner",
          "type": "address"
        },
        {
          "indexed": false,
          "internalType": "uint256",
          "name": "assets",
          "type": "uint256"
        },
        {
          "indexed": false,
          "internalType": "uint256",
          "name": "shares",
          "type": "uint256"
        }
      ],
      "name": "Deposit",
      "type": "event"
    },
    {
      "anonymous": false,
      "inputs": [
        {
          "indexed": false,
          "internalType": "uint256",
          "name": "gasReserveFees",
          "type": "uint256"
        },
        {
          "indexed": false,
          "internalType": "uint256",
          "name": "gasReserveShares",
          "type": "uint256"
        },
        {
          "indexed": false,
          "internalType": "uint256",
          "name": "zeroFees",
          "type": "uint256"
        },
        {
          "indexed": false,
          "internalType": "uint256",
          "name": "zeroFeeShares",
          "type": "uint256"
        }
      ],
      "name": "FeeSharesBurned",
      "type": "event"
    },
    {
      "anonymous": false,
      "inputs": [
        {
          "indexed": false,
          "internalType": "uint256",
          "name": "gasReserveFees",
          "type": "uint256"
        },
        {
          "indexed": false,
          "internalType": "uint256",
          "name": "gasReserveShares",
          "type": "uint256"
        },
        {
          "indexed": false,
          "internalType": "uint256",
          "name": "zeroFees",
          "type": "uint256"
        },
        {
          "indexed": false,
          "internalType": "uint256",
          "name": "zeroFeeShares",
          "type": "uint256"
        }
      ],
      "name": "FeeSharesMinted",
      "type": "event"
    },
    {
      "anonymous": false,
      "inputs": [
        {
          "indexed": false,
          "internalType": "uint256",
          "name": "satoshiPerEth",
          "type": "uint256"
        },
        {
          "indexed": false,
          "internalType": "uint256",
          "name": "getGweiPerGas",
          "type": "uint256"
        }
      ],
      "name": "GlobalStateCacheUpdated",
      "type": "event"
    },
    {
      "anonymous": false,
      "inputs": [
        {
          "indexed": false,
          "internalType": "uint256",
          "name": "dynamicBorrowFee",
          "type": "uint256"
        },
        {
          "indexed": false,
          "internalType": "uint256",
          "name": "staticBorrowFee",
          "type": "uint256"
        }
      ],
      "name": "GlobalStateConfigUpdated",
      "type": "event"
    },
    {
      "anonymous": false,
      "inputs": [
        {
          "indexed": true,
          "internalType": "address",
          "name": "oldGovernance",
          "type": "address"
        },
        {
          "indexed": true,
          "internalType": "address",
          "name": "newGovernance",
          "type": "address"
        }
      ],
      "name": "GovernanceTransferred",
      "type": "event"
    },
    {
      "anonymous": false,
      "inputs": [
        {
          "indexed": false,
          "internalType": "uint256",
          "name": "loanId",
          "type": "uint256"
        },
        {
          "indexed": false,
          "internalType": "uint256",
          "name": "assetsRepaid",
          "type": "uint256"
        },
        {
          "indexed": false,
          "internalType": "uint256",
          "name": "sharesUnlocked",
          "type": "uint256"
        },
        {
          "indexed": false,
          "internalType": "uint256",
          "name": "sharesBurned",
          "type": "uint256"
        }
      ],
      "name": "LoanClosed",
      "type": "event"
    },
    {
      "anonymous": false,
      "inputs": [
        {
          "indexed": false,
          "internalType": "address",
          "name": "lender",
          "type": "address"
        },
        {
          "indexed": false,
          "internalType": "address",
          "name": "borrower",
          "type": "address"
        },
        {
          "indexed": false,
          "internalType": "uint256",
          "name": "loanId",
          "type": "uint256"
        },
        {
          "indexed": false,
          "internalType": "uint256",
          "name": "assetsBorrowed",
          "type": "uint256"
        },
        {
          "indexed": false,
          "internalType": "uint256",
          "name": "sharesLocked",
          "type": "uint256"
        }
      ],
      "name": "LoanCreated",
      "type": "event"
    },
    {
      "anonymous": false,
      "inputs": [
        {
          "indexed": false,
          "internalType": "address",
          "name": "module",
          "type": "address"
        },
        {
          "indexed": false,
          "internalType": "enum ModuleType",
          "name": "moduleType",
          "type": "uint8"
        },
        {
          "indexed": false,
          "internalType": "uint256",
          "name": "loanGasE4",
          "type": "uint256"
        },
        {
          "indexed": false,
          "internalType": "uint256",
          "name": "repayGasE4",
          "type": "uint256"
        }
      ],
      "name": "ModuleStateUpdated",
      "type": "event"
    },
    {
      "anonymous": false,
      "inputs": [
        {
          "indexed": true,
          "internalType": "address",
          "name": "from",
          "type": "address"
        },
        {
          "indexed": true,
          "internalType": "address",
          "name": "to",
          "type": "address"
        },
        {
          "indexed": false,
          "internalType": "uint256",
          "name": "value",
          "type": "uint256"
        }
      ],
      "name": "Transfer",
      "type": "event"
    },
    {
      "anonymous": false,
      "inputs": [
        {
          "indexed": true,
          "internalType": "address",
          "name": "caller",
          "type": "address"
        },
        {
          "indexed": true,
          "internalType": "address",
          "name": "receiver",
          "type": "address"
        },
        {
          "indexed": true,
          "internalType": "address",
          "name": "owner",
          "type": "address"
        },
        {
          "indexed": false,
          "internalType": "uint256",
          "name": "assets",
          "type": "uint256"
        },
        {
          "indexed": false,
          "internalType": "uint256",
          "name": "shares",
          "type": "uint256"
        }
      ],
      "name": "Withdraw",
      "type": "event"
    },
    {
      "inputs": [],
      "name": "DOMAIN_SEPARATOR",
      "outputs": [
        {
          "internalType": "bytes32",
          "name": "",
          "type": "bytes32"
        }
      ],
      "stateMutability": "view",
      "type": "function"
    },
    {
      "inputs": [
        {
          "internalType": "address",
          "name": "module",
          "type": "address"
        },
        {
          "internalType": "enum ModuleType",
          "name": "moduleType",
          "type": "uint8"
        },
        {
          "internalType": "uint256",
          "name": "loanGas",
          "type": "uint256"
        },
        {
          "internalType": "uint256",
          "name": "repayGas",
          "type": "uint256"
        }
      ],
      "name": "addModule",
      "outputs": [],
      "stateMutability": "nonpayable",
      "type": "function"
    },
    {
      "inputs": [
        {
          "internalType": "address",
          "name": "owner",
          "type": "address"
        },
        {
          "internalType": "address",
          "name": "spender",
          "type": "address"
        }
      ],
      "name": "allowance",
      "outputs": [
        {
          "internalType": "uint256",
          "name": "",
          "type": "uint256"
        }
      ],
      "stateMutability": "view",
      "type": "function"
    },
    {
      "inputs": [
        {
          "internalType": "address",
          "name": "spender",
          "type": "address"
        },
        {
          "internalType": "uint256",
          "name": "amount",
          "type": "uint256"
        }
      ],
      "name": "approve",
      "outputs": [
        {
          "internalType": "bool",
          "name": "",
          "type": "bool"
        }
      ],
      "stateMutability": "nonpayable",
      "type": "function"
    },
    {
      "inputs": [],
      "name": "asset",
      "outputs": [
        {
          "internalType": "address",
          "name": "",
          "type": "address"
        }
      ],
      "stateMutability": "view",
      "type": "function"
    },
    {
      "inputs": [
        {
          "internalType": "address",
          "name": "account",
          "type": "address"
        }
      ],
      "name": "balanceOf",
      "outputs": [
        {
          "internalType": "uint256",
          "name": "",
          "type": "uint256"
        }
      ],
      "stateMutability": "view",
      "type": "function"
    },
    {
      "inputs": [
        {
          "internalType": "address",
          "name": "module",
          "type": "address"
        },
        {
          "internalType": "address",
          "name": "borrower",
          "type": "address"
        },
        {
          "internalType": "uint256",
          "name": "borrowAmount",
          "type": "uint256"
        },
        {
          "internalType": "uint256",
          "name": "nonce",
          "type": "uint256"
        },
        {
          "internalType": "bytes",
          "name": "data",
          "type": "bytes"
        },
        {
          "internalType": "address",
          "name": "lender",
          "type": "address"
        }
      ],
      "name": "calculateLoanId",
      "outputs": [
        {
          "internalType": "uint256",
          "name": "",
          "type": "uint256"
        }
      ],
      "stateMutability": "view",
      "type": "function"
    },
    {
      "inputs": [
        {
          "internalType": "address",
          "name": "module",
          "type": "address"
        },
        {
          "internalType": "address",
          "name": "borrower",
          "type": "address"
        },
        {
          "internalType": "uint256",
          "name": "borrowAmount",
          "type": "uint256"
        },
        {
          "internalType": "uint256",
          "name": "nonce",
          "type": "uint256"
        },
        {
          "internalType": "bytes",
          "name": "data",
          "type": "bytes"
        },
        {
          "internalType": "address",
          "name": "lender",
          "type": "address"
        }
      ],
      "name": "closeExpiredLoan",
      "outputs": [],
      "stateMutability": "nonpayable",
      "type": "function"
    },
    {
      "inputs": [
        {
          "internalType": "uint256",
          "name": "shares",
          "type": "uint256"
        }
      ],
      "name": "convertToAssets",
      "outputs": [
        {
          "internalType": "uint256",
          "name": "",
          "type": "uint256"
        }
      ],
      "stateMutability": "view",
      "type": "function"
    },
    {
      "inputs": [
        {
          "internalType": "uint256",
          "name": "assets",
          "type": "uint256"
        }
      ],
      "name": "convertToShares",
      "outputs": [
        {
          "internalType": "uint256",
          "name": "",
          "type": "uint256"
        }
      ],
      "stateMutability": "view",
      "type": "function"
    },
    {
      "inputs": [],
      "name": "decimals",
      "outputs": [
        {
          "internalType": "uint8",
          "name": "",
          "type": "uint8"
        }
      ],
      "stateMutability": "view",
      "type": "function"
    },
    {
      "inputs": [
        {
          "internalType": "uint256",
          "name": "assets",
          "type": "uint256"
        },
        {
          "internalType": "address",
          "name": "receiver",
          "type": "address"
        }
      ],
      "name": "deposit",
      "outputs": [
        {
          "internalType": "uint256",
          "name": "shares",
          "type": "uint256"
        }
      ],
      "stateMutability": "nonpayable",
      "type": "function"
    },
    {
      "inputs": [],
      "name": "earn",
      "outputs": [],
      "stateMutability": "nonpayable",
      "type": "function"
    },
    {
      "inputs": [],
      "name": "getConfig",
      "outputs": [
        {
          "internalType": "address",
          "name": "gatewayRegistry",
          "type": "address"
        },
        {
          "internalType": "address",
          "name": "btcEthPriceOracle",
          "type": "address"
        },
        {
          "internalType": "address",
          "name": "gasPriceOracle",
          "type": "address"
        },
        {
          "internalType": "address",
          "name": "renBtcConverter",
          "type": "address"
        },
        {
          "internalType": "uint256",
          "name": "cacheTimeToLive",
          "type": "uint256"
        },
        {
          "internalType": "uint256",
          "name": "maxLoanDuration",
          "type": "uint256"
        },
        {
          "internalType": "uint256",
          "name": "targetEthReserve",
          "type": "uint256"
        },
        {
          "internalType": "uint256",
          "name": "maxGasProfitShareBips",
          "type": "uint256"
        },
        {
          "internalType": "address",
          "name": "zeroFeeRecipient",
          "type": "address"
        }
      ],
      "stateMutability": "view",
      "type": "function"
    },
    {
      "inputs": [],
      "name": "getGlobalState",
      "outputs": [
        {
          "internalType": "uint256",
          "name": "zeroBorrowFeeBips",
          "type": "uint256"
        },
        {
          "internalType": "uint256",
          "name": "renBorrowFeeBips",
          "type": "uint256"
        },
        {
          "internalType": "uint256",
          "name": "zeroFeeShareBips",
          "type": "uint256"
        },
        {
          "internalType": "uint256",
          "name": "zeroBorrowFeeStatic",
          "type": "uint256"
        },
        {
          "internalType": "uint256",
          "name": "renBorrowFeeStatic",
          "type": "uint256"
        },
        {
          "internalType": "uint256",
          "name": "satoshiPerEth",
          "type": "uint256"
        },
        {
          "internalType": "uint256",
          "name": "gweiPerGas",
          "type": "uint256"
        },
        {
          "internalType": "uint256",
          "name": "lastUpdateTimestamp",
          "type": "uint256"
        },
        {
          "internalType": "uint256",
          "name": "totalBitcoinBorrowed",
          "type": "uint256"
        },
        {
          "internalType": "uint256",
          "name": "unburnedGasReserveShares",
          "type": "uint256"
        },
        {
          "internalType": "uint256",
          "name": "unburnedZeroFeeShares",
          "type": "uint256"
        }
      ],
      "stateMutability": "view",
      "type": "function"
    },
    {
      "inputs": [
        {
          "internalType": "address",
          "name": "module",
          "type": "address"
        }
      ],
      "name": "getModuleState",
      "outputs": [
        {
          "internalType": "enum ModuleType",
          "name": "moduleType",
          "type": "uint8"
        },
        {
          "internalType": "uint256",
          "name": "loanGasE4",
          "type": "uint256"
        },
        {
          "internalType": "uint256",
          "name": "repayGasE4",
          "type": "uint256"
        },
        {
          "internalType": "uint256",
          "name": "ethRefundForLoanGas",
          "type": "uint256"
        },
        {
          "internalType": "uint256",
          "name": "ethRefundForRepayGas",
          "type": "uint256"
        },
        {
          "internalType": "uint256",
          "name": "btcFeeForLoanGas",
          "type": "uint256"
        },
        {
          "internalType": "uint256",
          "name": "btcFeeForRepayGas",
          "type": "uint256"
        },
        {
          "internalType": "uint256",
          "name": "lastUpdateTimestamp",
          "type": "uint256"
        }
      ],
      "stateMutability": "view",
      "type": "function"
    },
    {
      "inputs": [
        {
          "internalType": "uint256",
          "name": "loanId",
          "type": "uint256"
        }
      ],
      "name": "getOutstandingLoan",
      "outputs": [
        {
          "internalType": "uint256",
          "name": "sharesLocked",
          "type": "uint256"
        },
        {
          "internalType": "uint256",
          "name": "actualBorrowAmount",
          "type": "uint256"
        },
        {
          "internalType": "uint256",
          "name": "lenderDebt",
          "type": "uint256"
        },
        {
          "internalType": "uint256",
          "name": "btcFeeForLoanGas",
          "type": "uint256"
        },
        {
          "internalType": "uint256",
          "name": "expiry",
          "type": "uint256"
        }
      ],
      "stateMutability": "view",
      "type": "function"
    },
    {
      "inputs": [],
      "name": "governance",
      "outputs": [
        {
          "internalType": "address",
          "name": "",
          "type": "address"
        }
      ],
      "stateMutability": "view",
      "type": "function"
    },
    {
      "inputs": [
        {
          "internalType": "address",
          "name": "initialGovernance",
          "type": "address"
        },
        {
          "internalType": "uint256",
          "name": "zeroBorrowFeeBips",
          "type": "uint256"
        },
        {
          "internalType": "uint256",
          "name": "renBorrowFeeBips",
          "type": "uint256"
        },
        {
          "internalType": "uint256",
          "name": "zeroBorrowFeeStatic",
          "type": "uint256"
        },
        {
          "internalType": "uint256",
          "name": "renBorrowFeeStatic",
          "type": "uint256"
        }
      ],
      "name": "initialize",
      "outputs": [],
      "stateMutability": "nonpayable",
      "type": "function"
    },
    {
      "inputs": [
        {
          "internalType": "address",
          "name": "module",
          "type": "address"
        },
        {
          "internalType": "address",
          "name": "borrower",
          "type": "address"
        },
        {
          "internalType": "uint256",
          "name": "borrowAmount",
          "type": "uint256"
        },
        {
          "internalType": "uint256",
          "name": "nonce",
          "type": "uint256"
        },
        {
          "internalType": "bytes",
          "name": "data",
          "type": "bytes"
        }
      ],
      "name": "loan",
      "outputs": [],
      "stateMutability": "nonpayable",
      "type": "function"
    },
    {
      "inputs": [
        {
          "internalType": "address",
          "name": "",
          "type": "address"
        }
      ],
      "name": "maxDeposit",
      "outputs": [
        {
          "internalType": "uint256",
          "name": "",
          "type": "uint256"
        }
      ],
      "stateMutability": "view",
      "type": "function"
    },
    {
      "inputs": [
        {
          "internalType": "address",
          "name": "",
          "type": "address"
        }
      ],
      "name": "maxMint",
      "outputs": [
        {
          "internalType": "uint256",
          "name": "",
          "type": "uint256"
        }
      ],
      "stateMutability": "view",
      "type": "function"
    },
    {
      "inputs": [
        {
          "internalType": "address",
          "name": "owner",
          "type": "address"
        }
      ],
      "name": "maxRedeem",
      "outputs": [
        {
          "internalType": "uint256",
          "name": "",
          "type": "uint256"
        }
      ],
      "stateMutability": "view",
      "type": "function"
    },
    {
      "inputs": [
        {
          "internalType": "address",
          "name": "owner",
          "type": "address"
        }
      ],
      "name": "maxWithdraw",
      "outputs": [
        {
          "internalType": "uint256",
          "name": "",
          "type": "uint256"
        }
      ],
      "stateMutability": "view",
      "type": "function"
    },
    {
      "inputs": [
        {
          "internalType": "uint256",
          "name": "shares",
          "type": "uint256"
        },
        {
          "internalType": "address",
          "name": "receiver",
          "type": "address"
        }
      ],
      "name": "mint",
      "outputs": [
        {
          "internalType": "uint256",
          "name": "assets",
          "type": "uint256"
        }
      ],
      "stateMutability": "nonpayable",
      "type": "function"
    },
    {
      "inputs": [],
      "name": "name",
      "outputs": [
        {
          "internalType": "string",
          "name": "",
          "type": "string"
        }
      ],
      "stateMutability": "view",
      "type": "function"
    },
    {
      "inputs": [
        {
          "internalType": "address",
          "name": "account",
          "type": "address"
        }
      ],
      "name": "nonces",
      "outputs": [
        {
          "internalType": "uint256",
          "name": "",
          "type": "uint256"
        }
      ],
      "stateMutability": "view",
      "type": "function"
    },
    {
      "inputs": [
        {
          "internalType": "address",
          "name": "owner",
          "type": "address"
        },
        {
          "internalType": "address",
          "name": "spender",
          "type": "address"
        },
        {
          "internalType": "uint256",
          "name": "value",
          "type": "uint256"
        },
        {
          "internalType": "uint256",
          "name": "deadline",
          "type": "uint256"
        },
        {
          "internalType": "uint8",
          "name": "",
          "type": "uint8"
        },
        {
          "internalType": "bytes32",
          "name": "",
          "type": "bytes32"
        },
        {
          "internalType": "bytes32",
          "name": "",
          "type": "bytes32"
        }
      ],
      "name": "permit",
      "outputs": [],
      "stateMutability": "nonpayable",
      "type": "function"
    },
    {
      "inputs": [],
      "name": "pokeGlobalCache",
      "outputs": [],
      "stateMutability": "nonpayable",
      "type": "function"
    },
    {
      "inputs": [
        {
          "internalType": "address",
          "name": "module",
          "type": "address"
        }
      ],
      "name": "pokeModuleCache",
      "outputs": [],
      "stateMutability": "nonpayable",
      "type": "function"
    },
    {
      "inputs": [
        {
          "internalType": "uint256",
          "name": "assets",
          "type": "uint256"
        }
      ],
      "name": "previewDeposit",
      "outputs": [
        {
          "internalType": "uint256",
          "name": "",
          "type": "uint256"
        }
      ],
      "stateMutability": "view",
      "type": "function"
    },
    {
      "inputs": [
        {
          "internalType": "uint256",
          "name": "shares",
          "type": "uint256"
        }
      ],
      "name": "previewMint",
      "outputs": [
        {
          "internalType": "uint256",
          "name": "",
          "type": "uint256"
        }
      ],
      "stateMutability": "view",
      "type": "function"
    },
    {
      "inputs": [
        {
          "internalType": "uint256",
          "name": "shares",
          "type": "uint256"
        }
      ],
      "name": "previewRedeem",
      "outputs": [
        {
          "internalType": "uint256",
          "name": "",
          "type": "uint256"
        }
      ],
      "stateMutability": "view",
      "type": "function"
    },
    {
      "inputs": [
        {
          "internalType": "uint256",
          "name": "assets",
          "type": "uint256"
        }
      ],
      "name": "previewWithdraw",
      "outputs": [
        {
          "internalType": "uint256",
          "name": "",
          "type": "uint256"
        }
      ],
      "stateMutability": "view",
      "type": "function"
    },
    {
      "inputs": [
        {
          "internalType": "uint256",
          "name": "shares",
          "type": "uint256"
        },
        {
          "internalType": "address",
          "name": "receiver",
          "type": "address"
        },
        {
          "internalType": "address",
          "name": "owner",
          "type": "address"
        }
      ],
      "name": "redeem",
      "outputs": [
        {
          "internalType": "uint256",
          "name": "assets",
          "type": "uint256"
        }
      ],
      "stateMutability": "nonpayable",
      "type": "function"
    },
    {
      "inputs": [
        {
          "internalType": "address",
          "name": "module",
          "type": "address"
        }
      ],
      "name": "removeModule",
      "outputs": [],
      "stateMutability": "nonpayable",
      "type": "function"
    },
    {
      "inputs": [
        {
          "internalType": "address",
          "name": "module",
          "type": "address"
        },
        {
          "internalType": "address",
          "name": "borrower",
          "type": "address"
        },
        {
          "internalType": "uint256",
          "name": "borrowAmount",
          "type": "uint256"
        },
        {
          "internalType": "uint256",
          "name": "nonce",
          "type": "uint256"
        },
        {
          "internalType": "bytes",
          "name": "data",
          "type": "bytes"
        },
        {
          "internalType": "address",
          "name": "lender",
          "type": "address"
        },
        {
          "internalType": "bytes32",
          "name": "nHash",
          "type": "bytes32"
        },
        {
          "internalType": "bytes",
          "name": "renSignature",
          "type": "bytes"
        }
      ],
      "name": "repay",
      "outputs": [],
      "stateMutability": "nonpayable",
      "type": "function"
    },
    {
      "inputs": [
        {
          "internalType": "uint256",
          "name": "zeroBorrowFeeBips",
          "type": "uint256"
        },
        {
          "internalType": "uint256",
          "name": "renBorrowFeeBips",
          "type": "uint256"
        },
        {
          "internalType": "uint256",
          "name": "zeroBorrowFeeStatic",
          "type": "uint256"
        },
        {
          "internalType": "uint256",
          "name": "renBorrowFeeStatic",
          "type": "uint256"
        }
      ],
      "name": "setGlobalFees",
      "outputs": [],
      "stateMutability": "nonpayable",
      "type": "function"
    },
    {
      "inputs": [
        {
          "internalType": "address",
          "name": "newGovernance",
          "type": "address"
        }
      ],
      "name": "setGovernance",
      "outputs": [],
      "stateMutability": "nonpayable",
      "type": "function"
    },
    {
      "inputs": [
        {
          "internalType": "address",
          "name": "module",
          "type": "address"
        },
        {
          "internalType": "uint256",
          "name": "loanGas",
          "type": "uint256"
        },
        {
          "internalType": "uint256",
          "name": "repayGas",
          "type": "uint256"
        }
      ],
      "name": "setModuleGasFees",
      "outputs": [],
      "stateMutability": "nonpayable",
      "type": "function"
    },
    {
      "inputs": [],
      "name": "symbol",
      "outputs": [
        {
          "internalType": "string",
          "name": "",
          "type": "string"
        }
      ],
      "stateMutability": "view",
      "type": "function"
    },
    {
      "inputs": [],
      "name": "totalAssets",
      "outputs": [
        {
          "internalType": "uint256",
          "name": "",
          "type": "uint256"
        }
      ],
      "stateMutability": "view",
      "type": "function"
    },
    {
      "inputs": [],
      "name": "totalSupply",
      "outputs": [
        {
          "internalType": "uint256",
          "name": "",
          "type": "uint256"
        }
      ],
      "stateMutability": "view",
      "type": "function"
    },
    {
      "inputs": [
        {
          "internalType": "address",
          "name": "to",
          "type": "address"
        },
        {
          "internalType": "uint256",
          "name": "amount",
          "type": "uint256"
        }
      ],
      "name": "transfer",
      "outputs": [
        {
          "internalType": "bool",
          "name": "",
          "type": "bool"
        }
      ],
      "stateMutability": "nonpayable",
      "type": "function"
    },
    {
      "inputs": [
        {
          "internalType": "address",
          "name": "from",
          "type": "address"
        },
        {
          "internalType": "address",
          "name": "to",
          "type": "address"
        },
        {
          "internalType": "uint256",
          "name": "amount",
          "type": "uint256"
        }
      ],
      "name": "transferFrom",
      "outputs": [
        {
          "internalType": "bool",
          "name": "",
          "type": "bool"
        }
      ],
      "stateMutability": "nonpayable",
      "type": "function"
    },
    {
      "inputs": [
        {
          "internalType": "uint256",
          "name": "assets",
          "type": "uint256"
        },
        {
          "internalType": "address",
          "name": "receiver",
          "type": "address"
        },
        {
          "internalType": "address",
          "name": "owner",
          "type": "address"
        }
      ],
      "name": "withdraw",
      "outputs": [
        {
          "internalType": "uint256",
          "name": "shares",
          "type": "uint256"
        }
      ],
      "stateMutability": "nonpayable",
      "type": "function"
    },
    {
      "stateMutability": "payable",
      "type": "receive"
    }
  ],
  "bytecode": {
    "object": "0x6102c06040523462000163576200002c6200001962000205565b99989098979197969296959395620002c2565b6040516140b390816200056c823960805181610441015260a051816115db015260c05181610894015260e051816126c8015261010051816126040152610120518161262a015261014051816126760152610160518161269c01526101805181818161090201528181610d8b01528181610f180152818161149c01528181611525015281816119e801528181611fa901528181612b1d015261324c01526101a051818181611cc0015261327301526101c051818181611ce50152612c1101526101e051818181611d0d0152612da8015261020051818181611d350152611f85015261022051818181611d5c0152612f43015261024051818181611d820152613a04015261026051818181611da80152613e37015261028051818181611dce0152613e9001526102a051818181611df401526120350152f35b600080fd5b60408051919082016001600160401b038111838210176200018857604052565b634e487b7160e01b600052604160045260246000fd5b60405190608082016001600160401b038111838210176200018857604052565b6040519190601f01601f191682016001600160401b038111838210176200018857604052565b6001600160a01b038116036200016357565b51906200020382620001e4565b565b6200461f9061016082380392836200021d81620001be565b94859283398101031262000163578151916200023983620001e4565b6020810151926200024a84620001e4565b6040820151926200025b84620001e4565b6060830151926200026c84620001e4565b60808101519260a08201519260c08301519260e081015192610100820151926200029684620001e4565b620002b4610140620002ac6101208601620001f6565b9401620001f6565b919a99989796959493929190565b9193959799989092949698620002d762000425565b60a0602092838301665a65726f42544360c81b8152620002f662000436565b90635a42544360e01b868301526200030d62000447565b94620003328787019361763160f01b8552620003298362000548565b60805262000548565b8552600860c0528360e0524661010052519020938461014052519020908161016052604051917f8b73c3c69bb8fe3d512ecc4cf759cc79239f7b179b0ffacaa9a75d522b39400f94858452868401526040830152466060830152600180841b031660808201522061012052620003a7620004d0565b828151910120036200041357620003bd62000458565b80519101207f6e71edae12b1b97f4d1f60370fef10105fa2faae0126114a169c64845d6126c9036200041357610180526101a0526101c0526101e05261020052610220526102405261026052610280526102a052565b6040516316b17d2960e21b8152600490fd5b6200042f62000168565b9060078252565b6200044062000168565b9060048252565b6200045162000168565b9060028252565b620004626200019e565b9060528252712c75696e7432353620646561646c696e652960701b6060837f5065726d69742861646472657373206f776e65722c616464726573732073706560208201527f6e6465722c75696e743235362076616c75652c75696e74323536206e6f6e636560408201520152565b620004da6200019e565b906052825271766572696679696e67436f6e74726163742960701b6060837f454950373132446f6d61696e28737472696e67206e616d652c737472696e672060208201527f76657273696f6e2c75696e7432353620636861696e49642c616464726573732060408201520152565b601f8151116200055957601f015190565b604051636e29c55b60e01b8152600490fdfe6080604052600436101561001b575b361561001957600080fd5b005b60003560e01c806301e1d1141461038f57806306fdde031461038657806307a2d13a14610323578063095ea7b31461037d5780630a28a4771461037457806318160ddd1461036b57806323b872dd146103625780632e27c8de14610359578063313ce567146103505780633644e5151461034757806338d52e0f1461033e578063402d267d1461026657806340d7b88b14610335578063421f0f631461032c5780634cdad506146103235780635172b3631461031a5780635aa6e675146103115780636e553f651461030857806370a0823114610242578063743faee2146102ff5780637ecebe00146102f657806385cd78d1146102ed578063888903e8146102e4578063911e0b91146102db57806392cc8bec146102d257806394bf804d146102c957806395d89b41146102c0578063a0632461146102b7578063a7c18d3e146102ae578063a9059cbb146102a5578063ab033ea91461029c578063b3d7f6b914610293578063b460af941461028a578063b9bad0f214610281578063ba08765214610278578063c3f909d41461026f578063c63d75b614610266578063c6e6f59214610230578063ce96cb771461025d578063d389800f14610254578063d505accf1461024b578063d905777e14610242578063dd62ed3e14610239578063ef8b30f714610230578063f92ad219146102275763fbaaa57a0361000e576102226124d2565b61000e565b50610222612379565b50610222611e1c565b506102226122f9565b5061022261100d565b506102226120de565b50610222611e87565b50610222611e3b565b50610222610926565b50610222611c90565b50610222611b4e565b50610222611aca565b5061022261194d565b50610222611905565b5061022261186b565b506102226117c0565b506102226116a2565b50610222611618565b506102226115c1565b506102226114df565b506102226112ec565b506102226112ad565b50610222611279565b50610222611165565b50610222611119565b50610222611059565b50610222610ecc565b50610222610e97565b50610222610b64565b50610222610496565b50610222610b30565b5061022261096d565b506102226108d4565b506102226108b8565b50610222610879565b506102226107fe565b506102226105ba565b5061022261059b565b5061022261057c565b506102226104d3565b50610222610427565b50346103b35760006003193601126103b35760206103ab612a9a565b604051908152f35b600080fd5b91908251928382526000905b84821061040f5750601f84602094957fffffffffffffffffffffffffffffffffffffffffffffffffffffffffffffffe09311610402575b0116010190565b60008582860101526103fb565b906020908180828501015190828601015201906103c4565b50346103b35760006003193601126103b35761049261047e7f0000000000000000000000000000000000000000000000000000000000000000906040519160408301604052601f8360008152600060208201520152565b6040519182916020835260208301906103b8565b0390f35b50346103b35760206003193601126103b35760206103ab6004356127fe565b73ffffffffffffffffffffffffffffffffffffffff8116036103b357565b50346103b35760406003193601126103b3576004356104f1816104b5565b73ffffffffffffffffffffffffffffffffffffffff60243591336000526002602052826105428260406000209073ffffffffffffffffffffffffffffffffffffffff16600052602052604060002090565b5560405192835216907f8c5be1e5ebec7d5bd14f71427d1e84f3dd0314c0f7b2291e5b200ac8c7c3b92560203392a3602060405160018152f35b50346103b35760206003193601126103b35760206103ab60043561283a565b50346103b35760006003193601126103b3576020600054604051908152f35b50346103b35760606003193601126103b3576004356105d8816104b5565b602435906105e5826104b5565b7fddf252ad1be2c89b69c2b068fc378daa952ba7f163c4a11628f55a4df523b3ef6044359273ffffffffffffffffffffffffffffffffffffffff906106af828516948560005260026020528661065e60406000203373ffffffffffffffffffffffffffffffffffffffff16600052602052604060002090565b547fffffffffffffffffffffffffffffffffffffffffffffffffffffffffffffffff8103610709575b505073ffffffffffffffffffffffffffffffffffffffff166000526001602052604060002090565b6106ba8682546125ea565b90556106e68173ffffffffffffffffffffffffffffffffffffffff166000526001602052604060002090565b805486019055604051948552169280602081015b0390a360405160018152602090f35b81811061076d575b03610765336107408473ffffffffffffffffffffffffffffffffffffffff166000526002602052604060002090565b9073ffffffffffffffffffffffffffffffffffffffff16600052602052604060002090565b558638610687565b6107756125ba565b610711565b6003111561078457565b7f4e487b7100000000000000000000000000000000000000000000000000000000600052602160045260246000fd5b9060038210156107845752565b94919260e096939998979491996107dc8761010081019c6107b3565b602087015260408601526060850152608084015260a083015260c08201520152565b50346103b35760206003193601126103b357610492610827600435610822816104b5565b612b77565b60405191829162ffffff67ffffffffffffffff9180601e1c63ffffffff169281603e1c8316928260561c169180606e1c8216918160ae1c16908060ee1c60ff16908060f61c60ff169060fe1c896107c0565b50346103b35760006003193601126103b357602060405160ff7f0000000000000000000000000000000000000000000000000000000000000000168152f35b50346103b35760006003193601126103b35760206103ab612601565b50346103b35760006003193601126103b357602060405173ffffffffffffffffffffffffffffffffffffffff7f0000000000000000000000000000000000000000000000000000000000000000168152f35b50346103b35760206003193601126103b3576109436004356104b5565b60206040517fffffffffffffffffffffffffffffffffffffffffffffffffffffffffffffffff8152f35b50346103b35760206003193601126103b357600435600052600860205260a0604060002054604051908060d01c825265ffffffffffff81841c811660208401528160701c811660408401528160401c16606083015260201c63ffffffff166080820152f35b507f4e487b7100000000000000000000000000000000000000000000000000000000600052604160045260246000fd5b90601f7fffffffffffffffffffffffffffffffffffffffffffffffffffffffffffffffe0910116810190811067ffffffffffffffff821117610a4357604052565b610a4b6109d2565b604052565b81601f820112156103b35780359067ffffffffffffffff8211610ac6575b60405192610aa460207fffffffffffffffffffffffffffffffffffffffffffffffffffffffffffffffe0601f8601160185610a02565b828452602083830101116103b357816000926020809301838601378301015290565b610ace6109d2565b610a6e565b60c06003198201126103b357600435610aeb816104b5565b91602435610af8816104b5565b9160443591606435916084359067ffffffffffffffff82116103b357610b2091600401610a50565b9060a435610b2d816104b5565b90565b50346103b357610b4e610b4236610ad3565b9594509250505061393f565b9060005260205260206040600020604051908152f35b50346103b35760806003193601126103b35760048035610b83816104b5565b6024359060038210156103b3576044356064359373ffffffffffffffffffffffffffffffffffffffff80600554163303610e6e576001825403610e45576002825581818516918215928315610d48575b50505082158015610d40575b610d1757610bec8561077a565b841503610cef57507f98af3d492cc8b9a0b26fa693b8afb020d7f6b036acd4d7d525d69942dc9133ed936001610ce2926127109082827fffffffffffffffffffffffffffffffffffffffffffffffffffffffffffffffff80930104019301040190610cab610ca08383610c5d612f2a565b509091928160911c633fffffff169160811c61ffff16809302926509184e72a0008091818602960281810295670de0b6b3a7640000938491870202049402020490565b91429387878c612fd5565b610cd58573ffffffffffffffffffffffffffffffffffffffff166000526007602052604060002090565b5560405194859485612f9b565b0390a16100196001600455565b6040517f2125deae000000000000000000000000000000000000000000000000000000008152fd5b506040517f12bce0a2000000000000000000000000000000000000000000000000000000008152fd5b508515610bdf565b602090604051938480927f38d52e0f0000000000000000000000000000000000000000000000000000000082525afa918215610e38575b600092610e08575b50807f00000000000000000000000000000000000000000000000000000000000000001690821603610dbb57808391610bd3565b6040517f02af1d1600000000000000000000000000000000000000000000000000000000815273ffffffffffffffffffffffffffffffffffffffff90911681840190815281906020010390fd5b610e2a91925060203d8111610e31575b610e228183610a02565b810190612f86565b9038610d87565b503d610e18565b610e40612ac7565b610d7f565b506040517fab143c06000000000000000000000000000000000000000000000000000000008152fd5b506040517fb56f932c000000000000000000000000000000000000000000000000000000008152fd5b50346103b35760006003193601126103b357602073ffffffffffffffffffffffffffffffffffffffff60055416604051908152f35b50346103b35760406003193601126103b357600435602435610eed816104b5565b600160045403610fe3576002600455610f05826127df565b908115610fb95782610f3c6104929430337f00000000000000000000000000000000000000000000000000000000000000006128b7565b610f468383612708565b7fdcbc1c05240f31ff3ad067ef1ee35ce4997762752e3a095284754544f4c709d773ffffffffffffffffffffffffffffffffffffffff60405193169280610f9c8633958360209093929193604081019481520152565b0390a3610fa96001600455565b6040519081529081906020820190565b60046040517f9811e0c7000000000000000000000000000000000000000000000000000000008152fd5b60046040517fab143c06000000000000000000000000000000000000000000000000000000008152fd5b50346103b35760206003193601126103b35773ffffffffffffffffffffffffffffffffffffffff600435611040816104b5565b1660005260016020526020604060002054604051908152f35b50346103b35760006003193601126103b3576006546040805160f583901c815260ea83901c6107ff16602082015260dd83901c611fff1691810191909152627fffff60c683901c8116606083015260af83901c166080820152609182901c633fffffff1660a0820152608182901c61ffff1660c0820152606182901c63ffffffff1660e0820152603982901c64ffffffffff16610100820152630fffffff601d83901c811661012083015260019290921c90911661014082015261016090f35b50346103b35760206003193601126103b35773ffffffffffffffffffffffffffffffffffffffff60043561114c816104b5565b1660005260036020526020604060002054604051908152f35b50346103b35760606003193601126103b35760048035611184816104b5565b73ffffffffffffffffffffffffffffffffffffffff600554163303610e6e576001825403610e4557600282556111b8612f2a565b506111c282612b77565b6127109360017fffffffffffffffffffffffffffffffffffffffffffffffffffffffffffffffff95818188602435010401966044350104019060ff821160ff87111761124b5750611240947fc0003fffffffffffffffffffffffffffffffffffffffffffffffffffffffffff9160ee1b9060f61b1791161790612e38565b506100196001600455565b6011907f4e487b71000000000000000000000000000000000000000000000000000000006000525260246000fd5b50346103b35760006003193601126103b357600160045403610fe35760026004556112a5600654612bce565b506001600455005b50346103b35760206003193601126103b3576004356112cb816104b5565b600160045403610fe3576112e3906002600455612e07565b50506001600455005b50346103b35760a06003193601126103b35760043561130a816104b5565b60243590611317826104b5565b6044359160843567ffffffffffffffff81116103b35761133b903690600401610a50565b600160045403610fe35761148893600260045561146861135a85612e07565b6113668593929361393f565b3360005260205261145260406000209361143e6114136113ba8360ea1c6107ff16890260016127107fffffffffffffffffffffffffffffffffffffffffffffffffffffffffffffffff830104019015150290565b926113ce627fffff948260af1c86166126f0565b936114098260f51c8b0260016127107fffffffffffffffffffffffffffffffffffffffffffffffffffffffffffffffff830104019015150290565b9160c61c166126f0565b61143962ffffff988660561c8a169481818793106114d2575b039987603e1c16926126f0565b6126f0565b8087106114c5575b860395868933886139c8565b908160fe1c9160ae1c67ffffffffffffffff1690565b95906114738161077a565b15611492579361148294613395565b3261303b565b6100196001600455565b505090506114c0917f000000000000000000000000000000000000000000000000000000000000000061296e565b611482565b6114cd6125ba565b611446565b6114da6125ba565b61142c565b50346103b35760406003193601126103b357602435600435611500826104b5565b600160045403610fe35761049291600260045561151c8261281c565b916115498330337f00000000000000000000000000000000000000000000000000000000000000006128b7565b6115538183612708565b7fdcbc1c05240f31ff3ad067ef1ee35ce4997762752e3a095284754544f4c709d773ffffffffffffffffffffffffffffffffffffffff604051931692806115a93394878360209093929193604081019481520152565b0390a360016004556040519081529081906020820190565b50346103b35760006003193601126103b35761049261047e7f0000000000000000000000000000000000000000000000000000000000000000906040519160408301604052601f8360008152600060208201520152565b50346103b35760206003193601126103b357600435611636816104b5565b73ffffffffffffffffffffffffffffffffffffffff908160055416330361167857600160045403610fe357166000908152600760205260408120556001600455005b60046040517fb56f932c000000000000000000000000000000000000000000000000000000008152fd5b50346103b35760806003193601126103b357600480356024359073ffffffffffffffffffffffffffffffffffffffff60055416330361179757600183540361176e57600283556107d0808211908115611764575b50801561175c575b8015611754575b61172b5761171e92506064359160443591600654612a1f565b6006556100196001600455565b826040517f58015d35000000000000000000000000000000000000000000000000000000008152fd5b508115611705565b5080156116fe565b90508211386116f6565b826040517fab143c06000000000000000000000000000000000000000000000000000000008152fd5b826040517fb56f932c000000000000000000000000000000000000000000000000000000008152fd5b50346103b35760406003193601126103b3576004356117de816104b5565b73ffffffffffffffffffffffffffffffffffffffff60243591336000526001602052604060002083815481811061185e575b039055169081600052600160205260406000208181540190557fddf252ad1be2c89b69c2b068fc378daa952ba7f163c4a11628f55a4df523b3ef604051806106fa3394829190602083019252565b6118666125ba565b611810565b50346103b35760206003193601126103b357600435611889816104b5565b6005549073ffffffffffffffffffffffffffffffffffffffff9182811691823303611678576000937fffffffffffffffffffffffff000000000000000000000000000000000000000091169182604051947f5f56bee8cffbe9a78652a74a60705edede02af10b0bbb888ca44b79a0d42ce808787a31617600555f35b50346103b35760206003193601126103b35760206103ab60043561281c565b60031960609101126103b35760043590602435611940816104b5565b90604435610b2d816104b5565b50346103b35761195c36611924565b90600160045403610fe35761049292611a0c91600260045561197d8261283a565b9373ffffffffffffffffffffffffffffffffffffffff6119a78682841693843303611a165761276c565b60408051858152602081018890529184169133917ffbde797d201c681b91056529119e0b02407c7bb96a4a2c75c01fc9667232c8db9190819081015b0390a47f000000000000000000000000000000000000000000000000000000000000000061296e565b610fa96001600455565b84600052600260205281611a4e3360406000209073ffffffffffffffffffffffffffffffffffffffff16600052602052604060002090565b547fffffffffffffffffffffffffffffffffffffffffffffffffffffffffffffffff8103611a7e575b505061276c565b818110611abd575b03611ab5336107408473ffffffffffffffffffffffffffffffffffffffff166000526002602052604060002090565b558138611a77565b611ac56125ba565b611a86565b50346103b3576101006003193601126103b357600435611ae9816104b5565b60243590611af6826104b5565b67ffffffffffffffff916084358381116103b357611b18903690600401610a50565b60a43590611b25826104b5565b60e4359485116103b357611b40610019953690600401610a50565b9360c43593604435916130a9565b50346103b357611b5d36611924565b91600160045403610fe357600260045573ffffffffffffffffffffffffffffffffffffffff9283811692833303611bf2575b611b98836127fe565b938415610fb9576104929584611bb2611a0c96889661276c565b6040805186815260208101929092529184169133917ffbde797d201c681b91056529119e0b02407c7bb96a4a2c75c01fc9667232c8db91819081016119e3565b611c20336107408473ffffffffffffffffffffffffffffffffffffffff166000526002602052604060002090565b54837fffffffffffffffffffffffffffffffffffffffffffffffffffffffffffffffff8203611c51575b5050611b8f565b611c5a916125ea565b611c88336107408573ffffffffffffffffffffffffffffffffffffffff166000526002602052604060002090565b553883611c4a565b50346103b35760006003193601126103b35761012060405173ffffffffffffffffffffffffffffffffffffffff807f0000000000000000000000000000000000000000000000000000000000000000168252807f0000000000000000000000000000000000000000000000000000000000000000166020830152807f0000000000000000000000000000000000000000000000000000000000000000166040830152807f00000000000000000000000000000000000000000000000000000000000000001660608301527f000000000000000000000000000000000000000000000000000000000000000060808301527f000000000000000000000000000000000000000000000000000000000000000060a08301527f000000000000000000000000000000000000000000000000000000000000000060c08301527f000000000000000000000000000000000000000000000000000000000000000060e08301527f000000000000000000000000000000000000000000000000000000000000000016610100820152f35b50346103b35760206003193601126103b35760206103ab6004356127df565b50346103b35760206003193601126103b35773ffffffffffffffffffffffffffffffffffffffff600435611e6e816104b5565b16600052600160205260206103ab6040600020546127fe565b50346103b3576000806003193601126120db57600160045403610fe35760026004557f87e7f8f4a932b3698c2f33f1aa26915152670d9557f5413acef500dd0129d648611ed2612f2a565b50611f5f836120076020611ef48590630fffffff82601d1c81169260011c1690565b929095611f227ffffffffffffffffffffffffffffffffffffffffffffffffffe000000000000018216600655565b611f6b611f648654978893611f35612a9a565b611f44898d019b8c9283612859565b9503895560911c633fffffff16611f5a856132e9565b612d56565b613330565b6064900490565b611fcd73ffffffffffffffffffffffffffffffffffffffff7f00000000000000000000000000000000000000000000000000000000000000001692837f000000000000000000000000000000000000000000000000000000000000000061296e565b6040519586809481937ffe18d6e6000000000000000000000000000000000000000000000000000000008352600483019190602083019252565b03925af19182156120ce575b8692612094575b5061205e61202d83946120829484612859565b8094612059827f000000000000000000000000000000000000000000000000000000000000000061303b565b6125ea565b92604051948594859094939260609260808301968352602083015260408201520152565b0390a161208f6001600455565b604051f35b612082925061202d6120bf61205e9260203d81116120c7575b6120b78183610a02565b810190612ab8565b93505061201a565b503d6120ad565b6120d6612ac7565b612013565b80fd5b50346103b35760e06003193601126103b3576004356120fc816104b5565b602435612108816104b5565b6044356064359160843560ff8116036103b3574283106122c15773ffffffffffffffffffffffffffffffffffffffff808516916000958387526003602052604095868820908154917fffffffffffffffffffffffffffffffffffffffffffffffffffffffffffffffff83146122b4575b6001830190556080519060a05192895191612191612601565b917f6e71edae12b1b97f4d1f60370fef10105fa2faae0126114a169c64845d6126c98d526060600460203760805260a05260c08b20907f19010000000000000000000000000000000000000000000000000000000000008c5260025260225260428a208a526060608460203761221760208b60808160015afa8b51861486151516161590565b61228b57936107408194899461227c947f8c5be1e5ebec7d5bd14f71427d1e84f3dd0314c0f7b2291e5b200ac8c7c3b92599988e6060528d5260805260a05273ffffffffffffffffffffffffffffffffffffffff166000526002602052604060002090565b5585519485521692602090a351f35b600489517f815e1d64000000000000000000000000000000000000000000000000000000008152fd5b6122bc6125ba565b612178565b6040517fc4773cba00000000000000000000000000000000000000000000000000000000815260048101849052426024820152604490fd5b50346103b35760406003193601126103b357602061237060043561231c816104b5565b73ffffffffffffffffffffffffffffffffffffffff6024359161233e836104b5565b166000526002835260406000209073ffffffffffffffffffffffffffffffffffffffff16600052602052604060002090565b54604051908152f35b50346103b35760a06003193601126103b357600435612397816104b5565b6024356044359173ffffffffffffffffffffffffffffffffffffffff6123d260055473ffffffffffffffffffffffffffffffffffffffff1690565b166124a85761241c9073ffffffffffffffffffffffffffffffffffffffff167fffffffffffffffffffffffff00000000000000000000000000000000000000006005541617600555565b6124266001600455565b6107d080821190811561249e575b508015612496575b801561248e575b612464576100199161245f916084359160643591600654612a1f565b600655565b60046040517f58015d35000000000000000000000000000000000000000000000000000000008152fd5b508115612443565b50801561243c565b9050821138612434565b60046040517f0dc149f0000000000000000000000000000000000000000000000000000000008152fd5b50346103b3576124e136610ad3565b915092939150600160045403610fe35760026004556124ff8361393f565b8160005260205260406000209361251585613978565b90428260201c63ffffffff16101561258957916114889591849361253b61255f96612e07565b9788928360fe1c9760026000996125518161077a565b14612572575b505050613be7565b606e1c67ffffffffffffffff163261303b565b6125809398509087916135dd565b94388080612557565b602486604051907fd640f6990000000000000000000000000000000000000000000000000000000082526004820152fd5b507f4e487b7100000000000000000000000000000000000000000000000000000000600052601160045260246000fd5b8181106125f5570390565b6125fd6125ba565b0390565b467f00000000000000000000000000000000000000000000000000000000000000000361264c577f000000000000000000000000000000000000000000000000000000000000000090565b60a06040517f8b73c3c69bb8fe3d512ecc4cf759cc79239f7b179b0ffacaa9a75d522b39400f81527f000000000000000000000000000000000000000000000000000000000000000060208201527f000000000000000000000000000000000000000000000000000000000000000060408201524660608201527f000000000000000000000000000000000000000000000000000000000000000060808201522090565b811981116126fc570190565b6127046125ba565b0190565b7fddf252ad1be2c89b69c2b068fc378daa952ba7f163c4a11628f55a4df523b3ef602073ffffffffffffffffffffffffffffffffffffffff60009361274e8686546126f0565b855516938484526001825260408420818154019055604051908152a3565b907fddf252ad1be2c89b69c2b068fc378daa952ba7f163c4a11628f55a4df523b3ef602073ffffffffffffffffffffffffffffffffffffffff600094169283855260018252604085208181548181106127d2575b039055808554038555604051908152a3565b6127da6125ba565b6127c0565b600054806127eb575090565b90610b2d916127f8612a9a565b91612859565b6000548061280a575090565b610b2d91612816612a9a565b90612859565b60005480612828575090565b610b2d91612834612a9a565b90612871565b60005480612846575090565b90610b2d91612853612a9a565b91612871565b818102918183041490151782151516156103b3570490565b919091828102928184041490151781151516156103b3576001907fffffffffffffffffffffffffffffffffffffffffffffffffffffffffffffffff830104019015150290565b9060006064926020958295604051947f23b872dd0000000000000000000000000000000000000000000000000000000086526004860152602485015260448401525af13d15601f3d116001600051141617161561291057565b60646040517f08c379a000000000000000000000000000000000000000000000000000000000815260206004820152601460248201527f5452414e534645525f46524f4d5f4641494c45440000000000000000000000006044820152fd5b60009182604492602095604051937fa9059cbb000000000000000000000000000000000000000000000000000000008552600485015260248401525af13d15601f3d11600160005114161716156129c157565b60646040517f08c379a000000000000000000000000000000000000000000000000000000000815260206004820152600f60248201527f5452414e534645525f4641494c454400000000000000000000000000000000006044820152fd5b9392919091627fffff80851190821117612a6b577d03ffe000000000007fffffffffffffffffffffffffffffffffffffffffff9360af1b9060c61b179060ea1b179060f51b1791161790565b7f4e487b7100000000000000000000000000000000000000000000000000000000600052601160045260246000fd5b610b2d612aa5612ad4565b60065460391c64ffffffffff16906126f0565b908160209103126103b3575190565b506040513d6000823e3d90fd5b6040517f70a0823100000000000000000000000000000000000000000000000000000000815230600482015260208160248173ffffffffffffffffffffffffffffffffffffffff7f0000000000000000000000000000000000000000000000000000000000000000165afa908115612b6a575b600091612b52575090565b610b2d915060203d81116120c7576120b78183610a02565b612b72612ac7565b612b47565b73ffffffffffffffffffffffffffffffffffffffff166000526007602052604060002054908115612ba457565b60046040517f0286c71d000000000000000000000000000000000000000000000000000000008152fd5b6040517f50d25bcd00000000000000000000000000000000000000000000000000000000815260208160048173ffffffffffffffffffffffffffffffffffffffff7f0000000000000000000000000000000000000000000000000000000000000000165afa908115612cf9575b600091612cdb575b508015612cac577ffaa0fe93e7697fe9613c53679cbe78217d19f8eed73c03ecdc72fa24595969a1906a52b7d2dcc80cd2e40000000491612c8f612c85612d60565b9182854292612d06565b92612c9984600655565b604080519182526020820192909252a190565b7f4e487b7100000000000000000000000000000000000000000000000000000000600052601260045260246000fd5b612cf3915060203d81116120c7576120b78183610a02565b38612c43565b612d01612ac7565b612c3b565b929163ffffffff831161ffff821117633fffffff831117612a6b577fffffffffffffffffffff80000000000000000001ffffffffffffffffffffffff9260611b9060811b179060911b1791161790565b8115612cac570490565b633b9aca006040517f50d25bcd00000000000000000000000000000000000000000000000000000000815260208160048173ffffffffffffffffffffffffffffffffffffffff7f0000000000000000000000000000000000000000000000000000000000000000165afa908115612dfa575b600091612dde57500490565b612df6915060203d81116120c7576120b78183610a02565b0490565b612e02612ac7565b612dd2565b90612e10612f2a565b91909283612e1d82612b77565b9384601e1c63ffffffff1610612e31575050565b92610b2d92935b612e8f909291928360ee1c60ff16908460f61c60ff1691928160911c633fffffff169160811c61ffff16809302926509184e72a0008091818602960281810295670de0b6b3a7640000938491870202049402020490565b909492909167ffffffffffffffff80831190821162ffffff80891190861163ffffffff421117171717612a6b57612f26957fffffc0000000000000000000000000000000000000000000000000003fffffff9342601e1b90603e1b179060561b1790606e1b179060ae1b1791161791829173ffffffffffffffffffffffffffffffffffffffff166000526007602052604060002090565b5590565b600654908160611c63ffffffff1690814210612f79575b7f000000000000000000000000000000000000000000000000000000000000000082420311612f6c57565b91612f7690612bce565b91565b612f816125ba565b612f41565b908160209103126103b35751610b2d816104b5565b90949392612fcc60609373ffffffffffffffffffffffffffffffffffffffff608085019816845260208401906107b3565b60408201520152565b9695909594919493929362ffffff67ffffffffffffffff9063ffffffff83118185111790851117818611179086111760ff87111760ff881117612a6b57601e1b90603e1b179060561b1790606e1b179060ae1b179060ee1b179060f61b179060fe1b1790565b600080809381935af11561304b57565b60646040517f08c379a000000000000000000000000000000000000000000000000000000000815260206004820152601360248201527f4554485f5452414e534645525f4641494c4544000000000000000000000000006044820152fd5b929594939093600160045403610fe3576131949660209661255f9660026004556130d287612e07565b9990946130de8561393f565b976131036130ea613208565b73ffffffffffffffffffffffffffffffffffffffff1690565b9060008a613140604051988996879586947f159ab14d000000000000000000000000000000000000000000000000000000008652600486016131e5565b03925af19182156131d8575b6000926131b8575b50819660026131708b60fe1c9888600052602052604060002090565b9761317a8161077a565b146131a0575b505050508561318e84613978565b91613be7565b61319e6001600455565b565b6131ae949750908691613799565b9238808080613180565b6131d191925060203d81116120c7576120b78183610a02565b9038613154565b6131e0612ac7565b61314c565b9092608092610b2d959483526020830152604082015281606082015201906103b8565b6040517f1b95e30500000000000000000000000000000000000000000000000000000000815260208160248173ffffffffffffffffffffffffffffffffffffffff807f00000000000000000000000000000000000000000000000000000000000000001660048301527f0000000000000000000000000000000000000000000000000000000000000000165afa9081156132dc575b6000916132a8575090565b906020823d82116132d4575b816132c160209383610a02565b810103126120db575051610b2d816104b5565b3d91506132b4565b6132e4612ac7565b61329d565b670de0b6b3a764000090807fffffffffffffffffffffffffffffffffffffffffffffffffffffffffffffffff04821181151516613324570290565b61332c6125ba565b0290565b606290807fffffffffffffffffffffffffffffffffffffffffffffffffffffffffffffffff04821181151516613324570290565b807fffffffffffffffffffffffffffffffffffffffffffffffffffffffffffffffff04821181151516613324570290565b9390939291927fffffffffffffffffffffffffffffffffffffffffffffffffffffffffffffffe0820180517fffffffffffffffffffffffffffffffffffffffffffffffffffffffffffffffc084018051917fffffffffffffffffffffffffffffffffffffffffffffffffffffffffffffffa08601938451957fffffffffffffffffffffffffffffffffffffffffffffffffffffffffffffff8088019761353b818a519b7fffffffffffffffffffffffffffffffffffffffffffffffffffffffffffffff6082019d8e519f907fffffffffffffffffffffffffffffffffffffffffffffffffffffffffffffffe092608094927f332b578c000000000000000000000000000000000000000000000000000000007fffffffffffffffffffffffffffffffffffffffffffffffffffffffffffffff7c8501527fffffffffffffffffffffffffffffffffffffffffffffffffffffffffffffff808401527fffffffffffffffffffffffffffffffffffffffffffffffffffffffffffffffa08301527fffffffffffffffffffffffffffffffffffffffffffffffffffffffffffffffc08201520152565b80519060008060a484017fffffffffffffffffffffffffffffffffffffffffffffffffffffffffffffff7c8401865af41561357a575050505252525252565b8b933d6135d35760c4937fffffffffffffffffffffffffffffffffffffffffffffffffffffffffffffff5c60a09301957f83f44e2200000000000000000000000000000000000000000000000000000000875252520190fd5b3d6000803e3d6000fd5b7fffffffffffffffffffffffffffffffffffffffffffffffffffffffffffffffe0840180517fffffffffffffffffffffffffffffffffffffffffffffffffffffffffffffffc0860180517fffffffffffffffffffffffffffffffffffffffffffffffffffffffffffffffa0880180517fffffffffffffffffffffffffffffffffffffffffffffffffffffffffffffff808a0180517fffffffffffffffffffffffffffffffffffffffffffffffffffffffffffffff608c0180517f2584dde8000000000000000000000000000000000000000000000000000000007fffffffffffffffffffffffffffffffffffffffffffffffffffffffffffffff7c8f01529a8352600085529a865260808852969b9a989998969790969195929492915b8051906020600060a484017fffffffffffffffffffffffffffffffffffffffffffffffffffffffffffffff7c8401865af41561373e575050506000519a5252525252565b8a93508d3d6135d35760c4937fffffffffffffffffffffffffffffffffffffffffffffffffffffffffffffff5c60a09301957f0ccaea8800000000000000000000000000000000000000000000000000000000875252520190fd5b94939290927fffffffffffffffffffffffffffffffffffffffffffffffffffffffffffffffe081019586517fffffffffffffffffffffffffffffffffffffffffffffffffffffffffffffffc083018051907fffffffffffffffffffffffffffffffffffffffffffffffffffffffffffffffa08501928351947fffffffffffffffffffffffffffffffffffffffffffffffffffffffffffffff808701966136fa8189519a7fffffffffffffffffffffffffffffffffffffffffffffffffffffffffffffff6082019c8d519e907fffffffffffffffffffffffffffffffffffffffffffffffffffffffffffffffe092608094927f2584dde8000000000000000000000000000000000000000000000000000000007fffffffffffffffffffffffffffffffffffffffffffffffffffffffffffffff7c8501527fffffffffffffffffffffffffffffffffffffffffffffffffffffffffffffff808401527fffffffffffffffffffffffffffffffffffffffffffffffffffffffffffffffa08301527fffffffffffffffffffffffffffffffffffffffffffffffffffffffffffffffc08201520152565b90604051916080519060a051906020815191012060a052306000526080600460203760c06000209160805260a052600060605291604052565b9081600052600860205260406000209160008354935582156139975750565b602490604051907f1fa8ef9a0000000000000000000000000000000000000000000000000000000082526004820152fd5b95949193613a47613a31613a4c929593956139e28161283a565b956139ff61245f600654888160391c64ffffffffff160190613b6f565b613a297f0000000000000000000000000000000000000000000000000000000000000000426126f0565b918688613ba7565b6000898152600860205260409020805491905590565b151590565b613b3d5790613b38917fde636d638630facb15ec6c1d7316206e1f6f4ab5ff6d1deca5d52207f567a3349596613aa28573ffffffffffffffffffffffffffffffffffffffff166000526001602052604060002090565b613aad8482546125ea565b9055604051838152309073ffffffffffffffffffffffffffffffffffffffff8716907fddf252ad1be2c89b69c2b068fc378daa952ba7f163c4a11628f55a4df523b3ef90602090a36040519586958691959493909260809360a084019773ffffffffffffffffffffffffffffffffffffffff8092168552166020840152604083015260608201520152565b0390a1565b6040517f4e435beb00000000000000000000000000000000000000000000000000000000815260048101879052602490fd5b9064ffffffffff8111612a6b577ffffffffffffffffffffffffffffffffffffffffe0000000001ffffffffffffff9060391b91161790565b9392909265ffffffffffff63ffffffff821181841117818511178186111790861117612a6b5760201b9060401b179060701b179060a01b179060d01b1790565b7f6d5b31efac20a15ed5b9e27e38cf9ebcc3ffb6d64feb827a35ef84a607e8dfaf959493613b389360009360d082901c9388938565ffffffffffff607086901c16808710613cf3575b50509161245f9391613c49959387613c6c575b50613d61565b604051948594859094939260609260808301968352602083015260408201520152565b613c968173ffffffffffffffffffffffffffffffffffffffff166000526001602052604060002090565b88815401905573ffffffffffffffffffffffffffffffffffffffff6040519116907fddf252ad1be2c89b69c2b068fc378daa952ba7f163c4a11628f55a4df523b3ef309180613cea8c829190602083019252565b0390a338613c43565b8694929850819750613d0e9061245f969492613c4998612859565b8097039788600054036000556000897fddf252ad1be2c89b69c2b068fc378daa952ba7f163c4a11628f55a4df523b3ef60405180613d523094829190602083019252565b0390a391939581939550613c30565b92919265ffffffffffff928460401c841692613e2a613d8882603e1c62ffffff16866126f0565b92613e2184613e1b613df6670de0b6b3a7640000968a7fffffffffffffffffffffffffffffffffffffffffffffffffffffffffffffffff0488118b151516613f08575b613de2633fffffff9b898d8d60911c169102612d56565b90606e1c67ffffffffffffffff16906126f0565b99613e02839b476126f0565b9b60a01c1697888160391c64ffffffffff160390613b6f565b966126f0565b80820391110290565b938415613efe57610b2d967f0000000000000000000000000000000000000000000000000000000000000000808210613e68575b5050505050613f15565b613eee9496959750613e8a9291613e7e916125ea565b908760911c1690613364565b04613ee27f0000000000000000000000000000000000000000000000000000000000000000840260016127107fffffffffffffffffffffffffffffffffffffffffffffffffffffffffffffffff830104019015150290565b90818082039110020190565b8091039101913880808080613e5e565b5050509250505090565b613f106125ba565b613dcb565b9161402f90614004613f5e613fcc948660dd1c611fff160260016127107fffffffffffffffffffffffffffffffffffffffffffffffffffffffffffffffff830104019015150290565b917f33606f55cc4811d64af1eb45ebbd45461a59595ceb4bd4fcdbe49b63e08ed619613f9c613f8b612ad4565b8860391c64ffffffffff16906126f0565b613fa685846126f0565b90818110614070575b0360005492613ff1613fc2838684612859565b9889938689612859565b8097604051948594859094939260609260808301968352602083015260408201520152565b0390a1613ffe83866126f0565b906126f0565b6000556140296140228590630fffffff82601d1c81169260011c1690565b94906126f0565b926126f0565b90630fffffff80831190821117612a6b577ffffffffffffffffffffffffffffffffffffffffffffffffffe000000000000019160011b90601d1b1791161790565b6140786125ba565b613faf56fea2646970667358221220ec5972a41905c482067f2e6f6c0b3f115de8485127d01dcfedda2b5496e6d0b164736f6c634300080f0033",
    "linkReferences": {}
  },
  "methodIdentifiers": {
    "DOMAIN_SEPARATOR()": "3644e515",
    "addModule(address,uint8,uint256,uint256)": "5172b363",
    "allowance(address,address)": "dd62ed3e",
    "approve(address,uint256)": "095ea7b3",
    "asset()": "38d52e0f",
    "balanceOf(address)": "70a08231",
    "calculateLoanId(address,address,uint256,uint256,bytes,address)": "421f0f63",
    "closeExpiredLoan(address,address,uint256,uint256,bytes,address)": "fbaaa57a",
    "convertToAssets(uint256)": "07a2d13a",
    "convertToShares(uint256)": "c6e6f592",
    "decimals()": "313ce567",
    "deposit(uint256,address)": "6e553f65",
    "earn()": "d389800f",
    "getConfig()": "c3f909d4",
    "getGlobalState()": "743faee2",
    "getModuleState(address)": "2e27c8de",
    "getOutstandingLoan(uint256)": "40d7b88b",
    "governance()": "5aa6e675",
    "initialize(address,uint256,uint256,uint256,uint256)": "f92ad219",
    "loan(address,address,uint256,uint256,bytes)": "92cc8bec",
    "maxDeposit(address)": "402d267d",
    "maxMint(address)": "c63d75b6",
    "maxRedeem(address)": "d905777e",
    "maxWithdraw(address)": "ce96cb77",
    "mint(uint256,address)": "94bf804d",
    "name()": "06fdde03",
    "nonces(address)": "7ecebe00",
    "permit(address,address,uint256,uint256,uint8,bytes32,bytes32)": "d505accf",
    "pokeGlobalCache()": "888903e8",
    "pokeModuleCache(address)": "911e0b91",
    "previewDeposit(uint256)": "ef8b30f7",
    "previewMint(uint256)": "b3d7f6b9",
    "previewRedeem(uint256)": "4cdad506",
    "previewWithdraw(uint256)": "0a28a477",
    "redeem(uint256,address,address)": "ba087652",
    "removeModule(address)": "a0632461",
    "repay(address,address,uint256,uint256,bytes,address,bytes32,bytes)": "b9bad0f2",
    "setGlobalFees(uint256,uint256,uint256,uint256)": "a7c18d3e",
    "setGovernance(address)": "ab033ea9",
    "setModuleGasFees(address,uint256,uint256)": "85cd78d1",
    "symbol()": "95d89b41",
    "totalAssets()": "01e1d114",
    "totalSupply()": "18160ddd",
    "transfer(address,uint256)": "a9059cbb",
    "transferFrom(address,address,uint256)": "23b872dd",
    "withdraw(uint256,address,address)": "b460af94"
  },
  "id": 53
}