{
  "abi": [
    {
      "anonymous": false,
      "inputs": [
        {
          "indexed": false,
          "internalType": "bytes",
          "name": "_to",
          "type": "bytes"
        },
        {
          "indexed": false,
          "internalType": "uint256",
          "name": "_amount",
          "type": "uint256"
        },
        {
          "indexed": true,
          "internalType": "uint256",
          "name": "_n",
          "type": "uint256"
        },
        {
          "indexed": true,
          "internalType": "bytes",
          "name": "_indexedTo",
          "type": "bytes"
        }
      ],
      "name": "LogBurn",
      "type": "event"
    },
    {
      "anonymous": false,
      "inputs": [
        {
          "indexed": true,
          "internalType": "address",
          "name": "_to",
          "type": "address"
        },
        {
          "indexed": false,
          "internalType": "uint256",
          "name": "_amount",
          "type": "uint256"
        },
        {
          "indexed": true,
          "internalType": "uint256",
          "name": "_n",
          "type": "uint256"
        },
        {
          "indexed": true,
          "internalType": "bytes32",
          "name": "_signedMessageHash",
          "type": "bytes32"
        }
      ],
      "name": "LogMint",
      "type": "event"
    },
    {
      "anonymous": false,
      "inputs": [
        {
          "indexed": true,
          "internalType": "address",
          "name": "_newMintAuthority",
          "type": "address"
        }
      ],
      "name": "LogMintAuthorityUpdated",
      "type": "event"
    },
    {
      "anonymous": false,
      "inputs": [
        {
          "indexed": true,
          "internalType": "address",
          "name": "previousOwner",
          "type": "address"
        },
        {
          "indexed": true,
          "internalType": "address",
          "name": "newOwner",
          "type": "address"
        }
      ],
      "name": "OwnershipTransferred",
      "type": "event"
    },
    {
      "constant": false,
      "inputs": [
        {
          "internalType": "address",
          "name": "_token",
          "type": "address"
        }
      ],
      "name": "blacklistRecoverableToken",
      "outputs": [],
      "payable": false,
      "stateMutability": "nonpayable",
      "type": "function"
    },
    {
      "constant": false,
      "inputs": [
        {
          "internalType": "bytes",
          "name": "_to",
          "type": "bytes"
        },
        {
          "internalType": "uint256",
          "name": "_amount",
          "type": "uint256"
        }
      ],
      "name": "burn",
      "outputs": [
        {
          "internalType": "uint256",
          "name": "",
          "type": "uint256"
        }
      ],
      "payable": false,
      "stateMutability": "nonpayable",
      "type": "function"
    },
    {
      "constant": true,
      "inputs": [],
      "name": "burnFee",
      "outputs": [
        {
          "internalType": "uint16",
          "name": "",
          "type": "uint16"
        }
      ],
      "payable": false,
      "stateMutability": "view",
      "type": "function"
    },
    {
      "constant": false,
      "inputs": [],
      "name": "claimOwnership",
      "outputs": [],
      "payable": false,
      "stateMutability": "nonpayable",
      "type": "function"
    },
    {
      "constant": false,
      "inputs": [],
      "name": "claimTokenOwnership",
      "outputs": [],
      "payable": false,
      "stateMutability": "nonpayable",
      "type": "function"
    },
    {
      "constant": true,
      "inputs": [],
      "name": "feeRecipient",
      "outputs": [
        {
          "internalType": "address",
          "name": "",
          "type": "address"
        }
      ],
      "payable": false,
      "stateMutability": "view",
      "type": "function"
    },
    {
      "constant": true,
      "inputs": [
        {
          "internalType": "bytes32",
          "name": "_pHash",
          "type": "bytes32"
        },
        {
          "internalType": "uint256",
          "name": "_amount",
          "type": "uint256"
        },
        {
          "internalType": "address",
          "name": "_to",
          "type": "address"
        },
        {
          "internalType": "bytes32",
          "name": "_nHash",
          "type": "bytes32"
        }
      ],
      "name": "hashForSignature",
      "outputs": [
        {
          "internalType": "bytes32",
          "name": "",
          "type": "bytes32"
        }
      ],
      "payable": false,
      "stateMutability": "view",
      "type": "function"
    },
    {
      "constant": false,
      "inputs": [
        {
          "internalType": "contract RenERC20LogicV1",
          "name": "_token",
          "type": "address"
        },
        {
          "internalType": "address",
          "name": "_feeRecipient",
          "type": "address"
        },
        {
          "internalType": "address",
          "name": "_mintAuthority",
          "type": "address"
        },
        {
          "internalType": "uint16",
          "name": "_mintFee",
          "type": "uint16"
        },
        {
          "internalType": "uint16",
          "name": "_burnFee",
          "type": "uint16"
        },
        {
          "internalType": "uint256",
          "name": "_minimumBurnAmount",
          "type": "uint256"
        }
      ],
      "name": "initialize",
      "outputs": [],
      "payable": false,
      "stateMutability": "nonpayable",
      "type": "function"
    },
    {
      "constant": false,
      "inputs": [
        {
          "internalType": "address",
          "name": "_nextOwner",
          "type": "address"
        }
      ],
      "name": "initialize",
      "outputs": [],
      "payable": false,
      "stateMutability": "nonpayable",
      "type": "function"
    },
    {
      "constant": true,
      "inputs": [],
      "name": "isOwner",
      "outputs": [
        {
          "internalType": "bool",
          "name": "",
          "type": "bool"
        }
      ],
      "payable": false,
      "stateMutability": "view",
      "type": "function"
    },
    {
      "constant": true,
      "inputs": [],
      "name": "minimumBurnAmount",
      "outputs": [
        {
          "internalType": "uint256",
          "name": "",
          "type": "uint256"
        }
      ],
      "payable": false,
      "stateMutability": "view",
      "type": "function"
    },
    {
      "constant": false,
      "inputs": [
        {
          "internalType": "bytes32",
          "name": "_pHash",
          "type": "bytes32"
        },
        {
          "internalType": "uint256",
          "name": "_amountUnderlying",
          "type": "uint256"
        },
        {
          "internalType": "bytes32",
          "name": "_nHash",
          "type": "bytes32"
        },
        {
          "internalType": "bytes",
          "name": "_sig",
          "type": "bytes"
        }
      ],
      "name": "mint",
      "outputs": [
        {
          "internalType": "uint256",
          "name": "",
          "type": "uint256"
        }
      ],
      "payable": false,
      "stateMutability": "nonpayable",
      "type": "function"
    },
    {
      "constant": true,
      "inputs": [],
      "name": "mintAuthority",
      "outputs": [
        {
          "internalType": "address",
          "name": "",
          "type": "address"
        }
      ],
      "payable": false,
      "stateMutability": "view",
      "type": "function"
    },
    {
      "constant": true,
      "inputs": [],
      "name": "mintFee",
      "outputs": [
        {
          "internalType": "uint16",
          "name": "",
          "type": "uint16"
        }
      ],
      "payable": false,
      "stateMutability": "view",
      "type": "function"
    },
    {
      "constant": true,
      "inputs": [],
      "name": "nextN",
      "outputs": [
        {
          "internalType": "uint256",
          "name": "",
          "type": "uint256"
        }
      ],
      "payable": false,
      "stateMutability": "view",
      "type": "function"
    },
    {
      "constant": true,
      "inputs": [],
      "name": "owner",
      "outputs": [
        {
          "internalType": "address",
          "name": "",
          "type": "address"
        }
      ],
      "payable": false,
      "stateMutability": "view",
      "type": "function"
    },
    {
      "constant": true,
      "inputs": [],
      "name": "pendingOwner",
      "outputs": [
        {
          "internalType": "address",
          "name": "",
          "type": "address"
        }
      ],
      "payable": false,
      "stateMutability": "view",
      "type": "function"
    },
    {
      "constant": false,
      "inputs": [
        {
          "internalType": "address",
          "name": "_token",
          "type": "address"
        }
      ],
      "name": "recoverTokens",
      "outputs": [],
      "payable": false,
      "stateMutability": "nonpayable",
      "type": "function"
    },
    {
      "constant": false,
      "inputs": [],
      "name": "renounceOwnership",
      "outputs": [],
      "payable": false,
      "stateMutability": "nonpayable",
      "type": "function"
    },
    {
      "constant": true,
      "inputs": [
        {
          "internalType": "bytes32",
          "name": "",
          "type": "bytes32"
        }
      ],
      "name": "status",
      "outputs": [
        {
          "internalType": "bool",
          "name": "",
          "type": "bool"
        }
      ],
      "payable": false,
      "stateMutability": "view",
      "type": "function"
    },
    {
      "constant": true,
      "inputs": [],
      "name": "token",
      "outputs": [
        {
          "internalType": "contract RenERC20LogicV1",
          "name": "",
          "type": "address"
        }
      ],
      "payable": false,
      "stateMutability": "view",
      "type": "function"
    },
    {
      "constant": false,
      "inputs": [
        {
          "internalType": "address",
          "name": "newOwner",
          "type": "address"
        }
      ],
      "name": "transferOwnership",
      "outputs": [],
      "payable": false,
      "stateMutability": "nonpayable",
      "type": "function"
    },
    {
      "constant": false,
      "inputs": [
        {
          "internalType": "contract GatewayLogicV1",
          "name": "_nextTokenOwner",
          "type": "address"
        }
      ],
      "name": "transferTokenOwnership",
      "outputs": [],
      "payable": false,
      "stateMutability": "nonpayable",
      "type": "function"
    },
    {
      "constant": false,
      "inputs": [
        {
          "internalType": "uint16",
          "name": "_nextBurnFee",
          "type": "uint16"
        }
      ],
      "name": "updateBurnFee",
      "outputs": [],
      "payable": false,
      "stateMutability": "nonpayable",
      "type": "function"
    },
    {
      "constant": false,
      "inputs": [
        {
          "internalType": "address",
          "name": "_nextFeeRecipient",
          "type": "address"
        }
      ],
      "name": "updateFeeRecipient",
      "outputs": [],
      "payable": false,
      "stateMutability": "nonpayable",
      "type": "function"
    },
    {
      "constant": false,
      "inputs": [
        {
          "internalType": "uint256",
          "name": "_minimumBurnAmount",
          "type": "uint256"
        }
      ],
      "name": "updateMinimumBurnAmount",
      "outputs": [],
      "payable": false,
      "stateMutability": "nonpayable",
      "type": "function"
    },
    {
      "constant": false,
      "inputs": [
        {
          "internalType": "address",
          "name": "_nextMintAuthority",
          "type": "address"
        }
      ],
      "name": "updateMintAuthority",
      "outputs": [],
      "payable": false,
      "stateMutability": "nonpayable",
      "type": "function"
    },
    {
      "constant": false,
      "inputs": [
        {
          "internalType": "uint16",
          "name": "_nextMintFee",
          "type": "uint16"
        }
      ],
      "name": "updateMintFee",
      "outputs": [],
      "payable": false,
      "stateMutability": "nonpayable",
      "type": "function"
    },
    {
      "constant": true,
      "inputs": [
        {
          "internalType": "bytes32",
          "name": "",
          "type": "bytes32"
        },
        {
          "internalType": "bytes",
          "name": "",
          "type": "bytes"
        }
      ],
      "name": "verifySignature",
      "outputs": [
        {
          "internalType": "bool",
          "name": "",
          "type": "bool"
        }
      ],
      "payable": false,
      "stateMutability": "view",
      "type": "function"
    }
  ],
  "bytecode": {
    "object": "0x60806040526000606d55613689806100186000396000f3fe608060405234801561001057600080fd5b50600436106101cf5760003560e01c8063715018a611610104578063c4d66de8116100a2578063f2fde38b11610071578063f2fde38b146106bf578063f65d901c146106f2578063fc0c546a14610725578063fce589d81461072d576101cf565b8063c4d66de8146105a4578063daca6f78146105d7578063e30c397814610684578063f160d3691461068c576101cf565b80639340b21e116100de5780639340b21e1461052f57806394c238ac14610537578063a2999beb1461053f578063aa4df9ad1461059c576101cf565b8063715018a6146105175780638da5cb5b1461051f5780638f32d59b14610527576101cf565b80633a521b8d116101715780635219a5661161014b5780635219a5661461045f57806352ad0d5e146104a457806359c9176c146104d55780635cc66106146104f6576101cf565b80633a521b8d1461040957806346904840146104265780634e71e0c814610457576101cf565b8063159ab14d116101ad578063159ab14d1461023057806316114acd146102fb57806321e6b53d1461032e57806338463cff14610361576101cf565b80630130a33b146101d457806310731a651461020957806313966db514610211575b600080fd5b610207600480360360208110156101ea57600080fd5b503573ffffffffffffffffffffffffffffffffffffffff16610735565b005b6102076108c3565b610219610947565b6040805161ffff9092168252519081900360200190f35b6102e96004803603608081101561024657600080fd5b8135916020810135916040820135919081019060808101606082013564010000000081111561027457600080fd5b82018360208201111561028657600080fd5b803590602001918460018302840111640100000000831117156102a857600080fd5b91908080601f016020809104026020016040519081016040528093929190818152602001838380828437600092019190915250929550610969945050505050565b60408051918252519081900360200190f35b6102076004803603602081101561031157600080fd5b503573ffffffffffffffffffffffffffffffffffffffff16610ef7565b6102076004803603602081101561034457600080fd5b503573ffffffffffffffffffffffffffffffffffffffff166110fb565b6102e96004803603604081101561037757600080fd5b81019060208101813564010000000081111561039257600080fd5b8201836020820111156103a457600080fd5b803590602001918460018302840111640100000000831117156103c657600080fd5b91908080601f016020809104026020016040519081016040528093929190818152602001838380828437600092019190915250929550509135925061125d915050565b6102076004803603602081101561041f57600080fd5b50356116b0565b61042e611728565b6040805173ffffffffffffffffffffffffffffffffffffffff9092168252519081900360200190f35b610207611744565b6102e96004803603608081101561047557600080fd5b5080359060208101359073ffffffffffffffffffffffffffffffffffffffff604082013516906060013561181d565b6104c1600480360360208110156104ba57600080fd5b503561187a565b604080519115158252519081900360200190f35b610207600480360360208110156104eb57600080fd5b503561ffff1661188f565b6102076004803603602081101561050c57600080fd5b503561ffff16611951565b610207611a11565b61042e611af3565b6104c1611b0f565b61042e611b4f565b6102e9611b6b565b610207600480360360c081101561055557600080fd5b5073ffffffffffffffffffffffffffffffffffffffff813581169160208101358216916040820135169061ffff606082013581169160808101359091169060a00135611b71565b6102e9611d80565b610207600480360360208110156105ba57600080fd5b503573ffffffffffffffffffffffffffffffffffffffff16611d86565b6104c1600480360360408110156105ed57600080fd5b8135919081019060408101602082013564010000000081111561060f57600080fd5b82018360208201111561062157600080fd5b8035906020019184600183028401116401000000008311171561064357600080fd5b91908080601f016020809104026020016040519081016040528093929190818152602001838380828437600092019190915250929550611ea4945050505050565b61042e611eac565b610207600480360360208110156106a257600080fd5b503573ffffffffffffffffffffffffffffffffffffffff16611ec8565b610207600480360360208110156106d557600080fd5b503573ffffffffffffffffffffffffffffffffffffffff16611fee565b6102076004803603602081101561070857600080fd5b503573ffffffffffffffffffffffffffffffffffffffff16612171565b61042e612233565b61021961224f565b606a5473ffffffffffffffffffffffffffffffffffffffff1633148061078d575061075e611af3565b73ffffffffffffffffffffffffffffffffffffffff163373ffffffffffffffffffffffffffffffffffffffff16145b6107e2576040517f08c379a00000000000000000000000000000000000000000000000000000000081526004018080602001828103825260328152602001806134d36032913960400191505060405180910390fd5b73ffffffffffffffffffffffffffffffffffffffff811661084e576040517f08c379a00000000000000000000000000000000000000000000000000000000081526004018080602001828103825260348152602001806135396034913960400191505060405180910390fd5b606a80547fffffffffffffffffffffffff00000000000000000000000000000000000000001673ffffffffffffffffffffffffffffffffffffffff83811691909117918290556040519116907ff0f08e606c1dd3a2c220ada53422fd9fe0aa75614b27db0549f649de3ad2072a90600090a250565b606960009054906101000a900473ffffffffffffffffffffffffffffffffffffffff1673ffffffffffffffffffffffffffffffffffffffff16634e71e0c86040518163ffffffff1660e01b8152600401600060405180830381600087803b15801561092d57600080fd5b505af1158015610941573d6000803e3d6000fd5b50505050565b606b5474010000000000000000000000000000000000000000900461ffff1681565b6000806109788686338761181d565b6000818152606c602052604090205490915060ff16156109e3576040517f08c379a000000000000000000000000000000000000000000000000000000000815260040180806020018281038252602181526020018061360a6021913960400191505060405180910390fd5b6109ed8184611ea4565b610b7657610ad860405180606001604052806023815260200161348660239139610a1688612273565b6040518060400160405280600a81526020017f2c20616d6f756e743a2000000000000000000000000000000000000000000000815250610a558961249e565b6040518060400160405280600e81526020017f2c206d73672e73656e6465723a20000000000000000000000000000000000000815250610a94336125b1565b6040518060400160405280600a81526020017f2c205f6e486173683a2000000000000000000000000000000000000000000000815250610ad38c612273565b6127ee565b6040517f08c379a00000000000000000000000000000000000000000000000000000000081526004018080602001828103825283818151815260200191508051906020019080838360005b83811015610b3b578181015183820152602001610b23565b50505050905090810190601f168015610b685780820380516001836020036101000a031916815260200191505b509250505060405180910390fd5b6000818152606c6020908152604080832080547fffffffffffffffffffffffffffffffffffffffffffffffffffffffffffffff0016600117905560695481517fa173b2f6000000000000000000000000000000000000000000000000000000008152600481018a9052915173ffffffffffffffffffffffffffffffffffffffff9091169263a173b2f69260248082019391829003018186803b158015610c1b57600080fd5b505afa158015610c2f573d6000803e3d6000fd5b505050506040513d6020811015610c4557600080fd5b5051606b54909150600090610c8b9061271090610c7f90859074010000000000000000000000000000000000000000900461ffff16612c2d565b9063ffffffff612ca716565b90506000610cd9826040518060400160405280601b81526020017f476174657761793a20666565206578636565647320616d6f756e74000000000081525085612ce99092919063ffffffff16565b606954604080517f40c10f1900000000000000000000000000000000000000000000000000000000815233600482015260248101849052905192935073ffffffffffffffffffffffffffffffffffffffff909116916340c10f199160448082019260009290919082900301818387803b158015610d5557600080fd5b505af1158015610d69573d6000803e3d6000fd5b5050606954606b54604080517f40c10f1900000000000000000000000000000000000000000000000000000000815273ffffffffffffffffffffffffffffffffffffffff92831660048201526024810188905290519190921693506340c10f199250604480830192600092919082900301818387803b158015610deb57600080fd5b505af1158015610dff573d6000803e3d6000fd5b5050606954604080517feb438fc20000000000000000000000000000000000000000000000000000000081526004810186905290516000945073ffffffffffffffffffffffffffffffffffffffff909216925063eb438fc2916024808301926020929190829003018186803b158015610e7757600080fd5b505afa158015610e8b573d6000803e3d6000fd5b505050506040513d6020811015610ea157600080fd5b5051606d54604080518381529051929350879233917fa58ba939eb08dab7eaf8ad09c16e7405ee88e5153e15da62d5481296a9f727fa919081900360200190a450606d8054600101905598975050505050505050565b610eff611b0f565b610f6a57604080517f08c379a000000000000000000000000000000000000000000000000000000000815260206004820181905260248201527f4f776e61626c653a2063616c6c6572206973206e6f7420746865206f776e6572604482015290519081900360640190fd5b73ffffffffffffffffffffffffffffffffffffffff811660009081526067602052604090205460ff1615610fe9576040517f08c379a000000000000000000000000000000000000000000000000000000000815260040180806020018281038252602a8152602001806134a9602a913960400191505060405180910390fd5b73ffffffffffffffffffffffffffffffffffffffff81166110365760405133904780156108fc02916000818181858888f19350505050158015611030573d6000803e3d6000fd5b506110f8565b604080517f70a0823100000000000000000000000000000000000000000000000000000000815230600482015290516110f891339173ffffffffffffffffffffffffffffffffffffffff8516916370a08231916024808301926020929190829003018186803b1580156110a857600080fd5b505afa1580156110bc573d6000803e3d6000fd5b505050506040513d60208110156110d257600080fd5b505173ffffffffffffffffffffffffffffffffffffffff8416919063ffffffff612d5d16565b50565b611103611b0f565b61116e57604080517f08c379a000000000000000000000000000000000000000000000000000000000815260206004820181905260248201527f4f776e61626c653a2063616c6c6572206973206e6f7420746865206f776e6572604482015290519081900360640190fd5b606954604080517ff2fde38b00000000000000000000000000000000000000000000000000000000815273ffffffffffffffffffffffffffffffffffffffff84811660048301529151919092169163f2fde38b91602480830192600092919082900301818387803b1580156111e257600080fd5b505af11580156111f6573d6000803e3d6000fd5b505050508073ffffffffffffffffffffffffffffffffffffffff166310731a656040518163ffffffff1660e01b8152600401600060405180830381600087803b15801561124257600080fd5b505af1158015611256573d6000803e3d6000fd5b5050505050565b60008251600014156112d057604080517f08c379a000000000000000000000000000000000000000000000000000000000815260206004820152601c60248201527f476174657761793a20746f206164647265737320697320656d70747900000000604482015290519081900360640190fd5b606b546000906113079061271090610c7f908690760100000000000000000000000000000000000000000000900461ffff16612c2d565b90506000611355826040518060400160405280601b81526020017f476174657761793a20666565206578636565647320616d6f756e74000000000081525086612ce99092919063ffffffff16565b606954604080517feb438fc200000000000000000000000000000000000000000000000000000000815260048101849052905192935060009273ffffffffffffffffffffffffffffffffffffffff9092169163eb438fc291602480820192602092909190829003018186803b1580156113cd57600080fd5b505afa1580156113e1573d6000803e3d6000fd5b505050506040513d60208110156113f757600080fd5b5051606954604080517f9dc29fac00000000000000000000000000000000000000000000000000000000815233600482015260248101899052905192935073ffffffffffffffffffffffffffffffffffffffff90911691639dc29fac9160448082019260009290919082900301818387803b15801561147557600080fd5b505af1158015611489573d6000803e3d6000fd5b5050606954606b54604080517f40c10f1900000000000000000000000000000000000000000000000000000000815273ffffffffffffffffffffffffffffffffffffffff92831660048201526024810189905290519190921693506340c10f199250604480830192600092919082900301818387803b15801561150b57600080fd5b505af115801561151f573d6000803e3d6000fd5b50505050606854811161157d576040517f08c379a00000000000000000000000000000000000000000000000000000000081526004018080602001828103825260348152602001806135056034913960400191505060405180910390fd5b856040518082805190602001908083835b602083106115cb57805182527fffffffffffffffffffffffffffffffffffffffffffffffffffffffffffffffe0909201916020918201910161158e565b6001836020036101000a0380198251168184511680821785525050505050509050019150506040518091039020606d547f1619fc95050ffb8c94c9077c82b3e1ebbf8d571b6234241c55ba0aaf40da019e88846040518080602001838152602001828103825284818151815260200191508051906020019080838360005b83811015611661578181015183820152602001611649565b50505050905090810190601f16801561168e5780820380516001836020036101000a031916815260200191505b50935050505060405180910390a3606d80546001019055925050505b92915050565b6116b8611b0f565b61172357604080517f08c379a000000000000000000000000000000000000000000000000000000000815260206004820181905260248201527f4f776e61626c653a2063616c6c6572206973206e6f7420746865206f776e6572604482015290519081900360640190fd5b606855565b606b5473ffffffffffffffffffffffffffffffffffffffff1681565b60665473ffffffffffffffffffffffffffffffffffffffff16611765612def565b73ffffffffffffffffffffffffffffffffffffffff16146117d1576040517f08c379a000000000000000000000000000000000000000000000000000000000815260040180806020018281038252602a8152602001806135e0602a913960400191505060405180910390fd5b6066546117f39073ffffffffffffffffffffffffffffffffffffffff16612df3565b606680547fffffffffffffffffffffffff0000000000000000000000000000000000000000169055565b606954604080516020808201979097528082019590955273ffffffffffffffffffffffffffffffffffffffff91821660608601529216608084015260a0808401919091528151808403909101815260c09092019052805191012090565b606c6020526000908152604090205460ff1681565b611897611b0f565b61190257604080517f08c379a000000000000000000000000000000000000000000000000000000000815260206004820181905260248201527f4f776e61626c653a2063616c6c6572206973206e6f7420746865206f776e6572604482015290519081900360640190fd5b606b805461ffff909216760100000000000000000000000000000000000000000000027fffffffffffffffff0000ffffffffffffffffffffffffffffffffffffffffffff909216919091179055565b611959611b0f565b6119c457604080517f08c379a000000000000000000000000000000000000000000000000000000000815260206004820181905260248201527f4f776e61626c653a2063616c6c6572206973206e6f7420746865206f776e6572604482015290519081900360640190fd5b606b805461ffff90921674010000000000000000000000000000000000000000027fffffffffffffffffffff0000ffffffffffffffffffffffffffffffffffffffff909216919091179055565b611a19611b0f565b611a8457604080517f08c379a000000000000000000000000000000000000000000000000000000000815260206004820181905260248201527f4f776e61626c653a2063616c6c6572206973206e6f7420746865206f776e6572604482015290519081900360640190fd5b60335460405160009173ffffffffffffffffffffffffffffffffffffffff16907f8be0079c531659141344cd1fd0a4f28419497f9722a3daafe3b4186f6b6457e0908390a3603380547fffffffffffffffffffffffff0000000000000000000000000000000000000000169055565b60335473ffffffffffffffffffffffffffffffffffffffff1690565b60335460009073ffffffffffffffffffffffffffffffffffffffff16611b33612def565b73ffffffffffffffffffffffffffffffffffffffff1614905090565b606a5473ffffffffffffffffffffffffffffffffffffffff1681565b60685481565b600054610100900460ff1680611b8a5750611b8a612eed565b80611b98575060005460ff16155b611bed576040517f08c379a000000000000000000000000000000000000000000000000000000000815260040180806020018281038252602e8152602001806135b2602e913960400191505060405180910390fd5b600054610100900460ff16158015611c5357600080547fffffffffffffffffffffffffffffffffffffffffffffffffffffffffffffff007fffffffffffffffffffffffffffffffffffffffffffffffffffffffffffff00ff909116610100171660011790555b611c5c33612ef3565b611c6533611d86565b60688290556069805473ffffffffffffffffffffffffffffffffffffffff89167fffffffffffffffffffffffff0000000000000000000000000000000000000000909116179055606b805461ffff858116760100000000000000000000000000000000000000000000027fffffffffffffffff0000ffffffffffffffffffffffffffffffffffffffffffff91881674010000000000000000000000000000000000000000027fffffffffffffffffffff0000ffffffffffffffffffffffffffffffffffffffff9093169290921716179055611d3f85610735565b611d4886611ec8565b8015611d7757600080547fffffffffffffffffffffffffffffffffffffffffffffffffffffffffffff00ff1690555b50505050505050565b606d5481565b600054610100900460ff1680611d9f5750611d9f612eed565b80611dad575060005460ff16155b611e02576040517f08c379a000000000000000000000000000000000000000000000000000000000815260040180806020018281038252602e8152602001806135b2602e913960400191505060405180910390fd5b600054610100900460ff16158015611e6857600080547fffffffffffffffffffffffffffffffffffffffffffffffffffffffffffffff007fffffffffffffffffffffffffffffffffffffffffffffffffffffffffffff00ff909116610100171660011790555b611e7182612ef3565b8015611ea057600080547fffffffffffffffffffffffffffffffffffffffffffffffffffffffffffff00ff1690555b5050565b600192915050565b60665473ffffffffffffffffffffffffffffffffffffffff1681565b611ed0611b0f565b611f3b57604080517f08c379a000000000000000000000000000000000000000000000000000000000815260206004820181905260248201527f4f776e61626c653a2063616c6c6572206973206e6f7420746865206f776e6572604482015290519081900360640190fd5b73ffffffffffffffffffffffffffffffffffffffff8116611fa7576040517f08c379a000000000000000000000000000000000000000000000000000000000815260040180806020018281038252602481526020018061356d6024913960400191505060405180910390fd5b606b80547fffffffffffffffffffffffff00000000000000000000000000000000000000001673ffffffffffffffffffffffffffffffffffffffff92909216919091179055565b611ff6611b0f565b61206157604080517f08c379a000000000000000000000000000000000000000000000000000000000815260206004820181905260248201527f4f776e61626c653a2063616c6c6572206973206e6f7420746865206f776e6572604482015290519081900360640190fd5b612069611af3565b73ffffffffffffffffffffffffffffffffffffffff168173ffffffffffffffffffffffffffffffffffffffff16141580156120bf575060665473ffffffffffffffffffffffffffffffffffffffff828116911614155b61212a57604080517f08c379a000000000000000000000000000000000000000000000000000000000815260206004820152601c60248201527f436c61696d61626c653a20696e76616c6964206e6577206f776e657200000000604482015290519081900360640190fd5b606680547fffffffffffffffffffffffff00000000000000000000000000000000000000001673ffffffffffffffffffffffffffffffffffffffff92909216919091179055565b612179611b0f565b6121e457604080517f08c379a000000000000000000000000000000000000000000000000000000000815260206004820181905260248201527f4f776e61626c653a2063616c6c6572206973206e6f7420746865206f776e6572604482015290519081900360640190fd5b73ffffffffffffffffffffffffffffffffffffffff16600090815260676020526040902080547fffffffffffffffffffffffffffffffffffffffffffffffffffffffffffffff00166001179055565b60695473ffffffffffffffffffffffffffffffffffffffff1681565b606b54760100000000000000000000000000000000000000000000900461ffff1681565b604080518082018252601081527f3031323334353637383961626364656600000000000000000000000000000000602082015281516042808252608082019093526060928391906020820181803883390190505090507f3000000000000000000000000000000000000000000000000000000000000000816000815181106122f757fe5b60200101907effffffffffffffffffffffffffffffffffffffffffffffffffffffffffffff1916908160001a9053507f78000000000000000000000000000000000000000000000000000000000000008160018151811061235457fe5b60200101907effffffffffffffffffffffffffffffffffffffffffffffffffffffffffffff1916908160001a90535060005b60208110156124945782600486836020811061239e57fe5b1a60f81b7effffffffffffffffffffffffffffffffffffffffffffffffffffffffffffff1916901c60f81c60ff16815181106123d657fe5b602001015160f81c60f81b8282600202600201815181106123f357fe5b60200101907effffffffffffffffffffffffffffffffffffffffffffffffffffffffffffff1916908160001a9053508285826020811061242f57fe5b825191901a600f1690811061244057fe5b602001015160f81c60f81b82826002026003018151811061245d57fe5b60200101907effffffffffffffffffffffffffffffffffffffffffffffffffffffffffffff1916908160001a905350600101612386565b509150505b919050565b6060816124df575060408051808201909152600181527f30000000000000000000000000000000000000000000000000000000000000006020820152612499565b8160005b81156124f757600101600a820491506124e3565b6060816040519080825280601f01601f191660200182016040528015612524576020820181803883390190505b5090507fffffffffffffffffffffffffffffffffffffffffffffffffffffffffffffffff82015b85156125a857600a860660300160f81b8282806001900393508151811061256e57fe5b60200101907effffffffffffffffffffffffffffffffffffffffffffffffffffffffffffff1916908160001a905350600a8604955061254b565b50949350505050565b604080518082018252601081527f303132333435363738396162636465660000000000000000000000000000000060208201528151602a808252606082810190945273ffffffffffffffffffffffffffffffffffffffff8516929184916020820181803883390190505090507f30000000000000000000000000000000000000000000000000000000000000008160008151811061264b57fe5b60200101907effffffffffffffffffffffffffffffffffffffffffffffffffffffffffffff1916908160001a9053507f7800000000000000000000000000000000000000000000000000000000000000816001815181106126a857fe5b60200101907effffffffffffffffffffffffffffffffffffffffffffffffffffffffffffff1916908160001a90535060005b60148110156125a8578260048583600c01602081106126f557fe5b1a60f81b7effffffffffffffffffffffffffffffffffffffffffffffffffffffffffffff1916901c60f81c60ff168151811061272d57fe5b602001015160f81c60f81b82826002026002018151811061274a57fe5b60200101907effffffffffffffffffffffffffffffffffffffffffffffffffffffffffffff1916908160001a905350828482600c016020811061278957fe5b825191901a600f1690811061279a57fe5b602001015160f81c60f81b8282600202600301815181106127b757fe5b60200101907effffffffffffffffffffffffffffffffffffffffffffffffffffffffffffff1916908160001a9053506001016126da565b606088888888888888886040516020018089805190602001908083835b6020831061284857805182527fffffffffffffffffffffffffffffffffffffffffffffffffffffffffffffffe0909201916020918201910161280b565b51815160209384036101000a7fffffffffffffffffffffffffffffffffffffffffffffffffffffffffffffffff01801990921691161790528b5191909301928b0191508083835b602083106128cc57805182527fffffffffffffffffffffffffffffffffffffffffffffffffffffffffffffffe0909201916020918201910161288f565b51815160209384036101000a7fffffffffffffffffffffffffffffffffffffffffffffffffffffffffffffffff01801990921691161790528a5191909301928a0191508083835b6020831061295057805182527fffffffffffffffffffffffffffffffffffffffffffffffffffffffffffffffe09092019160209182019101612913565b51815160209384036101000a7fffffffffffffffffffffffffffffffffffffffffffffffffffffffffffffffff018019909216911617905289519190930192890191508083835b602083106129d457805182527fffffffffffffffffffffffffffffffffffffffffffffffffffffffffffffffe09092019160209182019101612997565b51815160209384036101000a7fffffffffffffffffffffffffffffffffffffffffffffffffffffffffffffffff018019909216911617905288519190930192880191508083835b60208310612a5857805182527fffffffffffffffffffffffffffffffffffffffffffffffffffffffffffffffe09092019160209182019101612a1b565b51815160209384036101000a7fffffffffffffffffffffffffffffffffffffffffffffffffffffffffffffffff018019909216911617905287519190930192870191508083835b60208310612adc57805182527fffffffffffffffffffffffffffffffffffffffffffffffffffffffffffffffe09092019160209182019101612a9f565b51815160209384036101000a7fffffffffffffffffffffffffffffffffffffffffffffffffffffffffffffffff018019909216911617905286519190930192860191508083835b60208310612b6057805182527fffffffffffffffffffffffffffffffffffffffffffffffffffffffffffffffe09092019160209182019101612b23565b51815160209384036101000a7fffffffffffffffffffffffffffffffffffffffffffffffffffffffffffffffff018019909216911617905285519190930192850191508083835b60208310612be457805182527fffffffffffffffffffffffffffffffffffffffffffffffffffffffffffffffe09092019160209182019101612ba7565b6001836020036101000a03801982511681845116808217855250505050505090500198505050505050505050604051602081830303815290604052905098975050505050505050565b600082612c3c575060006116aa565b82820282848281612c4957fe5b0414612ca0576040517f08c379a00000000000000000000000000000000000000000000000000000000081526004018080602001828103825260218152602001806135916021913960400191505060405180910390fd5b9392505050565b6000612ca083836040518060400160405280601a81526020017f536166654d6174683a206469766973696f6e206279207a65726f000000000000815250612fde565b60008184841115612d55576040517f08c379a0000000000000000000000000000000000000000000000000000000008152602060048201818152835160248401528351909283926044909101919085019080838360008315610b3b578181015183820152602001610b23565b505050900390565b6040805173ffffffffffffffffffffffffffffffffffffffff8416602482015260448082018490528251808303909101815260649091019091526020810180517bffffffffffffffffffffffffffffffffffffffffffffffffffffffff167fa9059cbb00000000000000000000000000000000000000000000000000000000179052612dea90849061305d565b505050565b3390565b73ffffffffffffffffffffffffffffffffffffffff8116612e5f576040517f08c379a00000000000000000000000000000000000000000000000000000000081526004018080602001828103825260268152602001806134606026913960400191505060405180910390fd5b60335460405173ffffffffffffffffffffffffffffffffffffffff8084169216907f8be0079c531659141344cd1fd0a4f28419497f9722a3daafe3b4186f6b6457e090600090a3603380547fffffffffffffffffffffffff00000000000000000000000000000000000000001673ffffffffffffffffffffffffffffffffffffffff92909216919091179055565b303b1590565b600054610100900460ff1680612f0c5750612f0c612eed565b80612f1a575060005460ff16155b612f6f576040517f08c379a000000000000000000000000000000000000000000000000000000000815260040180806020018281038252602e8152602001806135b2602e913960400191505060405180910390fd5b600054610100900460ff16158015612fd557600080547fffffffffffffffffffffffffffffffffffffffffffffffffffffffffffffff007fffffffffffffffffffffffffffffffffffffffffffffffffffffffffffff00ff909116610100171660011790555b611e718261329b565b60008183613047576040517f08c379a0000000000000000000000000000000000000000000000000000000008152602060048201818152835160248401528351909283926044909101919085019080838360008315610b3b578181015183820152602001610b23565b50600083858161305357fe5b0495945050505050565b61307c8273ffffffffffffffffffffffffffffffffffffffff16613423565b6130e757604080517f08c379a000000000000000000000000000000000000000000000000000000000815260206004820152601f60248201527f5361666545524332303a2063616c6c20746f206e6f6e2d636f6e747261637400604482015290519081900360640190fd5b600060608373ffffffffffffffffffffffffffffffffffffffff16836040518082805190602001908083835b6020831061315057805182527fffffffffffffffffffffffffffffffffffffffffffffffffffffffffffffffe09092019160209182019101613113565b6001836020036101000a0380198251168184511680821785525050505050509050019150506000604051808303816000865af19150503d80600081146131b2576040519150601f19603f3d011682016040523d82523d6000602084013e6131b7565b606091505b50915091508161322857604080517f08c379a000000000000000000000000000000000000000000000000000000000815260206004820181905260248201527f5361666545524332303a206c6f772d6c6576656c2063616c6c206661696c6564604482015290519081900360640190fd5b8051156109415780806020019051602081101561324457600080fd5b5051610941576040517f08c379a000000000000000000000000000000000000000000000000000000000815260040180806020018281038252602a81526020018061362b602a913960400191505060405180910390fd5b600054610100900460ff16806132b457506132b4612eed565b806132c2575060005460ff16155b613317576040517f08c379a000000000000000000000000000000000000000000000000000000000815260040180806020018281038252602e8152602001806135b2602e913960400191505060405180910390fd5b600054610100900460ff1615801561337d57600080547fffffffffffffffffffffffffffffffffffffffffffffffffffffffffffffff007fffffffffffffffffffffffffffffffffffffffffffffffffffffffffffff00ff909116610100171660011790555b603380547fffffffffffffffffffffffff00000000000000000000000000000000000000001673ffffffffffffffffffffffffffffffffffffffff84811691909117918290556040519116906000907f8be0079c531659141344cd1fd0a4f28419497f9722a3daafe3b4186f6b6457e0908290a38015611ea057600080547fffffffffffffffffffffffffffffffffffffffffffffffffffffffffffff00ff1690555050565b6000813f7fc5d2460186f7233c927e7db2dcc703c0e500b653ca82273b7bfad8045d85a47081158015906134575750808214155b94935050505056fe4f776e61626c653a206e6577206f776e657220697320746865207a65726f2061646472657373476174657761793a20696e76616c6964207369676e61747572652e2070486173683a2043616e5265636c61696d546f6b656e733a20746f6b656e206973206e6f74207265636f76657261626c65476174657761793a2063616c6c6572206973206e6f7420746865206f776e6572206f72206d696e7420617574686f72697479476174657761793a20616d6f756e74206973206c657373207468616e20746865206d696e696d756d206275726e20616d6f756e74476174657761793a206d696e74417574686f726974792063616e6e6f742062652073657420746f2061646472657373207a65726f476174657761793a2066656520726563697069656e742063616e6e6f7420626520307830536166654d6174683a206d756c7469706c69636174696f6e206f766572666c6f77436f6e747261637420696e7374616e63652068617320616c7265616479206265656e20696e697469616c697a6564436c61696d61626c653a2063616c6c6572206973206e6f74207468652070656e64696e67206f776e6572476174657761793a206e6f6e6365206861736820616c7265616479207370656e745361666545524332303a204552433230206f7065726174696f6e20646964206e6f742073756363656564a265627a7a7231582093e10ea344378bfe81f7a4ad7ffe3ba5e99efb17663e64c2ce1783fb7a23f78764736f6c63430005100032",
    "linkReferences": {}
  },
  "methodIdentifiers": {
    "blacklistRecoverableToken(address)": "f65d901c",
    "burn(bytes,uint256)": "38463cff",
    "burnFee()": "fce589d8",
    "claimOwnership()": "4e71e0c8",
    "claimTokenOwnership()": "10731a65",
    "feeRecipient()": "46904840",
    "hashForSignature(bytes32,uint256,address,bytes32)": "5219a566",
    "initialize(address)": "c4d66de8",
    "initialize(address,address,address,uint16,uint16,uint256)": "a2999beb",
    "isOwner()": "8f32d59b",
    "minimumBurnAmount()": "94c238ac",
    "mint(bytes32,uint256,bytes32,bytes)": "159ab14d",
    "mintAuthority()": "9340b21e",
    "mintFee()": "13966db5",
    "nextN()": "aa4df9ad",
    "owner()": "8da5cb5b",
    "pendingOwner()": "e30c3978",
    "recoverTokens(address)": "16114acd",
    "renounceOwnership()": "715018a6",
    "status(bytes32)": "52ad0d5e",
    "token()": "fc0c546a",
    "transferOwnership(address)": "f2fde38b",
    "transferTokenOwnership(address)": "21e6b53d",
    "updateBurnFee(uint16)": "59c9176c",
    "updateFeeRecipient(address)": "f160d369",
    "updateMinimumBurnAmount(uint256)": "3a521b8d",
    "updateMintAuthority(address)": "0130a33b",
    "updateMintFee(uint16)": "5cc66106",
    "verifySignature(bytes32,bytes)": "daca6f78"
  },
  "id": 2
}