{
  "abi": [
    {
      "inputs": [],
      "name": "NotGovernance",
      "type": "error"
    },
    {
      "anonymous": false,
      "inputs": [
        {
          "indexed": true,
          "internalType": "address",
          "name": "oldGovernance",
          "type": "address"
        },
        {
          "indexed": true,
          "internalType": "address",
          "name": "newGovernance",
          "type": "address"
        }
      ],
      "name": "GovernanceTransferred",
      "type": "event"
    },
    {
      "inputs": [],
      "name": "governance",
      "outputs": [
        {
          "internalType": "address",
          "name": "",
          "type": "address"
        }
      ],
      "stateMutability": "view",
      "type": "function"
    },
    {
      "inputs": [
        {
          "internalType": "address",
          "name": "newGovernance",
          "type": "address"
        }
      ],
      "name": "setGovernance",
      "outputs": [],
      "stateMutability": "nonpayable",
      "type": "function"
    }
  ],
  "bytecode": {
    "object": "0x60808060405234610016576101a0908161001c8239f35b600080fdfe608080604052600436101561001357600080fd5b600090813560e01c9081635aa6e67514610118575063ab033ea91461003757600080fd5b346101155760207ffffffffffffffffffffffffffffffffffffffffffffffffffffffffffffffffc3601126101155760043573ffffffffffffffffffffffffffffffffffffffff90818116809103610111578254918216918233036100e7577fffffffffffffffffffffffff00000000000000000000000000000000000000009082604051947f5f56bee8cffbe9a78652a74a60705edede02af10b0bbb888ca44b79a0d42ce808787a316178255f35b60046040517fb56f932c000000000000000000000000000000000000000000000000000000008152fd5b8280fd5b80fd5b90503461016657817ffffffffffffffffffffffffffffffffffffffffffffffffffffffffffffffffc3601126101665773ffffffffffffffffffffffffffffffffffffffff60209254168152f35b5080fdfea2646970667358221220f59b37b02f803fe1cd46f89461aa4e93d1418d29f16b012edc5113da638a3dfe64736f6c634300080f0033",
    "linkReferences": {}
  },
  "methodIdentifiers": {
    "governance()": "5aa6e675",
    "setGovernance(address)": "ab033ea9"
  },
  "id": 44
}