{
  "abi": [
    {
      "inputs": [],
      "name": "latestAnswer",
      "outputs": [
        {
          "internalType": "uint256",
          "name": "",
          "type": "uint256"
        }
      ],
      "stateMutability": "view",
      "type": "function"
    },
    {
      "inputs": [
        {
          "internalType": "uint256",
          "name": "answer",
          "type": "uint256"
        }
      ],
      "name": "setLatestAnswer",
      "outputs": [],
      "stateMutability": "nonpayable",
      "type": "function"
    }
  ],
  "bytecode": {
    "object": "0x608080604052346021576801158e460913d0000060005560d590816100278239f35b600080fdfe6080806040526004361015601257600080fd5b600090813560e01c806320aa1b8014606a576350d25bcd14603257600080fd5b34606657817ffffffffffffffffffffffffffffffffffffffffffffffffffffffffffffffffc360112606657602091548152f35b5080fd5b503460665760207ffffffffffffffffffffffffffffffffffffffffffffffffffffffffffffffffc3601126066576004358255f3fea26469706673582212203c0788320ecd163f0b6e72d13a9e84bed076f4b409d5ef90f61aeb4259c4db6264736f6c634300080f0033",
    "linkReferences": {}
  },
  "methodIdentifiers": {
    "latestAnswer()": "50d25bcd",
    "setLatestAnswer(uint256)": "20aa1b80"
  },
  "id": 76
}