{
  "abi": [
    {
      "inputs": [
        {
          "internalType": "contract TestERC20",
          "name": "_asset",
          "type": "address"
        }
      ],
      "stateMutability": "nonpayable",
      "type": "constructor"
    },
    {
      "inputs": [],
      "name": "asset",
      "outputs": [
        {
          "internalType": "contract TestERC20",
          "name": "",
          "type": "address"
        }
      ],
      "stateMutability": "view",
      "type": "function"
    },
    {
      "inputs": [
        {
          "internalType": "address",
          "name": "borrower",
          "type": "address"
        },
        {
          "internalType": "uint256",
          "name": "borrowAmount",
          "type": "uint256"
        },
        {
          "internalType": "uint256",
          "name": "loanId",
          "type": "uint256"
        },
        {
          "internalType": "bytes",
          "name": "data",
          "type": "bytes"
        }
      ],
      "name": "receiveLoan",
      "outputs": [],
      "stateMutability": "nonpayable",
      "type": "function"
    },
    {
      "inputs": [
        {
          "internalType": "address",
          "name": "borrower",
          "type": "address"
        },
        {
          "internalType": "uint256",
          "name": "repaidAmount",
          "type": "uint256"
        },
        {
          "internalType": "uint256",
          "name": "loanId",
          "type": "uint256"
        },
        {
          "internalType": "bytes",
          "name": "data",
          "type": "bytes"
        }
      ],
      "name": "repayLoan",
      "outputs": [
        {
          "internalType": "uint256",
          "name": "collateralToUnlock",
          "type": "uint256"
        },
        {
          "internalType": "uint256",
          "name": "gasRefundEth",
          "type": "uint256"
        }
      ],
      "stateMutability": "nonpayable",
      "type": "function"
    },
    {
      "inputs": [
        {
          "internalType": "bool",
          "name": "_returnLessThanFullAmount",
          "type": "bool"
        }
      ],
      "name": "setReturnLessThanFullAmount",
      "outputs": [],
      "stateMutability": "nonpayable",
      "type": "function"
    },
    {
      "inputs": [
        {
          "internalType": "bool",
          "name": "_useEscrow",
          "type": "bool"
        }
      ],
      "name": "setUseEscrow",
      "outputs": [],
      "stateMutability": "nonpayable",
      "type": "function"
    }
  ],
  "bytecode": {
    "object": "0x60a0346100ec576001600160401b0390601f61083b38819003918201601f1916830191848311848410176100d6578084926020946040528339810103126100ec5751906001600160a01b0382168083036100ec57604051916102c590818401908111848210176100d6576020928492610576843981520301906000f080156100ca576000805462010000600160b01b03191660109290921b62010000600160b01b031691909117905560805260405161048490816100f2823960805181818161018101526101e70152f35b6040513d6000823e3d90fd5b634e487b7160e01b600052604160045260246000fd5b600080fdfe6080604081815260048036101561001557600080fd5b600092833560e01c9081632584dde81461030e5750838163332b578c146101a95750806338d52e0f146101365780636bcfeb21146100c85763e5439b6b1461005c57600080fd5b346100c45760207ffffffffffffffffffffffffffffffffffffffffffffffffffffffffffffffffc3601126100c457358015158091036100c45760ff7fffffffffffffffffffffffffffffffffffffffffffffffffffffffffffffff00845416911617825551f35b8280fd5b50346100c45760207ffffffffffffffffffffffffffffffffffffffffffffffffffffffffffffffffc3601126100c457358015158091036100c4577fffffffffffffffffffffffffffffffffffffffffffffffffffffffffffff00ff61ff0084549260081b16911617825551f35b5050346101a557817ffffffffffffffffffffffffffffffffffffffffffffffffffffffffffffffffc3601126101a5576020905173ffffffffffffffffffffffffffffffffffffffff7f0000000000000000000000000000000000000000000000000000000000000000168152f35b5080fd5b919050346101a5576101ba36610331565b8196939592506020968791810103126100c4573573ffffffffffffffffffffffffffffffffffffffff94857f00000000000000000000000000000000000000000000000000000000000000001692885188816044817fa9059cbb00000000000000000000000000000000000000000000000000000000998a82528087830152886024830152895af18015610304576102e7575b508282106102bb5792879594928a926044958b51998a988997885216908601520360248401525af180156102ae5761028457505051f35b816102a392903d106102a7575b61029b81836103c6565b810190610436565b5051f35b503d610291565b50505051903d90823e3d90fd5b8960116024927f4e487b7100000000000000000000000000000000000000000000000000000000835252fd5b6102fd90893d8b116102a75761029b81836103c6565b503861024d565b8a513d8d823e3d90fd5b8390853461032e5761031f36610331565b50505050508082526020820152f35b80fd5b60807ffffffffffffffffffffffffffffffffffffffffffffffffffffffffffffffffc8201126103c15760043573ffffffffffffffffffffffffffffffffffffffff811681036103c15791602435916044359160643567ffffffffffffffff928382116103c157806023830112156103c15781600401359384116103c157602484830101116103c1576024019190565b600080fd5b90601f7fffffffffffffffffffffffffffffffffffffffffffffffffffffffffffffffe0910116810190811067ffffffffffffffff82111761040757604052565b7f4e487b7100000000000000000000000000000000000000000000000000000000600052604160045260246000fd5b908160209103126103c1575180151581036103c1579056fea2646970667358221220c4675697f2080d083048057e2182d952fb8c9f0bd22ae491870502dfccfec63c64736f6c634300080f003360a03461007057601f6102c538819003918201601f19168301916001600160401b038311848410176100755780849260209460405283398101031261007057516001600160a01b038116810361007057608052604051610239908161008c823960805181818160b801526101df0152f35b600080fd5b634e487b7160e01b600052604160045260246000fdfe608080604052600436101561001357600080fd5b600090813560e01c90816338d52e0f1461019557506354d564371461003757600080fd5b3461014f5760207ffffffffffffffffffffffffffffffffffffffffffffffffffffffffffffffffc36011261014f576040517fa9059cbb00000000000000000000000000000000000000000000000000000000815233600482015260043560248201526020816044818573ffffffffffffffffffffffffffffffffffffffff7f0000000000000000000000000000000000000000000000000000000000000000165af1801561018a576100eb575b50604051f35b60203d8111610183575b7fffffffffffffffffffffffffffffffffffffffffffffffffffffffffffffffe0601f820116820182811067ffffffffffffffff8211176101565760209183916040528101031261015257518015150361014f57386100e5565b80fd5b5080fd5b6024847f4e487b710000000000000000000000000000000000000000000000000000000081526041600452fd5b503d6100f5565b6040513d84823e3d90fd5b90503461015257817ffffffffffffffffffffffffffffffffffffffffffffffffffffffffffffffffc3601126101525760209073ffffffffffffffffffffffffffffffffffffffff7f0000000000000000000000000000000000000000000000000000000000000000168152f3fea26469706673582212208c17655049803f1a71b368555966e9f0e47b69a49669b56bc31ae08f8bb09bc764736f6c634300080f0033",
    "linkReferences": {}
  },
  "methodIdentifiers": {
    "asset()": "38d52e0f",
    "receiveLoan(address,uint256,uint256,bytes)": "332b578c",
    "repayLoan(address,uint256,uint256,bytes)": "2584dde8",
    "setReturnLessThanFullAmount(bool)": "6bcfeb21",
    "setUseEscrow(bool)": "e5439b6b"
  },
  "id": 80
}