{
  "address": "0x23d7bb6A1EA69eF6e4DafFbc85416532cA77EfB4",
  "abi": [
    {
      "inputs": [],
      "stateMutability": "nonpayable",
      "type": "constructor"
    },
    {
      "inputs": [],
      "name": "ApprovalCallerNotOwnerNorApproved",
      "type": "error"
    },
    {
      "inputs": [],
      "name": "ApprovalQueryForNonexistentToken",
      "type": "error"
    },
    {
      "inputs": [],
      "name": "BalanceQueryForZeroAddress",
      "type": "error"
    },
    {
      "inputs": [],
      "name": "ExceedMaxPerWallet",
      "type": "error"
    },
    {
      "inputs": [],
      "name": "ExceedSupply",
      "type": "error"
    },
    {
      "inputs": [],
      "name": "InsufficientPayment",
      "type": "error"
    },
    {
      "inputs": [],
      "name": "MintERC2309QuantityExceedsLimit",
      "type": "error"
    },
    {
      "inputs": [],
      "name": "MintToZeroAddress",
      "type": "error"
    },
    {
      "inputs": [],
      "name": "MintZeroQuantity",
      "type": "error"
    },
    {
      "inputs": [],
      "name": "NotInPrivatelist",
      "type": "error"
    },
    {
      "inputs": [],
      "name": "NotInWhitelist",
      "type": "error"
    },
    {
      "inputs": [],
      "name": "OwnerQueryForNonexistentToken",
      "type": "error"
    },
    {
      "inputs": [],
      "name": "OwnershipNotInitializedForExtraData",
      "type": "error"
    },
    {
      "inputs": [],
      "name": "PrivateMintNotStarted",
      "type": "error"
    },
    {
      "inputs": [],
      "name": "PublicMintNotStarted",
      "type": "error"
    },
    {
      "inputs": [],
      "name": "TransferCallerNotOwnerNorApproved",
      "type": "error"
    },
    {
      "inputs": [],
      "name": "TransferFromIncorrectOwner",
      "type": "error"
    },
    {
      "inputs": [],
      "name": "TransferToNonERC721ReceiverImplementer",
      "type": "error"
    },
    {
      "inputs": [],
      "name": "TransferToZeroAddress",
      "type": "error"
    },
    {
      "inputs": [],
      "name": "URIQueryForNonexistentToken",
      "type": "error"
    },
    {
      "inputs": [],
      "name": "WhitelistMintNotStarted",
      "type": "error"
    },
    {
      "anonymous": false,
      "inputs": [
        {
          "indexed": true,
          "internalType": "address",
          "name": "owner",
          "type": "address"
        },
        {
          "indexed": true,
          "internalType": "address",
          "name": "approved",
          "type": "address"
        },
        {
          "indexed": true,
          "internalType": "uint256",
          "name": "tokenId",
          "type": "uint256"
        }
      ],
      "name": "Approval",
      "type": "event"
    },
    {
      "anonymous": false,
      "inputs": [
        {
          "indexed": true,
          "internalType": "address",
          "name": "owner",
          "type": "address"
        },
        {
          "indexed": true,
          "internalType": "address",
          "name": "operator",
          "type": "address"
        },
        {
          "indexed": false,
          "internalType": "bool",
          "name": "approved",
          "type": "bool"
        }
      ],
      "name": "ApprovalForAll",
      "type": "event"
    },
    {
      "anonymous": false,
      "inputs": [
        {
          "indexed": true,
          "internalType": "uint256",
          "name": "fromTokenId",
          "type": "uint256"
        },
        {
          "indexed": false,
          "internalType": "uint256",
          "name": "toTokenId",
          "type": "uint256"
        },
        {
          "indexed": true,
          "internalType": "address",
          "name": "from",
          "type": "address"
        },
        {
          "indexed": true,
          "internalType": "address",
          "name": "to",
          "type": "address"
        }
      ],
      "name": "ConsecutiveTransfer",
      "type": "event"
    },
    {
      "anonymous": false,
      "inputs": [
        {
          "indexed": true,
          "internalType": "address",
          "name": "previousOwner",
          "type": "address"
        },
        {
          "indexed": true,
          "internalType": "address",
          "name": "newOwner",
          "type": "address"
        }
      ],
      "name": "OwnershipTransferred",
      "type": "event"
    },
    {
      "anonymous": false,
      "inputs": [
        {
          "indexed": true,
          "internalType": "address",
          "name": "from",
          "type": "address"
        },
        {
          "indexed": true,
          "internalType": "address",
          "name": "to",
          "type": "address"
        },
        {
          "indexed": true,
          "internalType": "uint256",
          "name": "tokenId",
          "type": "uint256"
        }
      ],
      "name": "Transfer",
      "type": "event"
    },
    {
      "inputs": [
        {
          "internalType": "address",
          "name": "to",
          "type": "address"
        },
        {
          "internalType": "uint256",
          "name": "tokenId",
          "type": "uint256"
        }
      ],
      "name": "approve",
      "outputs": [],
      "stateMutability": "payable",
      "type": "function"
    },
    {
      "inputs": [
        {
          "internalType": "address",
          "name": "owner",
          "type": "address"
        }
      ],
      "name": "balanceOf",
      "outputs": [
        {
          "internalType": "uint256",
          "name": "",
          "type": "uint256"
        }
      ],
      "stateMutability": "view",
      "type": "function"
    },
    {
      "inputs": [],
      "name": "baseExtension",
      "outputs": [
        {
          "internalType": "string",
          "name": "",
          "type": "string"
        }
      ],
      "stateMutability": "view",
      "type": "function"
    },
    {
      "inputs": [
        {
          "internalType": "uint8",
          "name": "quantity",
          "type": "uint8"
        }
      ],
      "name": "devMint",
      "outputs": [],
      "stateMutability": "nonpayable",
      "type": "function"
    },
    {
      "inputs": [
        {
          "internalType": "uint256",
          "name": "tokenId",
          "type": "uint256"
        }
      ],
      "name": "getApproved",
      "outputs": [
        {
          "internalType": "address",
          "name": "",
          "type": "address"
        }
      ],
      "stateMutability": "view",
      "type": "function"
    },
    {
      "inputs": [
        {
          "internalType": "address",
          "name": "owner",
          "type": "address"
        },
        {
          "internalType": "address",
          "name": "operator",
          "type": "address"
        }
      ],
      "name": "isApprovedForAll",
      "outputs": [
        {
          "internalType": "bool",
          "name": "",
          "type": "bool"
        }
      ],
      "stateMutability": "view",
      "type": "function"
    },
    {
      "inputs": [],
      "name": "isPresaleActive",
      "outputs": [
        {
          "internalType": "bool",
          "name": "",
          "type": "bool"
        }
      ],
      "stateMutability": "view",
      "type": "function"
    },
    {
      "inputs": [
        {
          "internalType": "uint256",
          "name": "quantity",
          "type": "uint256"
        }
      ],
      "name": "mint",
      "outputs": [],
      "stateMutability": "payable",
      "type": "function"
    },
    {
      "inputs": [],
      "name": "name",
      "outputs": [
        {
          "internalType": "string",
          "name": "",
          "type": "string"
        }
      ],
      "stateMutability": "view",
      "type": "function"
    },
    {
      "inputs": [],
      "name": "owner",
      "outputs": [
        {
          "internalType": "address",
          "name": "",
          "type": "address"
        }
      ],
      "stateMutability": "view",
      "type": "function"
    },
    {
      "inputs": [
        {
          "internalType": "uint256",
          "name": "tokenId",
          "type": "uint256"
        }
      ],
      "name": "ownerOf",
      "outputs": [
        {
          "internalType": "address",
          "name": "",
          "type": "address"
        }
      ],
      "stateMutability": "view",
      "type": "function"
    },
    {
      "inputs": [],
      "name": "privateMerkleRoot",
      "outputs": [
        {
          "internalType": "bytes32",
          "name": "",
          "type": "bytes32"
        }
      ],
      "stateMutability": "view",
      "type": "function"
    },
    {
      "inputs": [
        {
          "internalType": "uint256",
          "name": "_index",
          "type": "uint256"
        },
        {
          "internalType": "address",
          "name": "_account",
          "type": "address"
        },
        {
          "internalType": "uint256",
          "name": "_amount",
          "type": "uint256"
        },
        {
          "internalType": "bytes32[]",
          "name": "proof",
          "type": "bytes32[]"
        },
        {
          "internalType": "uint256",
          "name": "quantity",
          "type": "uint256"
        }
      ],
      "name": "privateMint",
      "outputs": [],
      "stateMutability": "payable",
      "type": "function"
    },
    {
      "inputs": [],
      "name": "renounceOwnership",
      "outputs": [],
      "stateMutability": "nonpayable",
      "type": "function"
    },
    {
      "inputs": [
        {
          "internalType": "address",
          "name": "from",
          "type": "address"
        },
        {
          "internalType": "address",
          "name": "to",
          "type": "address"
        },
        {
          "internalType": "uint256",
          "name": "tokenId",
          "type": "uint256"
        }
      ],
      "name": "safeTransferFrom",
      "outputs": [],
      "stateMutability": "payable",
      "type": "function"
    },
    {
      "inputs": [
        {
          "internalType": "address",
          "name": "from",
          "type": "address"
        },
        {
          "internalType": "address",
          "name": "to",
          "type": "address"
        },
        {
          "internalType": "uint256",
          "name": "tokenId",
          "type": "uint256"
        },
        {
          "internalType": "bytes",
          "name": "_data",
          "type": "bytes"
        }
      ],
      "name": "safeTransferFrom",
      "outputs": [],
      "stateMutability": "payable",
      "type": "function"
    },
    {
      "inputs": [
        {
          "internalType": "address",
          "name": "operator",
          "type": "address"
        },
        {
          "internalType": "bool",
          "name": "approved",
          "type": "bool"
        }
      ],
      "name": "setApprovalForAll",
      "outputs": [],
      "stateMutability": "nonpayable",
      "type": "function"
    },
    {
      "inputs": [
        {
          "internalType": "string",
          "name": "_newBaseExtension",
          "type": "string"
        }
      ],
      "name": "setBaseExtension",
      "outputs": [],
      "stateMutability": "nonpayable",
      "type": "function"
    },
    {
      "inputs": [
        {
          "internalType": "string",
          "name": "value",
          "type": "string"
        }
      ],
      "name": "setBaseTokenURI",
      "outputs": [],
      "stateMutability": "nonpayable",
      "type": "function"
    },
    {
      "inputs": [
        {
          "internalType": "uint8",
          "name": "value",
          "type": "uint8"
        }
      ],
      "name": "setMaxItemsPerWallet",
      "outputs": [],
      "stateMutability": "nonpayable",
      "type": "function"
    },
    {
      "inputs": [
        {
          "internalType": "uint256",
          "name": "value",
          "type": "uint256"
        }
      ],
      "name": "setMintPrice",
      "outputs": [],
      "stateMutability": "nonpayable",
      "type": "function"
    },
    {
      "inputs": [
        {
          "internalType": "bytes32",
          "name": "value",
          "type": "bytes32"
        }
      ],
      "name": "setPrivateMerkleRoot",
      "outputs": [],
      "stateMutability": "nonpayable",
      "type": "function"
    },
    {
      "inputs": [
        {
          "internalType": "bytes32",
          "name": "value",
          "type": "bytes32"
        }
      ],
      "name": "setWhitelistMerkleRoot",
      "outputs": [],
      "stateMutability": "nonpayable",
      "type": "function"
    },
    {
      "inputs": [],
      "name": "startPrivateMint",
      "outputs": [],
      "stateMutability": "nonpayable",
      "type": "function"
    },
    {
      "inputs": [],
      "name": "startPublicMint",
      "outputs": [],
      "stateMutability": "nonpayable",
      "type": "function"
    },
    {
      "inputs": [],
      "name": "startWhitelistMint",
      "outputs": [],
      "stateMutability": "nonpayable",
      "type": "function"
    },
    {
      "inputs": [
        {
          "internalType": "bytes4",
          "name": "interfaceId",
          "type": "bytes4"
        }
      ],
      "name": "supportsInterface",
      "outputs": [
        {
          "internalType": "bool",
          "name": "",
          "type": "bool"
        }
      ],
      "stateMutability": "view",
      "type": "function"
    },
    {
      "inputs": [],
      "name": "symbol",
      "outputs": [
        {
          "internalType": "string",
          "name": "",
          "type": "string"
        }
      ],
      "stateMutability": "view",
      "type": "function"
    },
    {
      "inputs": [
        {
          "internalType": "uint256",
          "name": "tokenId",
          "type": "uint256"
        }
      ],
      "name": "tokenURI",
      "outputs": [
        {
          "internalType": "string",
          "name": "",
          "type": "string"
        }
      ],
      "stateMutability": "view",
      "type": "function"
    },
    {
      "inputs": [],
      "name": "totalSupply",
      "outputs": [
        {
          "internalType": "uint256",
          "name": "",
          "type": "uint256"
        }
      ],
      "stateMutability": "view",
      "type": "function"
    },
    {
      "inputs": [
        {
          "internalType": "address",
          "name": "from",
          "type": "address"
        },
        {
          "internalType": "address",
          "name": "to",
          "type": "address"
        },
        {
          "internalType": "uint256",
          "name": "tokenId",
          "type": "uint256"
        }
      ],
      "name": "transferFrom",
      "outputs": [],
      "stateMutability": "payable",
      "type": "function"
    },
    {
      "inputs": [
        {
          "internalType": "address",
          "name": "newOwner",
          "type": "address"
        }
      ],
      "name": "transferOwnership",
      "outputs": [],
      "stateMutability": "nonpayable",
      "type": "function"
    },
    {
      "inputs": [],
      "name": "whitelistMerkleRoot",
      "outputs": [
        {
          "internalType": "bytes32",
          "name": "",
          "type": "bytes32"
        }
      ],
      "stateMutability": "view",
      "type": "function"
    },
    {
      "inputs": [
        {
          "internalType": "uint256",
          "name": "_index",
          "type": "uint256"
        },
        {
          "internalType": "address",
          "name": "_account",
          "type": "address"
        },
        {
          "internalType": "uint256",
          "name": "_amount",
          "type": "uint256"
        },
        {
          "internalType": "bytes32[]",
          "name": "proof",
          "type": "bytes32[]"
        },
        {
          "internalType": "uint256",
          "name": "quantity",
          "type": "uint256"
        }
      ],
      "name": "whitelistMint",
      "outputs": [],
      "stateMutability": "payable",
      "type": "function"
    },
    {
      "inputs": [],
      "name": "withdraw",
      "outputs": [],
      "stateMutability": "nonpayable",
      "type": "function"
    }
  ],
  "transactionHash": "0x877e2f25809e04513f5fdf9d0bcbb1f9faf2a2b03a793187f8f268d443c7682a",
  "args": [],
  "numDeployments": 3,
  "solcInputHash": "1ff3a67908b541c0a9b0828fffa321f1",
  "bytecode": "0x600a805463ff00000019166305000000179055670429d069189e0000600b5560c06040526005608090815264173539b7b760d91b60a052600d90620000459082620001c8565b503480156200005357600080fd5b50604051806040016040528060098152602001685a65726f204865726f60b81b815250604051806040016040528060058152602001645a4845524f60d81b8152508160029081620000a59190620001c8565b506003620000b48282620001c8565b50506000805550620000c633620000d1565b600160095562000294565b600880546001600160a01b038381166001600160a01b0319831681179093556040519116919082907f8be0079c531659141344cd1fd0a4f28419497f9722a3daafe3b4186f6b6457e090600090a35050565b634e487b7160e01b600052604160045260246000fd5b600181811c908216806200014e57607f821691505b6020821081036200016f57634e487b7160e01b600052602260045260246000fd5b50919050565b601f821115620001c357600081815260208120601f850160051c810160208610156200019e5750805b601f850160051c820191505b81811015620001bf57828155600101620001aa565b5050505b505050565b81516001600160401b03811115620001e457620001e462000123565b620001fc81620001f5845462000139565b8462000175565b602080601f8311600181146200023457600084156200021b5750858301515b600019600386901b1c1916600185901b178555620001bf565b600085815260208120601f198616915b82811015620002655788860151825594840194600190910190840162000244565b5085821015620002845787850151600019600388901b60f8161c191681555b5050505050600190811b01905550565b6128db80620002a46000396000f3fe6080604052600436106102345760003560e01c806376c64c6211610138578063bd5204c1116100b0578063e6a7e9331161007f578063e985e9c511610064578063e985e9c5146105be578063f2fde38b14610614578063f4a0a5281461063457600080fd5b8063e6a7e93314610596578063e948dda9146105ab57600080fd5b8063bd5204c11461052e578063c668286214610541578063c87b56dd14610556578063da3ef23f1461057657600080fd5b8063a22cb46511610107578063b70196d7116100ec578063b70196d7146104e6578063b88d4fde146104fb578063bd32fb661461050e57600080fd5b8063a22cb465146104b0578063aa98e0c6146104d057600080fd5b806376c64c62146104485780638da5cb5b1461045d57806395d89b4114610488578063a0712d681461049d57600080fd5b80633497d165116101cb5780636352211e1161019a57806370a082311161017f57806370a08231146103f3578063715018a614610413578063746ea64d1461042857600080fd5b80636352211e146103b357806365bfaa68146103d357600080fd5b80633497d165146103565780633ccfd60b1461037657806342842e0e1461038b57806360d938dc1461039e57600080fd5b806318160ddd1161020757806318160ddd146102ea57806323b872dd1461030d5780632bbde22e1461032057806330176e131461033657600080fd5b806301ffc9a71461023957806306fdde031461026e578063081812fc14610290578063095ea7b3146102d5575b600080fd5b34801561024557600080fd5b50610259610254366004611fe6565b610654565b60405190151581526020015b60405180910390f35b34801561027a57600080fd5b50610283610739565b6040516102659190612079565b34801561029c57600080fd5b506102b06102ab36600461208c565b6107cb565b60405173ffffffffffffffffffffffffffffffffffffffff9091168152602001610265565b6102e86102e33660046120ce565b610835565b005b3480156102f657600080fd5b50600154600054035b604051908152602001610265565b6102e861031b3660046120f8565b610920565b34801561032c57600080fd5b506102ff600e5481565b34801561034257600080fd5b506102e8610351366004612228565b610bb0565b34801561036257600080fd5b506102e8610371366004612271565b610bc8565b34801561038257600080fd5b506102e8610c35565b6102e86103993660046120f8565b610c79565b3480156103aa57600080fd5b50610259610c99565b3480156103bf57600080fd5b506102b06103ce36600461208c565b610cc7565b3480156103df57600080fd5b506102e86103ee36600461208c565b610cd2565b3480156103ff57600080fd5b506102ff61040e366004612294565b610cdf565b34801561041f57600080fd5b506102e8610d61565b34801561043457600080fd5b506102e8610443366004612271565b610d73565b34801561045457600080fd5b506102e8610db6565b34801561046957600080fd5b5060085473ffffffffffffffffffffffffffffffffffffffff166102b0565b34801561049457600080fd5b50610283610ded565b6102e86104ab36600461208c565b610dfc565b3480156104bc57600080fd5b506102e86104cb3660046122af565b610ef4565b3480156104dc57600080fd5b506102ff600f5481565b3480156104f257600080fd5b506102e8610f8b565b6102e86105093660046122eb565b610fc1565b34801561051a57600080fd5b506102e861052936600461208c565b611031565b6102e861053c366004612367565b61103e565b34801561054d57600080fd5b50610283611219565b34801561056257600080fd5b5061028361057136600461208c565b6112a7565b34801561058257600080fd5b506102e8610591366004612228565b6113a2565b3480156105a257600080fd5b506102e86113b6565b6102e86105b9366004612367565b6113eb565b3480156105ca57600080fd5b506102596105d9366004612439565b73ffffffffffffffffffffffffffffffffffffffff918216600090815260076020908152604080832093909416825291909152205460ff1690565b34801561062057600080fd5b506102e861062f366004612294565b6115b0565b34801561064057600080fd5b506102e861064f36600461208c565b611664565b60007f01ffc9a7000000000000000000000000000000000000000000000000000000007fffffffff00000000000000000000000000000000000000000000000000000000831614806106e757507f80ac58cd000000000000000000000000000000000000000000000000000000007fffffffff000000000000000000000000000000000000000000000000000000008316145b8061073357507f5b5e139f000000000000000000000000000000000000000000000000000000007fffffffff000000000000000000000000000000000000000000000000000000008316145b92915050565b6060600280546107489061246c565b80601f01602080910402602001604051908101604052809291908181526020018280546107749061246c565b80156107c15780601f10610796576101008083540402835291602001916107c1565b820191906000526020600020905b8154815290600101906020018083116107a457829003601f168201915b5050505050905090565b60006107d682611671565b61080c576040517fcf4700e400000000000000000000000000000000000000000000000000000000815260040160405180910390fd5b5060009081526006602052604090205473ffffffffffffffffffffffffffffffffffffffff1690565b600061084082610cc7565b90503373ffffffffffffffffffffffffffffffffffffffff82161461089f5761086981336105d9565b61089f576040517fcfb3b94200000000000000000000000000000000000000000000000000000000815260040160405180910390fd5b60008281526006602052604080822080547fffffffffffffffffffffffff00000000000000000000000000000000000000001673ffffffffffffffffffffffffffffffffffffffff87811691821790925591518593918516917f8c5be1e5ebec7d5bd14f71427d1e84f3dd0314c0f7b2291e5b200ac8c7c3b92591a4505050565b600061092b826116b1565b90508373ffffffffffffffffffffffffffffffffffffffff168173ffffffffffffffffffffffffffffffffffffffff1614610992576040517fa114810000000000000000000000000000000000000000000000000000000000815260040160405180910390fd5b600082815260066020526040902080543380821473ffffffffffffffffffffffffffffffffffffffff881690911417610a05576109cf86336105d9565b610a05576040517f59c896be00000000000000000000000000000000000000000000000000000000815260040160405180910390fd5b73ffffffffffffffffffffffffffffffffffffffff8516610a52576040517fea553b3400000000000000000000000000000000000000000000000000000000815260040160405180910390fd5b8015610a5d57600082555b73ffffffffffffffffffffffffffffffffffffffff86811660009081526005602052604080822080547fffffffffffffffffffffffffffffffffffffffffffffffffffffffffffffffff019055918716808252919020805460010190554260a01b177c0200000000000000000000000000000000000000000000000000000000176000858152600460205260408120919091557c020000000000000000000000000000000000000000000000000000000084169003610b4c57600184016000818152600460205260408120549003610b4a576000548114610b4a5760008181526004602052604090208490555b505b838573ffffffffffffffffffffffffffffffffffffffff168773ffffffffffffffffffffffffffffffffffffffff167fddf252ad1be2c89b69c2b068fc378daa952ba7f163c4a11628f55a4df523b3ef60405160405180910390a45b505050505050565b610bb8611768565b600c610bc48282612505565b5050565b610bd0611768565b600560ff8216610be36001546000540390565b610bed919061264e565b1115610c25576040517f5c9a0abb00000000000000000000000000000000000000000000000000000000815260040160405180910390fd5b610c32338260ff166117e9565b50565b610c3d611768565b610c45611927565b610c6d610c6760085473ffffffffffffffffffffffffffffffffffffffff1690565b4761199a565b610c776001600955565b565b610c9483838360405180602001604052806000815250610fc1565b505050565b600a5460009060ff1680610cb65750600a5462010000900460ff16155b15610cc15750600190565b50600090565b6000610733826116b1565b610cda611768565b600e55565b600073ffffffffffffffffffffffffffffffffffffffff8216610d2e576040517f8f4eb60400000000000000000000000000000000000000000000000000000000815260040160405180910390fd5b5073ffffffffffffffffffffffffffffffffffffffff1660009081526005602052604090205467ffffffffffffffff1690565b610d69611768565b610c776000611af4565b610d7b611768565b600a805460ff9092166301000000027fffffffffffffffffffffffffffffffffffffffffffffffffffffffff00ffffff909216919091179055565b610dbe611768565b600a80547fffffffffffffffffffffffffffffffffffffffffffffffffffffffffff00ffff1662010000179055565b6060600380546107489061246c565b610e04611927565b600a5462010000900460ff16610e46576040517fb35ba98d00000000000000000000000000000000000000000000000000000000815260040160405180910390fd5b80600b54610e549190612666565b341015610e8d576040517fcd1c886700000000000000000000000000000000000000000000000000000000815260040160405180910390fd5b610bb881610e9e6001546000540390565b610ea8919061264e565b1115610ee0576040517f5c9a0abb00000000000000000000000000000000000000000000000000000000815260040160405180910390fd5b610eea33826117e9565b610c326001600955565b33600081815260076020908152604080832073ffffffffffffffffffffffffffffffffffffffff87168085529083529281902080547fffffffffffffffffffffffffffffffffffffffffffffffffffffffffffffff001686151590811790915590519081529192917f17307eab39ab6107e8899845ad3d59bd9653f200f220920489ca2b5937696c31910160405180910390a35050565b610f93611768565b600a80547fffffffffffffffffffffffffffffffffffffffffffffffffffffffffffff00ff16610100179055565b610fcc848484610920565b73ffffffffffffffffffffffffffffffffffffffff83163b1561102b57610ff584848484611b6b565b61102b576040517fd1a57ed600000000000000000000000000000000000000000000000000000000815260040160405180910390fd5b50505050565b611039611768565b600f55565b611046611927565b600a5460ff1615806110605750600a5462010000900460ff165b15611097576040517fd23cd50900000000000000000000000000000000000000000000000000000000815260040160405180910390fd5b80600b546110a59190612666565b3410156110de576040517fcd1c886700000000000000000000000000000000000000000000000000000000815260040160405180910390fd5b610bb8816110ef6001546000540390565b6110f9919061264e565b1115611131576040517f5c9a0abb00000000000000000000000000000000000000000000000000000000815260040160405180910390fd5b600a5460ff6301000000909104168161117a3373ffffffffffffffffffffffffffffffffffffffff166000908152600560205260409081902054901c67ffffffffffffffff1690565b611184919061264e565b11156111bc576040517fd900aa8a00000000000000000000000000000000000000000000000000000000815260040160405180910390fd5b6111c882868686611ce5565b6111fe576040517f17729de500000000000000000000000000000000000000000000000000000000815260040160405180910390fd5b61120884826117e9565b6112126001600955565b5050505050565b600d80546112269061246c565b80601f01602080910402602001604051908101604052809291908181526020018280546112529061246c565b801561129f5780601f106112745761010080835404028352916020019161129f565b820191906000526020600020905b81548152906001019060200180831161128257829003601f168201915b505050505081565b60606112b282611671565b611343576040517f08c379a000000000000000000000000000000000000000000000000000000000815260206004820152602f60248201527f4552433732314d657461646174613a2055524920717565727920666f72206e6f60448201527f6e6578697374656e7420746f6b656e000000000000000000000000000000000060648201526084015b60405180910390fd5b600061134d611d67565b9050600081511161136d576040518060200160405280600081525061139b565b8061137784611d76565b600d60405160200161138b939291906126a3565b6040516020818303038152906040525b9392505050565b6113aa611768565b600d610bc48282612505565b6113be611768565b600a80547fffffffffffffffffffffffffffffffffffffffffffffffffffffffffffffff00166001179055565b6113f3611927565b600a54610100900460ff1615806114125750600a5462010000900460ff165b15611449576040517fef4604b300000000000000000000000000000000000000000000000000000000815260040160405180910390fd5b80600b546114579190612666565b341015611490576040517fcd1c886700000000000000000000000000000000000000000000000000000000815260040160405180910390fd5b610bb8816114a16001546000540390565b6114ab919061264e565b11156114e3576040517f5c9a0abb00000000000000000000000000000000000000000000000000000000815260040160405180910390fd5b600a5460ff6301000000909104168161152c3373ffffffffffffffffffffffffffffffffffffffff166000908152600560205260409081902054901c67ffffffffffffffff1690565b611536919061264e565b111561156e576040517fd900aa8a00000000000000000000000000000000000000000000000000000000815260040160405180910390fd5b61157a82868686611ed6565b6111fe576040517f5b0aa2ba00000000000000000000000000000000000000000000000000000000815260040160405180910390fd5b6115b8611768565b73ffffffffffffffffffffffffffffffffffffffff811661165b576040517f08c379a000000000000000000000000000000000000000000000000000000000815260206004820152602660248201527f4f776e61626c653a206e6577206f776e657220697320746865207a65726f206160448201527f6464726573730000000000000000000000000000000000000000000000000000606482015260840161133a565b610c3281611af4565b61166c611768565b600b55565b60008054821080156107335750506000908152600460205260409020547c0100000000000000000000000000000000000000000000000000000000161590565b60008160005481101561173657600081815260046020526040812054907c010000000000000000000000000000000000000000000000000000000082169003611734575b8060000361139b57507fffffffffffffffffffffffffffffffffffffffffffffffffffffffffffffffff016000818152600460205260409020546116f5565b505b6040517fdf2d9b4200000000000000000000000000000000000000000000000000000000815260040160405180910390fd5b60085473ffffffffffffffffffffffffffffffffffffffff163314610c77576040517f08c379a000000000000000000000000000000000000000000000000000000000815260206004820181905260248201527f4f776e61626c653a2063616c6c6572206973206e6f7420746865206f776e6572604482015260640161133a565b6000805490829003611827576040517fb562e8dd00000000000000000000000000000000000000000000000000000000815260040160405180910390fd5b73ffffffffffffffffffffffffffffffffffffffff831660008181526005602090815260408083208054680100000000000000018802019055848352600490915281206001851460e11b4260a01b178317905582840190839083907fddf252ad1be2c89b69c2b068fc378daa952ba7f163c4a11628f55a4df523b3ef8180a4600183015b8181146118e357808360007fddf252ad1be2c89b69c2b068fc378daa952ba7f163c4a11628f55a4df523b3ef600080a46001016118ab565b508160000361191e576040517f2e07630000000000000000000000000000000000000000000000000000000000815260040160405180910390fd5b60005550505050565b600260095403611993576040517f08c379a000000000000000000000000000000000000000000000000000000000815260206004820152601f60248201527f5265656e7472616e637947756172643a207265656e7472616e742063616c6c00604482015260640161133a565b6002600955565b80471015611a04576040517f08c379a000000000000000000000000000000000000000000000000000000000815260206004820152601d60248201527f416464726573733a20696e73756666696369656e742062616c616e6365000000604482015260640161133a565b60008273ffffffffffffffffffffffffffffffffffffffff168260405160006040518083038185875af1925050503d8060008114611a5e576040519150601f19603f3d011682016040523d82523d6000602084013e611a63565b606091505b5050905080610c94576040517f08c379a000000000000000000000000000000000000000000000000000000000815260206004820152603a60248201527f416464726573733a20756e61626c6520746f2073656e642076616c75652c207260448201527f6563697069656e74206d61792068617665207265766572746564000000000000606482015260840161133a565b6008805473ffffffffffffffffffffffffffffffffffffffff8381167fffffffffffffffffffffffff0000000000000000000000000000000000000000831681179093556040519116919082907f8be0079c531659141344cd1fd0a4f28419497f9722a3daafe3b4186f6b6457e090600090a35050565b6040517f150b7a0200000000000000000000000000000000000000000000000000000000815260009073ffffffffffffffffffffffffffffffffffffffff85169063150b7a0290611bc6903390899088908890600401612761565b6020604051808303816000875af1925050508015611c1f575060408051601f3d9081017fffffffffffffffffffffffffffffffffffffffffffffffffffffffffffffffe0168201909252611c1c918101906127aa565b60015b611c96573d808015611c4d576040519150601f19603f3d011682016040523d82523d6000602084013e611c52565b606091505b508051600003611c8e576040517fd1a57ed600000000000000000000000000000000000000000000000000000000815260040160405180910390fd5b805181602001fd5b7fffffffff00000000000000000000000000000000000000000000000000000000167f150b7a02000000000000000000000000000000000000000000000000000000001490505b949350505050565b6000611d5e600e54858585604051602001611d389392919092835260609190911b7fffffffffffffffffffffffffffffffffffffffff000000000000000000000000166020830152603482015260540190565b6040516020818303038152906040528051906020012087611f299092919063ffffffff16565b95945050505050565b6060600c80546107489061246c565b606081600003611db957505060408051808201909152600181527f3000000000000000000000000000000000000000000000000000000000000000602082015290565b8160005b8115611de35780611dcd816127c7565b9150611ddc9050600a836127ff565b9150611dbd565b60008167ffffffffffffffff811115611dfe57611dfe612134565b6040519080825280601f01601f191660200182016040528015611e28576020820181803683370190505b509050815b8515611ecd57611e3e60018261283a565b90506000611e4d600a886127ff565b611e5890600a612666565b611e62908861283a565b611e6d906030612851565b905060008160f81b905080848481518110611e8a57611e8a612876565b60200101907effffffffffffffffffffffffffffffffffffffffffffffffffffffffffffff1916908160001a905350611ec4600a896127ff565b97505050611e2d565b50949350505050565b6000611d5e600f54858585604051602001611d389392919092835260609190911b7fffffffffffffffffffffffffffffffffffffffff000000000000000000000000166020830152603482015260540190565b600082611f368584611f3f565b14949350505050565b600081815b8451811015611f8457611f7082868381518110611f6357611f63612876565b6020026020010151611f8c565b915080611f7c816127c7565b915050611f44565b509392505050565b6000818310611fa857600082815260208490526040902061139b565b5060009182526020526040902090565b7fffffffff0000000000000000000000000000000000000000000000000000000081168114610c3257600080fd5b600060208284031215611ff857600080fd5b813561139b81611fb8565b60005b8381101561201e578181015183820152602001612006565b8381111561102b5750506000910152565b60008151808452612047816020860160208601612003565b601f017fffffffffffffffffffffffffffffffffffffffffffffffffffffffffffffffe0169290920160200192915050565b60208152600061139b602083018461202f565b60006020828403121561209e57600080fd5b5035919050565b803573ffffffffffffffffffffffffffffffffffffffff811681146120c957600080fd5b919050565b600080604083850312156120e157600080fd5b6120ea836120a5565b946020939093013593505050565b60008060006060848603121561210d57600080fd5b612116846120a5565b9250612124602085016120a5565b9150604084013590509250925092565b7f4e487b7100000000000000000000000000000000000000000000000000000000600052604160045260246000fd5b604051601f82017fffffffffffffffffffffffffffffffffffffffffffffffffffffffffffffffe016810167ffffffffffffffff811182821017156121aa576121aa612134565b604052919050565b600067ffffffffffffffff8311156121cc576121cc612134565b6121fd60207fffffffffffffffffffffffffffffffffffffffffffffffffffffffffffffffe0601f86011601612163565b905082815283838301111561221157600080fd5b828260208301376000602084830101529392505050565b60006020828403121561223a57600080fd5b813567ffffffffffffffff81111561225157600080fd5b8201601f8101841361226257600080fd5b611cdd848235602084016121b2565b60006020828403121561228357600080fd5b813560ff8116811461139b57600080fd5b6000602082840312156122a657600080fd5b61139b826120a5565b600080604083850312156122c257600080fd5b6122cb836120a5565b9150602083013580151581146122e057600080fd5b809150509250929050565b6000806000806080858703121561230157600080fd5b61230a856120a5565b9350612318602086016120a5565b925060408501359150606085013567ffffffffffffffff81111561233b57600080fd5b8501601f8101871361234c57600080fd5b61235b878235602084016121b2565b91505092959194509250565b600080600080600060a0868803121561237f57600080fd5b8535945060206123908188016120a5565b945060408701359350606087013567ffffffffffffffff808211156123b457600080fd5b818901915089601f8301126123c857600080fd5b8135818111156123da576123da612134565b8060051b91506123eb848301612163565b818152918301840191848101908c84111561240557600080fd5b938501935b838510156124235784358252938501939085019061240a565b999c989b50969960800135979650505050505050565b6000806040838503121561244c57600080fd5b612455836120a5565b9150612463602084016120a5565b90509250929050565b600181811c9082168061248057607f821691505b6020821081036124b9577f4e487b7100000000000000000000000000000000000000000000000000000000600052602260045260246000fd5b50919050565b601f821115610c9457600081815260208120601f850160051c810160208610156124e65750805b601f850160051c820191505b81811015610ba8578281556001016124f2565b815167ffffffffffffffff81111561251f5761251f612134565b6125338161252d845461246c565b846124bf565b602080601f83116001811461258657600084156125505750858301515b7fffffffffffffffffffffffffffffffffffffffffffffffffffffffffffffffff600386901b1c1916600185901b178555610ba8565b6000858152602081207fffffffffffffffffffffffffffffffffffffffffffffffffffffffffffffffe08616915b828110156125d3578886015182559484019460019091019084016125b4565b508582101561260f57878501517fffffffffffffffffffffffffffffffffffffffffffffffffffffffffffffffff600388901b60f8161c191681555b5050505050600190811b01905550565b7f4e487b7100000000000000000000000000000000000000000000000000000000600052601160045260246000fd5b600082198211156126615761266161261f565b500190565b6000817fffffffffffffffffffffffffffffffffffffffffffffffffffffffffffffffff048311821515161561269e5761269e61261f565b500290565b6000845160206126b68285838a01612003565b8551918401916126c98184848a01612003565b85549201916000906126da8161246c565b600182811680156126f2576001811461272557612751565b7fffffffffffffffffffffffffffffffffffffffffffffffffffffffffffffff0084168752821515830287019450612751565b896000528560002060005b8481101561274957815489820152908301908701612730565b505082870194505b50929a9950505050505050505050565b600073ffffffffffffffffffffffffffffffffffffffff8087168352808616602084015250836040830152608060608301526127a0608083018461202f565b9695505050505050565b6000602082840312156127bc57600080fd5b815161139b81611fb8565b60007fffffffffffffffffffffffffffffffffffffffffffffffffffffffffffffffff82036127f8576127f861261f565b5060010190565b600082612835577f4e487b7100000000000000000000000000000000000000000000000000000000600052601260045260246000fd5b500490565b60008282101561284c5761284c61261f565b500390565b600060ff821660ff84168060ff0382111561286e5761286e61261f565b019392505050565b7f4e487b7100000000000000000000000000000000000000000000000000000000600052603260045260246000fdfea26469706673582212201f907ad4a53d5459930a51511b30dc9aecad0fa4fb4658eade7bbcf306685b3a64736f6c634300080f0033",
  "devdoc": {
    "kind": "dev",
    "methods": {
      "approve(address,uint256)": {
        "details": "Gives permission to `to` to transfer `tokenId` token to another account. The approval is cleared when the token is transferred. Only a single account can be approved at a time, so approving the zero address clears previous approvals. Requirements: - The caller must own the token or be an approved operator. - `tokenId` must exist. Emits an {Approval} event."
      },
      "balanceOf(address)": {
        "details": "Returns the number of tokens in `owner`'s account."
      },
      "getApproved(uint256)": {
        "details": "Returns the account approved for `tokenId` token. Requirements: - `tokenId` must exist."
      },
      "isApprovedForAll(address,address)": {
        "details": "Returns if the `operator` is allowed to manage all of the assets of `owner`. See {setApprovalForAll}."
      },
      "name()": {
        "details": "Returns the token collection name."
      },
      "owner()": {
        "details": "Returns the address of the current owner."
      },
      "ownerOf(uint256)": {
        "details": "Returns the owner of the `tokenId` token. Requirements: - `tokenId` must exist."
      },
      "renounceOwnership()": {
        "details": "Leaves the contract without owner. It will not be possible to call `onlyOwner` functions anymore. Can only be called by the current owner. NOTE: Renouncing ownership will leave the contract without an owner, thereby removing any functionality that is only available to the owner."
      },
      "safeTransferFrom(address,address,uint256)": {
        "details": "Equivalent to `safeTransferFrom(from, to, tokenId, '')`."
      },
      "safeTransferFrom(address,address,uint256,bytes)": {
        "details": "Safely transfers `tokenId` token from `from` to `to`. Requirements: - `from` cannot be the zero address. - `to` cannot be the zero address. - `tokenId` token must exist and be owned by `from`. - If the caller is not `from`, it must be approved to move this token by either {approve} or {setApprovalForAll}. - If `to` refers to a smart contract, it must implement {IERC721Receiver-onERC721Received}, which is called upon a safe transfer. Emits a {Transfer} event."
      },
      "setApprovalForAll(address,bool)": {
        "details": "Approve or remove `operator` as an operator for the caller. Operators can call {transferFrom} or {safeTransferFrom} for any token owned by the caller. Requirements: - The `operator` cannot be the caller. Emits an {ApprovalForAll} event."
      },
      "supportsInterface(bytes4)": {
        "details": "Returns true if this contract implements the interface defined by `interfaceId`. See the corresponding [EIP section](https://eips.ethereum.org/EIPS/eip-165#how-interfaces-are-identified) to learn more about how these ids are created. This function call must use less than 30000 gas."
      },
      "symbol()": {
        "details": "Returns the token collection symbol."
      },
      "tokenURI(uint256)": {
        "details": "Returns the Uniform Resource Identifier (URI) for `tokenId` token."
      },
      "totalSupply()": {
        "details": "Returns the total number of tokens in existence. Burned tokens will reduce the count. To get the total number of tokens minted, please see {_totalMinted}."
      },
      "transferFrom(address,address,uint256)": {
        "details": "Transfers `tokenId` from `from` to `to`. Requirements: - `from` cannot be the zero address. - `to` cannot be the zero address. - `tokenId` token must be owned by `from`. - If the caller is not `from`, it must be approved to move this token by either {approve} or {setApprovalForAll}. Emits a {Transfer} event."
      },
      "transferOwnership(address)": {
        "details": "Transfers ownership of the contract to a new account (`newOwner`). Can only be called by the current owner."
      }
    },
    "version": 1
  },
  "userdoc": {
    "errors": {
      "ApprovalCallerNotOwnerNorApproved()": [
        {
          "notice": "The caller must own the token or be an approved operator."
        }
      ],
      "ApprovalQueryForNonexistentToken()": [
        {
          "notice": "The token does not exist."
        }
      ],
      "BalanceQueryForZeroAddress()": [
        {
          "notice": "Cannot query the balance for the zero address."
        }
      ],
      "MintERC2309QuantityExceedsLimit()": [
        {
          "notice": "The `quantity` minted with ERC2309 exceeds the safety limit."
        }
      ],
      "MintToZeroAddress()": [
        {
          "notice": "Cannot mint to the zero address."
        }
      ],
      "MintZeroQuantity()": [
        {
          "notice": "The quantity of tokens minted must be more than zero."
        }
      ],
      "OwnerQueryForNonexistentToken()": [
        {
          "notice": "The token does not exist."
        }
      ],
      "OwnershipNotInitializedForExtraData()": [
        {
          "notice": "The `extraData` cannot be set on an unintialized ownership slot."
        }
      ],
      "TransferCallerNotOwnerNorApproved()": [
        {
          "notice": "The caller must own the token or be an approved operator."
        }
      ],
      "TransferFromIncorrectOwner()": [
        {
          "notice": "The token must be owned by `from`."
        }
      ],
      "TransferToNonERC721ReceiverImplementer()": [
        {
          "notice": "Cannot safely transfer to a contract that does not implement the ERC721Receiver interface."
        }
      ],
      "TransferToZeroAddress()": [
        {
          "notice": "Cannot transfer to the zero address."
        }
      ],
      "URIQueryForNonexistentToken()": [
        {
          "notice": "The token does not exist."
        }
      ]
    },
    "kind": "user",
    "methods": {},
    "version": 1
  },
  "storageLayout": {
    "storage": [
      {
        "astId": 1751,
        "contract": "contracts/nft/ZeroHeroNFT.sol:ZeroHeroNFT",
        "label": "_currentIndex",
        "offset": 0,
        "slot": "0",
        "type": "t_uint256"
      },
      {
        "astId": 1753,
        "contract": "contracts/nft/ZeroHeroNFT.sol:ZeroHeroNFT",
        "label": "_burnCounter",
        "offset": 0,
        "slot": "1",
        "type": "t_uint256"
      },
      {
        "astId": 1755,
        "contract": "contracts/nft/ZeroHeroNFT.sol:ZeroHeroNFT",
        "label": "_name",
        "offset": 0,
        "slot": "2",
        "type": "t_string_storage"
      },
      {
        "astId": 1757,
        "contract": "contracts/nft/ZeroHeroNFT.sol:ZeroHeroNFT",
        "label": "_symbol",
        "offset": 0,
        "slot": "3",
        "type": "t_string_storage"
      },
      {
        "astId": 1761,
        "contract": "contracts/nft/ZeroHeroNFT.sol:ZeroHeroNFT",
        "label": "_packedOwnerships",
        "offset": 0,
        "slot": "4",
        "type": "t_mapping(t_uint256,t_uint256)"
      },
      {
        "astId": 1765,
        "contract": "contracts/nft/ZeroHeroNFT.sol:ZeroHeroNFT",
        "label": "_packedAddressData",
        "offset": 0,
        "slot": "5",
        "type": "t_mapping(t_address,t_uint256)"
      },
      {
        "astId": 1770,
        "contract": "contracts/nft/ZeroHeroNFT.sol:ZeroHeroNFT",
        "label": "_tokenApprovals",
        "offset": 0,
        "slot": "6",
        "type": "t_mapping(t_uint256,t_struct(TokenApprovalRef)1683_storage)"
      },
      {
        "astId": 1776,
        "contract": "contracts/nft/ZeroHeroNFT.sol:ZeroHeroNFT",
        "label": "_operatorApprovals",
        "offset": 0,
        "slot": "7",
        "type": "t_mapping(t_address,t_mapping(t_address,t_bool))"
      },
      {
        "astId": 7,
        "contract": "contracts/nft/ZeroHeroNFT.sol:ZeroHeroNFT",
        "label": "_owner",
        "offset": 0,
        "slot": "8",
        "type": "t_address"
      },
      {
        "astId": 123,
        "contract": "contracts/nft/ZeroHeroNFT.sol:ZeroHeroNFT",
        "label": "_status",
        "offset": 0,
        "slot": "9",
        "type": "t_uint256"
      },
      {
        "astId": 1061,
        "contract": "contracts/nft/ZeroHeroNFT.sol:ZeroHeroNFT",
        "label": "privateMintStarted",
        "offset": 0,
        "slot": "10",
        "type": "t_bool"
      },
      {
        "astId": 1063,
        "contract": "contracts/nft/ZeroHeroNFT.sol:ZeroHeroNFT",
        "label": "whitelistMintStarted",
        "offset": 1,
        "slot": "10",
        "type": "t_bool"
      },
      {
        "astId": 1065,
        "contract": "contracts/nft/ZeroHeroNFT.sol:ZeroHeroNFT",
        "label": "publicMintStarted",
        "offset": 2,
        "slot": "10",
        "type": "t_bool"
      },
      {
        "astId": 1068,
        "contract": "contracts/nft/ZeroHeroNFT.sol:ZeroHeroNFT",
        "label": "maxItemsPerWallet",
        "offset": 3,
        "slot": "10",
        "type": "t_uint8"
      },
      {
        "astId": 1071,
        "contract": "contracts/nft/ZeroHeroNFT.sol:ZeroHeroNFT",
        "label": "mintPrice",
        "offset": 0,
        "slot": "11",
        "type": "t_uint256"
      },
      {
        "astId": 1073,
        "contract": "contracts/nft/ZeroHeroNFT.sol:ZeroHeroNFT",
        "label": "baseTokenURI",
        "offset": 0,
        "slot": "12",
        "type": "t_string_storage"
      },
      {
        "astId": 1076,
        "contract": "contracts/nft/ZeroHeroNFT.sol:ZeroHeroNFT",
        "label": "baseExtension",
        "offset": 0,
        "slot": "13",
        "type": "t_string_storage"
      },
      {
        "astId": 1078,
        "contract": "contracts/nft/ZeroHeroNFT.sol:ZeroHeroNFT",
        "label": "privateMerkleRoot",
        "offset": 0,
        "slot": "14",
        "type": "t_bytes32"
      },
      {
        "astId": 1080,
        "contract": "contracts/nft/ZeroHeroNFT.sol:ZeroHeroNFT",
        "label": "whitelistMerkleRoot",
        "offset": 0,
        "slot": "15",
        "type": "t_bytes32"
      }
    ],
    "types": {
      "t_address": {
        "encoding": "inplace",
        "label": "address",
        "numberOfBytes": "20"
      },
      "t_bool": {
        "encoding": "inplace",
        "label": "bool",
        "numberOfBytes": "1"
      },
      "t_bytes32": {
        "encoding": "inplace",
        "label": "bytes32",
        "numberOfBytes": "32"
      },
      "t_mapping(t_address,t_bool)": {
        "encoding": "mapping",
        "key": "t_address",
        "label": "mapping(address => bool)",
        "numberOfBytes": "32",
        "value": "t_bool"
      },
      "t_mapping(t_address,t_mapping(t_address,t_bool))": {
        "encoding": "mapping",
        "key": "t_address",
        "label": "mapping(address => mapping(address => bool))",
        "numberOfBytes": "32",
        "value": "t_mapping(t_address,t_bool)"
      },
      "t_mapping(t_address,t_uint256)": {
        "encoding": "mapping",
        "key": "t_address",
        "label": "mapping(address => uint256)",
        "numberOfBytes": "32",
        "value": "t_uint256"
      },
      "t_mapping(t_uint256,t_struct(TokenApprovalRef)1683_storage)": {
        "encoding": "mapping",
        "key": "t_uint256",
        "label": "mapping(uint256 => struct ERC721A.TokenApprovalRef)",
        "numberOfBytes": "32",
        "value": "t_struct(TokenApprovalRef)1683_storage"
      },
      "t_mapping(t_uint256,t_uint256)": {
        "encoding": "mapping",
        "key": "t_uint256",
        "label": "mapping(uint256 => uint256)",
        "numberOfBytes": "32",
        "value": "t_uint256"
      },
      "t_string_storage": {
        "encoding": "bytes",
        "label": "string",
        "numberOfBytes": "32"
      },
      "t_struct(TokenApprovalRef)1683_storage": {
        "encoding": "inplace",
        "label": "struct ERC721A.TokenApprovalRef",
        "members": [
          {
            "astId": 1682,
            "contract": "contracts/nft/ZeroHeroNFT.sol:ZeroHeroNFT",
            "label": "value",
            "offset": 0,
            "slot": "0",
            "type": "t_address"
          }
        ],
        "numberOfBytes": "32"
      },
      "t_uint256": {
        "encoding": "inplace",
        "label": "uint256",
        "numberOfBytes": "32"
      },
      "t_uint8": {
        "encoding": "inplace",
        "label": "uint8",
        "numberOfBytes": "1"
      }
    }
  }
}