{
  "abi": [
    {
      "inputs": [],
      "name": "latestAnswer",
      "outputs": [
        {
          "internalType": "uint256",
          "name": "",
          "type": "uint256"
        }
      ],
      "stateMutability": "view",
      "type": "function"
    },
    {
      "inputs": [
        {
          "internalType": "uint256",
          "name": "answer",
          "type": "uint256"
        }
      ],
      "name": "setLatestAnswer",
      "outputs": [],
      "stateMutability": "nonpayable",
      "type": "function"
    }
  ],
  "bytecode": {
    "object": "0x60808060405234601d576402540be40060005560d590816100238239f35b600080fdfe6080806040526004361015601257600080fd5b600090813560e01c806320aa1b8014606a576350d25bcd14603257600080fd5b34606657817ffffffffffffffffffffffffffffffffffffffffffffffffffffffffffffffffc360112606657602091548152f35b5080fd5b503460665760207ffffffffffffffffffffffffffffffffffffffffffffffffffffffffffffffffc3601126066576004358255f3fea264697066735822122019f9469c7ad94d0c1b57237c1957e0c095c459e176bed936a301c442852f1d0564736f6c634300080f0033",
    "linkReferences": {}
  },
  "methodIdentifiers": {
    "latestAnswer()": "50d25bcd",
    "setLatestAnswer(uint256)": "20aa1b80"
  },
  "id": 77
}