{
  "abi": [
    {
      "inputs": [],
      "name": "decode",
      "outputs": [
        {
          "internalType": "uint256",
          "name": "zeroBorrowFeeBips",
          "type": "uint256"
        },
        {
          "internalType": "uint256",
          "name": "renBorrowFeeBips",
          "type": "uint256"
        },
        {
          "internalType": "uint256",
          "name": "zeroFeeShareBips",
          "type": "uint256"
        },
        {
          "internalType": "uint256",
          "name": "zeroBorrowFeeStatic",
          "type": "uint256"
        },
        {
          "internalType": "uint256",
          "name": "renBorrowFeeStatic",
          "type": "uint256"
        },
        {
          "internalType": "uint256",
          "name": "satoshiPerEth",
          "type": "uint256"
        },
        {
          "internalType": "uint256",
          "name": "gweiPerGas",
          "type": "uint256"
        },
        {
          "internalType": "uint256",
          "name": "lastUpdateTimestamp",
          "type": "uint256"
        },
        {
          "internalType": "uint256",
          "name": "totalBitcoinBorrowed",
          "type": "uint256"
        },
        {
          "internalType": "uint256",
          "name": "unburnedGasReserveShares",
          "type": "uint256"
        },
        {
          "internalType": "uint256",
          "name": "unburnedZeroFeeShares",
          "type": "uint256"
        }
      ],
      "stateMutability": "view",
      "type": "function"
    },
    {
      "inputs": [
        {
          "internalType": "uint256",
          "name": "zeroBorrowFeeBips",
          "type": "uint256"
        },
        {
          "internalType": "uint256",
          "name": "renBorrowFeeBips",
          "type": "uint256"
        },
        {
          "internalType": "uint256",
          "name": "zeroFeeShareBips",
          "type": "uint256"
        },
        {
          "internalType": "uint256",
          "name": "zeroBorrowFeeStatic",
          "type": "uint256"
        },
        {
          "internalType": "uint256",
          "name": "renBorrowFeeStatic",
          "type": "uint256"
        },
        {
          "internalType": "uint256",
          "name": "satoshiPerEth",
          "type": "uint256"
        },
        {
          "internalType": "uint256",
          "name": "gweiPerGas",
          "type": "uint256"
        },
        {
          "internalType": "uint256",
          "name": "lastUpdateTimestamp",
          "type": "uint256"
        },
        {
          "internalType": "uint256",
          "name": "totalBitcoinBorrowed",
          "type": "uint256"
        },
        {
          "internalType": "uint256",
          "name": "unburnedGasReserveShares",
          "type": "uint256"
        },
        {
          "internalType": "uint256",
          "name": "unburnedZeroFeeShares",
          "type": "uint256"
        }
      ],
      "name": "encode",
      "outputs": [],
      "stateMutability": "nonpayable",
      "type": "function"
    },
    {
      "inputs": [],
      "name": "getFees",
      "outputs": [
        {
          "internalType": "uint256",
          "name": "zeroBorrowFeeBips",
          "type": "uint256"
        },
        {
          "internalType": "uint256",
          "name": "renBorrowFeeBips",
          "type": "uint256"
        },
        {
          "internalType": "uint256",
          "name": "zeroBorrowFeeStatic",
          "type": "uint256"
        },
        {
          "internalType": "uint256",
          "name": "renBorrowFeeStatic",
          "type": "uint256"
        }
      ],
      "stateMutability": "view",
      "type": "function"
    },
    {
      "inputs": [],
      "name": "getGweiPerGas",
      "outputs": [
        {
          "internalType": "uint256",
          "name": "gweiPerGas",
          "type": "uint256"
        }
      ],
      "stateMutability": "view",
      "type": "function"
    },
    {
      "inputs": [],
      "name": "getLastUpdateTimestamp",
      "outputs": [
        {
          "internalType": "uint256",
          "name": "lastUpdateTimestamp",
          "type": "uint256"
        }
      ],
      "stateMutability": "view",
      "type": "function"
    },
    {
      "inputs": [],
      "name": "getLoanInfo",
      "outputs": [
        {
          "internalType": "uint256",
          "name": "totalBitcoinBorrowed",
          "type": "uint256"
        }
      ],
      "stateMutability": "view",
      "type": "function"
    },
    {
      "inputs": [],
      "name": "getParamsForModuleFees",
      "outputs": [
        {
          "internalType": "uint256",
          "name": "satoshiPerEth",
          "type": "uint256"
        },
        {
          "internalType": "uint256",
          "name": "gweiPerGas",
          "type": "uint256"
        }
      ],
      "stateMutability": "view",
      "type": "function"
    },
    {
      "inputs": [],
      "name": "getRenBorrowFeeBips",
      "outputs": [
        {
          "internalType": "uint256",
          "name": "renBorrowFeeBips",
          "type": "uint256"
        }
      ],
      "stateMutability": "view",
      "type": "function"
    },
    {
      "inputs": [],
      "name": "getRenBorrowFeeStatic",
      "outputs": [
        {
          "internalType": "uint256",
          "name": "renBorrowFeeStatic",
          "type": "uint256"
        }
      ],
      "stateMutability": "view",
      "type": "function"
    },
    {
      "inputs": [],
      "name": "getSatoshiPerEth",
      "outputs": [
        {
          "internalType": "uint256",
          "name": "satoshiPerEth",
          "type": "uint256"
        }
      ],
      "stateMutability": "view",
      "type": "function"
    },
    {
      "inputs": [],
      "name": "getTotalBitcoinBorrowed",
      "outputs": [
        {
          "internalType": "uint256",
          "name": "totalBitcoinBorrowed",
          "type": "uint256"
        }
      ],
      "stateMutability": "view",
      "type": "function"
    },
    {
      "inputs": [],
      "name": "getUnburnedGasReserveShares",
      "outputs": [
        {
          "internalType": "uint256",
          "name": "unburnedGasReserveShares",
          "type": "uint256"
        }
      ],
      "stateMutability": "view",
      "type": "function"
    },
    {
      "inputs": [],
      "name": "getUnburnedShares",
      "outputs": [
        {
          "internalType": "uint256",
          "name": "unburnedGasReserveShares",
          "type": "uint256"
        },
        {
          "internalType": "uint256",
          "name": "unburnedZeroFeeShares",
          "type": "uint256"
        }
      ],
      "stateMutability": "view",
      "type": "function"
    },
    {
      "inputs": [],
      "name": "getUnburnedZeroFeeShares",
      "outputs": [
        {
          "internalType": "uint256",
          "name": "unburnedZeroFeeShares",
          "type": "uint256"
        }
      ],
      "stateMutability": "view",
      "type": "function"
    },
    {
      "inputs": [],
      "name": "getZeroBorrowFeeBips",
      "outputs": [
        {
          "internalType": "uint256",
          "name": "zeroBorrowFeeBips",
          "type": "uint256"
        }
      ],
      "stateMutability": "view",
      "type": "function"
    },
    {
      "inputs": [],
      "name": "getZeroBorrowFeeStatic",
      "outputs": [
        {
          "internalType": "uint256",
          "name": "zeroBorrowFeeStatic",
          "type": "uint256"
        }
      ],
      "stateMutability": "view",
      "type": "function"
    },
    {
      "inputs": [],
      "name": "getZeroFeeShareBips",
      "outputs": [
        {
          "internalType": "uint256",
          "name": "zeroFeeShareBips",
          "type": "uint256"
        }
      ],
      "stateMutability": "view",
      "type": "function"
    },
    {
      "inputs": [
        {
          "internalType": "uint256",
          "name": "satoshiPerEth",
          "type": "uint256"
        },
        {
          "internalType": "uint256",
          "name": "gweiPerGas",
          "type": "uint256"
        },
        {
          "internalType": "uint256",
          "name": "lastUpdateTimestamp",
          "type": "uint256"
        }
      ],
      "name": "setCached",
      "outputs": [],
      "stateMutability": "nonpayable",
      "type": "function"
    },
    {
      "inputs": [
        {
          "internalType": "uint256",
          "name": "zeroBorrowFeeBips",
          "type": "uint256"
        },
        {
          "internalType": "uint256",
          "name": "renBorrowFeeBips",
          "type": "uint256"
        },
        {
          "internalType": "uint256",
          "name": "zeroBorrowFeeStatic",
          "type": "uint256"
        },
        {
          "internalType": "uint256",
          "name": "renBorrowFeeStatic",
          "type": "uint256"
        }
      ],
      "name": "setFees",
      "outputs": [],
      "stateMutability": "nonpayable",
      "type": "function"
    },
    {
      "inputs": [
        {
          "internalType": "uint256",
          "name": "totalBitcoinBorrowed",
          "type": "uint256"
        }
      ],
      "name": "setLoanInfo",
      "outputs": [],
      "stateMutability": "nonpayable",
      "type": "function"
    },
    {
      "inputs": [
        {
          "internalType": "uint256",
          "name": "satoshiPerEth",
          "type": "uint256"
        },
        {
          "internalType": "uint256",
          "name": "gweiPerGas",
          "type": "uint256"
        }
      ],
      "name": "setParamsForModuleFees",
      "outputs": [],
      "stateMutability": "nonpayable",
      "type": "function"
    },
    {
      "inputs": [
        {
          "internalType": "uint256",
          "name": "renBorrowFeeBips",
          "type": "uint256"
        }
      ],
      "name": "setRenBorrowFeeBips",
      "outputs": [],
      "stateMutability": "nonpayable",
      "type": "function"
    },
    {
      "inputs": [
        {
          "internalType": "uint256",
          "name": "renBorrowFeeStatic",
          "type": "uint256"
        }
      ],
      "name": "setRenBorrowFeeStatic",
      "outputs": [],
      "stateMutability": "nonpayable",
      "type": "function"
    },
    {
      "inputs": [
        {
          "internalType": "uint256",
          "name": "totalBitcoinBorrowed",
          "type": "uint256"
        }
      ],
      "name": "setTotalBitcoinBorrowed",
      "outputs": [],
      "stateMutability": "nonpayable",
      "type": "function"
    },
    {
      "inputs": [
        {
          "internalType": "uint256",
          "name": "unburnedGasReserveShares",
          "type": "uint256"
        }
      ],
      "name": "setUnburnedGasReserveShares",
      "outputs": [],
      "stateMutability": "nonpayable",
      "type": "function"
    },
    {
      "inputs": [
        {
          "internalType": "uint256",
          "name": "unburnedGasReserveShares",
          "type": "uint256"
        },
        {
          "internalType": "uint256",
          "name": "unburnedZeroFeeShares",
          "type": "uint256"
        }
      ],
      "name": "setUnburnedShares",
      "outputs": [],
      "stateMutability": "nonpayable",
      "type": "function"
    },
    {
      "inputs": [
        {
          "internalType": "uint256",
          "name": "unburnedZeroFeeShares",
          "type": "uint256"
        }
      ],
      "name": "setUnburnedZeroFeeShares",
      "outputs": [],
      "stateMutability": "nonpayable",
      "type": "function"
    },
    {
      "inputs": [
        {
          "internalType": "uint256",
          "name": "zeroBorrowFeeBips",
          "type": "uint256"
        }
      ],
      "name": "setZeroBorrowFeeBips",
      "outputs": [],
      "stateMutability": "nonpayable",
      "type": "function"
    },
    {
      "inputs": [
        {
          "internalType": "uint256",
          "name": "zeroBorrowFeeStatic",
          "type": "uint256"
        }
      ],
      "name": "setZeroBorrowFeeStatic",
      "outputs": [],
      "stateMutability": "nonpayable",
      "type": "function"
    },
    {
      "inputs": [
        {
          "internalType": "uint256",
          "name": "zeroFeeShareBips",
          "type": "uint256"
        }
      ],
      "name": "setZeroFeeShareBips",
      "outputs": [],
      "stateMutability": "nonpayable",
      "type": "function"
    }
  ],
  "bytecode": {
    "object": "0x6080806040523461001657610aa5908161001c8239f35b600080fdfe60806040526004361015610013575b600080fd5b60003560e01c806308a325ba146102595780632862d9f21461025057806328dded561461024757806339110dda1461023e5780634a0e2b3d1461021a5780634a413064146102355780634e64ba561461022c5780635cadc086146102235780635d3e2fa11461021a5780635d7e8705146102115780636c609f75146102085780636fcba377146101ff57806379af58d3146101f65780637ca8548a146101ed57806382eb748f146101e4578063aff567fa146101ae578063b40640db146101db578063b535ca12146101d2578063c0f8940c146101c9578063c19889bd146101c0578063c20b08f0146101b7578063c8369fc8146101ae578063cafea045146101a5578063d28e11681461019c578063d9083ed314610193578063da929e671461018a578063db8d55f114610181578063e1e4688214610178578063f69245211461016f5763ff4092ab1461016757600080fd5b61000e610a1a565b5061000e6109d7565b5061000e6109af565b5061000e610966565b5061000e6108f3565b5061000e6108cd565b5061000e610878565b5061000e610835565b5061000e61066e565b5061000e610813565b5061000e6107d1565b5061000e610711565b5061000e6106eb565b5061000e6106c4565b5061000e61061a565b5061000e6105e2565b5061000e6105ba565b5061000e61054d565b5061000e61049f565b5061000e610477565b5061000e61038d565b5061000e610450565b5061000e610418565b5061000e6103b6565b5061000e610365565b5061000e610311565b5061000e6102eb565b503461000e57604060031936011261000e57600054602435600435633fffffff811161ffff8311176102bc577fffffffffffffffffffff800000000001ffffffffffffffffffffffffffffffff9160811b9060911b179116176000556000604051f35b7f4e487b7100000000000000000000000000000000000000000000000000000000600052601160045260246000fd5b503461000e57600060031936011261000e57602060005460dd1c611fff16604051908152f35b503461000e57602060031936011261000e57600054600435627fffff81116102bc577fffffffffffffffc000007fffffffffffffffffffffffffffffffffffffffffff9060af1b9116176000556000604051f35b503461000e57600060031936011261000e576020600054601d1c630fffffff16604051908152f35b503461000e57600060031936011261000e57602060005460391c64ffffffffff16604051908152f35b503461000e57604060031936011261000e57600054602435600435630fffffff808211908311176102bc577ffffffffffffffffffffffffffffffffffffffffffffffffffe000000000000019160011b90601d1b179116176000556000604051f35b503461000e57600060031936011261000e5760005460408051609183901c633fffffff16815260819290921c61ffff16602083015290f35b503461000e57600060031936011261000e57602060005460c61c627fffff16604051908152f35b503461000e57600060031936011261000e57602060005460011c630fffffff16604051908152f35b503461000e5761016060031936011261000e5760643560843560a43560c43560e435610104356101243561014435627fffff808911908811633fffffff881161ffff881163ffffffff881164ffffffffff8811630fffffff808911908811171717171717176102bc5760011b90601d1b179060391b179060611b179060811b179060911b179060af1b179060c61b1760443560dd1b1760243560ea1b1760043560f51b176000556000604051f35b503461000e57608060031936011261000e57600054606435604435627fffff808211908311176102bc577d03ffe000000000007fffffffffffffffffffffffffffffffffffffffffff9160af1b9060c61b1760243560ea1b1760043560f51b179116176000556000604051f35b503461000e57600060031936011261000e57602060005460911c633fffffff16604051908152f35b503461000e57600060031936011261000e5760005460408051630fffffff601d84901c8116825260019390931c909216602083015290f35b503461000e57602060031936011261000e57600054600435627fffff81116102bc577fffffffffe000003fffffffffffffffffffffffffffffffffffffffffffffffff9060c61b9116176000556000604051f35b503461000e57602060031936011261000e5760005460043564ffffffffff81116102bc577ffffffffffffffffffffffffffffffffffffffffe0000000001ffffffffffffff9060391b9116176000556000604051f35b503461000e57600060031936011261000e57602060005460af1c627fffff16604051908152f35b503461000e57600060031936011261000e57602060005460811c61ffff16604051908152f35b503461000e57600060031936011261000e576000546040805160f583901c815260ea83901c6107ff16602082015260dd83901c611fff1691810191909152627fffff60c683901c8116606083015260af83901c166080820152609182901c633fffffff1660a0820152608182901c61ffff1660c0820152606182901c63ffffffff1660e0820152603982901c64ffffffffff16610100820152630fffffff601d83901c811661012083015260019290921c90911661014082015261016090f35b503461000e57602060031936011261000e57600080547e1fffffffffffffffffffffffffffffffffffffffffffffffffffffffffffff1660043560f51b179055005b503461000e57600060031936011261000e57602060005460f51c604051908152f35b503461000e57602060031936011261000e57600080547ffffffc001fffffffffffffffffffffffffffffffffffffffffffffffffffffff1660043560dd1b179055005b503461000e57602060031936011261000e57600054600435630fffffff81116102bc577ffffffffffffffffffffffffffffffffffffffffffffffffffe0000001fffffff90601d1b9116176000556000604051f35b503461000e57600060031936011261000e57602060005460ea1c6107ff16604051908152f35b503461000e57606060031936011261000e57600054604435600435602435633fffffff821161ffff821163ffffffff851117176102bc577fffffffffffffffffffff80000000000000000001ffffffffffffffffffffffff9260611b9060811b179060911b179116176000556000604051f35b503461000e57600060031936011261000e576080600054604051908060f51c82528060ea1c6107ff166020830152627fffff908060c61c8216604084015260af1c166060820152f35b503461000e57600060031936011261000e57602060005460611c63ffffffff16604051908152f35b503461000e57602060031936011261000e57600080547fffe003ffffffffffffffffffffffffffffffffffffffffffffffffffffffffff1660043560ea1b179055005b503461000e57602060031936011261000e57600054600435630fffffff81116102bc577fffffffffffffffffffffffffffffffffffffffffffffffffffffffffe00000019060011b9116176000556000604051f3fea26469706673582212208315e28feaf32bc18a48060d5e7799995cddb5c01b348bfff893662f2af8821d64736f6c634300080f0033",
    "linkReferences": {}
  },
  "methodIdentifiers": {
    "decode()": "c0f8940c",
    "encode(uint256,uint256,uint256,uint256,uint256,uint256,uint256,uint256,uint256,uint256,uint256)": "6c609f75",
    "getFees()": "db8d55f1",
    "getGweiPerGas()": "b535ca12",
    "getLastUpdateTimestamp()": "e1e46882",
    "getLoanInfo()": "5d3e2fa1",
    "getParamsForModuleFees()": "4e64ba56",
    "getRenBorrowFeeBips()": "d9083ed3",
    "getRenBorrowFeeStatic()": "b40640db",
    "getSatoshiPerEth()": "79af58d3",
    "getTotalBitcoinBorrowed()": "4a0e2b3d",
    "getUnburnedGasReserveShares()": "39110dda",
    "getUnburnedShares()": "7ca8548a",
    "getUnburnedZeroFeeShares()": "5d7e8705",
    "getZeroBorrowFeeBips()": "c20b08f0",
    "getZeroBorrowFeeStatic()": "5cadc086",
    "getZeroFeeShareBips()": "2862d9f2",
    "setCached(uint256,uint256,uint256)": "da929e67",
    "setFees(uint256,uint256,uint256,uint256)": "6fcba377",
    "setLoanInfo(uint256)": "aff567fa",
    "setParamsForModuleFees(uint256,uint256)": "08a325ba",
    "setRenBorrowFeeBips(uint256)": "f6924521",
    "setRenBorrowFeeStatic(uint256)": "28dded56",
    "setTotalBitcoinBorrowed(uint256)": "c8369fc8",
    "setUnburnedGasReserveShares(uint256)": "d28e1168",
    "setUnburnedShares(uint256,uint256)": "4a413064",
    "setUnburnedZeroFeeShares(uint256)": "ff4092ab",
    "setZeroBorrowFeeBips(uint256)": "c19889bd",
    "setZeroBorrowFeeStatic(uint256)": "82eb748f",
    "setZeroFeeShareBips(uint256)": "cafea045"
  },
  "id": 73
}