{
  "abi": [
    {
      "inputs": [],
      "name": "decode",
      "outputs": [
        {
          "internalType": "uint256",
          "name": "sharesLocked",
          "type": "uint256"
        },
        {
          "internalType": "uint256",
          "name": "actualBorrowAmount",
          "type": "uint256"
        },
        {
          "internalType": "uint256",
          "name": "lenderDebt",
          "type": "uint256"
        },
        {
          "internalType": "uint256",
          "name": "btcFeeForLoanGas",
          "type": "uint256"
        },
        {
          "internalType": "uint256",
          "name": "expiry",
          "type": "uint256"
        }
      ],
      "stateMutability": "view",
      "type": "function"
    },
    {
      "inputs": [
        {
          "internalType": "uint256",
          "name": "sharesLocked",
          "type": "uint256"
        },
        {
          "internalType": "uint256",
          "name": "actualBorrowAmount",
          "type": "uint256"
        },
        {
          "internalType": "uint256",
          "name": "lenderDebt",
          "type": "uint256"
        },
        {
          "internalType": "uint256",
          "name": "btcFeeForLoanGas",
          "type": "uint256"
        },
        {
          "internalType": "uint256",
          "name": "expiry",
          "type": "uint256"
        }
      ],
      "name": "encode",
      "outputs": [],
      "stateMutability": "nonpayable",
      "type": "function"
    },
    {
      "inputs": [],
      "name": "getActualBorrowAmount",
      "outputs": [
        {
          "internalType": "uint256",
          "name": "actualBorrowAmount",
          "type": "uint256"
        }
      ],
      "stateMutability": "view",
      "type": "function"
    },
    {
      "inputs": [],
      "name": "getBtcFeeForLoanGas",
      "outputs": [
        {
          "internalType": "uint256",
          "name": "btcFeeForLoanGas",
          "type": "uint256"
        }
      ],
      "stateMutability": "view",
      "type": "function"
    },
    {
      "inputs": [],
      "name": "getExpiry",
      "outputs": [
        {
          "internalType": "uint256",
          "name": "expiry",
          "type": "uint256"
        }
      ],
      "stateMutability": "view",
      "type": "function"
    },
    {
      "inputs": [],
      "name": "getSharesAndDebt",
      "outputs": [
        {
          "internalType": "uint256",
          "name": "sharesLocked",
          "type": "uint256"
        },
        {
          "internalType": "uint256",
          "name": "lenderDebt",
          "type": "uint256"
        }
      ],
      "stateMutability": "view",
      "type": "function"
    }
  ],
  "bytecode": {
    "object": "0x608080604052346100165761030c908161001c8239f35b600080fdfe60806040526004361015610013575b600080fd5b6000803560e01c908163378f8c8b1461008e57508063611475391461008557806372c6279d1461007c578063c0f8940c14610073578063f40a0e2b1461006a5763f61c266b1461006257600080fd5b61000e610291565b5061000e6101e0565b5061000e61016b565b5061000e610123565b5061000e6100db565b346100d857807ffffffffffffffffffffffffffffffffffffffffffffffffffffffffffffffffc3601126100d857548060d01c60805260701c65ffffffffffff1660a05260406080f35b80fd5b503461000e5760007ffffffffffffffffffffffffffffffffffffffffffffffffffffffffffffffffc36011261000e57602060005460a01c65ffffffffffff16604051908152f35b503461000e5760007ffffffffffffffffffffffffffffffffffffffffffffffffffffffffffffffffc36011261000e5760206000546040519060401c65ffffffffffff168152f35b503461000e5760007ffffffffffffffffffffffffffffffffffffffffffffffffffffffffffffffffc36011261000e5760a0600054604051908060d01c825265ffffffffffff81841c811660208401528160701c811660408401528160401c16606083015260201c63ffffffff166080820152f35b503461000e5760a07ffffffffffffffffffffffffffffffffffffffffffffffffffffffffffffffffc36011261000e5760043560243560443560643560843565ffffffffffff63ffffffff8211818411178185111781861117908611176102625760201b9060401b179060701b179060a01b179060d01b176000556000604051f35b7f4e487b7100000000000000000000000000000000000000000000000000000000600052601160045260246000fd5b503461000e5760007ffffffffffffffffffffffffffffffffffffffffffffffffffffffffffffffffc36011261000e57602060005460405190821c63ffffffff168152f3fea2646970667358221220c78da51ecb427592dd59de4d4b6cc121ab77d1465912989eecfaaefdac86056464736f6c634300080f0033",
    "linkReferences": {}
  },
  "methodIdentifiers": {
    "decode()": "c0f8940c",
    "encode(uint256,uint256,uint256,uint256,uint256)": "f40a0e2b",
    "getActualBorrowAmount()": "61147539",
    "getBtcFeeForLoanGas()": "72c6279d",
    "getExpiry()": "f61c266b",
    "getSharesAndDebt()": "378f8c8b"
  },
  "id": 74
}