{
  "abi": [
    {
      "inputs": [
        {
          "internalType": "address",
          "name": "asset",
          "type": "address"
        }
      ],
      "stateMutability": "nonpayable",
      "type": "constructor"
    },
    {
      "inputs": [],
      "name": "asset",
      "outputs": [
        {
          "internalType": "address",
          "name": "",
          "type": "address"
        }
      ],
      "stateMutability": "view",
      "type": "function"
    },
    {
      "inputs": [],
      "name": "maxBurnGas",
      "outputs": [
        {
          "internalType": "uint256",
          "name": "",
          "type": "uint256"
        }
      ],
      "stateMutability": "view",
      "type": "function"
    },
    {
      "inputs": [],
      "name": "maxLoanGas",
      "outputs": [
        {
          "internalType": "uint256",
          "name": "",
          "type": "uint256"
        }
      ],
      "stateMutability": "view",
      "type": "function"
    },
    {
      "inputs": [],
      "name": "maxRepayGas",
      "outputs": [
        {
          "internalType": "uint256",
          "name": "",
          "type": "uint256"
        }
      ],
      "stateMutability": "view",
      "type": "function"
    },
    {
      "inputs": [
        {
          "internalType": "address",
          "name": "borrower",
          "type": "address"
        },
        {
          "internalType": "uint256",
          "name": "borrowAmount",
          "type": "uint256"
        },
        {
          "internalType": "uint256",
          "name": "loanId",
          "type": "uint256"
        },
        {
          "internalType": "bytes",
          "name": "data",
          "type": "bytes"
        }
      ],
      "name": "receiveLoan",
      "outputs": [
        {
          "internalType": "uint256",
          "name": "collateralToLock",
          "type": "uint256"
        },
        {
          "internalType": "uint256",
          "name": "gasCostEther",
          "type": "uint256"
        }
      ],
      "stateMutability": "nonpayable",
      "type": "function"
    },
    {
      "inputs": [
        {
          "internalType": "address",
          "name": "borrower",
          "type": "address"
        },
        {
          "internalType": "uint256",
          "name": "repaidAmount",
          "type": "uint256"
        },
        {
          "internalType": "uint256",
          "name": "loanId",
          "type": "uint256"
        },
        {
          "internalType": "bytes",
          "name": "data",
          "type": "bytes"
        }
      ],
      "name": "repayLoan",
      "outputs": [
        {
          "internalType": "uint256",
          "name": "collateralToUnlock",
          "type": "uint256"
        },
        {
          "internalType": "uint256",
          "name": "gasCostEther",
          "type": "uint256"
        }
      ],
      "stateMutability": "nonpayable",
      "type": "function"
    }
  ],
  "bytecode": {
    "object": "0x60c0346100d0576001600160401b0390601f610a0f38819003918201601f1916830191848311848410176100ba578084926020946040528339810103126100d057516001600160a01b03811681036100d0576080526040516020810190308252602081526040810192818410908411176100ba5782604052519020600181106100a4576000190160a05261093990816100d682396080518161031a015260a051815050f35b634e487b7160e01b600052601160045260246000fd5b634e487b7160e01b600052604160045260246000fd5b600080fdfe60806040526004361015610013575b600080fd5b60003560e01c80632584dde814610082578063332b578c1461007957806338d52e0f14610070578063999b260914610067578063ac5c8c6c146100675763fd1267a41461005f57600080fd5b61000e61033e565b5061000e61033e565b5061000e6102ce565b5061000e6101ce565b3461000e576100903661013e565b50505050507f999b260900000000000000000000000000000000000000000000000000000000608052602060806004816000305af18015610131575b6000906100fc575b6100e06100f8916104a7565b60405191829182919060206040840193600081520152565b0390f35b5060203d811161012a575b6100e06101228261011a6100f894610379565b60800161042b565b9150506100d4565b503d610107565b61013961046a565b6100cc565b60807ffffffffffffffffffffffffffffffffffffffffffffffffffffffffffffffffc82011261000e5760043573ffffffffffffffffffffffffffffffffffffffff8116810361000e5791602435916044359160643567ffffffffffffffff9283821161000e578060238301121561000e57816004013593841161000e576024848301011161000e576024019190565b503461000e576101dd3661013e565b91506102296040517ffd1267a40000000000000000000000000000000000000000000000000000000081526020816004816000305af19081156102c1575b600091610293575b506104a7565b93841560018680041481176001161561000e576102829461027c9115670de0b6b3a76400007fffffffffffffffffffffffffffffffffffffffffffffffffffffffffffffffff89010460010102906104e3565b90610550565b604080519182526020820192909252f35b6102b4915060203d81116102ba575b6102ac81836103ea565b81019061045b565b38610223565b503d6102a2565b6102c961046a565b61021b565b503461000e5760007ffffffffffffffffffffffffffffffffffffffffffffffffffffffffffffffffc36011261000e57602060405173ffffffffffffffffffffffffffffffffffffffff7f0000000000000000000000000000000000000000000000000000000000000000168152f35b503461000e5760007ffffffffffffffffffffffffffffffffffffffffffffffffffffffffffffffffc36011261000e57602060405160008152f35b601f7fffffffffffffffffffffffffffffffffffffffffffffffffffffffffffffffe09101166080016080811067ffffffffffffffff8211176103bb57604052565b7f4e487b7100000000000000000000000000000000000000000000000000000000600052604160045260246000fd5b90601f7fffffffffffffffffffffffffffffffffffffffffffffffffffffffffffffffe0910116810190811067ffffffffffffffff8211176103bb57604052565b7fffffffffffffffffffffffffffffffffffffffffffffffffffffffffffffff80602091011261000e5760805190565b9081602091031261000e575190565b506040513d6000823e3d90fd5b507f4e487b7100000000000000000000000000000000000000000000000000000000600052601160045260246000fd5b807fffffffffffffffffffffffffffffffffffffffffffffffffffffffffffffffff04600111811515166104d85790565b6104e0610477565b90565b8181106104ee570390565b6104f6610477565b0390565b6040519060a0820182811067ffffffffffffffff8211176103bb57604052565b604051906080820182811067ffffffffffffffff8211176103bb5760405260006060838281528260208201528260408201520152565b829373ffffffffffffffffffffffffffffffffffffffff61056f61051a565b921682526040820192835260209485918101031261000e5761078d926105f0858094818501933584526105a061051a565b5051604051809381927f3df0212400000000000000000000000000000000000000000000000000000000835260048301606060019193929360808101946000825283602083015260408201520152565b038160007393054188d876f558f4a66b2ef1d97d16edf0895b5af19081156107fc575b6000916107df575b50610714604051936106fa856106ce8882016042907f2260fac5e5542a773aa44fbcfedf7c193bc2c59900000000000000000000000081527e01f400000000000000000000000000000000000000000000000000000000008060148301527fc02aaa39b223fe8d0a0e5c4f27ead9083c756cc20000000000000000000000006017830152602b8201527fa0b86991c6218b36c1d19d4a2e9eb0ce3606eb48000000000000000000000000602e8201520190565b037fffffffffffffffffffffffffffffffffffffffffffffffffffffffffffffffe081018752866103ea565b5173ffffffffffffffffffffffffffffffffffffffff1690565b9161074b61072142610809565b91519361072c6104fa565b95865273ffffffffffffffffffffffffffffffffffffffff1686860152565b604084015260608301526080820152604051809381927fc04b8d5900000000000000000000000000000000000000000000000000000000835260048301610843565b0381600073e592427a0aece92de3edee1f18e0157c058615645af19182156107d2575b6000926107bc57505090565b6104e09250803d106102ba576102ac81836103ea565b6107da61046a565b6107b0565b6107f69150843d86116102ba576102ac81836103ea565b3861061b565b61080461046a565b610613565b6001907ffffffffffffffffffffffffffffffffffffffffffffffffffffffffffffffffe8111610837570190565b61083f610477565b0190565b6020808252825160a082840152805160c08401819052919493906000905b8382106108ed5750916080601f926108bf60e09798847fffffffffffffffffffffffffffffffffffffffffffffffffffffffffffffffe097116108e0575b82015173ffffffffffffffffffffffffffffffffffffffff166040880152565b60408101516060870152606081015182870152015160a08501520116010190565b600089868a01015261089f565b81810187015185830160e001529086019061086156fea26469706673582212200d982d4d0adbb5fb4086b7724df2263f83d197d856d4a0616fc3b0a9288d128364736f6c634300080f0033",
    "linkReferences": {}
  },
  "methodIdentifiers": {
    "asset()": "38d52e0f",
    "maxBurnGas()": "ac5c8c6c",
    "maxLoanGas()": "fd1267a4",
    "maxRepayGas()": "999b2609",
    "receiveLoan(address,uint256,uint256,bytes)": "332b578c",
    "repayLoan(address,uint256,uint256,bytes)": "2584dde8"
  },
  "id": 70
}