{
  "abi": [
    {
      "inputs": [
        {
          "internalType": "contract IChainlinkOracle",
          "name": "ethUsdPriceOracle",
          "type": "address"
        },
        {
          "internalType": "contract IChainlinkOracle",
          "name": "btcUsdPriceOracle",
          "type": "address"
        }
      ],
      "stateMutability": "nonpayable",
      "type": "constructor"
    },
    {
      "inputs": [],
      "name": "latestAnswer",
      "outputs": [
        {
          "internalType": "uint256",
          "name": "",
          "type": "uint256"
        }
      ],
      "stateMutability": "view",
      "type": "function"
    }
  ],
  "bytecode": {
    "object": "0x60c03461007957601f61037738819003918201601f19168301916001600160401b0383118484101761007e57808492604094855283398101031261007957610052602061004b83610094565b9201610094565b9060805260a0526040516102ce90816100a9823960805181610115015260a05181609e0152f35b600080fd5b634e487b7160e01b600052604160045260246000fd5b51906001600160a01b03821682036100795756fe608080604052600436101561001357600080fd5b600090813560e01c6350d25bcd1461002a57600080fd5b3461022457817ffffffffffffffffffffffffffffffffffffffffffffffffffffffffffffffffc360112610224577f50d25bcd000000000000000000000000000000000000000000000000000000009182825260209273ffffffffffffffffffffffffffffffffffffffff918484600481867f0000000000000000000000000000000000000000000000000000000000000000165afa9384156101b75781946101f1575b50670de0b6b3a764000091847fffffffffffffffffffffffffffffffffffffffffffffffffffffffffffffffff048311851515166101c457859060046040518096819382527f0000000000000000000000000000000000000000000000000000000000000000165afa9283156101b7578193610184575b50821561015757506040519202048152f35b807f4e487b7100000000000000000000000000000000000000000000000000000000602492526012600452fd5b9092508481813d83116101b0575b61019c8183610228565b810103126101ac57519138610145565b8280fd5b503d610192565b50604051903d90823e3d90fd5b6024827f4e487b710000000000000000000000000000000000000000000000000000000081526011600452fd5b9093508481813d831161021d575b6102098183610228565b81010312610219575192386100ce565b8380fd5b503d6101ff565b5080fd5b90601f7fffffffffffffffffffffffffffffffffffffffffffffffffffffffffffffffe0910116810190811067ffffffffffffffff82111761026957604052565b7f4e487b7100000000000000000000000000000000000000000000000000000000600052604160045260246000fdfea26469706673582212209c8218d0bfe64b19b53af2dcb2a3973f122ebecb02b0b9ebfb3bcb7d8a115aa464736f6c634300080f0033",
    "linkReferences": {}
  },
  "methodIdentifiers": {
    "latestAnswer()": "50d25bcd"
  },
  "id": 30
}