{
  "abi": [
    {
      "inputs": [],
      "stateMutability": "nonpayable",
      "type": "constructor"
    },
    {
      "inputs": [
        {
          "internalType": "uint256",
          "name": "minOut",
          "type": "uint256"
        }
      ],
      "name": "convertToEth",
      "outputs": [
        {
          "internalType": "uint256",
          "name": "amount",
          "type": "uint256"
        }
      ],
      "stateMutability": "nonpayable",
      "type": "function"
    }
  ],
  "bytecode": {
    "object": "0x6080806040523461003c57600080546001600160a01b0319167393054188d876f558f4a66b2ef1d97d16edf0895b1790556105c790816100428239f35b600080fdfe60806040908082526004918236101561001757600080fd5b6000803560e01c63fe18d6e61461002d57600080fd5b3461051e57602093847ffffffffffffffffffffffffffffffffffffffffffffffffffffffffffffffffc36011261051a5773ffffffffffffffffffffffffffffffffffffffff808354167f70a082310000000000000000000000000000000000000000000000000000000086523083870152602495878188817393054188d876f558f4a66b2ef1d97d16edf0895b5afa9081156103ba57918891869384916104e5575b50608490885194859384927f3df02124000000000000000000000000000000000000000000000000000000008452828a85015260018d8501526044840152600160648401525af19081156103fb5784916104b8575b508451907f2260fac5e5542a773aa44fbcfedf7c193bc2c599000000000000000000000000888301527e01f4000000000000000000000000000000000000000000000000000000000060348301527fc02aaa39b223fe8d0a0e5c4f27ead9083c756cc20000000000000000000000006037830152602b8252606082019167ffffffffffffffff938184108585111761048d577ffffffffffffffffffffffffffffffffffffffffffffffffffffffffffffffffe42116104625761010082018481108682111761043757918a939199969594928952808352608081019130835260e060a083019260014201845260c081019283520191873583528a519b8c957fc04b8d59000000000000000000000000000000000000000000000000000000008752878a880152519460a08b8801528b8651968760c48a015281905b8a8983106104115750509387938997937fffffffffffffffffffffffffffffffffffffffffffffffffffffffffffffffe0979360e49a601f9811610405575b50511660448801525160648701525160848601525160a4850152011681010301818773e592427a0aece92de3edee1f18e0157c058615645af19586156103fb5784966103c8575b5073c02aaa39b223fe8d0a0e5c4f27ead9083c756cc2803b156103c457908484939281958851809781937f2e1a7d4d0000000000000000000000000000000000000000000000000000000083528c888401525af180156103ba5761037d575b505050508080848015610373575b8280929181923390f115610368575051908152f35b9051903d90823e3d90fd5b6108fc9150610353565b8311610390575050825238808080610345565b604184917f4e487b7100000000000000000000000000000000000000000000000000000000835252fd5b86513d87823e3d90fd5b8480fd5b9095508681813d83116103f4575b6103e08183610521565b810103126103f0575194386102e6565b8380fd5b503d6103d6565b85513d86823e3d90fd5b8a878b0101528f61029f565b92509293949596979860e48284818701015192010152018c908f98979695949392610260565b89886041897f4e487b7100000000000000000000000000000000000000000000000000000000835252fd5b88876011887f4e487b7100000000000000000000000000000000000000000000000000000000835252fd5b88876041887f4e487b7100000000000000000000000000000000000000000000000000000000835252fd5b90508681813d83116104de575b6104cf8183610521565b810103126103f0575138610125565b503d6104c5565b92809294508391503d8311610513575b6104ff8183610521565b810103126103c457518491889160846100d0565b503d6104f5565b5080fd5b80fd5b90601f7fffffffffffffffffffffffffffffffffffffffffffffffffffffffffffffffe0910116810190811067ffffffffffffffff82111761056257604052565b7f4e487b7100000000000000000000000000000000000000000000000000000000600052604160045260246000fdfea26469706673582212208bfc881ea5fff3b20567bbe7466e58763453124669aeb938f50c736c3408588364736f6c634300080f0033",
    "linkReferences": {}
  },
  "methodIdentifiers": {
    "convertToEth(uint256)": "fe18d6e6"
  },
  "id": 81
}