{
  "address": "0xa513E6E4b8f2a923D98304ec87F64353C4D5C853",
  "abi": [
    {
      "inputs": [],
      "stateMutability": "nonpayable",
      "type": "constructor"
    },
    {
      "inputs": [],
      "name": "Empty",
      "type": "error"
    },
    {
      "anonymous": false,
      "inputs": [
        {
          "indexed": false,
          "internalType": "uint8",
          "name": "version",
          "type": "uint8"
        }
      ],
      "name": "Initialized",
      "type": "event"
    },
    {
      "anonymous": false,
      "inputs": [
        {
          "indexed": false,
          "internalType": "uint256",
          "name": "proposalId",
          "type": "uint256"
        }
      ],
      "name": "ProposalCanceled",
      "type": "event"
    },
    {
      "anonymous": false,
      "inputs": [
        {
          "indexed": false,
          "internalType": "uint256",
          "name": "proposalId",
          "type": "uint256"
        },
        {
          "indexed": false,
          "internalType": "address",
          "name": "proposer",
          "type": "address"
        },
        {
          "indexed": false,
          "internalType": "address[]",
          "name": "targets",
          "type": "address[]"
        },
        {
          "indexed": false,
          "internalType": "uint256[]",
          "name": "values",
          "type": "uint256[]"
        },
        {
          "indexed": false,
          "internalType": "string[]",
          "name": "signatures",
          "type": "string[]"
        },
        {
          "indexed": false,
          "internalType": "bytes[]",
          "name": "calldatas",
          "type": "bytes[]"
        },
        {
          "indexed": false,
          "internalType": "uint256",
          "name": "startBlock",
          "type": "uint256"
        },
        {
          "indexed": false,
          "internalType": "uint256",
          "name": "endBlock",
          "type": "uint256"
        },
        {
          "indexed": false,
          "internalType": "string",
          "name": "description",
          "type": "string"
        }
      ],
      "name": "ProposalCreated",
      "type": "event"
    },
    {
      "anonymous": false,
      "inputs": [
        {
          "indexed": false,
          "internalType": "uint256",
          "name": "proposalId",
          "type": "uint256"
        }
      ],
      "name": "ProposalExecuted",
      "type": "event"
    },
    {
      "anonymous": false,
      "inputs": [
        {
          "indexed": false,
          "internalType": "uint256",
          "name": "oldProposalThreshold",
          "type": "uint256"
        },
        {
          "indexed": false,
          "internalType": "uint256",
          "name": "newProposalThreshold",
          "type": "uint256"
        }
      ],
      "name": "ProposalThresholdSet",
      "type": "event"
    },
    {
      "anonymous": false,
      "inputs": [
        {
          "indexed": false,
          "internalType": "uint256",
          "name": "oldQuorumNumerator",
          "type": "uint256"
        },
        {
          "indexed": false,
          "internalType": "uint256",
          "name": "newQuorumNumerator",
          "type": "uint256"
        }
      ],
      "name": "QuorumNumeratorUpdated",
      "type": "event"
    },
    {
      "anonymous": false,
      "inputs": [
        {
          "indexed": true,
          "internalType": "address",
          "name": "voter",
          "type": "address"
        },
        {
          "indexed": false,
          "internalType": "uint256",
          "name": "proposalId",
          "type": "uint256"
        },
        {
          "indexed": false,
          "internalType": "uint8",
          "name": "support",
          "type": "uint8"
        },
        {
          "indexed": false,
          "internalType": "uint256",
          "name": "weight",
          "type": "uint256"
        },
        {
          "indexed": false,
          "internalType": "string",
          "name": "reason",
          "type": "string"
        }
      ],
      "name": "VoteCast",
      "type": "event"
    },
    {
      "anonymous": false,
      "inputs": [
        {
          "indexed": true,
          "internalType": "address",
          "name": "voter",
          "type": "address"
        },
        {
          "indexed": false,
          "internalType": "uint256",
          "name": "proposalId",
          "type": "uint256"
        },
        {
          "indexed": false,
          "internalType": "uint8",
          "name": "support",
          "type": "uint8"
        },
        {
          "indexed": false,
          "internalType": "uint256",
          "name": "weight",
          "type": "uint256"
        },
        {
          "indexed": false,
          "internalType": "string",
          "name": "reason",
          "type": "string"
        },
        {
          "indexed": false,
          "internalType": "bytes",
          "name": "params",
          "type": "bytes"
        }
      ],
      "name": "VoteCastWithParams",
      "type": "event"
    },
    {
      "anonymous": false,
      "inputs": [
        {
          "indexed": false,
          "internalType": "uint256",
          "name": "oldVotingDelay",
          "type": "uint256"
        },
        {
          "indexed": false,
          "internalType": "uint256",
          "name": "newVotingDelay",
          "type": "uint256"
        }
      ],
      "name": "VotingDelaySet",
      "type": "event"
    },
    {
      "anonymous": false,
      "inputs": [
        {
          "indexed": false,
          "internalType": "uint256",
          "name": "oldVotingPeriod",
          "type": "uint256"
        },
        {
          "indexed": false,
          "internalType": "uint256",
          "name": "newVotingPeriod",
          "type": "uint256"
        }
      ],
      "name": "VotingPeriodSet",
      "type": "event"
    },
    {
      "inputs": [],
      "name": "BALLOT_TYPEHASH",
      "outputs": [
        {
          "internalType": "bytes32",
          "name": "",
          "type": "bytes32"
        }
      ],
      "stateMutability": "view",
      "type": "function"
    },
    {
      "inputs": [],
      "name": "COUNTING_MODE",
      "outputs": [
        {
          "internalType": "string",
          "name": "",
          "type": "string"
        }
      ],
      "stateMutability": "pure",
      "type": "function"
    },
    {
      "inputs": [],
      "name": "EXTENDED_BALLOT_TYPEHASH",
      "outputs": [
        {
          "internalType": "bytes32",
          "name": "",
          "type": "bytes32"
        }
      ],
      "stateMutability": "view",
      "type": "function"
    },
    {
      "inputs": [
        {
          "internalType": "uint256",
          "name": "proposalId",
          "type": "uint256"
        },
        {
          "internalType": "uint8",
          "name": "support",
          "type": "uint8"
        }
      ],
      "name": "castVote",
      "outputs": [
        {
          "internalType": "uint256",
          "name": "",
          "type": "uint256"
        }
      ],
      "stateMutability": "nonpayable",
      "type": "function"
    },
    {
      "inputs": [
        {
          "internalType": "uint256",
          "name": "proposalId",
          "type": "uint256"
        },
        {
          "internalType": "uint8",
          "name": "support",
          "type": "uint8"
        },
        {
          "internalType": "uint8",
          "name": "v",
          "type": "uint8"
        },
        {
          "internalType": "bytes32",
          "name": "r",
          "type": "bytes32"
        },
        {
          "internalType": "bytes32",
          "name": "s",
          "type": "bytes32"
        }
      ],
      "name": "castVoteBySig",
      "outputs": [
        {
          "internalType": "uint256",
          "name": "",
          "type": "uint256"
        }
      ],
      "stateMutability": "nonpayable",
      "type": "function"
    },
    {
      "inputs": [
        {
          "internalType": "uint256",
          "name": "proposalId",
          "type": "uint256"
        },
        {
          "internalType": "uint8",
          "name": "support",
          "type": "uint8"
        },
        {
          "internalType": "string",
          "name": "reason",
          "type": "string"
        }
      ],
      "name": "castVoteWithReason",
      "outputs": [
        {
          "internalType": "uint256",
          "name": "",
          "type": "uint256"
        }
      ],
      "stateMutability": "nonpayable",
      "type": "function"
    },
    {
      "inputs": [
        {
          "internalType": "uint256",
          "name": "proposalId",
          "type": "uint256"
        },
        {
          "internalType": "uint8",
          "name": "support",
          "type": "uint8"
        },
        {
          "internalType": "string",
          "name": "reason",
          "type": "string"
        },
        {
          "internalType": "bytes",
          "name": "params",
          "type": "bytes"
        }
      ],
      "name": "castVoteWithReasonAndParams",
      "outputs": [
        {
          "internalType": "uint256",
          "name": "",
          "type": "uint256"
        }
      ],
      "stateMutability": "nonpayable",
      "type": "function"
    },
    {
      "inputs": [
        {
          "internalType": "uint256",
          "name": "proposalId",
          "type": "uint256"
        },
        {
          "internalType": "uint8",
          "name": "support",
          "type": "uint8"
        },
        {
          "internalType": "string",
          "name": "reason",
          "type": "string"
        },
        {
          "internalType": "bytes",
          "name": "params",
          "type": "bytes"
        },
        {
          "internalType": "uint8",
          "name": "v",
          "type": "uint8"
        },
        {
          "internalType": "bytes32",
          "name": "r",
          "type": "bytes32"
        },
        {
          "internalType": "bytes32",
          "name": "s",
          "type": "bytes32"
        }
      ],
      "name": "castVoteWithReasonAndParamsBySig",
      "outputs": [
        {
          "internalType": "uint256",
          "name": "",
          "type": "uint256"
        }
      ],
      "stateMutability": "nonpayable",
      "type": "function"
    },
    {
      "inputs": [
        {
          "internalType": "address[]",
          "name": "targets",
          "type": "address[]"
        },
        {
          "internalType": "uint256[]",
          "name": "values",
          "type": "uint256[]"
        },
        {
          "internalType": "bytes[]",
          "name": "calldatas",
          "type": "bytes[]"
        },
        {
          "internalType": "bytes32",
          "name": "descriptionHash",
          "type": "bytes32"
        }
      ],
      "name": "execute",
      "outputs": [
        {
          "internalType": "uint256",
          "name": "",
          "type": "uint256"
        }
      ],
      "stateMutability": "payable",
      "type": "function"
    },
    {
      "inputs": [
        {
          "internalType": "address",
          "name": "account",
          "type": "address"
        },
        {
          "internalType": "uint256",
          "name": "blockNumber",
          "type": "uint256"
        }
      ],
      "name": "getVotes",
      "outputs": [
        {
          "internalType": "uint256",
          "name": "",
          "type": "uint256"
        }
      ],
      "stateMutability": "view",
      "type": "function"
    },
    {
      "inputs": [
        {
          "internalType": "address",
          "name": "account",
          "type": "address"
        },
        {
          "internalType": "uint256",
          "name": "blockNumber",
          "type": "uint256"
        },
        {
          "internalType": "bytes",
          "name": "params",
          "type": "bytes"
        }
      ],
      "name": "getVotesWithParams",
      "outputs": [
        {
          "internalType": "uint256",
          "name": "",
          "type": "uint256"
        }
      ],
      "stateMutability": "view",
      "type": "function"
    },
    {
      "inputs": [
        {
          "internalType": "uint256",
          "name": "proposalId",
          "type": "uint256"
        },
        {
          "internalType": "address",
          "name": "account",
          "type": "address"
        }
      ],
      "name": "hasVoted",
      "outputs": [
        {
          "internalType": "bool",
          "name": "",
          "type": "bool"
        }
      ],
      "stateMutability": "view",
      "type": "function"
    },
    {
      "inputs": [
        {
          "internalType": "address[]",
          "name": "targets",
          "type": "address[]"
        },
        {
          "internalType": "uint256[]",
          "name": "values",
          "type": "uint256[]"
        },
        {
          "internalType": "bytes[]",
          "name": "calldatas",
          "type": "bytes[]"
        },
        {
          "internalType": "bytes32",
          "name": "descriptionHash",
          "type": "bytes32"
        }
      ],
      "name": "hashProposal",
      "outputs": [
        {
          "internalType": "uint256",
          "name": "",
          "type": "uint256"
        }
      ],
      "stateMutability": "pure",
      "type": "function"
    },
    {
      "inputs": [
        {
          "internalType": "contract IVotesUpgradeable",
          "name": "_token",
          "type": "address"
        }
      ],
      "name": "initialize",
      "outputs": [],
      "stateMutability": "nonpayable",
      "type": "function"
    },
    {
      "inputs": [],
      "name": "name",
      "outputs": [
        {
          "internalType": "string",
          "name": "",
          "type": "string"
        }
      ],
      "stateMutability": "view",
      "type": "function"
    },
    {
      "inputs": [
        {
          "internalType": "address",
          "name": "",
          "type": "address"
        },
        {
          "internalType": "address",
          "name": "",
          "type": "address"
        },
        {
          "internalType": "uint256[]",
          "name": "",
          "type": "uint256[]"
        },
        {
          "internalType": "uint256[]",
          "name": "",
          "type": "uint256[]"
        },
        {
          "internalType": "bytes",
          "name": "",
          "type": "bytes"
        }
      ],
      "name": "onERC1155BatchReceived",
      "outputs": [
        {
          "internalType": "bytes4",
          "name": "",
          "type": "bytes4"
        }
      ],
      "stateMutability": "nonpayable",
      "type": "function"
    },
    {
      "inputs": [
        {
          "internalType": "address",
          "name": "",
          "type": "address"
        },
        {
          "internalType": "address",
          "name": "",
          "type": "address"
        },
        {
          "internalType": "uint256",
          "name": "",
          "type": "uint256"
        },
        {
          "internalType": "uint256",
          "name": "",
          "type": "uint256"
        },
        {
          "internalType": "bytes",
          "name": "",
          "type": "bytes"
        }
      ],
      "name": "onERC1155Received",
      "outputs": [
        {
          "internalType": "bytes4",
          "name": "",
          "type": "bytes4"
        }
      ],
      "stateMutability": "nonpayable",
      "type": "function"
    },
    {
      "inputs": [
        {
          "internalType": "address",
          "name": "",
          "type": "address"
        },
        {
          "internalType": "address",
          "name": "",
          "type": "address"
        },
        {
          "internalType": "uint256",
          "name": "",
          "type": "uint256"
        },
        {
          "internalType": "bytes",
          "name": "",
          "type": "bytes"
        }
      ],
      "name": "onERC721Received",
      "outputs": [
        {
          "internalType": "bytes4",
          "name": "",
          "type": "bytes4"
        }
      ],
      "stateMutability": "nonpayable",
      "type": "function"
    },
    {
      "inputs": [
        {
          "internalType": "uint256",
          "name": "proposalId",
          "type": "uint256"
        }
      ],
      "name": "proposalDeadline",
      "outputs": [
        {
          "internalType": "uint256",
          "name": "",
          "type": "uint256"
        }
      ],
      "stateMutability": "view",
      "type": "function"
    },
    {
      "inputs": [
        {
          "internalType": "uint256",
          "name": "proposalId",
          "type": "uint256"
        }
      ],
      "name": "proposalSnapshot",
      "outputs": [
        {
          "internalType": "uint256",
          "name": "",
          "type": "uint256"
        }
      ],
      "stateMutability": "view",
      "type": "function"
    },
    {
      "inputs": [],
      "name": "proposalThreshold",
      "outputs": [
        {
          "internalType": "uint256",
          "name": "",
          "type": "uint256"
        }
      ],
      "stateMutability": "view",
      "type": "function"
    },
    {
      "inputs": [
        {
          "internalType": "uint256",
          "name": "proposalId",
          "type": "uint256"
        }
      ],
      "name": "proposalVotes",
      "outputs": [
        {
          "internalType": "uint256",
          "name": "againstVotes",
          "type": "uint256"
        },
        {
          "internalType": "uint256",
          "name": "forVotes",
          "type": "uint256"
        },
        {
          "internalType": "uint256",
          "name": "abstainVotes",
          "type": "uint256"
        }
      ],
      "stateMutability": "view",
      "type": "function"
    },
    {
      "inputs": [
        {
          "internalType": "address[]",
          "name": "targets",
          "type": "address[]"
        },
        {
          "internalType": "uint256[]",
          "name": "values",
          "type": "uint256[]"
        },
        {
          "internalType": "bytes[]",
          "name": "calldatas",
          "type": "bytes[]"
        },
        {
          "internalType": "string",
          "name": "description",
          "type": "string"
        }
      ],
      "name": "propose",
      "outputs": [
        {
          "internalType": "uint256",
          "name": "",
          "type": "uint256"
        }
      ],
      "stateMutability": "nonpayable",
      "type": "function"
    },
    {
      "inputs": [
        {
          "internalType": "uint256",
          "name": "blockNumber",
          "type": "uint256"
        }
      ],
      "name": "quorum",
      "outputs": [
        {
          "internalType": "uint256",
          "name": "",
          "type": "uint256"
        }
      ],
      "stateMutability": "view",
      "type": "function"
    },
    {
      "inputs": [],
      "name": "quorumDenominator",
      "outputs": [
        {
          "internalType": "uint256",
          "name": "",
          "type": "uint256"
        }
      ],
      "stateMutability": "view",
      "type": "function"
    },
    {
      "inputs": [
        {
          "internalType": "uint256",
          "name": "blockNumber",
          "type": "uint256"
        }
      ],
      "name": "quorumNumerator",
      "outputs": [
        {
          "internalType": "uint256",
          "name": "",
          "type": "uint256"
        }
      ],
      "stateMutability": "view",
      "type": "function"
    },
    {
      "inputs": [],
      "name": "quorumNumerator",
      "outputs": [
        {
          "internalType": "uint256",
          "name": "",
          "type": "uint256"
        }
      ],
      "stateMutability": "view",
      "type": "function"
    },
    {
      "inputs": [
        {
          "internalType": "address",
          "name": "target",
          "type": "address"
        },
        {
          "internalType": "uint256",
          "name": "value",
          "type": "uint256"
        },
        {
          "internalType": "bytes",
          "name": "data",
          "type": "bytes"
        }
      ],
      "name": "relay",
      "outputs": [],
      "stateMutability": "payable",
      "type": "function"
    },
    {
      "inputs": [
        {
          "internalType": "uint256",
          "name": "newProposalThreshold",
          "type": "uint256"
        }
      ],
      "name": "setProposalThreshold",
      "outputs": [],
      "stateMutability": "nonpayable",
      "type": "function"
    },
    {
      "inputs": [
        {
          "internalType": "uint256",
          "name": "newVotingDelay",
          "type": "uint256"
        }
      ],
      "name": "setVotingDelay",
      "outputs": [],
      "stateMutability": "nonpayable",
      "type": "function"
    },
    {
      "inputs": [
        {
          "internalType": "uint256",
          "name": "newVotingPeriod",
          "type": "uint256"
        }
      ],
      "name": "setVotingPeriod",
      "outputs": [],
      "stateMutability": "nonpayable",
      "type": "function"
    },
    {
      "inputs": [
        {
          "internalType": "uint256",
          "name": "proposalId",
          "type": "uint256"
        }
      ],
      "name": "state",
      "outputs": [
        {
          "internalType": "enum IGovernorUpgradeable.ProposalState",
          "name": "",
          "type": "uint8"
        }
      ],
      "stateMutability": "view",
      "type": "function"
    },
    {
      "inputs": [
        {
          "internalType": "bytes4",
          "name": "interfaceId",
          "type": "bytes4"
        }
      ],
      "name": "supportsInterface",
      "outputs": [
        {
          "internalType": "bool",
          "name": "",
          "type": "bool"
        }
      ],
      "stateMutability": "view",
      "type": "function"
    },
    {
      "inputs": [],
      "name": "token",
      "outputs": [
        {
          "internalType": "contract IVotesUpgradeable",
          "name": "",
          "type": "address"
        }
      ],
      "stateMutability": "view",
      "type": "function"
    },
    {
      "inputs": [
        {
          "internalType": "uint256",
          "name": "newQuorumNumerator",
          "type": "uint256"
        }
      ],
      "name": "updateQuorumNumerator",
      "outputs": [],
      "stateMutability": "nonpayable",
      "type": "function"
    },
    {
      "inputs": [],
      "name": "version",
      "outputs": [
        {
          "internalType": "string",
          "name": "",
          "type": "string"
        }
      ],
      "stateMutability": "view",
      "type": "function"
    },
    {
      "inputs": [],
      "name": "votingDelay",
      "outputs": [
        {
          "internalType": "uint256",
          "name": "",
          "type": "uint256"
        }
      ],
      "stateMutability": "view",
      "type": "function"
    },
    {
      "inputs": [],
      "name": "votingPeriod",
      "outputs": [
        {
          "internalType": "uint256",
          "name": "",
          "type": "uint256"
        }
      ],
      "stateMutability": "view",
      "type": "function"
    },
    {
      "stateMutability": "payable",
      "type": "receive"
    }
  ],
  "transactionHash": "0x661284b0a6b5ee1bab55fe04504c379e041dac6c63541e323321e1d4b958f354",
  "args": [],
  "numDeployments": 1,
  "solcInputHash": "5217673c72938f3073b7870adfbd2fcf",
  "bytecode": "0x60806040523480156200001157600080fd5b506200001c62000022565b620000e4565b600054610100900460ff16156200008f5760405162461bcd60e51b815260206004820152602760248201527f496e697469616c697a61626c653a20636f6e747261637420697320696e697469604482015266616c697a696e6760c81b606482015260840160405180910390fd5b60005460ff9081161015620000e2576000805460ff191660ff9081179091556040519081527f7f26b83ff96e1f2b6a682f133852f6798a09c465da95921460cefb38474024989060200160405180910390a15b565b61483580620000f46000396000f3fe6080604052600436106102895760003560e01c80637b3c71d311610153578063c4d66de8116100cb578063eb9019d41161007f578063f23a6e6111610064578063f23a6e6114610833578063f8ce560a14610878578063fc0c546a1461089857600080fd5b8063eb9019d4146107f3578063ece40cc11461081357600080fd5b8063dd4e2ba5116100b0578063dd4e2ba514610759578063deaaa7cc1461079f578063ea0217cf146107d357600080fd5b8063c4d66de814610719578063c59057e41461073957600080fd5b8063a7713a7011610122578063bc197c8111610107578063bc197c81146106a1578063c01f9e37146106e6578063c28bc2fa1461070657600080fd5b8063a7713a7014610677578063b58131b01461068c57600080fd5b80637b3c71d3146106035780637d5e81e21461062357806397c3d334146106435780639a802a6d1461065757600080fd5b80633932abb11161020157806354fd4d50116101b55780635f398a141161019a5780635f398a14146105a357806360c4247f146105c357806370b0f660146105e357600080fd5b806354fd4d501461053d578063567813881461058357600080fd5b80633e4f49e6116101e65780633e4f49e614610462578063438596321461048f578063544ffc9c146104e757600080fd5b80633932abb11461042d5780633bccf4fd1461044257600080fd5b806306fdde03116102585780632656227d1161023d5780632656227d146103c65780632d63f693146103d95780632fe3e261146103f957600080fd5b806306fdde031461032f578063150b7a021461035157600080fd5b806301ffc9a71461029757806302a251a3146102cc57806303420181146102ef57806306f3f9e61461030f57600080fd5b3661029257005b005b600080fd5b3480156102a357600080fd5b506102b76102b2366004613787565b6108eb565b60405190151581526020015b60405180910390f35b3480156102d857600080fd5b506102e1610a1c565b6040519081526020016102c3565b3480156102fb57600080fd5b506102e161030a366004613935565b610a2c565b34801561031b57600080fd5b5061029061032a3660046139dc565b610b24565b34801561033b57600080fd5b50610344610bb5565b6040516102c39190613a6f565b34801561035d57600080fd5b5061039561036c366004613aa4565b7f150b7a0200000000000000000000000000000000000000000000000000000000949350505050565b6040517fffffffff0000000000000000000000000000000000000000000000000000000090911681526020016102c3565b6102e16103d4366004613c83565b610c47565b3480156103e557600080fd5b506102e16103f43660046139dc565b610dc7565b34801561040557600080fd5b506102e17fb3b3f3b703cd84ce352197dcff232b1b5d3cfb2025ce47cf04742d0651f1af8881565b34801561043957600080fd5b506102e1610e00565b34801561044e57600080fd5b506102e161045d366004613d13565b610e0b565b34801561046e57600080fd5b5061048261047d3660046139dc565b610e81565b6040516102c39190613d90565b34801561049b57600080fd5b506102b76104aa366004613dd1565b600082815261012f6020908152604080832073ffffffffffffffffffffffffffffffffffffffff8516845260030190915290205460ff1692915050565b3480156104f357600080fd5b506105226105023660046139dc565b600090815261012f60205260409020805460018201546002909201549092565b604080519384526020840192909252908201526060016102c3565b34801561054957600080fd5b5060408051808201909152600181527f31000000000000000000000000000000000000000000000000000000000000006020820152610344565b34801561058f57600080fd5b506102e161059e366004613e01565b610fab565b3480156105af57600080fd5b506102e16105be366004613e2d565b610fd4565b3480156105cf57600080fd5b506102e16105de3660046139dc565b61101e565b3480156105ef57600080fd5b506102906105fe3660046139dc565b6110e4565b34801561060f57600080fd5b506102e161061e366004613eb1565b61116d565b34801561062f57600080fd5b506102e161063e366004613f0b565b6111bf565b34801561064f57600080fd5b5060646102e1565b34801561066357600080fd5b506102e1610672366004613fc0565b61160a565b34801561068357600080fd5b506102e1611621565b34801561069857600080fd5b506102e1611663565b3480156106ad57600080fd5b506103956106bc366004614019565b7fbc197c810000000000000000000000000000000000000000000000000000000095945050505050565b3480156106f257600080fd5b506102e16107013660046139dc565b61166e565b6102906107143660046140ad565b61169e565b34801561072557600080fd5b506102906107343660046140f1565b6117bc565b34801561074557600080fd5b506102e1610754366004613c83565b6119ba565b34801561076557600080fd5b506040805180820190915260208082527f737570706f72743d627261766f2671756f72756d3d666f722c6162737461696e90820152610344565b3480156107ab57600080fd5b506102e17f150214d74d59b7d1e90c73fc22ef3d991dd0a76b046543d4d80ab92d2a50328f81565b3480156107df57600080fd5b506102906107ee3660046139dc565b611a12565b3480156107ff57600080fd5b506102e161080e36600461410e565b611a9b565b34801561081f57600080fd5b5061029061082e3660046139dc565b611abc565b34801561083f57600080fd5b5061039561084e36600461413a565b7ff23a6e610000000000000000000000000000000000000000000000000000000095945050505050565b34801561088457600080fd5b506102e16108933660046139dc565b611b45565b3480156108a457600080fd5b50610161546108c69073ffffffffffffffffffffffffffffffffffffffff1681565b60405173ffffffffffffffffffffffffffffffffffffffff90911681526020016102c3565b60007fffffffff0000000000000000000000000000000000000000000000000000000082167fbf26d89700000000000000000000000000000000000000000000000000000000148061097e57507fffffffff0000000000000000000000000000000000000000000000000000000082167f79dd796f00000000000000000000000000000000000000000000000000000000145b806109ca57507fffffffff0000000000000000000000000000000000000000000000000000000082167f4e2312e000000000000000000000000000000000000000000000000000000000145b80610a1657507f01ffc9a7000000000000000000000000000000000000000000000000000000007fffffffff000000000000000000000000000000000000000000000000000000008316145b92915050565b6000610a2760fe5490565b905090565b600080610ad0610ac87fb3b3f3b703cd84ce352197dcff232b1b5d3cfb2025ce47cf04742d0651f1af888c8c8c8c604051610a689291906141a3565b60405180910390208b80519060200120604051602001610aad959493929190948552602085019390935260ff9190911660408401526060830152608082015260a00190565b60405160208183030381529060405280519060200120611b50565b868686611bb9565b9050610b168a828b8b8b8080601f0160208091040260200160405190810160405280939291908181526020018383808284376000920191909152508d9250611bd7915050565b9a9950505050505050505050565b333014610b92576040517f08c379a000000000000000000000000000000000000000000000000000000000815260206004820152601860248201527f476f7665726e6f723a206f6e6c79476f7665726e616e6365000000000000000060448201526064015b60405180910390fd5b610ba9565b80610ba260cd611d8a565b03610b9757505b610bb281611e47565b50565b606060cb8054610bc4906141b3565b80601f0160208091040260200160405190810160405280929190818152602001828054610bf0906141b3565b8015610c3d5780601f10610c1257610100808354040283529160200191610c3d565b820191906000526020600020905b815481529060010190602001808311610c2057829003601f168201915b5050505050905090565b600080610c56868686866119ba565b90506000610c6382610e81565b90506004816007811115610c7957610c79613d61565b1480610c9657506005816007811115610c9457610c94613d61565b145b610d22576040517f08c379a000000000000000000000000000000000000000000000000000000000815260206004820152602160248201527f476f7665726e6f723a2070726f706f73616c206e6f742073756363657373667560448201527f6c000000000000000000000000000000000000000000000000000000000000006064820152608401610b89565b600082815260cc60205260409081902060020180547fffffffffffffffffffffffffffffffffffffffffffffffffffffffffffffff00166001179055517f712ae1383f79ac853f8d882153778e0260ef8f03b504e2866e0593e04d2b291f90610d8e9084815260200190565b60405180910390a1610da38288888888611fd9565b610db08288888888612080565b610dbd8288888888611fd9565b5095945050505050565b600081815260cc6020908152604080832081519283019091525467ffffffffffffffff16908190525b67ffffffffffffffff1692915050565b6000610a2760fd5490565b604080517f150214d74d59b7d1e90c73fc22ef3d991dd0a76b046543d4d80ab92d2a50328f602082015290810186905260ff851660608201526000908190610e5990610ac890608001610aad565b9050610e7687828860405180602001604052806000815250612183565b979650505050505050565b600081815260cc60205260408120600281015460ff1615610ea55750600792915050565b6002810154610100900460ff1615610ec05750600292915050565b6000610ecb84610dc7565b905080600003610f37576040517f08c379a000000000000000000000000000000000000000000000000000000000815260206004820152601d60248201527f476f7665726e6f723a20756e6b6e6f776e2070726f706f73616c2069640000006044820152606401610b89565b438110610f48575060009392505050565b6000610f538561166e565b9050438110610f6757506001949350505050565b610f70856121af565b8015610f905750600085815261012f602052604090208054600190910154115b15610fa057506004949350505050565b506003949350505050565b600080339050610fcc84828560405180602001604052806000815250612183565b949350505050565b600080339050610e7687828888888080601f0160208091040260200160405190810160405280939291908181526020018383808284376000920191909152508a9250611bd7915050565b6101955460009080820361103757505061019454919050565b6000610195611047600184614235565b815481106110575761105761424c565b60009182526020918290206040805180820190915291015463ffffffff81168083526401000000009091047bffffffffffffffffffffffffffffffffffffffffffffffffffffffff1692820192909252915084106110d857602001517bffffffffffffffffffffffffffffffffffffffffffffffffffffffff169392505050565b610fcc610195856121e7565b33301461114d576040517f08c379a000000000000000000000000000000000000000000000000000000000815260206004820152601860248201527f476f7665726e6f723a206f6e6c79476f7665726e616e636500000000000000006044820152606401610b89565b611164565b8061115d60cd611d8a565b0361115257505b610bb2816122ec565b6000803390506111b586828787878080601f01602080910402602001604051908101604052809392919081815260200183838082843760009201919091525061218392505050565b9695505050505050565b60006111c9611663565b6111d83361080e600143614235565b1015611266576040517f08c379a000000000000000000000000000000000000000000000000000000000815260206004820152603160248201527f476f7665726e6f723a2070726f706f73657220766f7465732062656c6f77207060448201527f726f706f73616c207468726573686f6c640000000000000000000000000000006064820152608401610b89565b600061127b86868686805190602001206119ba565b9050845186511461130e576040517f08c379a000000000000000000000000000000000000000000000000000000000815260206004820152602160248201527f476f7665726e6f723a20696e76616c69642070726f706f73616c206c656e677460448201527f68000000000000000000000000000000000000000000000000000000000000006064820152608401610b89565b835186511461139f576040517f08c379a000000000000000000000000000000000000000000000000000000000815260206004820152602160248201527f476f7665726e6f723a20696e76616c69642070726f706f73616c206c656e677460448201527f68000000000000000000000000000000000000000000000000000000000000006064820152608401610b89565b600086511161140a576040517f08c379a000000000000000000000000000000000000000000000000000000000815260206004820152601860248201527f476f7665726e6f723a20656d7074792070726f706f73616c00000000000000006044820152606401610b89565b600081815260cc60209081526040918290208251918201909252815467ffffffffffffffff1690819052156114c1576040517f08c379a000000000000000000000000000000000000000000000000000000000815260206004820152602160248201527f476f7665726e6f723a2070726f706f73616c20616c726561647920657869737460448201527f73000000000000000000000000000000000000000000000000000000000000006064820152608401610b89565b60006114d36114ce610e00565b61232d565b6114dc4361232d565b6114e6919061427b565b905060006114f56114ce610a1c565b6114ff908361427b565b83547fffffffffffffffffffffffffffffffffffffffffffffffff00000000000000001667ffffffffffffffff841617845590506001830180547fffffffffffffffffffffffffffffffffffffffffffffffff00000000000000001667ffffffffffffffff83161790557f7d84a6263ae0d98d3329bd7b46bb4e8d6f98cd35a7adb45c274c8b7fd5ebd5e084338b8b8d5167ffffffffffffffff8111156115a8576115a8613821565b6040519080825280602002602001820160405280156115db57816020015b60608152602001906001900390816115c65790505b508c88888e6040516115f59998979695949392919061437d565b60405180910390a15091979650505050505050565b60006116178484846123cb565b90505b9392505050565b610195546000901561165b57611638610195612468565b7bffffffffffffffffffffffffffffffffffffffffffffffffffffffff16905090565b506101945490565b6000610a2760ff5490565b600081815260cc6020908152604080832081519283019091526001015467ffffffffffffffff1690819052610df0565b333014611707576040517f08c379a000000000000000000000000000000000000000000000000000000000815260206004820152601860248201527f476f7665726e6f723a206f6e6c79476f7665726e616e636500000000000000006044820152606401610b89565b61171e565b8061171760cd611d8a565b0361170c57505b6000808573ffffffffffffffffffffffffffffffffffffffff168585856040516117499291906141a3565b60006040518083038185875af1925050503d8060008114611786576040519150601f19603f3d011682016040523d82523d6000602084013e61178b565b606091505b50915091506117b382826040518060600160405280602881526020016147b1602891396124b7565b50505050505050565b600054610100900460ff16158080156117dc5750600054600160ff909116105b806117f65750303b1580156117f6575060005460ff166001145b611882576040517f08c379a000000000000000000000000000000000000000000000000000000000815260206004820152602e60248201527f496e697469616c697a61626c653a20636f6e747261637420697320616c72656160448201527f647920696e697469616c697a65640000000000000000000000000000000000006064820152608401610b89565b600080547fffffffffffffffffffffffffffffffffffffffffffffffffffffffffffffff0016600117905580156118e057600080547fffffffffffffffffffffffffffffffffffffffffffffffffffffffffffff00ff166101001790555b61191e6040518060400160405280600c81526020017f5a65726f476f7665726e6f7200000000000000000000000000000000000000008152506124d0565b61193761012c61c4e069010f0cf064dd592000006125b3565b61193f61265a565b611948826126f3565b6119526032612793565b80156119b657600080547fffffffffffffffffffffffffffffffffffffffffffffffffffffffffffff00ff169055604051600181527f7f26b83ff96e1f2b6a682f133852f6798a09c465da95921460cefb3847402498906020015b60405180910390a15b5050565b6000848484846040516020016119d3949392919061449a565b604080517fffffffffffffffffffffffffffffffffffffffffffffffffffffffffffffffe0818403018152919052805160209091012095945050505050565b333014611a7b576040517f08c379a000000000000000000000000000000000000000000000000000000000815260206004820152601860248201527f476f7665726e6f723a206f6e6c79476f7665726e616e636500000000000000006044820152606401610b89565b611a92565b80611a8b60cd611d8a565b03611a8057505b610bb281612833565b600061161a8383611ab760408051602081019091526000815290565b6123cb565b333014611b25576040517f08c379a000000000000000000000000000000000000000000000000000000000815260206004820152601860248201527f476f7665726e6f723a206f6e6c79476f7665726e616e636500000000000000006044820152606401610b89565b611b3c565b80611b3560cd611d8a565b03611b2a57505b610bb281612904565b6000610a1682612945565b6000610a16611b5d6129fa565b836040517f19010000000000000000000000000000000000000000000000000000000000006020820152602281018390526042810182905260009060620160405160208183030381529060405280519060200120905092915050565b6000806000611bca87878787612a75565b91509150610dbd81612b64565b600085815260cc602052604081206001611bf088610e81565b6007811115611c0157611c01613d61565b14611c8e576040517f08c379a000000000000000000000000000000000000000000000000000000000815260206004820152602360248201527f476f7665726e6f723a20766f7465206e6f742063757272656e746c792061637460448201527f69766500000000000000000000000000000000000000000000000000000000006064820152608401610b89565b6040805160208101909152815467ffffffffffffffff1690819052600090611cb8908890866123cb565b9050611cc78888888488612d17565b8351600003611d29578673ffffffffffffffffffffffffffffffffffffffff167fb8e138887d0aa13bab447e82de9d5c1777041ecd21ca36ba824ff1e6c07ddda489888489604051611d1c94939291906144e5565b60405180910390a2610e76565b8673ffffffffffffffffffffffffffffffffffffffff167fe2babfbac5889a709b63bb7f598b324e08bc5a4fb9ec647fb3cbc9ec07eb87128988848989604051611d7795949392919061450d565b60405180910390a2979650505050505050565b6000611db28254600f81810b700100000000000000000000000000000000909204900b131590565b15611de9576040517f3db2a12a00000000000000000000000000000000000000000000000000000000815260040160405180910390fd5b508054600f0b6000818152600180840160205260408220805492905583547fffffffffffffffffffffffffffffffff000000000000000000000000000000001692016fffffffffffffffffffffffffffffffff169190911790915590565b6064811115611efe576040517f08c379a000000000000000000000000000000000000000000000000000000000815260206004820152604360248201527f476f7665726e6f72566f74657351756f72756d4672616374696f6e3a2071756f60448201527f72756d4e756d657261746f72206f7665722071756f72756d44656e6f6d696e6160648201527f746f720000000000000000000000000000000000000000000000000000000000608482015260a401610b89565b6000611f08611621565b90508015801590611f1a575061019554155b15611f955760408051808201909152600081526101959060208101611f3e84612f58565b7bffffffffffffffffffffffffffffffffffffffffffffffffffffffff90811690915282546001810184556000938452602093849020835194909301519091166401000000000263ffffffff909316929092179101555b611fa161019583613006565b505060408051828152602081018490527f0553476bf02ef2726e8ce5ced78d63e26e602e4a2257b1f559418e24b463399791016119ad565b612079565b8451811015612077573073ffffffffffffffffffffffffffffffffffffffff168582815181106120105761201061424c565b602002602001015173ffffffffffffffffffffffffffffffffffffffff1603612067576120678382815181106120485761204861424c565b60200260200101518051906020012060cd61305190919063ffffffff16565b61207081614553565b9050611fde565b505b5050505050565b60006040518060600160405280602781526020016147d960279139905060005b85518110156117b3576000808783815181106120be576120be61424c565b602002602001015173ffffffffffffffffffffffffffffffffffffffff168784815181106120ee576120ee61424c565b60200260200101518785815181106121085761210861424c565b602002602001015160405161211d919061458b565b60006040518083038185875af1925050503d806000811461215a576040519150601f19603f3d011682016040523d82523d6000602084013e61215f565b606091505b509150915061216f8282866124b7565b5050508061217c90614553565b90506120a0565b60006121a6858585856121a160408051602081019091526000815290565b611bd7565b95945050505050565b600081815261012f60205260408120600281015460018201546121d291906145a7565b6121de61089385610dc7565b11159392505050565b6000438210612252576040517f08c379a000000000000000000000000000000000000000000000000000000000815260206004820181905260248201527f436865636b706f696e74733a20626c6f636b206e6f7420796574206d696e65646044820152606401610b89565b600061225d836130a3565b8454909150600061227086848385613139565b905080156122c15761229586612287600184614235565b600091825260209091200190565b5464010000000090047bffffffffffffffffffffffffffffffffffffffffffffffffffffffff166122c4565b60005b7bffffffffffffffffffffffffffffffffffffffffffffffffffffffff169695505050505050565b60fd5460408051918252602082018390527fc565b045403dc03c2eea82b81a0465edad9e2e7fc4d97e11421c209da93d7a93910160405180910390a160fd55565b600067ffffffffffffffff8211156123c7576040517f08c379a000000000000000000000000000000000000000000000000000000000815260206004820152602660248201527f53616665436173743a2076616c756520646f65736e27742066697420696e203660448201527f34206269747300000000000000000000000000000000000000000000000000006064820152608401610b89565b5090565b610161546040517f3a46b1a800000000000000000000000000000000000000000000000000000000815273ffffffffffffffffffffffffffffffffffffffff8581166004830152602482018590526000921690633a46b1a890604401602060405180830381865afa158015612444573d6000803e3d6000fd5b505050506040513d601f19601f8201168201806040525081019061161791906145bf565b805460009080156124ae5761248283612287600184614235565b5464010000000090047bffffffffffffffffffffffffffffffffffffffffffffffffffffffff1661161a565b60009392505050565b606083156124c657508161161a565b61161a8383613197565b600054610100900460ff16612567576040517f08c379a000000000000000000000000000000000000000000000000000000000815260206004820152602b60248201527f496e697469616c697a61626c653a20636f6e7472616374206973206e6f74206960448201527f6e697469616c697a696e670000000000000000000000000000000000000000006064820152608401610b89565b6125aa816125a560408051808201909152600181527f3100000000000000000000000000000000000000000000000000000000000000602082015290565b6131db565b610bb28161328c565b600054610100900460ff1661264a576040517f08c379a000000000000000000000000000000000000000000000000000000000815260206004820152602b60248201527f496e697469616c697a61626c653a20636f6e7472616374206973206e6f74206960448201527f6e697469616c697a696e670000000000000000000000000000000000000000006064820152608401610b89565b61265583838361332f565b505050565b600054610100900460ff166126f1576040517f08c379a000000000000000000000000000000000000000000000000000000000815260206004820152602b60248201527f496e697469616c697a61626c653a20636f6e7472616374206973206e6f74206960448201527f6e697469616c697a696e670000000000000000000000000000000000000000006064820152608401610b89565b565b600054610100900460ff1661278a576040517f08c379a000000000000000000000000000000000000000000000000000000000815260206004820152602b60248201527f496e697469616c697a61626c653a20636f6e7472616374206973206e6f74206960448201527f6e697469616c697a696e670000000000000000000000000000000000000000006064820152608401610b89565b610bb2816133e1565b600054610100900460ff1661282a576040517f08c379a000000000000000000000000000000000000000000000000000000000815260206004820152602b60248201527f496e697469616c697a61626c653a20636f6e7472616374206973206e6f74206960448201527f6e697469616c697a696e670000000000000000000000000000000000000000006064820152608401610b89565b610bb2816134c0565b600081116128c3576040517f08c379a000000000000000000000000000000000000000000000000000000000815260206004820152602760248201527f476f7665726e6f7253657474696e67733a20766f74696e6720706572696f642060448201527f746f6f206c6f77000000000000000000000000000000000000000000000000006064820152608401610b89565b60fe5460408051918252602082018390527f7e3f7f0708a84de9203036abaa450dccc85ad5ff52f78c170f3edb55cf5e8828910160405180910390a160fe55565b60ff5460408051918252602082018390527fccb45da8d5717e6c4544694297c4ba5cf151d455c9bb0ed4fc7a38411bc05461910160405180910390a160ff55565b600060646129528361101e565b610161546040517f8e539e8c0000000000000000000000000000000000000000000000000000000081526004810186905273ffffffffffffffffffffffffffffffffffffffff90911690638e539e8c90602401602060405180830381865afa1580156129c2573d6000803e3d6000fd5b505050506040513d601f19601f820116820180604052508101906129e691906145bf565b6129f091906145d8565b610a169190614615565b6000610a277f8b73c3c69bb8fe3d512ecc4cf759cc79239f7b179b0ffacaa9a75d522b39400f612a2960655490565b6066546040805160208101859052908101839052606081018290524660808201523060a082015260009060c0016040516020818303038152906040528051906020012090509392505050565b6000807f7fffffffffffffffffffffffffffffff5d576e7357a4501ddfe92f46681b20a0831115612aac5750600090506003612b5b565b6040805160008082526020820180845289905260ff881692820192909252606081018690526080810185905260019060a0016020604051602081039080840390855afa158015612b00573d6000803e3d6000fd5b50506040517fffffffffffffffffffffffffffffffffffffffffffffffffffffffffffffffe0015191505073ffffffffffffffffffffffffffffffffffffffff8116612b5457600060019250925050612b5b565b9150600090505b94509492505050565b6000816004811115612b7857612b78613d61565b03612b805750565b6001816004811115612b9457612b94613d61565b03612bfb576040517f08c379a000000000000000000000000000000000000000000000000000000000815260206004820152601860248201527f45434453413a20696e76616c6964207369676e617475726500000000000000006044820152606401610b89565b6002816004811115612c0f57612c0f613d61565b03612c76576040517f08c379a000000000000000000000000000000000000000000000000000000000815260206004820152601f60248201527f45434453413a20696e76616c6964207369676e6174757265206c656e677468006044820152606401610b89565b6003816004811115612c8a57612c8a613d61565b03610bb2576040517f08c379a000000000000000000000000000000000000000000000000000000000815260206004820152602260248201527f45434453413a20696e76616c6964207369676e6174757265202773272076616c60448201527f75650000000000000000000000000000000000000000000000000000000000006064820152608401610b89565b600085815261012f6020908152604080832073ffffffffffffffffffffffffffffffffffffffff88168452600381019092529091205460ff1615612ddd576040517f08c379a000000000000000000000000000000000000000000000000000000000815260206004820152602760248201527f476f7665726e6f72566f74696e6753696d706c653a20766f746520616c72656160448201527f64792063617374000000000000000000000000000000000000000000000000006064820152608401610b89565b73ffffffffffffffffffffffffffffffffffffffff85166000908152600382016020526040902080547fffffffffffffffffffffffffffffffffffffffffffffffffffffffffffffff0016600117905560ff8416612e545782816000016000828254612e4991906145a7565b909155506120779050565b7fffffffffffffffffffffffffffffffffffffffffffffffffffffffffffffffff60ff851601612e925782816001016000828254612e4991906145a7565b7ffffffffffffffffffffffffffffffffffffffffffffffffffffffffffffffffe60ff851601612ed05782816002016000828254612e4991906145a7565b6040517f08c379a000000000000000000000000000000000000000000000000000000000815260206004820152603560248201527f476f7665726e6f72566f74696e6753696d706c653a20696e76616c696420766160448201527f6c756520666f7220656e756d20566f74655479706500000000000000000000006064820152608401610b89565b60007bffffffffffffffffffffffffffffffffffffffffffffffffffffffff8211156123c7576040517f08c379a000000000000000000000000000000000000000000000000000000000815260206004820152602760248201527f53616665436173743a2076616c756520646f65736e27742066697420696e203260448201527f32342062697473000000000000000000000000000000000000000000000000006064820152608401610b89565b60008061302484613016436130a3565b61301f86612f58565b613557565b7bffffffffffffffffffffffffffffffffffffffffffffffffffffffff91821693501690505b9250929050565b815470010000000000000000000000000000000090819004600f0b6000818152600180860160205260409091209390935583546fffffffffffffffffffffffffffffffff908116939091011602179055565b600063ffffffff8211156123c7576040517f08c379a000000000000000000000000000000000000000000000000000000000815260206004820152602660248201527f53616665436173743a2076616c756520646f65736e27742066697420696e203360448201527f32206269747300000000000000000000000000000000000000000000000000006064820152608401610b89565b60005b8183101561318f576000613150848461376c565b60008781526020902090915063ffffffff86169082015463ffffffff16111561317b57809250613189565b6131868160016145a7565b93505b5061313c565b509392505050565b8151156131a75781518083602001fd5b806040517f08c379a0000000000000000000000000000000000000000000000000000000008152600401610b899190613a6f565b600054610100900460ff16613272576040517f08c379a000000000000000000000000000000000000000000000000000000000815260206004820152602b60248201527f496e697469616c697a61626c653a20636f6e7472616374206973206e6f74206960448201527f6e697469616c697a696e670000000000000000000000000000000000000000006064820152608401610b89565b815160209283012081519190920120606591909155606655565b600054610100900460ff16613323576040517f08c379a000000000000000000000000000000000000000000000000000000000815260206004820152602b60248201527f496e697469616c697a61626c653a20636f6e7472616374206973206e6f74206960448201527f6e697469616c697a696e670000000000000000000000000000000000000000006064820152608401610b89565b60cb6119b68282614696565b600054610100900460ff166133c6576040517f08c379a000000000000000000000000000000000000000000000000000000000815260206004820152602b60248201527f496e697469616c697a61626c653a20636f6e7472616374206973206e6f74206960448201527f6e697469616c697a696e670000000000000000000000000000000000000000006064820152608401610b89565b6133cf836122ec565b6133d882612833565b61265581612904565b600054610100900460ff16613478576040517f08c379a000000000000000000000000000000000000000000000000000000000815260206004820152602b60248201527f496e697469616c697a61626c653a20636f6e7472616374206973206e6f74206960448201527f6e697469616c697a696e670000000000000000000000000000000000000000006064820152608401610b89565b61016180547fffffffffffffffffffffffff00000000000000000000000000000000000000001673ffffffffffffffffffffffffffffffffffffffff92909216919091179055565b600054610100900460ff16610ba9576040517f08c379a000000000000000000000000000000000000000000000000000000000815260206004820152602b60248201527f496e697469616c697a61626c653a20636f6e7472616374206973206e6f74206960448201527f6e697469616c697a696e670000000000000000000000000000000000000000006064820152608401610b89565b8254600090819080156136f957600061357587612287600185614235565b60408051808201909152905463ffffffff8082168084526401000000009092047bffffffffffffffffffffffffffffffffffffffffffffffffffffffff1660208401529192509087161015613626576040517f08c379a000000000000000000000000000000000000000000000000000000000815260206004820152601760248201527f436865636b706f696e743a20696e76616c6964206b65790000000000000000006044820152606401610b89565b805163ffffffff808816911603613684578461364788612287600186614235565b80547bffffffffffffffffffffffffffffffffffffffffffffffffffffffff929092166401000000000263ffffffff9092169190911790556136e9565b6040805180820190915263ffffffff80881682527bffffffffffffffffffffffffffffffffffffffffffffffffffffffff80881660208085019182528b54600181018d5560008d81529190912094519151909216640100000000029216919091179101555b6020015192508391506137649050565b50506040805180820190915263ffffffff80851682527bffffffffffffffffffffffffffffffffffffffffffffffffffffffff80851660208085019182528854600181018a5560008a8152918220955192519093166401000000000291909316179201919091559050815b935093915050565b600061377b6002848418614615565b61161a908484166145a7565b60006020828403121561379957600080fd5b81357fffffffff000000000000000000000000000000000000000000000000000000008116811461161a57600080fd5b803560ff811681146137da57600080fd5b919050565b60008083601f8401126137f157600080fd5b50813567ffffffffffffffff81111561380957600080fd5b60208301915083602082850101111561304a57600080fd5b7f4e487b7100000000000000000000000000000000000000000000000000000000600052604160045260246000fd5b604051601f82017fffffffffffffffffffffffffffffffffffffffffffffffffffffffffffffffe016810167ffffffffffffffff8111828210171561389757613897613821565b604052919050565b600067ffffffffffffffff8311156138b9576138b9613821565b6138ea60207fffffffffffffffffffffffffffffffffffffffffffffffffffffffffffffffe0601f86011601613850565b90508281528383830111156138fe57600080fd5b828260208301376000602084830101529392505050565b600082601f83011261392657600080fd5b61161a8383356020850161389f565b60008060008060008060008060e0898b03121561395157600080fd5b8835975061396160208a016137c9565b9650604089013567ffffffffffffffff8082111561397e57600080fd5b61398a8c838d016137df565b909850965060608b01359150808211156139a357600080fd5b506139b08b828c01613915565b9450506139bf60808a016137c9565b925060a0890135915060c089013590509295985092959890939650565b6000602082840312156139ee57600080fd5b5035919050565b60005b83811015613a105781810151838201526020016139f8565b83811115613a1f576000848401525b50505050565b60008151808452613a3d8160208601602086016139f5565b601f017fffffffffffffffffffffffffffffffffffffffffffffffffffffffffffffffe0169290920160200192915050565b60208152600061161a6020830184613a25565b73ffffffffffffffffffffffffffffffffffffffff81168114610bb257600080fd5b60008060008060808587031215613aba57600080fd5b8435613ac581613a82565b93506020850135613ad581613a82565b925060408501359150606085013567ffffffffffffffff811115613af857600080fd5b613b0487828801613915565b91505092959194509250565b600067ffffffffffffffff821115613b2a57613b2a613821565b5060051b60200190565b600082601f830112613b4557600080fd5b81356020613b5a613b5583613b10565b613850565b82815260059290921b84018101918181019086841115613b7957600080fd5b8286015b84811015613b9d578035613b9081613a82565b8352918301918301613b7d565b509695505050505050565b600082601f830112613bb957600080fd5b81356020613bc9613b5583613b10565b82815260059290921b84018101918181019086841115613be857600080fd5b8286015b84811015613b9d5780358352918301918301613bec565b600082601f830112613c1457600080fd5b81356020613c24613b5583613b10565b82815260059290921b84018101918181019086841115613c4357600080fd5b8286015b84811015613b9d57803567ffffffffffffffff811115613c675760008081fd5b613c758986838b0101613915565b845250918301918301613c47565b60008060008060808587031215613c9957600080fd5b843567ffffffffffffffff80821115613cb157600080fd5b613cbd88838901613b34565b95506020870135915080821115613cd357600080fd5b613cdf88838901613ba8565b94506040870135915080821115613cf557600080fd5b50613d0287828801613c03565b949793965093946060013593505050565b600080600080600060a08688031215613d2b57600080fd5b85359450613d3b602087016137c9565b9350613d49604087016137c9565b94979396509394606081013594506080013592915050565b7f4e487b7100000000000000000000000000000000000000000000000000000000600052602160045260246000fd5b6020810160088310613dcb577f4e487b7100000000000000000000000000000000000000000000000000000000600052602160045260246000fd5b91905290565b60008060408385031215613de457600080fd5b823591506020830135613df681613a82565b809150509250929050565b60008060408385031215613e1457600080fd5b82359150613e24602084016137c9565b90509250929050565b600080600080600060808688031215613e4557600080fd5b85359450613e55602087016137c9565b9350604086013567ffffffffffffffff80821115613e7257600080fd5b613e7e89838a016137df565b90955093506060880135915080821115613e9757600080fd5b50613ea488828901613915565b9150509295509295909350565b60008060008060608587031215613ec757600080fd5b84359350613ed7602086016137c9565b9250604085013567ffffffffffffffff811115613ef357600080fd5b613eff878288016137df565b95989497509550505050565b60008060008060808587031215613f2157600080fd5b843567ffffffffffffffff80821115613f3957600080fd5b613f4588838901613b34565b95506020870135915080821115613f5b57600080fd5b613f6788838901613ba8565b94506040870135915080821115613f7d57600080fd5b613f8988838901613c03565b93506060870135915080821115613f9f57600080fd5b508501601f81018713613fb157600080fd5b613b048782356020840161389f565b600080600060608486031215613fd557600080fd5b8335613fe081613a82565b925060208401359150604084013567ffffffffffffffff81111561400357600080fd5b61400f86828701613915565b9150509250925092565b600080600080600060a0868803121561403157600080fd5b853561403c81613a82565b9450602086013561404c81613a82565b9350604086013567ffffffffffffffff8082111561406957600080fd5b61407589838a01613ba8565b9450606088013591508082111561408b57600080fd5b61409789838a01613ba8565b93506080880135915080821115613e9757600080fd5b600080600080606085870312156140c357600080fd5b84356140ce81613a82565b935060208501359250604085013567ffffffffffffffff811115613ef357600080fd5b60006020828403121561410357600080fd5b813561161a81613a82565b6000806040838503121561412157600080fd5b823561412c81613a82565b946020939093013593505050565b600080600080600060a0868803121561415257600080fd5b853561415d81613a82565b9450602086013561416d81613a82565b93506040860135925060608601359150608086013567ffffffffffffffff81111561419757600080fd5b613ea488828901613915565b8183823760009101908152919050565b600181811c908216806141c757607f821691505b602082108103614200577f4e487b7100000000000000000000000000000000000000000000000000000000600052602260045260246000fd5b50919050565b7f4e487b7100000000000000000000000000000000000000000000000000000000600052601160045260246000fd5b60008282101561424757614247614206565b500390565b7f4e487b7100000000000000000000000000000000000000000000000000000000600052603260045260246000fd5b600067ffffffffffffffff80831681851680830382111561429e5761429e614206565b01949350505050565b600081518084526020808501945080840160005b838110156142ed57815173ffffffffffffffffffffffffffffffffffffffff16875295820195908201906001016142bb565b509495945050505050565b600081518084526020808501945080840160005b838110156142ed5781518752958201959082019060010161430c565b600081518084526020808501808196508360051b8101915082860160005b8581101561437057828403895261435e848351613a25565b98850198935090840190600101614346565b5091979650505050505050565b60006101208b8352602073ffffffffffffffffffffffffffffffffffffffff8c16818501528160408501526143b48285018c6142a7565b915083820360608501526143c8828b6142f8565b915083820360808501528189518084528284019150828160051b850101838c0160005b83811015614437577fffffffffffffffffffffffffffffffffffffffffffffffffffffffffffffffe0878403018552614425838351613a25565b948601949250908501906001016143eb565b505086810360a088015261444b818c614328565b94505050505061446760c084018767ffffffffffffffff169052565b67ffffffffffffffff851660e084015282810361010084015261448a8185613a25565b9c9b505050505050505050505050565b6080815260006144ad60808301876142a7565b82810360208401526144bf81876142f8565b905082810360408401526144d38186614328565b91505082606083015295945050505050565b84815260ff841660208201528260408201526080606082015260006111b56080830184613a25565b85815260ff8516602082015283604082015260a06060820152600061453560a0830185613a25565b82810360808401526145478185613a25565b98975050505050505050565b60007fffffffffffffffffffffffffffffffffffffffffffffffffffffffffffffffff820361458457614584614206565b5060010190565b6000825161459d8184602087016139f5565b9190910192915050565b600082198211156145ba576145ba614206565b500190565b6000602082840312156145d157600080fd5b5051919050565b6000817fffffffffffffffffffffffffffffffffffffffffffffffffffffffffffffffff048311821515161561461057614610614206565b500290565b60008261464b577f4e487b7100000000000000000000000000000000000000000000000000000000600052601260045260246000fd5b500490565b601f82111561265557600081815260208120601f850160051c810160208610156146775750805b601f850160051c820191505b8181101561207757828155600101614683565b815167ffffffffffffffff8111156146b0576146b0613821565b6146c4816146be84546141b3565b84614650565b602080601f83116001811461471757600084156146e15750858301515b7fffffffffffffffffffffffffffffffffffffffffffffffffffffffffffffffff600386901b1c1916600185901b178555612077565b6000858152602081207fffffffffffffffffffffffffffffffffffffffffffffffffffffffffffffffe08616915b8281101561476457888601518255948401946001909101908401614745565b50858210156147a057878501517fffffffffffffffffffffffffffffffffffffffffffffffffffffffffffffffff600388901b60f8161c191681555b5050505050600190811b0190555056fe476f7665726e6f723a2072656c617920726576657274656420776974686f7574206d657373616765476f7665726e6f723a2063616c6c20726576657274656420776974686f7574206d657373616765a26469706673582212202a14fa4fcce2548f6a6dc80fb75fa15e162fdd0c94044ee3d0dc9364470f166964736f6c634300080f0033",
  "devdoc": {
    "errors": {
      "Empty()": [
        {
          "details": "An operation (e.g. {front}) couldn't be completed due to the queue being empty."
        }
      ]
    },
    "kind": "dev",
    "methods": {
      "COUNTING_MODE()": {
        "details": "See {IGovernor-COUNTING_MODE}."
      },
      "castVote(uint256,uint8)": {
        "details": "See {IGovernor-castVote}."
      },
      "castVoteBySig(uint256,uint8,uint8,bytes32,bytes32)": {
        "details": "See {IGovernor-castVoteBySig}."
      },
      "castVoteWithReason(uint256,uint8,string)": {
        "details": "See {IGovernor-castVoteWithReason}."
      },
      "castVoteWithReasonAndParams(uint256,uint8,string,bytes)": {
        "details": "See {IGovernor-castVoteWithReasonAndParams}."
      },
      "castVoteWithReasonAndParamsBySig(uint256,uint8,string,bytes,uint8,bytes32,bytes32)": {
        "details": "See {IGovernor-castVoteWithReasonAndParamsBySig}."
      },
      "constructor": {
        "custom:oz-upgrades-unsafe-allow": "constructor"
      },
      "execute(address[],uint256[],bytes[],bytes32)": {
        "details": "See {IGovernor-execute}."
      },
      "getVotes(address,uint256)": {
        "details": "See {IGovernor-getVotes}."
      },
      "getVotesWithParams(address,uint256,bytes)": {
        "details": "See {IGovernor-getVotesWithParams}."
      },
      "hasVoted(uint256,address)": {
        "details": "See {IGovernor-hasVoted}."
      },
      "hashProposal(address[],uint256[],bytes[],bytes32)": {
        "details": "See {IGovernor-hashProposal}. The proposal id is produced by hashing the ABI encoded `targets` array, the `values` array, the `calldatas` array and the descriptionHash (bytes32 which itself is the keccak256 hash of the description string). This proposal id can be produced from the proposal data which is part of the {ProposalCreated} event. It can even be computed in advance, before the proposal is submitted. Note that the chainId and the governor address are not part of the proposal id computation. Consequently, the same proposal (with same operation and same description) will have the same id if submitted on multiple governors across multiple networks. This also means that in order to execute the same operation twice (on the same governor) the proposer will have to change the description in order to avoid proposal id conflicts."
      },
      "name()": {
        "details": "See {IGovernor-name}."
      },
      "onERC1155BatchReceived(address,address,uint256[],uint256[],bytes)": {
        "details": "See {IERC1155Receiver-onERC1155BatchReceived}."
      },
      "onERC1155Received(address,address,uint256,uint256,bytes)": {
        "details": "See {IERC1155Receiver-onERC1155Received}."
      },
      "onERC721Received(address,address,uint256,bytes)": {
        "details": "See {IERC721Receiver-onERC721Received}."
      },
      "proposalDeadline(uint256)": {
        "details": "See {IGovernor-proposalDeadline}."
      },
      "proposalSnapshot(uint256)": {
        "details": "See {IGovernor-proposalSnapshot}."
      },
      "proposalVotes(uint256)": {
        "details": "Accessor to the internal vote counts."
      },
      "propose(address[],uint256[],bytes[],string)": {
        "details": "See {IGovernor-propose}."
      },
      "quorumDenominator()": {
        "details": "Returns the quorum denominator. Defaults to 100, but may be overridden."
      },
      "quorumNumerator()": {
        "details": "Returns the current quorum numerator. See {quorumDenominator}."
      },
      "quorumNumerator(uint256)": {
        "details": "Returns the quorum numerator at a specific block number. See {quorumDenominator}."
      },
      "relay(address,uint256,bytes)": {
        "details": "Relays a transaction or function call to an arbitrary target. In cases where the governance executor is some contract other than the governor itself, like when using a timelock, this function can be invoked in a governance proposal to recover tokens or Ether that was sent to the governor contract by mistake. Note that if the executor is simply the governor itself, use of `relay` is redundant."
      },
      "setProposalThreshold(uint256)": {
        "details": "Update the proposal threshold. This operation can only be performed through a governance proposal. Emits a {ProposalThresholdSet} event."
      },
      "setVotingDelay(uint256)": {
        "details": "Update the voting delay. This operation can only be performed through a governance proposal. Emits a {VotingDelaySet} event."
      },
      "setVotingPeriod(uint256)": {
        "details": "Update the voting period. This operation can only be performed through a governance proposal. Emits a {VotingPeriodSet} event."
      },
      "state(uint256)": {
        "details": "See {IGovernor-state}."
      },
      "supportsInterface(bytes4)": {
        "details": "See {IERC165-supportsInterface}."
      },
      "updateQuorumNumerator(uint256)": {
        "details": "Changes the quorum numerator. Emits a {QuorumNumeratorUpdated} event. Requirements: - Must be called through a governance proposal. - New numerator must be smaller or equal to the denominator."
      },
      "version()": {
        "details": "See {IGovernor-version}."
      }
    },
    "version": 1
  },
  "userdoc": {
    "kind": "user",
    "methods": {},
    "version": 1
  },
  "storageLayout": {
    "storage": [
      {
        "astId": 3962,
        "contract": "contracts/governance/ZeroGovernor.sol:ZeroGovernor",
        "label": "_initialized",
        "offset": 0,
        "slot": "0",
        "type": "t_uint8"
      },
      {
        "astId": 3965,
        "contract": "contracts/governance/ZeroGovernor.sol:ZeroGovernor",
        "label": "_initializing",
        "offset": 1,
        "slot": "0",
        "type": "t_bool"
      },
      {
        "astId": 6908,
        "contract": "contracts/governance/ZeroGovernor.sol:ZeroGovernor",
        "label": "__gap",
        "offset": 0,
        "slot": "1",
        "type": "t_array(t_uint256)50_storage"
      },
      {
        "astId": 7926,
        "contract": "contracts/governance/ZeroGovernor.sol:ZeroGovernor",
        "label": "__gap",
        "offset": 0,
        "slot": "51",
        "type": "t_array(t_uint256)50_storage"
      },
      {
        "astId": 7742,
        "contract": "contracts/governance/ZeroGovernor.sol:ZeroGovernor",
        "label": "_HASHED_NAME",
        "offset": 0,
        "slot": "101",
        "type": "t_bytes32"
      },
      {
        "astId": 7744,
        "contract": "contracts/governance/ZeroGovernor.sol:ZeroGovernor",
        "label": "_HASHED_VERSION",
        "offset": 0,
        "slot": "102",
        "type": "t_bytes32"
      },
      {
        "astId": 7882,
        "contract": "contracts/governance/ZeroGovernor.sol:ZeroGovernor",
        "label": "__gap",
        "offset": 0,
        "slot": "103",
        "type": "t_array(t_uint256)50_storage"
      },
      {
        "astId": 2187,
        "contract": "contracts/governance/ZeroGovernor.sol:ZeroGovernor",
        "label": "__gap",
        "offset": 0,
        "slot": "153",
        "type": "t_array(t_uint256)50_storage"
      },
      {
        "astId": 603,
        "contract": "contracts/governance/ZeroGovernor.sol:ZeroGovernor",
        "label": "_name",
        "offset": 0,
        "slot": "203",
        "type": "t_string_storage"
      },
      {
        "astId": 608,
        "contract": "contracts/governance/ZeroGovernor.sol:ZeroGovernor",
        "label": "_proposals",
        "offset": 0,
        "slot": "204",
        "type": "t_mapping(t_uint256,t_struct(ProposalCore)601_storage)"
      },
      {
        "astId": 611,
        "contract": "contracts/governance/ZeroGovernor.sol:ZeroGovernor",
        "label": "_governanceCall",
        "offset": 0,
        "slot": "205",
        "type": "t_struct(Bytes32Deque)10676_storage"
      },
      {
        "astId": 1870,
        "contract": "contracts/governance/ZeroGovernor.sol:ZeroGovernor",
        "label": "__gap",
        "offset": 0,
        "slot": "207",
        "type": "t_array(t_uint256)46_storage"
      },
      {
        "astId": 3392,
        "contract": "contracts/governance/ZeroGovernor.sol:ZeroGovernor",
        "label": "_votingDelay",
        "offset": 0,
        "slot": "253",
        "type": "t_uint256"
      },
      {
        "astId": 3394,
        "contract": "contracts/governance/ZeroGovernor.sol:ZeroGovernor",
        "label": "_votingPeriod",
        "offset": 0,
        "slot": "254",
        "type": "t_uint256"
      },
      {
        "astId": 3396,
        "contract": "contracts/governance/ZeroGovernor.sol:ZeroGovernor",
        "label": "_proposalThreshold",
        "offset": 0,
        "slot": "255",
        "type": "t_uint256"
      },
      {
        "astId": 3586,
        "contract": "contracts/governance/ZeroGovernor.sol:ZeroGovernor",
        "label": "__gap",
        "offset": 0,
        "slot": "256",
        "type": "t_array(t_uint256)47_storage"
      },
      {
        "astId": 3176,
        "contract": "contracts/governance/ZeroGovernor.sol:ZeroGovernor",
        "label": "_proposalVotes",
        "offset": 0,
        "slot": "303",
        "type": "t_mapping(t_uint256,t_struct(ProposalVote)3171_storage)"
      },
      {
        "astId": 3380,
        "contract": "contracts/governance/ZeroGovernor.sol:ZeroGovernor",
        "label": "__gap",
        "offset": 0,
        "slot": "304",
        "type": "t_array(t_uint256)49_storage"
      },
      {
        "astId": 3825,
        "contract": "contracts/governance/ZeroGovernor.sol:ZeroGovernor",
        "label": "token",
        "offset": 0,
        "slot": "353",
        "type": "t_contract(IVotesUpgradeable)3955"
      },
      {
        "astId": 3876,
        "contract": "contracts/governance/ZeroGovernor.sol:ZeroGovernor",
        "label": "__gap",
        "offset": 0,
        "slot": "354",
        "type": "t_array(t_uint256)50_storage"
      },
      {
        "astId": 3604,
        "contract": "contracts/governance/ZeroGovernor.sol:ZeroGovernor",
        "label": "_quorumNumerator",
        "offset": 0,
        "slot": "404",
        "type": "t_uint256"
      },
      {
        "astId": 3607,
        "contract": "contracts/governance/ZeroGovernor.sol:ZeroGovernor",
        "label": "_quorumNumeratorHistory",
        "offset": 0,
        "slot": "405",
        "type": "t_struct(History)5506_storage"
      },
      {
        "astId": 3811,
        "contract": "contracts/governance/ZeroGovernor.sol:ZeroGovernor",
        "label": "__gap",
        "offset": 0,
        "slot": "406",
        "type": "t_array(t_uint256)48_storage"
      }
    ],
    "types": {
      "t_address": {
        "encoding": "inplace",
        "label": "address",
        "numberOfBytes": "20"
      },
      "t_array(t_struct(Checkpoint)5511_storage)dyn_storage": {
        "base": "t_struct(Checkpoint)5511_storage",
        "encoding": "dynamic_array",
        "label": "struct CheckpointsUpgradeable.Checkpoint[]",
        "numberOfBytes": "32"
      },
      "t_array(t_uint256)46_storage": {
        "base": "t_uint256",
        "encoding": "inplace",
        "label": "uint256[46]",
        "numberOfBytes": "1472"
      },
      "t_array(t_uint256)47_storage": {
        "base": "t_uint256",
        "encoding": "inplace",
        "label": "uint256[47]",
        "numberOfBytes": "1504"
      },
      "t_array(t_uint256)48_storage": {
        "base": "t_uint256",
        "encoding": "inplace",
        "label": "uint256[48]",
        "numberOfBytes": "1536"
      },
      "t_array(t_uint256)49_storage": {
        "base": "t_uint256",
        "encoding": "inplace",
        "label": "uint256[49]",
        "numberOfBytes": "1568"
      },
      "t_array(t_uint256)50_storage": {
        "base": "t_uint256",
        "encoding": "inplace",
        "label": "uint256[50]",
        "numberOfBytes": "1600"
      },
      "t_bool": {
        "encoding": "inplace",
        "label": "bool",
        "numberOfBytes": "1"
      },
      "t_bytes32": {
        "encoding": "inplace",
        "label": "bytes32",
        "numberOfBytes": "32"
      },
      "t_contract(IVotesUpgradeable)3955": {
        "encoding": "inplace",
        "label": "contract IVotesUpgradeable",
        "numberOfBytes": "20"
      },
      "t_int128": {
        "encoding": "inplace",
        "label": "int128",
        "numberOfBytes": "16"
      },
      "t_mapping(t_address,t_bool)": {
        "encoding": "mapping",
        "key": "t_address",
        "label": "mapping(address => bool)",
        "numberOfBytes": "32",
        "value": "t_bool"
      },
      "t_mapping(t_int128,t_bytes32)": {
        "encoding": "mapping",
        "key": "t_int128",
        "label": "mapping(int128 => bytes32)",
        "numberOfBytes": "32",
        "value": "t_bytes32"
      },
      "t_mapping(t_uint256,t_struct(ProposalCore)601_storage)": {
        "encoding": "mapping",
        "key": "t_uint256",
        "label": "mapping(uint256 => struct GovernorUpgradeable.ProposalCore)",
        "numberOfBytes": "32",
        "value": "t_struct(ProposalCore)601_storage"
      },
      "t_mapping(t_uint256,t_struct(ProposalVote)3171_storage)": {
        "encoding": "mapping",
        "key": "t_uint256",
        "label": "mapping(uint256 => struct GovernorCountingSimpleUpgradeable.ProposalVote)",
        "numberOfBytes": "32",
        "value": "t_struct(ProposalVote)3171_storage"
      },
      "t_string_storage": {
        "encoding": "bytes",
        "label": "string",
        "numberOfBytes": "32"
      },
      "t_struct(BlockNumber)7269_storage": {
        "encoding": "inplace",
        "label": "struct TimersUpgradeable.BlockNumber",
        "members": [
          {
            "astId": 7268,
            "contract": "contracts/governance/ZeroGovernor.sol:ZeroGovernor",
            "label": "_deadline",
            "offset": 0,
            "slot": "0",
            "type": "t_uint64"
          }
        ],
        "numberOfBytes": "32"
      },
      "t_struct(Bytes32Deque)10676_storage": {
        "encoding": "inplace",
        "label": "struct DoubleEndedQueueUpgradeable.Bytes32Deque",
        "members": [
          {
            "astId": 10669,
            "contract": "contracts/governance/ZeroGovernor.sol:ZeroGovernor",
            "label": "_begin",
            "offset": 0,
            "slot": "0",
            "type": "t_int128"
          },
          {
            "astId": 10671,
            "contract": "contracts/governance/ZeroGovernor.sol:ZeroGovernor",
            "label": "_end",
            "offset": 16,
            "slot": "0",
            "type": "t_int128"
          },
          {
            "astId": 10675,
            "contract": "contracts/governance/ZeroGovernor.sol:ZeroGovernor",
            "label": "_data",
            "offset": 0,
            "slot": "1",
            "type": "t_mapping(t_int128,t_bytes32)"
          }
        ],
        "numberOfBytes": "64"
      },
      "t_struct(Checkpoint)5511_storage": {
        "encoding": "inplace",
        "label": "struct CheckpointsUpgradeable.Checkpoint",
        "members": [
          {
            "astId": 5508,
            "contract": "contracts/governance/ZeroGovernor.sol:ZeroGovernor",
            "label": "_blockNumber",
            "offset": 0,
            "slot": "0",
            "type": "t_uint32"
          },
          {
            "astId": 5510,
            "contract": "contracts/governance/ZeroGovernor.sol:ZeroGovernor",
            "label": "_value",
            "offset": 4,
            "slot": "0",
            "type": "t_uint224"
          }
        ],
        "numberOfBytes": "32"
      },
      "t_struct(History)5506_storage": {
        "encoding": "inplace",
        "label": "struct CheckpointsUpgradeable.History",
        "members": [
          {
            "astId": 5505,
            "contract": "contracts/governance/ZeroGovernor.sol:ZeroGovernor",
            "label": "_checkpoints",
            "offset": 0,
            "slot": "0",
            "type": "t_array(t_struct(Checkpoint)5511_storage)dyn_storage"
          }
        ],
        "numberOfBytes": "32"
      },
      "t_struct(ProposalCore)601_storage": {
        "encoding": "inplace",
        "label": "struct GovernorUpgradeable.ProposalCore",
        "members": [
          {
            "astId": 593,
            "contract": "contracts/governance/ZeroGovernor.sol:ZeroGovernor",
            "label": "voteStart",
            "offset": 0,
            "slot": "0",
            "type": "t_struct(BlockNumber)7269_storage"
          },
          {
            "astId": 596,
            "contract": "contracts/governance/ZeroGovernor.sol:ZeroGovernor",
            "label": "voteEnd",
            "offset": 0,
            "slot": "1",
            "type": "t_struct(BlockNumber)7269_storage"
          },
          {
            "astId": 598,
            "contract": "contracts/governance/ZeroGovernor.sol:ZeroGovernor",
            "label": "executed",
            "offset": 0,
            "slot": "2",
            "type": "t_bool"
          },
          {
            "astId": 600,
            "contract": "contracts/governance/ZeroGovernor.sol:ZeroGovernor",
            "label": "canceled",
            "offset": 1,
            "slot": "2",
            "type": "t_bool"
          }
        ],
        "numberOfBytes": "96"
      },
      "t_struct(ProposalVote)3171_storage": {
        "encoding": "inplace",
        "label": "struct GovernorCountingSimpleUpgradeable.ProposalVote",
        "members": [
          {
            "astId": 3162,
            "contract": "contracts/governance/ZeroGovernor.sol:ZeroGovernor",
            "label": "againstVotes",
            "offset": 0,
            "slot": "0",
            "type": "t_uint256"
          },
          {
            "astId": 3164,
            "contract": "contracts/governance/ZeroGovernor.sol:ZeroGovernor",
            "label": "forVotes",
            "offset": 0,
            "slot": "1",
            "type": "t_uint256"
          },
          {
            "astId": 3166,
            "contract": "contracts/governance/ZeroGovernor.sol:ZeroGovernor",
            "label": "abstainVotes",
            "offset": 0,
            "slot": "2",
            "type": "t_uint256"
          },
          {
            "astId": 3170,
            "contract": "contracts/governance/ZeroGovernor.sol:ZeroGovernor",
            "label": "hasVoted",
            "offset": 0,
            "slot": "3",
            "type": "t_mapping(t_address,t_bool)"
          }
        ],
        "numberOfBytes": "128"
      },
      "t_uint224": {
        "encoding": "inplace",
        "label": "uint224",
        "numberOfBytes": "28"
      },
      "t_uint256": {
        "encoding": "inplace",
        "label": "uint256",
        "numberOfBytes": "32"
      },
      "t_uint32": {
        "encoding": "inplace",
        "label": "uint32",
        "numberOfBytes": "4"
      },
      "t_uint64": {
        "encoding": "inplace",
        "label": "uint64",
        "numberOfBytes": "8"
      },
      "t_uint8": {
        "encoding": "inplace",
        "label": "uint8",
        "numberOfBytes": "1"
      }
    }
  }
}