{
  "address": "0xCf7Ed3AccA5a467e9e704C703E8D87F634fB0Fc9",
  "abi": [
    {
      "anonymous": false,
      "inputs": [
        {
          "indexed": false,
          "internalType": "uint8",
          "name": "version",
          "type": "uint8"
        }
      ],
      "name": "Initialized",
      "type": "event"
    },
    {
      "anonymous": false,
      "inputs": [
        {
          "indexed": true,
          "internalType": "address",
          "name": "previousOwner",
          "type": "address"
        },
        {
          "indexed": true,
          "internalType": "address",
          "name": "newOwner",
          "type": "address"
        }
      ],
      "name": "OwnershipTransferred",
      "type": "event"
    },
    {
      "inputs": [
        {
          "internalType": "uint256",
          "name": "amount",
          "type": "uint256"
        },
        {
          "internalType": "bytes",
          "name": "signature",
          "type": "bytes"
        }
      ],
      "name": "deposit",
      "outputs": [],
      "stateMutability": "nonpayable",
      "type": "function"
    },
    {
      "inputs": [
        {
          "internalType": "address",
          "name": "_asset",
          "type": "address"
        }
      ],
      "name": "initialize",
      "outputs": [],
      "stateMutability": "nonpayable",
      "type": "function"
    },
    {
      "inputs": [],
      "name": "owner",
      "outputs": [
        {
          "internalType": "address",
          "name": "",
          "type": "address"
        }
      ],
      "stateMutability": "view",
      "type": "function"
    },
    {
      "inputs": [],
      "name": "renounceOwnership",
      "outputs": [],
      "stateMutability": "nonpayable",
      "type": "function"
    },
    {
      "inputs": [
        {
          "internalType": "address",
          "name": "newOwner",
          "type": "address"
        }
      ],
      "name": "transferOwnership",
      "outputs": [],
      "stateMutability": "nonpayable",
      "type": "function"
    }
  ],
  "transactionHash": "0x37f08d0f1e69ab8d394f48019aba76f796690a01ce7dfd36e319270efc953aa4",
  "args": [],
  "numDeployments": 1,
  "solcInputHash": "afae2c358009be1c92d226f434420e1c",
  "bytecode": "0x6080806040523461001657610ac8908161001c8239f35b600080fdfe60806040526004361015610013575b600080fd5b6000803560e01c9081635d3035191461007a57508063715018a6146100715780638da5cb5b14610068578063c4d66de81461005f5763f2fde38b1461005757600080fd5b61000e61046a565b5061000e610332565b5061000e610292565b5061000e6101ef565b3461014f5760407ffffffffffffffffffffffffffffffffffffffffffffffffffffffffffffffffc36011261014f5767ffffffffffffffff60243581811161014b573660238201121561014b57806004013591821161013e575b826040519161010b60207fffffffffffffffffffffffffffffffffffffffffffffffffffffffffffffffe0601f87011601846101a3565b838352366024858301011161013a57836101359460246020930183860137830101526004356107b4565b604051f35b5080fd5b610146610152565b6100d4565b8280fd5b80fd5b507f4e487b7100000000000000000000000000000000000000000000000000000000600052604160045260246000fd5b67ffffffffffffffff811161019657604052565b61019e610152565b604052565b90601f7fffffffffffffffffffffffffffffffffffffffffffffffffffffffffffffffe0910116810190811067ffffffffffffffff82111761019657604052565b600091031261000e57565b503461000e576000807ffffffffffffffffffffffffffffffffffffffffffffffffffffffffffffffffc36011261014f5761022861052a565b6033547fffffffffffffffffffffffff000000000000000000000000000000000000000081166033558173ffffffffffffffffffffffffffffffffffffffff60405192167f8be0079c531659141344cd1fd0a4f28419497f9722a3daafe3b4186f6b6457e08284a3f35b503461000e5760007ffffffffffffffffffffffffffffffffffffffffffffffffffffffffffffffffc36011261000e57602073ffffffffffffffffffffffffffffffffffffffff60335416604051908152f35b7ffffffffffffffffffffffffffffffffffffffffffffffffffffffffffffffffc602091011261000e5760043573ffffffffffffffffffffffffffffffffffffffff8116810361000e5790565b503461000e57610341366102e5565b6103a36000549161036960ff8460081c16158094819561045c575b811561043c575b50610618565b8261039a60017fffffffffffffffffffffffffffffffffffffffffffffffffffffffffffffff006000541617600055565b610406576106a3565b6103aa575b005b6103d77fffffffffffffffffffffffffffffffffffffffffffffffffffffffffffff00ff60005416600055565b604051600181527f7f26b83ff96e1f2b6a682f133852f6798a09c465da95921460cefb384740249890602090a1005b6104376101007fffffffffffffffffffffffffffffffffffffffffffffffffffffffffffff00ff6000541617600055565b6106a3565b303b1591508161044e575b5038610363565b6001915060ff161438610447565b600160ff821610915061035c565b503461000e57610479366102e5565b61048161052a565b73ffffffffffffffffffffffffffffffffffffffff8116156104a6576103a8906105a9565b60846040517f08c379a000000000000000000000000000000000000000000000000000000000815260206004820152602660248201527f4f776e61626c653a206e6577206f776e657220697320746865207a65726f206160448201527f64647265737300000000000000000000000000000000000000000000000000006064820152fd5b73ffffffffffffffffffffffffffffffffffffffff60335416330361054b57565b60646040517f08c379a000000000000000000000000000000000000000000000000000000000815260206004820152602060248201527f4f776e61626c653a2063616c6c6572206973206e6f7420746865206f776e65726044820152fd5b6033549073ffffffffffffffffffffffffffffffffffffffff80911691827fffffffffffffffffffffffff0000000000000000000000000000000000000000821617603355167f8be0079c531659141344cd1fd0a4f28419497f9722a3daafe3b4186f6b6457e06000604051a3565b1561061f57565b60846040517f08c379a000000000000000000000000000000000000000000000000000000000815260206004820152602e60248201527f496e697469616c697a61626c653a20636f6e747261637420697320616c72656160448201527f647920696e697469616c697a65640000000000000000000000000000000000006064820152fd5b60ff60005460081c16156106fc5773ffffffffffffffffffffffffffffffffffffffff906106d0336105a9565b167fffffffffffffffffffffffff00000000000000000000000000000000000000006065541617606555565b60846040517f08c379a000000000000000000000000000000000000000000000000000000000815260206004820152602b60248201527f496e697469616c697a61626c653a20636f6e7472616374206973206e6f74206960448201527f6e697469616c697a696e670000000000000000000000000000000000000000006064820152fd5b9081602091031261000e575190565b506040513d6000823e3d90fd5b9081602091031261000e5751801515810361000e5790565b906107be90610a71565b9290916107ff6107e66107e660655473ffffffffffffffffffffffffffffffffffffffff1690565b73ffffffffffffffffffffffffffffffffffffffff1690565b6040517f7ecebe00000000000000000000000000000000000000000000000000000000008152336004820152602095919391908681602481885afa908115610a64575b600091610a37575b506040516108cf816108a38a820194873033889290606894927fffffffffffffffffffffffffffffffffffffffff000000000000000000000000809260601b16855260601b166014840152602883015260488201520190565b037fffffffffffffffffffffffffffffffffffffffffffffffffffffffffffffffe081018352826101a3565b519020843b1561000e576040517fd505accf00000000000000000000000000000000000000000000000000000000815233600482015230602482015260448101849052606481019190915260ff93909316608484015260a483019490945260c482019390935260009284926109c892908590829060e490829084905af18015610a2a575b610a11575b5061097e6107e66107e660655473ffffffffffffffffffffffffffffffffffffffff1690565b6040517f23b872dd00000000000000000000000000000000000000000000000000000000815233600482015230602482015260448101929092529093849283919082906064820190565b03925af18015610a04575b6109db575050565b816109fa92903d106109fd575b6109f281836101a3565b81019061079c565b50565b503d6109e8565b610a0c61078f565b6109d3565b80610a1e610a2492610182565b806101e4565b38610958565b610a3261078f565b610953565b610a579150873d8911610a5d575b610a4f81836101a3565b810190610780565b3861084a565b503d610a45565b610a6c61078f565b610842565b604181510361000e576020810151916060604083015192015160001a92919056fea2646970667358221220e76a13d9e663af33fdae4819715b68a43410d10e233bc90fdd0d229573319f7f64736f6c634300080f0033",
  "devdoc": {
    "kind": "dev",
    "methods": {
      "owner()": {
        "details": "Returns the address of the current owner."
      },
      "renounceOwnership()": {
        "details": "Leaves the contract without owner. It will not be possible to call `onlyOwner` functions anymore. Can only be called by the current owner. NOTE: Renouncing ownership will leave the contract without an owner, thereby removing any functionality that is only available to the owner."
      },
      "transferOwnership(address)": {
        "details": "Transfers ownership of the contract to a new account (`newOwner`). Can only be called by the current owner."
      }
    },
    "version": 1
  },
  "userdoc": {
    "kind": "user",
    "methods": {},
    "version": 1
  },
  "storageLayout": {
    "storage": [
      {
        "astId": 138,
        "contract": "contracts/util/ZeroLock.sol:ZeroLock",
        "label": "_initialized",
        "offset": 0,
        "slot": "0",
        "type": "t_uint8"
      },
      {
        "astId": 141,
        "contract": "contracts/util/ZeroLock.sol:ZeroLock",
        "label": "_initializing",
        "offset": 1,
        "slot": "0",
        "type": "t_bool"
      },
      {
        "astId": 625,
        "contract": "contracts/util/ZeroLock.sol:ZeroLock",
        "label": "__gap",
        "offset": 0,
        "slot": "1",
        "type": "t_array(t_uint256)50_storage"
      },
      {
        "astId": 10,
        "contract": "contracts/util/ZeroLock.sol:ZeroLock",
        "label": "_owner",
        "offset": 0,
        "slot": "51",
        "type": "t_address"
      },
      {
        "astId": 130,
        "contract": "contracts/util/ZeroLock.sol:ZeroLock",
        "label": "__gap",
        "offset": 0,
        "slot": "52",
        "type": "t_array(t_uint256)49_storage"
      },
      {
        "astId": 756,
        "contract": "contracts/util/ZeroLock.sol:ZeroLock",
        "label": "asset",
        "offset": 0,
        "slot": "101",
        "type": "t_address"
      }
    ],
    "types": {
      "t_address": {
        "encoding": "inplace",
        "label": "address",
        "numberOfBytes": "20"
      },
      "t_array(t_uint256)49_storage": {
        "base": "t_uint256",
        "encoding": "inplace",
        "label": "uint256[49]",
        "numberOfBytes": "1568"
      },
      "t_array(t_uint256)50_storage": {
        "base": "t_uint256",
        "encoding": "inplace",
        "label": "uint256[50]",
        "numberOfBytes": "1600"
      },
      "t_bool": {
        "encoding": "inplace",
        "label": "bool",
        "numberOfBytes": "1"
      },
      "t_uint256": {
        "encoding": "inplace",
        "label": "uint256",
        "numberOfBytes": "32"
      },
      "t_uint8": {
        "encoding": "inplace",
        "label": "uint8",
        "numberOfBytes": "1"
      }
    }
  }
}