{
  "address": "0x9A676e781A523b5d0C0e43731313A708CB607508",
  "abi": [
    {
      "inputs": [],
      "stateMutability": "nonpayable",
      "type": "constructor"
    },
    {
      "inputs": [],
      "name": "ApprovalCallerNotOwnerNorApproved",
      "type": "error"
    },
    {
      "inputs": [],
      "name": "ApprovalQueryForNonexistentToken",
      "type": "error"
    },
    {
      "inputs": [],
      "name": "BalanceQueryForZeroAddress",
      "type": "error"
    },
    {
      "inputs": [],
      "name": "ExceedMaxPerWallet",
      "type": "error"
    },
    {
      "inputs": [],
      "name": "ExceedSupply",
      "type": "error"
    },
    {
      "inputs": [],
      "name": "InsufficientPayment",
      "type": "error"
    },
    {
      "inputs": [],
      "name": "MintERC2309QuantityExceedsLimit",
      "type": "error"
    },
    {
      "inputs": [],
      "name": "MintToZeroAddress",
      "type": "error"
    },
    {
      "inputs": [],
      "name": "MintZeroQuantity",
      "type": "error"
    },
    {
      "inputs": [],
      "name": "NotInWhitelist",
      "type": "error"
    },
    {
      "inputs": [],
      "name": "OwnerQueryForNonexistentToken",
      "type": "error"
    },
    {
      "inputs": [],
      "name": "OwnershipNotInitializedForExtraData",
      "type": "error"
    },
    {
      "inputs": [],
      "name": "PrivateMintNotStarted",
      "type": "error"
    },
    {
      "inputs": [],
      "name": "PublicMintNotStarted",
      "type": "error"
    },
    {
      "inputs": [],
      "name": "TransferCallerNotOwnerNorApproved",
      "type": "error"
    },
    {
      "inputs": [],
      "name": "TransferFromIncorrectOwner",
      "type": "error"
    },
    {
      "inputs": [],
      "name": "TransferToNonERC721ReceiverImplementer",
      "type": "error"
    },
    {
      "inputs": [],
      "name": "TransferToZeroAddress",
      "type": "error"
    },
    {
      "inputs": [],
      "name": "URIQueryForNonexistentToken",
      "type": "error"
    },
    {
      "anonymous": false,
      "inputs": [
        {
          "indexed": true,
          "internalType": "address",
          "name": "owner",
          "type": "address"
        },
        {
          "indexed": true,
          "internalType": "address",
          "name": "approved",
          "type": "address"
        },
        {
          "indexed": true,
          "internalType": "uint256",
          "name": "tokenId",
          "type": "uint256"
        }
      ],
      "name": "Approval",
      "type": "event"
    },
    {
      "anonymous": false,
      "inputs": [
        {
          "indexed": true,
          "internalType": "address",
          "name": "owner",
          "type": "address"
        },
        {
          "indexed": true,
          "internalType": "address",
          "name": "operator",
          "type": "address"
        },
        {
          "indexed": false,
          "internalType": "bool",
          "name": "approved",
          "type": "bool"
        }
      ],
      "name": "ApprovalForAll",
      "type": "event"
    },
    {
      "anonymous": false,
      "inputs": [
        {
          "indexed": true,
          "internalType": "uint256",
          "name": "fromTokenId",
          "type": "uint256"
        },
        {
          "indexed": false,
          "internalType": "uint256",
          "name": "toTokenId",
          "type": "uint256"
        },
        {
          "indexed": true,
          "internalType": "address",
          "name": "from",
          "type": "address"
        },
        {
          "indexed": true,
          "internalType": "address",
          "name": "to",
          "type": "address"
        }
      ],
      "name": "ConsecutiveTransfer",
      "type": "event"
    },
    {
      "anonymous": false,
      "inputs": [
        {
          "indexed": true,
          "internalType": "address",
          "name": "previousOwner",
          "type": "address"
        },
        {
          "indexed": true,
          "internalType": "address",
          "name": "newOwner",
          "type": "address"
        }
      ],
      "name": "OwnershipTransferred",
      "type": "event"
    },
    {
      "anonymous": false,
      "inputs": [
        {
          "indexed": true,
          "internalType": "address",
          "name": "from",
          "type": "address"
        },
        {
          "indexed": true,
          "internalType": "address",
          "name": "to",
          "type": "address"
        },
        {
          "indexed": true,
          "internalType": "uint256",
          "name": "tokenId",
          "type": "uint256"
        }
      ],
      "name": "Transfer",
      "type": "event"
    },
    {
      "inputs": [
        {
          "internalType": "address",
          "name": "to",
          "type": "address"
        },
        {
          "internalType": "uint256",
          "name": "tokenId",
          "type": "uint256"
        }
      ],
      "name": "approve",
      "outputs": [],
      "stateMutability": "payable",
      "type": "function"
    },
    {
      "inputs": [
        {
          "internalType": "address",
          "name": "owner",
          "type": "address"
        }
      ],
      "name": "balanceOf",
      "outputs": [
        {
          "internalType": "uint256",
          "name": "",
          "type": "uint256"
        }
      ],
      "stateMutability": "view",
      "type": "function"
    },
    {
      "inputs": [
        {
          "internalType": "uint8",
          "name": "quantity",
          "type": "uint8"
        }
      ],
      "name": "devMint",
      "outputs": [],
      "stateMutability": "nonpayable",
      "type": "function"
    },
    {
      "inputs": [
        {
          "internalType": "uint256",
          "name": "tokenId",
          "type": "uint256"
        }
      ],
      "name": "getApproved",
      "outputs": [
        {
          "internalType": "address",
          "name": "",
          "type": "address"
        }
      ],
      "stateMutability": "view",
      "type": "function"
    },
    {
      "inputs": [
        {
          "internalType": "address",
          "name": "owner",
          "type": "address"
        },
        {
          "internalType": "address",
          "name": "operator",
          "type": "address"
        }
      ],
      "name": "isApprovedForAll",
      "outputs": [
        {
          "internalType": "bool",
          "name": "",
          "type": "bool"
        }
      ],
      "stateMutability": "view",
      "type": "function"
    },
    {
      "inputs": [
        {
          "internalType": "uint8",
          "name": "quantity",
          "type": "uint8"
        }
      ],
      "name": "mint",
      "outputs": [],
      "stateMutability": "payable",
      "type": "function"
    },
    {
      "inputs": [],
      "name": "name",
      "outputs": [
        {
          "internalType": "string",
          "name": "",
          "type": "string"
        }
      ],
      "stateMutability": "view",
      "type": "function"
    },
    {
      "inputs": [],
      "name": "owner",
      "outputs": [
        {
          "internalType": "address",
          "name": "",
          "type": "address"
        }
      ],
      "stateMutability": "view",
      "type": "function"
    },
    {
      "inputs": [
        {
          "internalType": "uint256",
          "name": "tokenId",
          "type": "uint256"
        }
      ],
      "name": "ownerOf",
      "outputs": [
        {
          "internalType": "address",
          "name": "",
          "type": "address"
        }
      ],
      "stateMutability": "view",
      "type": "function"
    },
    {
      "inputs": [
        {
          "internalType": "bytes32[]",
          "name": "proof",
          "type": "bytes32[]"
        },
        {
          "internalType": "uint8",
          "name": "quantity",
          "type": "uint8"
        }
      ],
      "name": "privateMint",
      "outputs": [],
      "stateMutability": "payable",
      "type": "function"
    },
    {
      "inputs": [],
      "name": "renounceOwnership",
      "outputs": [],
      "stateMutability": "nonpayable",
      "type": "function"
    },
    {
      "inputs": [
        {
          "internalType": "address",
          "name": "from",
          "type": "address"
        },
        {
          "internalType": "address",
          "name": "to",
          "type": "address"
        },
        {
          "internalType": "uint256",
          "name": "tokenId",
          "type": "uint256"
        }
      ],
      "name": "safeTransferFrom",
      "outputs": [],
      "stateMutability": "payable",
      "type": "function"
    },
    {
      "inputs": [
        {
          "internalType": "address",
          "name": "from",
          "type": "address"
        },
        {
          "internalType": "address",
          "name": "to",
          "type": "address"
        },
        {
          "internalType": "uint256",
          "name": "tokenId",
          "type": "uint256"
        },
        {
          "internalType": "bytes",
          "name": "_data",
          "type": "bytes"
        }
      ],
      "name": "safeTransferFrom",
      "outputs": [],
      "stateMutability": "payable",
      "type": "function"
    },
    {
      "inputs": [
        {
          "internalType": "address",
          "name": "operator",
          "type": "address"
        },
        {
          "internalType": "bool",
          "name": "approved",
          "type": "bool"
        }
      ],
      "name": "setApprovalForAll",
      "outputs": [],
      "stateMutability": "nonpayable",
      "type": "function"
    },
    {
      "inputs": [
        {
          "internalType": "string",
          "name": "value",
          "type": "string"
        }
      ],
      "name": "setBaseTokenURI",
      "outputs": [],
      "stateMutability": "nonpayable",
      "type": "function"
    },
    {
      "inputs": [
        {
          "internalType": "uint256",
          "name": "value",
          "type": "uint256"
        }
      ],
      "name": "setMintPrice",
      "outputs": [],
      "stateMutability": "nonpayable",
      "type": "function"
    },
    {
      "inputs": [
        {
          "internalType": "uint8",
          "name": "value",
          "type": "uint8"
        }
      ],
      "name": "setPresaleMaxItemsPerWallet",
      "outputs": [],
      "stateMutability": "nonpayable",
      "type": "function"
    },
    {
      "inputs": [
        {
          "internalType": "bytes32",
          "name": "value",
          "type": "bytes32"
        }
      ],
      "name": "setPresaleMerkleRoot",
      "outputs": [],
      "stateMutability": "nonpayable",
      "type": "function"
    },
    {
      "inputs": [
        {
          "internalType": "uint256",
          "name": "value",
          "type": "uint256"
        }
      ],
      "name": "setPresalePrice",
      "outputs": [],
      "stateMutability": "nonpayable",
      "type": "function"
    },
    {
      "inputs": [],
      "name": "startPrivateMint",
      "outputs": [],
      "stateMutability": "nonpayable",
      "type": "function"
    },
    {
      "inputs": [],
      "name": "startPublicMint",
      "outputs": [],
      "stateMutability": "nonpayable",
      "type": "function"
    },
    {
      "inputs": [
        {
          "internalType": "bytes4",
          "name": "interfaceId",
          "type": "bytes4"
        }
      ],
      "name": "supportsInterface",
      "outputs": [
        {
          "internalType": "bool",
          "name": "",
          "type": "bool"
        }
      ],
      "stateMutability": "view",
      "type": "function"
    },
    {
      "inputs": [],
      "name": "symbol",
      "outputs": [
        {
          "internalType": "string",
          "name": "",
          "type": "string"
        }
      ],
      "stateMutability": "view",
      "type": "function"
    },
    {
      "inputs": [
        {
          "internalType": "uint256",
          "name": "tokenId",
          "type": "uint256"
        }
      ],
      "name": "tokenURI",
      "outputs": [
        {
          "internalType": "string",
          "name": "",
          "type": "string"
        }
      ],
      "stateMutability": "view",
      "type": "function"
    },
    {
      "inputs": [],
      "name": "totalSupply",
      "outputs": [
        {
          "internalType": "uint256",
          "name": "",
          "type": "uint256"
        }
      ],
      "stateMutability": "view",
      "type": "function"
    },
    {
      "inputs": [
        {
          "internalType": "address",
          "name": "from",
          "type": "address"
        },
        {
          "internalType": "address",
          "name": "to",
          "type": "address"
        },
        {
          "internalType": "uint256",
          "name": "tokenId",
          "type": "uint256"
        }
      ],
      "name": "transferFrom",
      "outputs": [],
      "stateMutability": "payable",
      "type": "function"
    },
    {
      "inputs": [
        {
          "internalType": "address",
          "name": "newOwner",
          "type": "address"
        }
      ],
      "name": "transferOwnership",
      "outputs": [],
      "stateMutability": "nonpayable",
      "type": "function"
    },
    {
      "inputs": [],
      "name": "withdraw",
      "outputs": [],
      "stateMutability": "nonpayable",
      "type": "function"
    }
  ],
  "transactionHash": "0x53824cd0b3ef6d4fa41f28bdaeb8714ed55f0b747bbccff2d95bd947044dc08e",
  "args": [],
  "numDeployments": 1,
  "solcInputHash": "e18f82980c9340dbc0c7dff2690a92e9",
  "bytecode": "0x600a805462ff000019166203000017905567016345785d8a0000600b556702c68af0bb140000600c556101e060405261012f60808181529062002a4e60a039600f906200004d9082620005bf565b506040518060e00160405280604051806040016040528060048152602001634669726560e01b81525081526020016040518060400160405280600481526020016315da5b9960e21b8152508152602001604051806040016040528060048152602001635761766560e01b81525081526020016040518060400160405280600581526020016408ac2e4e8d60db1b8152508152602001604051806040016040528060078152602001662a343ab73232b960c91b815250815260200160405180604001604052806005815260200164537061636560d81b81525081526020016040518060400160405280600481526020016354696d6560e01b81525081525060109060076200015c92919062000443565b506040518060e001604052806040518060400160405280600581526020016414dddbdc9960da1b81525081526020016040518060400160405280600581526020016429b832b0b960d91b81525081526020016040518060400160405280600681526020016514da1a595b1960d21b8152508152602001604051806040016040528060068152602001652430b6b6b2b960d11b81525081526020016040518060400160405280600581526020016429b0b132b960d91b81525081526020016040518060400160405280600381526020016241786560e81b815250815260200160405180604001604052806003815260200162426f7760e81b81525081525060119060076200026b92919062000443565b506040805161012081018252600460e0820181815263131bdc9960e21b610100840152825282518084018452908152634b696e6760e01b602082810191909152808301919091528251808401845260078082526622b6b832b937b960c91b828401528385019190915283518085018552600981526856656e657261626c6560b81b81840152606084015283518085018552600881526720b731b2b9ba37b960c11b81840152608084015283518085018552600581526414d85a5b9d60da1b8184015260a08401528351808501909452600384526211dbd960ea1b9184019190915260c082019290925262000363916012919062000443565b503480156200037157600080fd5b506040518060400160405280600b81526020016a16995c9bd2195c9bd3919560aa1b815250604051806040016040528060058152602001645a4845524f60d81b8152508160029081620003c59190620005bf565b506003620003d48282620005bf565b50506000805550620003e633620003f1565b60016009556200068b565b600880546001600160a01b038381166001600160a01b0319831681179093556040519116919082907f8be0079c531659141344cd1fd0a4f28419497f9722a3daafe3b4186f6b6457e090600090a35050565b8280548282559060005260206000209081019282156200048e579160200282015b828111156200048e57825182906200047d9082620005bf565b509160200191906001019062000464565b506200049c929150620004a0565b5090565b808211156200049c576000620004b78282620004c1565b50600101620004a0565b508054620004cf9062000530565b6000825580601f10620004e0575050565b601f01602090049060005260206000209081019062000500919062000503565b50565b5b808211156200049c576000815560010162000504565b634e487b7160e01b600052604160045260246000fd5b600181811c908216806200054557607f821691505b6020821081036200056657634e487b7160e01b600052602260045260246000fd5b50919050565b601f821115620005ba57600081815260208120601f850160051c81016020861015620005955750805b601f850160051c820191505b81811015620005b657828155600101620005a1565b5050505b505050565b81516001600160401b03811115620005db57620005db6200051a565b620005f381620005ec845462000530565b846200056c565b602080601f8311600181146200062b5760008415620006125750858301515b600019600386901b1c1916600185901b178555620005b6565b600085815260208120601f198616915b828110156200065c578886015182559484019460019091019084016200063b565b50858210156200067b5787850151600019600388901b60f8161c191681555b5050505050600190811b01905550565b6123b3806200069b6000396000f3fe6080604052600436106101b75760003560e01c80636ecd2306116100ec578063b88d4fde1161008a578063e6a7e93311610064578063e6a7e9331461048e578063e985e9c5146104a3578063f2fde38b146104f9578063f4a0a5281461051957600080fd5b8063b88d4fde14610448578063c87b56dd1461045b578063dfb9eb561461047b57600080fd5b806376c64c62116100c657806376c64c62146103d35780638da5cb5b146103e857806395d89b4114610413578063a22cb4651461042857600080fd5b80636ecd23061461038b57806370a082311461039e578063715018a6146103be57600080fd5b806328d7b276116101595780633549345e116101335780633549345e146103235780633ccfd60b1461034357806342842e0e146103585780636352211e1461036b57600080fd5b806328d7b276146102c357806330176e13146102e35780633497d1651461030357600080fd5b8063095ea7b311610195578063095ea7b31461025857806318160ddd1461026d5780631a0ef8a91461029057806323b872dd146102b057600080fd5b806301ffc9a7146101bc57806306fdde03146101f1578063081812fc14610213575b600080fd5b3480156101c857600080fd5b506101dc6101d7366004611bb3565b610539565b60405190151581526020015b60405180910390f35b3480156101fd57600080fd5b5061020661061e565b6040516101e89190611c46565b34801561021f57600080fd5b5061023361022e366004611c59565b6106b0565b60405173ffffffffffffffffffffffffffffffffffffffff90911681526020016101e8565b61026b610266366004611c9b565b61071a565b005b34801561027957600080fd5b50600154600054035b6040519081526020016101e8565b34801561029c57600080fd5b5061026b6102ab366004611cd6565b610805565b61026b6102be366004611cf1565b610847565b3480156102cf57600080fd5b5061026b6102de366004611c59565b610ad7565b3480156102ef57600080fd5b5061026b6102fe366004611e21565b610ae4565b34801561030f57600080fd5b5061026b61031e366004611cd6565b610afc565b34801561032f57600080fd5b5061026b61033e366004611c59565b610b69565b34801561034f57600080fd5b5061026b610b76565b61026b610366366004611cf1565b610bba565b34801561037757600080fd5b50610233610386366004611c59565b610bda565b61026b610399366004611cd6565b610be5565b3480156103aa57600080fd5b506102826103b9366004611e6a565b610da7565b3480156103ca57600080fd5b5061026b610e29565b3480156103df57600080fd5b5061026b610e3b565b3480156103f457600080fd5b5060085473ffffffffffffffffffffffffffffffffffffffff16610233565b34801561041f57600080fd5b50610206610e71565b34801561043457600080fd5b5061026b610443366004611e85565b610e80565b61026b610456366004611ec1565b610f17565b34801561046757600080fd5b50610206610476366004611c59565b610f87565b61026b610489366004611f3d565b611024565b34801561049a57600080fd5b5061026b6111ff565b3480156104af57600080fd5b506101dc6104be366004611ff5565b73ffffffffffffffffffffffffffffffffffffffff918216600090815260076020908152604080832093909416825291909152205460ff1690565b34801561050557600080fd5b5061026b610514366004611e6a565b611234565b34801561052557600080fd5b5061026b610534366004611c59565b6112ed565b60007f01ffc9a7000000000000000000000000000000000000000000000000000000007fffffffff00000000000000000000000000000000000000000000000000000000831614806105cc57507f80ac58cd000000000000000000000000000000000000000000000000000000007fffffffff000000000000000000000000000000000000000000000000000000008316145b8061061857507f5b5e139f000000000000000000000000000000000000000000000000000000007fffffffff000000000000000000000000000000000000000000000000000000008316145b92915050565b60606002805461062d90612028565b80601f016020809104026020016040519081016040528092919081815260200182805461065990612028565b80156106a65780601f1061067b576101008083540402835291602001916106a6565b820191906000526020600020905b81548152906001019060200180831161068957829003601f168201915b5050505050905090565b60006106bb826112fa565b6106f1576040517fcf4700e400000000000000000000000000000000000000000000000000000000815260040160405180910390fd5b5060009081526006602052604090205473ffffffffffffffffffffffffffffffffffffffff1690565b600061072582610bda565b90503373ffffffffffffffffffffffffffffffffffffffff8216146107845761074e81336104be565b610784576040517fcfb3b94200000000000000000000000000000000000000000000000000000000815260040160405180910390fd5b60008281526006602052604080822080547fffffffffffffffffffffffff00000000000000000000000000000000000000001673ffffffffffffffffffffffffffffffffffffffff87811691821790925591518593918516917f8c5be1e5ebec7d5bd14f71427d1e84f3dd0314c0f7b2291e5b200ac8c7c3b92591a4505050565b61080d61133a565b600a805460ff90921662010000027fffffffffffffffffffffffffffffffffffffffffffffffffffffffffff00ffff909216919091179055565b6000610852826113bb565b90508373ffffffffffffffffffffffffffffffffffffffff168173ffffffffffffffffffffffffffffffffffffffff16146108b9576040517fa114810000000000000000000000000000000000000000000000000000000000815260040160405180910390fd5b600082815260066020526040902080543380821473ffffffffffffffffffffffffffffffffffffffff88169091141761092c576108f686336104be565b61092c576040517f59c896be00000000000000000000000000000000000000000000000000000000815260040160405180910390fd5b73ffffffffffffffffffffffffffffffffffffffff8516610979576040517fea553b3400000000000000000000000000000000000000000000000000000000815260040160405180910390fd5b801561098457600082555b73ffffffffffffffffffffffffffffffffffffffff86811660009081526005602052604080822080547fffffffffffffffffffffffffffffffffffffffffffffffffffffffffffffffff019055918716808252919020805460010190554260a01b177c0200000000000000000000000000000000000000000000000000000000176000858152600460205260408120919091557c020000000000000000000000000000000000000000000000000000000084169003610a7357600184016000818152600460205260408120549003610a71576000548114610a715760008181526004602052604090208490555b505b838573ffffffffffffffffffffffffffffffffffffffff168773ffffffffffffffffffffffffffffffffffffffff167fddf252ad1be2c89b69c2b068fc378daa952ba7f163c4a11628f55a4df523b3ef60405160405180910390a45b505050505050565b610adf61133a565b600e55565b610aec61133a565b600d610af882826120c1565b5050565b610b0461133a565b606460ff8216610b176001546000540390565b610b21919061220a565b1115610b59576040517f5c9a0abb00000000000000000000000000000000000000000000000000000000815260040160405180910390fd5b610b66338260ff16611472565b50565b610b7161133a565b600b55565b610b7e61133a565b610b866115b0565b610bae610ba860085473ffffffffffffffffffffffffffffffffffffffff1690565b47611623565b610bb86001600955565b565b610bd583838360405180602001604052806000815250610f17565b505050565b6000610618826113bb565b610bed6115b0565b600a54610100900460ff16610c2e576040517fb35ba98d00000000000000000000000000000000000000000000000000000000815260040160405180910390fd5b610c706040518060400160405280600881526020017f7175616e746974790000000000000000000000000000000000000000000000008152508260ff1661177d565b610cb16040518060400160405280600981526020017f6d696e7450726963650000000000000000000000000000000000000000000000815250600c5461177d565b610cf06040518060400160405280600981526020017f6d73672e76616c756500000000000000000000000000000000000000000000008152503461177d565b8060ff16600c54610d019190612222565b341015610d3a576040517fcd1c886700000000000000000000000000000000000000000000000000000000815260040160405180910390fd5b61271060ff8216610d4e6001546000540390565b610d58919061220a565b1115610d90576040517f5c9a0abb00000000000000000000000000000000000000000000000000000000815260040160405180910390fd5b610d9d338260ff16611472565b610b666001600955565b600073ffffffffffffffffffffffffffffffffffffffff8216610df6576040517f8f4eb60400000000000000000000000000000000000000000000000000000000815260040160405180910390fd5b5073ffffffffffffffffffffffffffffffffffffffff1660009081526005602052604090205467ffffffffffffffff1690565b610e3161133a565b610bb8600061180e565b610e4361133a565b600a80547fffffffffffffffffffffffffffffffffffffffffffffffffffffffffffff00ff16610100179055565b60606003805461062d90612028565b33600081815260076020908152604080832073ffffffffffffffffffffffffffffffffffffffff87168085529083529281902080547fffffffffffffffffffffffffffffffffffffffffffffffffffffffffffffff001686151590811790915590519081529192917f17307eab39ab6107e8899845ad3d59bd9653f200f220920489ca2b5937696c31910160405180910390a35050565b610f22848484610847565b73ffffffffffffffffffffffffffffffffffffffff83163b15610f8157610f4b84848484611885565b610f81576040517fd1a57ed600000000000000000000000000000000000000000000000000000000815260040160405180910390fd5b50505050565b6060610f92826112fa565b610fc8576040517fa14c4b5000000000000000000000000000000000000000000000000000000000815260040160405180910390fd5b6000610fd26119ff565b90508051600003610ff2576040518060200160405280600081525061101d565b80610ffc84611a0e565b60405160200161100d92919061225f565b6040516020818303038152906040525b9392505050565b61102c6115b0565b600a5460ff1615806110455750600a54610100900460ff165b1561107c576040517fd23cd50900000000000000000000000000000000000000000000000000000000815260040160405180910390fd5b8060ff16600b5461108d9190612222565b3410156110c6576040517fcd1c886700000000000000000000000000000000000000000000000000000000815260040160405180910390fd5b60c860ff82166110d96001546000540390565b6110e3919061220a565b111561111b576040517f5c9a0abb00000000000000000000000000000000000000000000000000000000815260040160405180910390fd5b600a5460ff6201000090910481169082166111663373ffffffffffffffffffffffffffffffffffffffff166000908152600560205260409081902054901c67ffffffffffffffff1690565b611170919061220a565b11156111a8576040517fd900aa8a00000000000000000000000000000000000000000000000000000000815260040160405180910390fd5b6111b28233611a70565b6111e8576040517f5b0aa2ba00000000000000000000000000000000000000000000000000000000815260040160405180910390fd5b6111f5338260ff16611472565b610af86001600955565b61120761133a565b600a80547fffffffffffffffffffffffffffffffffffffffffffffffffffffffffffffff00166001179055565b61123c61133a565b73ffffffffffffffffffffffffffffffffffffffff81166112e4576040517f08c379a000000000000000000000000000000000000000000000000000000000815260206004820152602660248201527f4f776e61626c653a206e6577206f776e657220697320746865207a65726f206160448201527f646472657373000000000000000000000000000000000000000000000000000060648201526084015b60405180910390fd5b610b668161180e565b6112f561133a565b600c55565b60008054821080156106185750506000908152600460205260409020547c0100000000000000000000000000000000000000000000000000000000161590565b60085473ffffffffffffffffffffffffffffffffffffffff163314610bb8576040517f08c379a000000000000000000000000000000000000000000000000000000000815260206004820181905260248201527f4f776e61626c653a2063616c6c6572206973206e6f7420746865206f776e657260448201526064016112db565b60008160005481101561144057600081815260046020526040812054907c01000000000000000000000000000000000000000000000000000000008216900361143e575b8060000361101d57507fffffffffffffffffffffffffffffffffffffffffffffffffffffffffffffffff016000818152600460205260409020546113ff565b505b6040517fdf2d9b4200000000000000000000000000000000000000000000000000000000815260040160405180910390fd5b60008054908290036114b0576040517fb562e8dd00000000000000000000000000000000000000000000000000000000815260040160405180910390fd5b73ffffffffffffffffffffffffffffffffffffffff831660008181526005602090815260408083208054680100000000000000018802019055848352600490915281206001851460e11b4260a01b178317905582840190839083907fddf252ad1be2c89b69c2b068fc378daa952ba7f163c4a11628f55a4df523b3ef8180a4600183015b81811461156c57808360007fddf252ad1be2c89b69c2b068fc378daa952ba7f163c4a11628f55a4df523b3ef600080a4600101611534565b50816000036115a7576040517f2e07630000000000000000000000000000000000000000000000000000000000815260040160405180910390fd5b60005550505050565b60026009540361161c576040517f08c379a000000000000000000000000000000000000000000000000000000000815260206004820152601f60248201527f5265656e7472616e637947756172643a207265656e7472616e742063616c6c0060448201526064016112db565b6002600955565b8047101561168d576040517f08c379a000000000000000000000000000000000000000000000000000000000815260206004820152601d60248201527f416464726573733a20696e73756666696369656e742062616c616e636500000060448201526064016112db565b60008273ffffffffffffffffffffffffffffffffffffffff168260405160006040518083038185875af1925050503d80600081146116e7576040519150601f19603f3d011682016040523d82523d6000602084013e6116ec565b606091505b5050905080610bd5576040517f08c379a000000000000000000000000000000000000000000000000000000000815260206004820152603a60248201527f416464726573733a20756e61626c6520746f2073656e642076616c75652c207260448201527f6563697069656e74206d6179206861766520726576657274656400000000000060648201526084016112db565b610af8828260405160240161179392919061228e565b604080517fffffffffffffffffffffffffffffffffffffffffffffffffffffffffffffffe08184030181529190526020810180517bffffffffffffffffffffffffffffffffffffffffffffffffffffffff167fb60e72cc00000000000000000000000000000000000000000000000000000000179052611ad2565b6008805473ffffffffffffffffffffffffffffffffffffffff8381167fffffffffffffffffffffffff0000000000000000000000000000000000000000831681179093556040519116919082907f8be0079c531659141344cd1fd0a4f28419497f9722a3daafe3b4186f6b6457e090600090a35050565b6040517f150b7a0200000000000000000000000000000000000000000000000000000000815260009073ffffffffffffffffffffffffffffffffffffffff85169063150b7a02906118e09033908990889088906004016122b0565b6020604051808303816000875af1925050508015611939575060408051601f3d9081017fffffffffffffffffffffffffffffffffffffffffffffffffffffffffffffffe0168201909252611936918101906122f9565b60015b6119b0573d808015611967576040519150601f19603f3d011682016040523d82523d6000602084013e61196c565b606091505b5080516000036119a8576040517fd1a57ed600000000000000000000000000000000000000000000000000000000815260040160405180910390fd5b805181602001fd5b7fffffffff00000000000000000000000000000000000000000000000000000000167f150b7a02000000000000000000000000000000000000000000000000000000001490505b949350505050565b6060600d805461062d90612028565b606060a06040510180604052602081039150506000815280825b600183039250600a81066030018353600a900480611a2857508190037fffffffffffffffffffffffffffffffffffffffffffffffffffffffffffffffe0909101908152919050565b600e546040517fffffffffffffffffffffffffffffffffffffffff000000000000000000000000606084901b16602082015260009161101d916034016040516020818303038152906040528051906020012085611af39092919063ffffffff16565b80516a636f6e736f6c652e6c6f67602083016000808483855afa5050505050565b600082611b008584611b09565b14949350505050565b600081815b8451811015611b4e57611b3a82868381518110611b2d57611b2d612316565b6020026020010151611b56565b915080611b4681612345565b915050611b0e565b509392505050565b6000818310611b7257600082815260208490526040902061101d565b600083815260208390526040902061101d565b7fffffffff0000000000000000000000000000000000000000000000000000000081168114610b6657600080fd5b600060208284031215611bc557600080fd5b813561101d81611b85565b60005b83811015611beb578181015183820152602001611bd3565b83811115610f815750506000910152565b60008151808452611c14816020860160208601611bd0565b601f017fffffffffffffffffffffffffffffffffffffffffffffffffffffffffffffffe0169290920160200192915050565b60208152600061101d6020830184611bfc565b600060208284031215611c6b57600080fd5b5035919050565b803573ffffffffffffffffffffffffffffffffffffffff81168114611c9657600080fd5b919050565b60008060408385031215611cae57600080fd5b611cb783611c72565b946020939093013593505050565b803560ff81168114611c9657600080fd5b600060208284031215611ce857600080fd5b61101d82611cc5565b600080600060608486031215611d0657600080fd5b611d0f84611c72565b9250611d1d60208501611c72565b9150604084013590509250925092565b7f4e487b7100000000000000000000000000000000000000000000000000000000600052604160045260246000fd5b604051601f82017fffffffffffffffffffffffffffffffffffffffffffffffffffffffffffffffe016810167ffffffffffffffff81118282101715611da357611da3611d2d565b604052919050565b600067ffffffffffffffff831115611dc557611dc5611d2d565b611df660207fffffffffffffffffffffffffffffffffffffffffffffffffffffffffffffffe0601f86011601611d5c565b9050828152838383011115611e0a57600080fd5b828260208301376000602084830101529392505050565b600060208284031215611e3357600080fd5b813567ffffffffffffffff811115611e4a57600080fd5b8201601f81018413611e5b57600080fd5b6119f784823560208401611dab565b600060208284031215611e7c57600080fd5b61101d82611c72565b60008060408385031215611e9857600080fd5b611ea183611c72565b915060208301358015158114611eb657600080fd5b809150509250929050565b60008060008060808587031215611ed757600080fd5b611ee085611c72565b9350611eee60208601611c72565b925060408501359150606085013567ffffffffffffffff811115611f1157600080fd5b8501601f81018713611f2257600080fd5b611f3187823560208401611dab565b91505092959194509250565b60008060408385031215611f5057600080fd5b823567ffffffffffffffff80821115611f6857600080fd5b818501915085601f830112611f7c57600080fd5b8135602082821115611f9057611f90611d2d565b8160051b9250611fa1818401611d5c565b8281529284018101928181019089851115611fbb57600080fd5b948201945b84861015611fd957853582529482019490820190611fc0565b9650611fe89050878201611cc5565b9450505050509250929050565b6000806040838503121561200857600080fd5b61201183611c72565b915061201f60208401611c72565b90509250929050565b600181811c9082168061203c57607f821691505b602082108103612075577f4e487b7100000000000000000000000000000000000000000000000000000000600052602260045260246000fd5b50919050565b601f821115610bd557600081815260208120601f850160051c810160208610156120a25750805b601f850160051c820191505b81811015610acf578281556001016120ae565b815167ffffffffffffffff8111156120db576120db611d2d565b6120ef816120e98454612028565b8461207b565b602080601f831160018114612142576000841561210c5750858301515b7fffffffffffffffffffffffffffffffffffffffffffffffffffffffffffffffff600386901b1c1916600185901b178555610acf565b6000858152602081207fffffffffffffffffffffffffffffffffffffffffffffffffffffffffffffffe08616915b8281101561218f57888601518255948401946001909101908401612170565b50858210156121cb57878501517fffffffffffffffffffffffffffffffffffffffffffffffffffffffffffffffff600388901b60f8161c191681555b5050505050600190811b01905550565b7f4e487b7100000000000000000000000000000000000000000000000000000000600052601160045260246000fd5b6000821982111561221d5761221d6121db565b500190565b6000817fffffffffffffffffffffffffffffffffffffffffffffffffffffffffffffffff048311821515161561225a5761225a6121db565b500290565b60008351612271818460208801611bd0565b835190830190612285818360208801611bd0565b01949350505050565b6040815260006122a16040830185611bfc565b90508260208301529392505050565b600073ffffffffffffffffffffffffffffffffffffffff8087168352808616602084015250836040830152608060608301526122ef6080830184611bfc565b9695505050505050565b60006020828403121561230b57600080fd5b815161101d81611b85565b7f4e487b7100000000000000000000000000000000000000000000000000000000600052603260045260246000fd5b60007fffffffffffffffffffffffffffffffffffffffffffffffffffffffffffffffff8203612376576123766121db565b506001019056fea264697066735822122033b7ed7497400f235936598b11220e0eac2151b07bfc7516d0bfce793cdd500464736f6c634300080f00333c73766720786d6c6e733d27687474703a2f2f7777772e77332e6f72672f323030302f73766727207072657365727665417370656374526174696f3d27784d696e594d696e206d656574272076696577426f783d273020302033353020333530273e3c7374796c653e2e62617365207b2066696c6c3a2077686974653b20666f6e742d66616d696c793a2073657269663b20666f6e742d73697a653a20323470783b207d3c2f7374796c653e3c726563742077696474683d273130302527206865696768743d2731303025272066696c6c3d27626c61636b27202f3e3c7465787420783d273530252720793d273530252720636c6173733d27626173652720646f6d696e616e742d626173656c696e653d276d6964646c652720746578742d616e63686f723d276d6964646c65273e",
  "devdoc": {
    "kind": "dev",
    "methods": {
      "approve(address,uint256)": {
        "details": "Gives permission to `to` to transfer `tokenId` token to another account. The approval is cleared when the token is transferred. Only a single account can be approved at a time, so approving the zero address clears previous approvals. Requirements: - The caller must own the token or be an approved operator. - `tokenId` must exist. Emits an {Approval} event."
      },
      "balanceOf(address)": {
        "details": "Returns the number of tokens in `owner`'s account."
      },
      "getApproved(uint256)": {
        "details": "Returns the account approved for `tokenId` token. Requirements: - `tokenId` must exist."
      },
      "isApprovedForAll(address,address)": {
        "details": "Returns if the `operator` is allowed to manage all of the assets of `owner`. See {setApprovalForAll}."
      },
      "name()": {
        "details": "Returns the token collection name."
      },
      "owner()": {
        "details": "Returns the address of the current owner."
      },
      "ownerOf(uint256)": {
        "details": "Returns the owner of the `tokenId` token. Requirements: - `tokenId` must exist."
      },
      "renounceOwnership()": {
        "details": "Leaves the contract without owner. It will not be possible to call `onlyOwner` functions anymore. Can only be called by the current owner. NOTE: Renouncing ownership will leave the contract without an owner, thereby removing any functionality that is only available to the owner."
      },
      "safeTransferFrom(address,address,uint256)": {
        "details": "Equivalent to `safeTransferFrom(from, to, tokenId, '')`."
      },
      "safeTransferFrom(address,address,uint256,bytes)": {
        "details": "Safely transfers `tokenId` token from `from` to `to`. Requirements: - `from` cannot be the zero address. - `to` cannot be the zero address. - `tokenId` token must exist and be owned by `from`. - If the caller is not `from`, it must be approved to move this token by either {approve} or {setApprovalForAll}. - If `to` refers to a smart contract, it must implement {IERC721Receiver-onERC721Received}, which is called upon a safe transfer. Emits a {Transfer} event."
      },
      "setApprovalForAll(address,bool)": {
        "details": "Approve or remove `operator` as an operator for the caller. Operators can call {transferFrom} or {safeTransferFrom} for any token owned by the caller. Requirements: - The `operator` cannot be the caller. Emits an {ApprovalForAll} event."
      },
      "supportsInterface(bytes4)": {
        "details": "Returns true if this contract implements the interface defined by `interfaceId`. See the corresponding [EIP section](https://eips.ethereum.org/EIPS/eip-165#how-interfaces-are-identified) to learn more about how these ids are created. This function call must use less than 30000 gas."
      },
      "symbol()": {
        "details": "Returns the token collection symbol."
      },
      "tokenURI(uint256)": {
        "details": "Returns the Uniform Resource Identifier (URI) for `tokenId` token."
      },
      "totalSupply()": {
        "details": "Returns the total number of tokens in existence. Burned tokens will reduce the count. To get the total number of tokens minted, please see {_totalMinted}."
      },
      "transferFrom(address,address,uint256)": {
        "details": "Transfers `tokenId` from `from` to `to`. Requirements: - `from` cannot be the zero address. - `to` cannot be the zero address. - `tokenId` token must be owned by `from`. - If the caller is not `from`, it must be approved to move this token by either {approve} or {setApprovalForAll}. Emits a {Transfer} event."
      },
      "transferOwnership(address)": {
        "details": "Transfers ownership of the contract to a new account (`newOwner`). Can only be called by the current owner."
      }
    },
    "version": 1
  },
  "userdoc": {
    "errors": {
      "ApprovalCallerNotOwnerNorApproved()": [
        {
          "notice": "The caller must own the token or be an approved operator."
        }
      ],
      "ApprovalQueryForNonexistentToken()": [
        {
          "notice": "The token does not exist."
        }
      ],
      "BalanceQueryForZeroAddress()": [
        {
          "notice": "Cannot query the balance for the zero address."
        }
      ],
      "MintERC2309QuantityExceedsLimit()": [
        {
          "notice": "The `quantity` minted with ERC2309 exceeds the safety limit."
        }
      ],
      "MintToZeroAddress()": [
        {
          "notice": "Cannot mint to the zero address."
        }
      ],
      "MintZeroQuantity()": [
        {
          "notice": "The quantity of tokens minted must be more than zero."
        }
      ],
      "OwnerQueryForNonexistentToken()": [
        {
          "notice": "The token does not exist."
        }
      ],
      "OwnershipNotInitializedForExtraData()": [
        {
          "notice": "The `extraData` cannot be set on an unintialized ownership slot."
        }
      ],
      "TransferCallerNotOwnerNorApproved()": [
        {
          "notice": "The caller must own the token or be an approved operator."
        }
      ],
      "TransferFromIncorrectOwner()": [
        {
          "notice": "The token must be owned by `from`."
        }
      ],
      "TransferToNonERC721ReceiverImplementer()": [
        {
          "notice": "Cannot safely transfer to a contract that does not implement the ERC721Receiver interface."
        }
      ],
      "TransferToZeroAddress()": [
        {
          "notice": "Cannot transfer to the zero address."
        }
      ],
      "URIQueryForNonexistentToken()": [
        {
          "notice": "The token does not exist."
        }
      ]
    },
    "kind": "user",
    "methods": {},
    "version": 1
  },
  "storageLayout": {
    "storage": [
      {
        "astId": 1513,
        "contract": "contracts/nft/ZeroHeroNFT.sol:ZeroHeroNFT",
        "label": "_currentIndex",
        "offset": 0,
        "slot": "0",
        "type": "t_uint256"
      },
      {
        "astId": 1515,
        "contract": "contracts/nft/ZeroHeroNFT.sol:ZeroHeroNFT",
        "label": "_burnCounter",
        "offset": 0,
        "slot": "1",
        "type": "t_uint256"
      },
      {
        "astId": 1517,
        "contract": "contracts/nft/ZeroHeroNFT.sol:ZeroHeroNFT",
        "label": "_name",
        "offset": 0,
        "slot": "2",
        "type": "t_string_storage"
      },
      {
        "astId": 1519,
        "contract": "contracts/nft/ZeroHeroNFT.sol:ZeroHeroNFT",
        "label": "_symbol",
        "offset": 0,
        "slot": "3",
        "type": "t_string_storage"
      },
      {
        "astId": 1523,
        "contract": "contracts/nft/ZeroHeroNFT.sol:ZeroHeroNFT",
        "label": "_packedOwnerships",
        "offset": 0,
        "slot": "4",
        "type": "t_mapping(t_uint256,t_uint256)"
      },
      {
        "astId": 1527,
        "contract": "contracts/nft/ZeroHeroNFT.sol:ZeroHeroNFT",
        "label": "_packedAddressData",
        "offset": 0,
        "slot": "5",
        "type": "t_mapping(t_address,t_uint256)"
      },
      {
        "astId": 1532,
        "contract": "contracts/nft/ZeroHeroNFT.sol:ZeroHeroNFT",
        "label": "_tokenApprovals",
        "offset": 0,
        "slot": "6",
        "type": "t_mapping(t_uint256,t_struct(TokenApprovalRef)1445_storage)"
      },
      {
        "astId": 1538,
        "contract": "contracts/nft/ZeroHeroNFT.sol:ZeroHeroNFT",
        "label": "_operatorApprovals",
        "offset": 0,
        "slot": "7",
        "type": "t_mapping(t_address,t_mapping(t_address,t_bool))"
      },
      {
        "astId": 7,
        "contract": "contracts/nft/ZeroHeroNFT.sol:ZeroHeroNFT",
        "label": "_owner",
        "offset": 0,
        "slot": "8",
        "type": "t_address"
      },
      {
        "astId": 123,
        "contract": "contracts/nft/ZeroHeroNFT.sol:ZeroHeroNFT",
        "label": "_status",
        "offset": 0,
        "slot": "9",
        "type": "t_uint256"
      },
      {
        "astId": 1061,
        "contract": "contracts/nft/ZeroHeroNFT.sol:ZeroHeroNFT",
        "label": "privateMintStarted",
        "offset": 0,
        "slot": "10",
        "type": "t_bool"
      },
      {
        "astId": 1063,
        "contract": "contracts/nft/ZeroHeroNFT.sol:ZeroHeroNFT",
        "label": "publicMintStarted",
        "offset": 1,
        "slot": "10",
        "type": "t_bool"
      },
      {
        "astId": 1066,
        "contract": "contracts/nft/ZeroHeroNFT.sol:ZeroHeroNFT",
        "label": "presaleMaxItemsPerWallet",
        "offset": 2,
        "slot": "10",
        "type": "t_uint8"
      },
      {
        "astId": 1069,
        "contract": "contracts/nft/ZeroHeroNFT.sol:ZeroHeroNFT",
        "label": "presalePrice",
        "offset": 0,
        "slot": "11",
        "type": "t_uint256"
      },
      {
        "astId": 1072,
        "contract": "contracts/nft/ZeroHeroNFT.sol:ZeroHeroNFT",
        "label": "mintPrice",
        "offset": 0,
        "slot": "12",
        "type": "t_uint256"
      },
      {
        "astId": 1074,
        "contract": "contracts/nft/ZeroHeroNFT.sol:ZeroHeroNFT",
        "label": "baseTokenURI",
        "offset": 0,
        "slot": "13",
        "type": "t_string_storage"
      },
      {
        "astId": 1076,
        "contract": "contracts/nft/ZeroHeroNFT.sol:ZeroHeroNFT",
        "label": "presaleMerkleRoot",
        "offset": 0,
        "slot": "14",
        "type": "t_bytes32"
      },
      {
        "astId": 1079,
        "contract": "contracts/nft/ZeroHeroNFT.sol:ZeroHeroNFT",
        "label": "baseSvg",
        "offset": 0,
        "slot": "15",
        "type": "t_string_storage"
      },
      {
        "astId": 1090,
        "contract": "contracts/nft/ZeroHeroNFT.sol:ZeroHeroNFT",
        "label": "element",
        "offset": 0,
        "slot": "16",
        "type": "t_array(t_string_storage)dyn_storage"
      },
      {
        "astId": 1101,
        "contract": "contracts/nft/ZeroHeroNFT.sol:ZeroHeroNFT",
        "label": "weapon",
        "offset": 0,
        "slot": "17",
        "type": "t_array(t_string_storage)dyn_storage"
      },
      {
        "astId": 1112,
        "contract": "contracts/nft/ZeroHeroNFT.sol:ZeroHeroNFT",
        "label": "rank",
        "offset": 0,
        "slot": "18",
        "type": "t_array(t_string_storage)dyn_storage"
      }
    ],
    "types": {
      "t_address": {
        "encoding": "inplace",
        "label": "address",
        "numberOfBytes": "20"
      },
      "t_array(t_string_storage)dyn_storage": {
        "base": "t_string_storage",
        "encoding": "dynamic_array",
        "label": "string[]",
        "numberOfBytes": "32"
      },
      "t_bool": {
        "encoding": "inplace",
        "label": "bool",
        "numberOfBytes": "1"
      },
      "t_bytes32": {
        "encoding": "inplace",
        "label": "bytes32",
        "numberOfBytes": "32"
      },
      "t_mapping(t_address,t_bool)": {
        "encoding": "mapping",
        "key": "t_address",
        "label": "mapping(address => bool)",
        "numberOfBytes": "32",
        "value": "t_bool"
      },
      "t_mapping(t_address,t_mapping(t_address,t_bool))": {
        "encoding": "mapping",
        "key": "t_address",
        "label": "mapping(address => mapping(address => bool))",
        "numberOfBytes": "32",
        "value": "t_mapping(t_address,t_bool)"
      },
      "t_mapping(t_address,t_uint256)": {
        "encoding": "mapping",
        "key": "t_address",
        "label": "mapping(address => uint256)",
        "numberOfBytes": "32",
        "value": "t_uint256"
      },
      "t_mapping(t_uint256,t_struct(TokenApprovalRef)1445_storage)": {
        "encoding": "mapping",
        "key": "t_uint256",
        "label": "mapping(uint256 => struct ERC721A.TokenApprovalRef)",
        "numberOfBytes": "32",
        "value": "t_struct(TokenApprovalRef)1445_storage"
      },
      "t_mapping(t_uint256,t_uint256)": {
        "encoding": "mapping",
        "key": "t_uint256",
        "label": "mapping(uint256 => uint256)",
        "numberOfBytes": "32",
        "value": "t_uint256"
      },
      "t_string_storage": {
        "encoding": "bytes",
        "label": "string",
        "numberOfBytes": "32"
      },
      "t_struct(TokenApprovalRef)1445_storage": {
        "encoding": "inplace",
        "label": "struct ERC721A.TokenApprovalRef",
        "members": [
          {
            "astId": 1444,
            "contract": "contracts/nft/ZeroHeroNFT.sol:ZeroHeroNFT",
            "label": "value",
            "offset": 0,
            "slot": "0",
            "type": "t_address"
          }
        ],
        "numberOfBytes": "32"
      },
      "t_uint256": {
        "encoding": "inplace",
        "label": "uint256",
        "numberOfBytes": "32"
      },
      "t_uint8": {
        "encoding": "inplace",
        "label": "uint8",
        "numberOfBytes": "1"
      }
    }
  }
}