{
  "address": "0x9A676e781A523b5d0C0e43731313A708CB607508",
  "abi": [
    {
      "inputs": [],
      "stateMutability": "nonpayable",
      "type": "constructor"
    },
    {
      "inputs": [],
      "name": "ApprovalCallerNotOwnerNorApproved",
      "type": "error"
    },
    {
      "inputs": [],
      "name": "ApprovalQueryForNonexistentToken",
      "type": "error"
    },
    {
      "inputs": [],
      "name": "BalanceQueryForZeroAddress",
      "type": "error"
    },
    {
      "inputs": [],
      "name": "ExceedMaxPerWallet",
      "type": "error"
    },
    {
      "inputs": [],
      "name": "ExceedSupply",
      "type": "error"
    },
    {
      "inputs": [],
      "name": "InsufficientPayment",
      "type": "error"
    },
    {
      "inputs": [],
      "name": "MintERC2309QuantityExceedsLimit",
      "type": "error"
    },
    {
      "inputs": [],
      "name": "MintToZeroAddress",
      "type": "error"
    },
    {
      "inputs": [],
      "name": "MintZeroQuantity",
      "type": "error"
    },
    {
      "inputs": [],
      "name": "NotInWhitelist",
      "type": "error"
    },
    {
      "inputs": [],
      "name": "OwnerQueryForNonexistentToken",
      "type": "error"
    },
    {
      "inputs": [],
      "name": "OwnershipNotInitializedForExtraData",
      "type": "error"
    },
    {
      "inputs": [],
      "name": "PrivateMintNotStarted",
      "type": "error"
    },
    {
      "inputs": [],
      "name": "PublicMintNotStarted",
      "type": "error"
    },
    {
      "inputs": [],
      "name": "TransferCallerNotOwnerNorApproved",
      "type": "error"
    },
    {
      "inputs": [],
      "name": "TransferFromIncorrectOwner",
      "type": "error"
    },
    {
      "inputs": [],
      "name": "TransferToNonERC721ReceiverImplementer",
      "type": "error"
    },
    {
      "inputs": [],
      "name": "TransferToZeroAddress",
      "type": "error"
    },
    {
      "inputs": [],
      "name": "URIQueryForNonexistentToken",
      "type": "error"
    },
    {
      "anonymous": false,
      "inputs": [
        {
          "indexed": true,
          "internalType": "address",
          "name": "owner",
          "type": "address"
        },
        {
          "indexed": true,
          "internalType": "address",
          "name": "approved",
          "type": "address"
        },
        {
          "indexed": true,
          "internalType": "uint256",
          "name": "tokenId",
          "type": "uint256"
        }
      ],
      "name": "Approval",
      "type": "event"
    },
    {
      "anonymous": false,
      "inputs": [
        {
          "indexed": true,
          "internalType": "address",
          "name": "owner",
          "type": "address"
        },
        {
          "indexed": true,
          "internalType": "address",
          "name": "operator",
          "type": "address"
        },
        {
          "indexed": false,
          "internalType": "bool",
          "name": "approved",
          "type": "bool"
        }
      ],
      "name": "ApprovalForAll",
      "type": "event"
    },
    {
      "anonymous": false,
      "inputs": [
        {
          "indexed": true,
          "internalType": "uint256",
          "name": "fromTokenId",
          "type": "uint256"
        },
        {
          "indexed": false,
          "internalType": "uint256",
          "name": "toTokenId",
          "type": "uint256"
        },
        {
          "indexed": true,
          "internalType": "address",
          "name": "from",
          "type": "address"
        },
        {
          "indexed": true,
          "internalType": "address",
          "name": "to",
          "type": "address"
        }
      ],
      "name": "ConsecutiveTransfer",
      "type": "event"
    },
    {
      "anonymous": false,
      "inputs": [
        {
          "indexed": true,
          "internalType": "address",
          "name": "previousOwner",
          "type": "address"
        },
        {
          "indexed": true,
          "internalType": "address",
          "name": "newOwner",
          "type": "address"
        }
      ],
      "name": "OwnershipTransferred",
      "type": "event"
    },
    {
      "anonymous": false,
      "inputs": [
        {
          "indexed": true,
          "internalType": "address",
          "name": "from",
          "type": "address"
        },
        {
          "indexed": true,
          "internalType": "address",
          "name": "to",
          "type": "address"
        },
        {
          "indexed": true,
          "internalType": "uint256",
          "name": "tokenId",
          "type": "uint256"
        }
      ],
      "name": "Transfer",
      "type": "event"
    },
    {
      "inputs": [
        {
          "internalType": "address",
          "name": "to",
          "type": "address"
        },
        {
          "internalType": "uint256",
          "name": "tokenId",
          "type": "uint256"
        }
      ],
      "name": "approve",
      "outputs": [],
      "stateMutability": "payable",
      "type": "function"
    },
    {
      "inputs": [
        {
          "internalType": "address",
          "name": "owner",
          "type": "address"
        }
      ],
      "name": "balanceOf",
      "outputs": [
        {
          "internalType": "uint256",
          "name": "",
          "type": "uint256"
        }
      ],
      "stateMutability": "view",
      "type": "function"
    },
    {
      "inputs": [
        {
          "internalType": "uint8",
          "name": "quantity",
          "type": "uint8"
        }
      ],
      "name": "devMint",
      "outputs": [],
      "stateMutability": "nonpayable",
      "type": "function"
    },
    {
      "inputs": [
        {
          "internalType": "uint256",
          "name": "tokenId",
          "type": "uint256"
        }
      ],
      "name": "getApproved",
      "outputs": [
        {
          "internalType": "address",
          "name": "",
          "type": "address"
        }
      ],
      "stateMutability": "view",
      "type": "function"
    },
    {
      "inputs": [
        {
          "internalType": "address",
          "name": "owner",
          "type": "address"
        },
        {
          "internalType": "address",
          "name": "operator",
          "type": "address"
        }
      ],
      "name": "isApprovedForAll",
      "outputs": [
        {
          "internalType": "bool",
          "name": "",
          "type": "bool"
        }
      ],
      "stateMutability": "view",
      "type": "function"
    },
    {
      "inputs": [
        {
          "internalType": "uint8",
          "name": "quantity",
          "type": "uint8"
        }
      ],
      "name": "mint",
      "outputs": [],
      "stateMutability": "payable",
      "type": "function"
    },
    {
      "inputs": [],
      "name": "name",
      "outputs": [
        {
          "internalType": "string",
          "name": "",
          "type": "string"
        }
      ],
      "stateMutability": "view",
      "type": "function"
    },
    {
      "inputs": [],
      "name": "owner",
      "outputs": [
        {
          "internalType": "address",
          "name": "",
          "type": "address"
        }
      ],
      "stateMutability": "view",
      "type": "function"
    },
    {
      "inputs": [
        {
          "internalType": "uint256",
          "name": "tokenId",
          "type": "uint256"
        }
      ],
      "name": "ownerOf",
      "outputs": [
        {
          "internalType": "address",
          "name": "",
          "type": "address"
        }
      ],
      "stateMutability": "view",
      "type": "function"
    },
    {
      "inputs": [
        {
          "internalType": "bytes32[]",
          "name": "proof",
          "type": "bytes32[]"
        },
        {
          "internalType": "uint8",
          "name": "quantity",
          "type": "uint8"
        }
      ],
      "name": "privateMint",
      "outputs": [],
      "stateMutability": "payable",
      "type": "function"
    },
    {
      "inputs": [],
      "name": "renounceOwnership",
      "outputs": [],
      "stateMutability": "nonpayable",
      "type": "function"
    },
    {
      "inputs": [
        {
          "internalType": "address",
          "name": "from",
          "type": "address"
        },
        {
          "internalType": "address",
          "name": "to",
          "type": "address"
        },
        {
          "internalType": "uint256",
          "name": "tokenId",
          "type": "uint256"
        }
      ],
      "name": "safeTransferFrom",
      "outputs": [],
      "stateMutability": "payable",
      "type": "function"
    },
    {
      "inputs": [
        {
          "internalType": "address",
          "name": "from",
          "type": "address"
        },
        {
          "internalType": "address",
          "name": "to",
          "type": "address"
        },
        {
          "internalType": "uint256",
          "name": "tokenId",
          "type": "uint256"
        },
        {
          "internalType": "bytes",
          "name": "_data",
          "type": "bytes"
        }
      ],
      "name": "safeTransferFrom",
      "outputs": [],
      "stateMutability": "payable",
      "type": "function"
    },
    {
      "inputs": [
        {
          "internalType": "address",
          "name": "operator",
          "type": "address"
        },
        {
          "internalType": "bool",
          "name": "approved",
          "type": "bool"
        }
      ],
      "name": "setApprovalForAll",
      "outputs": [],
      "stateMutability": "nonpayable",
      "type": "function"
    },
    {
      "inputs": [
        {
          "internalType": "string",
          "name": "value",
          "type": "string"
        }
      ],
      "name": "setBaseTokenURI",
      "outputs": [],
      "stateMutability": "nonpayable",
      "type": "function"
    },
    {
      "inputs": [
        {
          "internalType": "uint256",
          "name": "value",
          "type": "uint256"
        }
      ],
      "name": "setMintPrice",
      "outputs": [],
      "stateMutability": "nonpayable",
      "type": "function"
    },
    {
      "inputs": [
        {
          "internalType": "uint8",
          "name": "value",
          "type": "uint8"
        }
      ],
      "name": "setPresaleMaxItemsPerWallet",
      "outputs": [],
      "stateMutability": "nonpayable",
      "type": "function"
    },
    {
      "inputs": [
        {
          "internalType": "bytes32",
          "name": "value",
          "type": "bytes32"
        }
      ],
      "name": "setPresaleMerkleRoot",
      "outputs": [],
      "stateMutability": "nonpayable",
      "type": "function"
    },
    {
      "inputs": [
        {
          "internalType": "uint256",
          "name": "value",
          "type": "uint256"
        }
      ],
      "name": "setPresalePrice",
      "outputs": [],
      "stateMutability": "nonpayable",
      "type": "function"
    },
    {
      "inputs": [],
      "name": "startPrivateMint",
      "outputs": [],
      "stateMutability": "nonpayable",
      "type": "function"
    },
    {
      "inputs": [],
      "name": "startPublicMint",
      "outputs": [],
      "stateMutability": "nonpayable",
      "type": "function"
    },
    {
      "inputs": [
        {
          "internalType": "bytes4",
          "name": "interfaceId",
          "type": "bytes4"
        }
      ],
      "name": "supportsInterface",
      "outputs": [
        {
          "internalType": "bool",
          "name": "",
          "type": "bool"
        }
      ],
      "stateMutability": "view",
      "type": "function"
    },
    {
      "inputs": [],
      "name": "symbol",
      "outputs": [
        {
          "internalType": "string",
          "name": "",
          "type": "string"
        }
      ],
      "stateMutability": "view",
      "type": "function"
    },
    {
      "inputs": [
        {
          "internalType": "uint256",
          "name": "tokenId",
          "type": "uint256"
        }
      ],
      "name": "tokenURI",
      "outputs": [
        {
          "internalType": "string",
          "name": "",
          "type": "string"
        }
      ],
      "stateMutability": "view",
      "type": "function"
    },
    {
      "inputs": [],
      "name": "totalSupply",
      "outputs": [
        {
          "internalType": "uint256",
          "name": "",
          "type": "uint256"
        }
      ],
      "stateMutability": "view",
      "type": "function"
    },
    {
      "inputs": [
        {
          "internalType": "address",
          "name": "from",
          "type": "address"
        },
        {
          "internalType": "address",
          "name": "to",
          "type": "address"
        },
        {
          "internalType": "uint256",
          "name": "tokenId",
          "type": "uint256"
        }
      ],
      "name": "transferFrom",
      "outputs": [],
      "stateMutability": "payable",
      "type": "function"
    },
    {
      "inputs": [
        {
          "internalType": "address",
          "name": "newOwner",
          "type": "address"
        }
      ],
      "name": "transferOwnership",
      "outputs": [],
      "stateMutability": "nonpayable",
      "type": "function"
    },
    {
      "inputs": [],
      "name": "withdraw",
      "outputs": [],
      "stateMutability": "nonpayable",
      "type": "function"
    }
  ],
  "transactionHash": "0x84fd9910daaaf1f7dd8b7c7e2a101affa945f05e29b12c5e398a59e5dc4e2a0c",
  "args": [],
  "numDeployments": 1,
  "solcInputHash": "c5c33b37b8e40936df56d29352c256b3",
  "bytecode": "0x6080604052600a805462ff0000191690556000600b55670de0b6b3a7640000600c553480156200002e57600080fd5b506040518060400160405280600b81526020016a16995c9bd2195c9bd3919560aa1b815250604051806040016040528060058152602001645a4845524f60d81b8152508160029081620000829190620001a5565b506003620000918282620001a5565b50506000805550620000a333620000ae565b600160095562000271565b600880546001600160a01b038381166001600160a01b0319831681179093556040519116919082907f8be0079c531659141344cd1fd0a4f28419497f9722a3daafe3b4186f6b6457e090600090a35050565b634e487b7160e01b600052604160045260246000fd5b600181811c908216806200012b57607f821691505b6020821081036200014c57634e487b7160e01b600052602260045260246000fd5b50919050565b601f821115620001a057600081815260208120601f850160051c810160208610156200017b5750805b601f850160051c820191505b818110156200019c5782815560010162000187565b5050505b505050565b81516001600160401b03811115620001c157620001c162000100565b620001d981620001d2845462000116565b8462000152565b602080601f831160018114620002115760008415620001f85750858301515b600019600386901b1c1916600185901b1785556200019c565b600085815260208120601f198616915b82811015620002425788860151825594840194600190910190840162000221565b5085821015620002615787850151600019600388901b60f8161c191681555b5050505050600190811b01905550565b61221d80620002816000396000f3fe6080604052600436106101b75760003560e01c80636ecd2306116100ec578063b88d4fde1161008a578063e6a7e93311610064578063e6a7e9331461048e578063e985e9c5146104a3578063f2fde38b146104f9578063f4a0a5281461051957600080fd5b8063b88d4fde14610448578063c87b56dd1461045b578063dfb9eb561461047b57600080fd5b806376c64c62116100c657806376c64c62146103d35780638da5cb5b146103e857806395d89b4114610413578063a22cb4651461042857600080fd5b80636ecd23061461038b57806370a082311461039e578063715018a6146103be57600080fd5b806328d7b276116101595780633549345e116101335780633549345e146103235780633ccfd60b1461034357806342842e0e146103585780636352211e1461036b57600080fd5b806328d7b276146102c357806330176e13146102e35780633497d1651461030357600080fd5b8063095ea7b311610195578063095ea7b31461025857806318160ddd1461026d5780631a0ef8a91461029057806323b872dd146102b057600080fd5b806301ffc9a7146101bc57806306fdde03146101f1578063081812fc14610213575b600080fd5b3480156101c857600080fd5b506101dc6101d7366004611a3f565b610539565b60405190151581526020015b60405180910390f35b3480156101fd57600080fd5b5061020661061e565b6040516101e89190611ad2565b34801561021f57600080fd5b5061023361022e366004611ae5565b6106b0565b60405173ffffffffffffffffffffffffffffffffffffffff90911681526020016101e8565b61026b610266366004611b27565b61071a565b005b34801561027957600080fd5b50600154600054035b6040519081526020016101e8565b34801561029c57600080fd5b5061026b6102ab366004611b62565b610805565b61026b6102be366004611b7d565b610847565b3480156102cf57600080fd5b5061026b6102de366004611ae5565b610ad7565b3480156102ef57600080fd5b5061026b6102fe366004611cad565b610ae4565b34801561030f57600080fd5b5061026b61031e366004611b62565b610afc565b34801561032f57600080fd5b5061026b61033e366004611ae5565b610b69565b34801561034f57600080fd5b5061026b610b76565b61026b610366366004611b7d565b610bba565b34801561037757600080fd5b50610233610386366004611ae5565b610bda565b61026b610399366004611b62565b610be5565b3480156103aa57600080fd5b506102826103b9366004611cf6565b610ce5565b3480156103ca57600080fd5b5061026b610d67565b3480156103df57600080fd5b5061026b610d79565b3480156103f457600080fd5b5060085473ffffffffffffffffffffffffffffffffffffffff16610233565b34801561041f57600080fd5b50610206610daf565b34801561043457600080fd5b5061026b610443366004611d11565b610dbe565b61026b610456366004611d4d565b610e55565b34801561046757600080fd5b50610206610476366004611ae5565b610ec5565b61026b610489366004611dc9565b610f62565b34801561049a57600080fd5b5061026b61113d565b3480156104af57600080fd5b506101dc6104be366004611e81565b73ffffffffffffffffffffffffffffffffffffffff918216600090815260076020908152604080832093909416825291909152205460ff1690565b34801561050557600080fd5b5061026b610514366004611cf6565b611172565b34801561052557600080fd5b5061026b610534366004611ae5565b61122b565b60007f01ffc9a7000000000000000000000000000000000000000000000000000000007fffffffff00000000000000000000000000000000000000000000000000000000831614806105cc57507f80ac58cd000000000000000000000000000000000000000000000000000000007fffffffff000000000000000000000000000000000000000000000000000000008316145b8061061857507f5b5e139f000000000000000000000000000000000000000000000000000000007fffffffff000000000000000000000000000000000000000000000000000000008316145b92915050565b60606002805461062d90611eb4565b80601f016020809104026020016040519081016040528092919081815260200182805461065990611eb4565b80156106a65780601f1061067b576101008083540402835291602001916106a6565b820191906000526020600020905b81548152906001019060200180831161068957829003601f168201915b5050505050905090565b60006106bb82611238565b6106f1576040517fcf4700e400000000000000000000000000000000000000000000000000000000815260040160405180910390fd5b5060009081526006602052604090205473ffffffffffffffffffffffffffffffffffffffff1690565b600061072582610bda565b90503373ffffffffffffffffffffffffffffffffffffffff8216146107845761074e81336104be565b610784576040517fcfb3b94200000000000000000000000000000000000000000000000000000000815260040160405180910390fd5b60008281526006602052604080822080547fffffffffffffffffffffffff00000000000000000000000000000000000000001673ffffffffffffffffffffffffffffffffffffffff87811691821790925591518593918516917f8c5be1e5ebec7d5bd14f71427d1e84f3dd0314c0f7b2291e5b200ac8c7c3b92591a4505050565b61080d611278565b600a805460ff90921662010000027fffffffffffffffffffffffffffffffffffffffffffffffffffffffffff00ffff909216919091179055565b6000610852826112f9565b90508373ffffffffffffffffffffffffffffffffffffffff168173ffffffffffffffffffffffffffffffffffffffff16146108b9576040517fa114810000000000000000000000000000000000000000000000000000000000815260040160405180910390fd5b600082815260066020526040902080543380821473ffffffffffffffffffffffffffffffffffffffff88169091141761092c576108f686336104be565b61092c576040517f59c896be00000000000000000000000000000000000000000000000000000000815260040160405180910390fd5b73ffffffffffffffffffffffffffffffffffffffff8516610979576040517fea553b3400000000000000000000000000000000000000000000000000000000815260040160405180910390fd5b801561098457600082555b73ffffffffffffffffffffffffffffffffffffffff86811660009081526005602052604080822080547fffffffffffffffffffffffffffffffffffffffffffffffffffffffffffffffff019055918716808252919020805460010190554260a01b177c0200000000000000000000000000000000000000000000000000000000176000858152600460205260408120919091557c020000000000000000000000000000000000000000000000000000000084169003610a7357600184016000818152600460205260408120549003610a71576000548114610a715760008181526004602052604090208490555b505b838573ffffffffffffffffffffffffffffffffffffffff168773ffffffffffffffffffffffffffffffffffffffff167fddf252ad1be2c89b69c2b068fc378daa952ba7f163c4a11628f55a4df523b3ef60405160405180910390a45b505050505050565b610adf611278565b600e55565b610aec611278565b600d610af88282611f4d565b5050565b610b04611278565b600360ff8216610b176001546000540390565b610b219190612096565b1115610b59576040517f5c9a0abb00000000000000000000000000000000000000000000000000000000815260040160405180910390fd5b610b66338260ff166113b0565b50565b610b71611278565b600b55565b610b7e611278565b610b866114ee565b610bae610ba860085473ffffffffffffffffffffffffffffffffffffffff1690565b47611561565b610bb86001600955565b565b610bd583838360405180602001604052806000815250610e55565b505050565b6000610618826112f9565b610bed6114ee565b600a54610100900460ff16610c2e576040517fb35ba98d00000000000000000000000000000000000000000000000000000000815260040160405180910390fd5b8060ff16600c54610c3f91906120ae565b341015610c78576040517fcd1c886700000000000000000000000000000000000000000000000000000000815260040160405180910390fd5b6103e860ff8216610c8c6001546000540390565b610c969190612096565b1115610cce576040517f5c9a0abb00000000000000000000000000000000000000000000000000000000815260040160405180910390fd5b610cdb338260ff166113b0565b610b666001600955565b600073ffffffffffffffffffffffffffffffffffffffff8216610d34576040517f8f4eb60400000000000000000000000000000000000000000000000000000000815260040160405180910390fd5b5073ffffffffffffffffffffffffffffffffffffffff1660009081526005602052604090205467ffffffffffffffff1690565b610d6f611278565b610bb860006116bb565b610d81611278565b600a80547fffffffffffffffffffffffffffffffffffffffffffffffffffffffffffff00ff16610100179055565b60606003805461062d90611eb4565b33600081815260076020908152604080832073ffffffffffffffffffffffffffffffffffffffff87168085529083529281902080547fffffffffffffffffffffffffffffffffffffffffffffffffffffffffffffff001686151590811790915590519081529192917f17307eab39ab6107e8899845ad3d59bd9653f200f220920489ca2b5937696c31910160405180910390a35050565b610e60848484610847565b73ffffffffffffffffffffffffffffffffffffffff83163b15610ebf57610e8984848484611732565b610ebf576040517fd1a57ed600000000000000000000000000000000000000000000000000000000815260040160405180910390fd5b50505050565b6060610ed082611238565b610f06576040517fa14c4b5000000000000000000000000000000000000000000000000000000000815260040160405180910390fd5b6000610f106118ac565b90508051600003610f305760405180602001604052806000815250610f5b565b80610f3a846118bb565b604051602001610f4b9291906120eb565b6040516020818303038152906040525b9392505050565b610f6a6114ee565b600a5460ff161580610f835750600a54610100900460ff165b15610fba576040517fd23cd50900000000000000000000000000000000000000000000000000000000815260040160405180910390fd5b8060ff16600b54610fcb91906120ae565b341015611004576040517fcd1c886700000000000000000000000000000000000000000000000000000000815260040160405180910390fd5b600060ff82166110176001546000540390565b6110219190612096565b1115611059576040517f5c9a0abb00000000000000000000000000000000000000000000000000000000815260040160405180910390fd5b600a5460ff6201000090910481169082166110a43373ffffffffffffffffffffffffffffffffffffffff166000908152600560205260409081902054901c67ffffffffffffffff1690565b6110ae9190612096565b11156110e6576040517fd900aa8a00000000000000000000000000000000000000000000000000000000815260040160405180910390fd5b6110f0823361191d565b611126576040517f5b0aa2ba00000000000000000000000000000000000000000000000000000000815260040160405180910390fd5b611133338260ff166113b0565b610af86001600955565b611145611278565b600a80547fffffffffffffffffffffffffffffffffffffffffffffffffffffffffffffff00166001179055565b61117a611278565b73ffffffffffffffffffffffffffffffffffffffff8116611222576040517f08c379a000000000000000000000000000000000000000000000000000000000815260206004820152602660248201527f4f776e61626c653a206e6577206f776e657220697320746865207a65726f206160448201527f646472657373000000000000000000000000000000000000000000000000000060648201526084015b60405180910390fd5b610b66816116bb565b611233611278565b600c55565b60008054821080156106185750506000908152600460205260409020547c0100000000000000000000000000000000000000000000000000000000161590565b60085473ffffffffffffffffffffffffffffffffffffffff163314610bb8576040517f08c379a000000000000000000000000000000000000000000000000000000000815260206004820181905260248201527f4f776e61626c653a2063616c6c6572206973206e6f7420746865206f776e65726044820152606401611219565b60008160005481101561137e57600081815260046020526040812054907c01000000000000000000000000000000000000000000000000000000008216900361137c575b80600003610f5b57507fffffffffffffffffffffffffffffffffffffffffffffffffffffffffffffffff0160008181526004602052604090205461133d565b505b6040517fdf2d9b4200000000000000000000000000000000000000000000000000000000815260040160405180910390fd5b60008054908290036113ee576040517fb562e8dd00000000000000000000000000000000000000000000000000000000815260040160405180910390fd5b73ffffffffffffffffffffffffffffffffffffffff831660008181526005602090815260408083208054680100000000000000018802019055848352600490915281206001851460e11b4260a01b178317905582840190839083907fddf252ad1be2c89b69c2b068fc378daa952ba7f163c4a11628f55a4df523b3ef8180a4600183015b8181146114aa57808360007fddf252ad1be2c89b69c2b068fc378daa952ba7f163c4a11628f55a4df523b3ef600080a4600101611472565b50816000036114e5576040517f2e07630000000000000000000000000000000000000000000000000000000000815260040160405180910390fd5b60005550505050565b60026009540361155a576040517f08c379a000000000000000000000000000000000000000000000000000000000815260206004820152601f60248201527f5265656e7472616e637947756172643a207265656e7472616e742063616c6c006044820152606401611219565b6002600955565b804710156115cb576040517f08c379a000000000000000000000000000000000000000000000000000000000815260206004820152601d60248201527f416464726573733a20696e73756666696369656e742062616c616e63650000006044820152606401611219565b60008273ffffffffffffffffffffffffffffffffffffffff168260405160006040518083038185875af1925050503d8060008114611625576040519150601f19603f3d011682016040523d82523d6000602084013e61162a565b606091505b5050905080610bd5576040517f08c379a000000000000000000000000000000000000000000000000000000000815260206004820152603a60248201527f416464726573733a20756e61626c6520746f2073656e642076616c75652c207260448201527f6563697069656e74206d617920686176652072657665727465640000000000006064820152608401611219565b6008805473ffffffffffffffffffffffffffffffffffffffff8381167fffffffffffffffffffffffff0000000000000000000000000000000000000000831681179093556040519116919082907f8be0079c531659141344cd1fd0a4f28419497f9722a3daafe3b4186f6b6457e090600090a35050565b6040517f150b7a0200000000000000000000000000000000000000000000000000000000815260009073ffffffffffffffffffffffffffffffffffffffff85169063150b7a029061178d90339089908890889060040161211a565b6020604051808303816000875af19250505080156117e6575060408051601f3d9081017fffffffffffffffffffffffffffffffffffffffffffffffffffffffffffffffe01682019092526117e391810190612163565b60015b61185d573d808015611814576040519150601f19603f3d011682016040523d82523d6000602084013e611819565b606091505b508051600003611855576040517fd1a57ed600000000000000000000000000000000000000000000000000000000815260040160405180910390fd5b805181602001fd5b7fffffffff00000000000000000000000000000000000000000000000000000000167f150b7a02000000000000000000000000000000000000000000000000000000001490505b949350505050565b6060600d805461062d90611eb4565b606060a06040510180604052602081039150506000815280825b600183039250600a81066030018353600a9004806118d557508190037fffffffffffffffffffffffffffffffffffffffffffffffffffffffffffffffe0909101908152919050565b600e546040517fffffffffffffffffffffffffffffffffffffffff000000000000000000000000606084901b166020820152600091610f5b91603401604051602081830303815290604052805190602001208561197f9092919063ffffffff16565b60008261198c8584611995565b14949350505050565b600081815b84518110156119da576119c6828683815181106119b9576119b9612180565b60200260200101516119e2565b9150806119d2816121af565b91505061199a565b509392505050565b60008183106119fe576000828152602084905260409020610f5b565b6000838152602083905260409020610f5b565b7fffffffff0000000000000000000000000000000000000000000000000000000081168114610b6657600080fd5b600060208284031215611a5157600080fd5b8135610f5b81611a11565b60005b83811015611a77578181015183820152602001611a5f565b83811115610ebf5750506000910152565b60008151808452611aa0816020860160208601611a5c565b601f017fffffffffffffffffffffffffffffffffffffffffffffffffffffffffffffffe0169290920160200192915050565b602081526000610f5b6020830184611a88565b600060208284031215611af757600080fd5b5035919050565b803573ffffffffffffffffffffffffffffffffffffffff81168114611b2257600080fd5b919050565b60008060408385031215611b3a57600080fd5b611b4383611afe565b946020939093013593505050565b803560ff81168114611b2257600080fd5b600060208284031215611b7457600080fd5b610f5b82611b51565b600080600060608486031215611b9257600080fd5b611b9b84611afe565b9250611ba960208501611afe565b9150604084013590509250925092565b7f4e487b7100000000000000000000000000000000000000000000000000000000600052604160045260246000fd5b604051601f82017fffffffffffffffffffffffffffffffffffffffffffffffffffffffffffffffe016810167ffffffffffffffff81118282101715611c2f57611c2f611bb9565b604052919050565b600067ffffffffffffffff831115611c5157611c51611bb9565b611c8260207fffffffffffffffffffffffffffffffffffffffffffffffffffffffffffffffe0601f86011601611be8565b9050828152838383011115611c9657600080fd5b828260208301376000602084830101529392505050565b600060208284031215611cbf57600080fd5b813567ffffffffffffffff811115611cd657600080fd5b8201601f81018413611ce757600080fd5b6118a484823560208401611c37565b600060208284031215611d0857600080fd5b610f5b82611afe565b60008060408385031215611d2457600080fd5b611d2d83611afe565b915060208301358015158114611d4257600080fd5b809150509250929050565b60008060008060808587031215611d6357600080fd5b611d6c85611afe565b9350611d7a60208601611afe565b925060408501359150606085013567ffffffffffffffff811115611d9d57600080fd5b8501601f81018713611dae57600080fd5b611dbd87823560208401611c37565b91505092959194509250565b60008060408385031215611ddc57600080fd5b823567ffffffffffffffff80821115611df457600080fd5b818501915085601f830112611e0857600080fd5b8135602082821115611e1c57611e1c611bb9565b8160051b9250611e2d818401611be8565b8281529284018101928181019089851115611e4757600080fd5b948201945b84861015611e6557853582529482019490820190611e4c565b9650611e749050878201611b51565b9450505050509250929050565b60008060408385031215611e9457600080fd5b611e9d83611afe565b9150611eab60208401611afe565b90509250929050565b600181811c90821680611ec857607f821691505b602082108103611f01577f4e487b7100000000000000000000000000000000000000000000000000000000600052602260045260246000fd5b50919050565b601f821115610bd557600081815260208120601f850160051c81016020861015611f2e5750805b601f850160051c820191505b81811015610acf57828155600101611f3a565b815167ffffffffffffffff811115611f6757611f67611bb9565b611f7b81611f758454611eb4565b84611f07565b602080601f831160018114611fce5760008415611f985750858301515b7fffffffffffffffffffffffffffffffffffffffffffffffffffffffffffffffff600386901b1c1916600185901b178555610acf565b6000858152602081207fffffffffffffffffffffffffffffffffffffffffffffffffffffffffffffffe08616915b8281101561201b57888601518255948401946001909101908401611ffc565b508582101561205757878501517fffffffffffffffffffffffffffffffffffffffffffffffffffffffffffffffff600388901b60f8161c191681555b5050505050600190811b01905550565b7f4e487b7100000000000000000000000000000000000000000000000000000000600052601160045260246000fd5b600082198211156120a9576120a9612067565b500190565b6000817fffffffffffffffffffffffffffffffffffffffffffffffffffffffffffffffff04831182151516156120e6576120e6612067565b500290565b600083516120fd818460208801611a5c565b835190830190612111818360208801611a5c565b01949350505050565b600073ffffffffffffffffffffffffffffffffffffffff8087168352808616602084015250836040830152608060608301526121596080830184611a88565b9695505050505050565b60006020828403121561217557600080fd5b8151610f5b81611a11565b7f4e487b7100000000000000000000000000000000000000000000000000000000600052603260045260246000fd5b60007fffffffffffffffffffffffffffffffffffffffffffffffffffffffffffffffff82036121e0576121e0612067565b506001019056fea2646970667358221220bbf60e4fdbda5819167ac21a3238692c8794f0ef30457e4fc25e60080137525264736f6c634300080f0033",
  "devdoc": {
    "kind": "dev",
    "methods": {
      "approve(address,uint256)": {
        "details": "Gives permission to `to` to transfer `tokenId` token to another account. The approval is cleared when the token is transferred. Only a single account can be approved at a time, so approving the zero address clears previous approvals. Requirements: - The caller must own the token or be an approved operator. - `tokenId` must exist. Emits an {Approval} event."
      },
      "balanceOf(address)": {
        "details": "Returns the number of tokens in `owner`'s account."
      },
      "getApproved(uint256)": {
        "details": "Returns the account approved for `tokenId` token. Requirements: - `tokenId` must exist."
      },
      "isApprovedForAll(address,address)": {
        "details": "Returns if the `operator` is allowed to manage all of the assets of `owner`. See {setApprovalForAll}."
      },
      "name()": {
        "details": "Returns the token collection name."
      },
      "owner()": {
        "details": "Returns the address of the current owner."
      },
      "ownerOf(uint256)": {
        "details": "Returns the owner of the `tokenId` token. Requirements: - `tokenId` must exist."
      },
      "renounceOwnership()": {
        "details": "Leaves the contract without owner. It will not be possible to call `onlyOwner` functions anymore. Can only be called by the current owner. NOTE: Renouncing ownership will leave the contract without an owner, thereby removing any functionality that is only available to the owner."
      },
      "safeTransferFrom(address,address,uint256)": {
        "details": "Equivalent to `safeTransferFrom(from, to, tokenId, '')`."
      },
      "safeTransferFrom(address,address,uint256,bytes)": {
        "details": "Safely transfers `tokenId` token from `from` to `to`. Requirements: - `from` cannot be the zero address. - `to` cannot be the zero address. - `tokenId` token must exist and be owned by `from`. - If the caller is not `from`, it must be approved to move this token by either {approve} or {setApprovalForAll}. - If `to` refers to a smart contract, it must implement {IERC721Receiver-onERC721Received}, which is called upon a safe transfer. Emits a {Transfer} event."
      },
      "setApprovalForAll(address,bool)": {
        "details": "Approve or remove `operator` as an operator for the caller. Operators can call {transferFrom} or {safeTransferFrom} for any token owned by the caller. Requirements: - The `operator` cannot be the caller. Emits an {ApprovalForAll} event."
      },
      "supportsInterface(bytes4)": {
        "details": "Returns true if this contract implements the interface defined by `interfaceId`. See the corresponding [EIP section](https://eips.ethereum.org/EIPS/eip-165#how-interfaces-are-identified) to learn more about how these ids are created. This function call must use less than 30000 gas."
      },
      "symbol()": {
        "details": "Returns the token collection symbol."
      },
      "tokenURI(uint256)": {
        "details": "Returns the Uniform Resource Identifier (URI) for `tokenId` token."
      },
      "totalSupply()": {
        "details": "Returns the total number of tokens in existence. Burned tokens will reduce the count. To get the total number of tokens minted, please see {_totalMinted}."
      },
      "transferFrom(address,address,uint256)": {
        "details": "Transfers `tokenId` from `from` to `to`. Requirements: - `from` cannot be the zero address. - `to` cannot be the zero address. - `tokenId` token must be owned by `from`. - If the caller is not `from`, it must be approved to move this token by either {approve} or {setApprovalForAll}. Emits a {Transfer} event."
      },
      "transferOwnership(address)": {
        "details": "Transfers ownership of the contract to a new account (`newOwner`). Can only be called by the current owner."
      }
    },
    "version": 1
  },
  "userdoc": {
    "errors": {
      "ApprovalCallerNotOwnerNorApproved()": [
        {
          "notice": "The caller must own the token or be an approved operator."
        }
      ],
      "ApprovalQueryForNonexistentToken()": [
        {
          "notice": "The token does not exist."
        }
      ],
      "BalanceQueryForZeroAddress()": [
        {
          "notice": "Cannot query the balance for the zero address."
        }
      ],
      "MintERC2309QuantityExceedsLimit()": [
        {
          "notice": "The `quantity` minted with ERC2309 exceeds the safety limit."
        }
      ],
      "MintToZeroAddress()": [
        {
          "notice": "Cannot mint to the zero address."
        }
      ],
      "MintZeroQuantity()": [
        {
          "notice": "The quantity of tokens minted must be more than zero."
        }
      ],
      "OwnerQueryForNonexistentToken()": [
        {
          "notice": "The token does not exist."
        }
      ],
      "OwnershipNotInitializedForExtraData()": [
        {
          "notice": "The `extraData` cannot be set on an unintialized ownership slot."
        }
      ],
      "TransferCallerNotOwnerNorApproved()": [
        {
          "notice": "The caller must own the token or be an approved operator."
        }
      ],
      "TransferFromIncorrectOwner()": [
        {
          "notice": "The token must be owned by `from`."
        }
      ],
      "TransferToNonERC721ReceiverImplementer()": [
        {
          "notice": "Cannot safely transfer to a contract that does not implement the ERC721Receiver interface."
        }
      ],
      "TransferToZeroAddress()": [
        {
          "notice": "Cannot transfer to the zero address."
        }
      ],
      "URIQueryForNonexistentToken()": [
        {
          "notice": "The token does not exist."
        }
      ]
    },
    "kind": "user",
    "methods": {},
    "version": 1
  },
  "storageLayout": {
    "storage": [
      {
        "astId": 1454,
        "contract": "contracts/nft/ZeroHeroNFT.sol:ZeroHeroNFT",
        "label": "_currentIndex",
        "offset": 0,
        "slot": "0",
        "type": "t_uint256"
      },
      {
        "astId": 1456,
        "contract": "contracts/nft/ZeroHeroNFT.sol:ZeroHeroNFT",
        "label": "_burnCounter",
        "offset": 0,
        "slot": "1",
        "type": "t_uint256"
      },
      {
        "astId": 1458,
        "contract": "contracts/nft/ZeroHeroNFT.sol:ZeroHeroNFT",
        "label": "_name",
        "offset": 0,
        "slot": "2",
        "type": "t_string_storage"
      },
      {
        "astId": 1460,
        "contract": "contracts/nft/ZeroHeroNFT.sol:ZeroHeroNFT",
        "label": "_symbol",
        "offset": 0,
        "slot": "3",
        "type": "t_string_storage"
      },
      {
        "astId": 1464,
        "contract": "contracts/nft/ZeroHeroNFT.sol:ZeroHeroNFT",
        "label": "_packedOwnerships",
        "offset": 0,
        "slot": "4",
        "type": "t_mapping(t_uint256,t_uint256)"
      },
      {
        "astId": 1468,
        "contract": "contracts/nft/ZeroHeroNFT.sol:ZeroHeroNFT",
        "label": "_packedAddressData",
        "offset": 0,
        "slot": "5",
        "type": "t_mapping(t_address,t_uint256)"
      },
      {
        "astId": 1473,
        "contract": "contracts/nft/ZeroHeroNFT.sol:ZeroHeroNFT",
        "label": "_tokenApprovals",
        "offset": 0,
        "slot": "6",
        "type": "t_mapping(t_uint256,t_struct(TokenApprovalRef)1386_storage)"
      },
      {
        "astId": 1479,
        "contract": "contracts/nft/ZeroHeroNFT.sol:ZeroHeroNFT",
        "label": "_operatorApprovals",
        "offset": 0,
        "slot": "7",
        "type": "t_mapping(t_address,t_mapping(t_address,t_bool))"
      },
      {
        "astId": 7,
        "contract": "contracts/nft/ZeroHeroNFT.sol:ZeroHeroNFT",
        "label": "_owner",
        "offset": 0,
        "slot": "8",
        "type": "t_address"
      },
      {
        "astId": 123,
        "contract": "contracts/nft/ZeroHeroNFT.sol:ZeroHeroNFT",
        "label": "_status",
        "offset": 0,
        "slot": "9",
        "type": "t_uint256"
      },
      {
        "astId": 1060,
        "contract": "contracts/nft/ZeroHeroNFT.sol:ZeroHeroNFT",
        "label": "privateMintStarted",
        "offset": 0,
        "slot": "10",
        "type": "t_bool"
      },
      {
        "astId": 1062,
        "contract": "contracts/nft/ZeroHeroNFT.sol:ZeroHeroNFT",
        "label": "publicMintStarted",
        "offset": 1,
        "slot": "10",
        "type": "t_bool"
      },
      {
        "astId": 1065,
        "contract": "contracts/nft/ZeroHeroNFT.sol:ZeroHeroNFT",
        "label": "presaleMaxItemsPerWallet",
        "offset": 2,
        "slot": "10",
        "type": "t_uint8"
      },
      {
        "astId": 1068,
        "contract": "contracts/nft/ZeroHeroNFT.sol:ZeroHeroNFT",
        "label": "presalePrice",
        "offset": 0,
        "slot": "11",
        "type": "t_uint256"
      },
      {
        "astId": 1071,
        "contract": "contracts/nft/ZeroHeroNFT.sol:ZeroHeroNFT",
        "label": "mintPrice",
        "offset": 0,
        "slot": "12",
        "type": "t_uint256"
      },
      {
        "astId": 1073,
        "contract": "contracts/nft/ZeroHeroNFT.sol:ZeroHeroNFT",
        "label": "baseTokenURI",
        "offset": 0,
        "slot": "13",
        "type": "t_string_storage"
      },
      {
        "astId": 1075,
        "contract": "contracts/nft/ZeroHeroNFT.sol:ZeroHeroNFT",
        "label": "presaleMerkleRoot",
        "offset": 0,
        "slot": "14",
        "type": "t_bytes32"
      }
    ],
    "types": {
      "t_address": {
        "encoding": "inplace",
        "label": "address",
        "numberOfBytes": "20"
      },
      "t_bool": {
        "encoding": "inplace",
        "label": "bool",
        "numberOfBytes": "1"
      },
      "t_bytes32": {
        "encoding": "inplace",
        "label": "bytes32",
        "numberOfBytes": "32"
      },
      "t_mapping(t_address,t_bool)": {
        "encoding": "mapping",
        "key": "t_address",
        "label": "mapping(address => bool)",
        "numberOfBytes": "32",
        "value": "t_bool"
      },
      "t_mapping(t_address,t_mapping(t_address,t_bool))": {
        "encoding": "mapping",
        "key": "t_address",
        "label": "mapping(address => mapping(address => bool))",
        "numberOfBytes": "32",
        "value": "t_mapping(t_address,t_bool)"
      },
      "t_mapping(t_address,t_uint256)": {
        "encoding": "mapping",
        "key": "t_address",
        "label": "mapping(address => uint256)",
        "numberOfBytes": "32",
        "value": "t_uint256"
      },
      "t_mapping(t_uint256,t_struct(TokenApprovalRef)1386_storage)": {
        "encoding": "mapping",
        "key": "t_uint256",
        "label": "mapping(uint256 => struct ERC721A.TokenApprovalRef)",
        "numberOfBytes": "32",
        "value": "t_struct(TokenApprovalRef)1386_storage"
      },
      "t_mapping(t_uint256,t_uint256)": {
        "encoding": "mapping",
        "key": "t_uint256",
        "label": "mapping(uint256 => uint256)",
        "numberOfBytes": "32",
        "value": "t_uint256"
      },
      "t_string_storage": {
        "encoding": "bytes",
        "label": "string",
        "numberOfBytes": "32"
      },
      "t_struct(TokenApprovalRef)1386_storage": {
        "encoding": "inplace",
        "label": "struct ERC721A.TokenApprovalRef",
        "members": [
          {
            "astId": 1385,
            "contract": "contracts/nft/ZeroHeroNFT.sol:ZeroHeroNFT",
            "label": "value",
            "offset": 0,
            "slot": "0",
            "type": "t_address"
          }
        ],
        "numberOfBytes": "32"
      },
      "t_uint256": {
        "encoding": "inplace",
        "label": "uint256",
        "numberOfBytes": "32"
      },
      "t_uint8": {
        "encoding": "inplace",
        "label": "uint8",
        "numberOfBytes": "1"
      }
    }
  }
}