{
  "address": "0x8A791620dd6260079BF849Dc5567aDC3F2FdC318",
  "abi": [
    {
      "inputs": [],
      "stateMutability": "nonpayable",
      "type": "constructor"
    },
    {
      "inputs": [],
      "name": "ApprovalCallerNotOwnerNorApproved",
      "type": "error"
    },
    {
      "inputs": [],
      "name": "ApprovalQueryForNonexistentToken",
      "type": "error"
    },
    {
      "inputs": [],
      "name": "BalanceQueryForZeroAddress",
      "type": "error"
    },
    {
      "inputs": [],
      "name": "ExceedMaxPerWallet",
      "type": "error"
    },
    {
      "inputs": [],
      "name": "ExceedSupply",
      "type": "error"
    },
    {
      "inputs": [],
      "name": "InsufficientPayment",
      "type": "error"
    },
    {
      "inputs": [],
      "name": "MintERC2309QuantityExceedsLimit",
      "type": "error"
    },
    {
      "inputs": [],
      "name": "MintToZeroAddress",
      "type": "error"
    },
    {
      "inputs": [],
      "name": "MintZeroQuantity",
      "type": "error"
    },
    {
      "inputs": [],
      "name": "NotInWhitelist",
      "type": "error"
    },
    {
      "inputs": [],
      "name": "OwnerQueryForNonexistentToken",
      "type": "error"
    },
    {
      "inputs": [],
      "name": "OwnershipNotInitializedForExtraData",
      "type": "error"
    },
    {
      "inputs": [],
      "name": "PrivateMintNotStarted",
      "type": "error"
    },
    {
      "inputs": [],
      "name": "PublicMintNotStarted",
      "type": "error"
    },
    {
      "inputs": [],
      "name": "TransferCallerNotOwnerNorApproved",
      "type": "error"
    },
    {
      "inputs": [],
      "name": "TransferFromIncorrectOwner",
      "type": "error"
    },
    {
      "inputs": [],
      "name": "TransferToNonERC721ReceiverImplementer",
      "type": "error"
    },
    {
      "inputs": [],
      "name": "TransferToZeroAddress",
      "type": "error"
    },
    {
      "inputs": [],
      "name": "URIQueryForNonexistentToken",
      "type": "error"
    },
    {
      "anonymous": false,
      "inputs": [
        {
          "indexed": true,
          "internalType": "address",
          "name": "owner",
          "type": "address"
        },
        {
          "indexed": true,
          "internalType": "address",
          "name": "approved",
          "type": "address"
        },
        {
          "indexed": true,
          "internalType": "uint256",
          "name": "tokenId",
          "type": "uint256"
        }
      ],
      "name": "Approval",
      "type": "event"
    },
    {
      "anonymous": false,
      "inputs": [
        {
          "indexed": true,
          "internalType": "address",
          "name": "owner",
          "type": "address"
        },
        {
          "indexed": true,
          "internalType": "address",
          "name": "operator",
          "type": "address"
        },
        {
          "indexed": false,
          "internalType": "bool",
          "name": "approved",
          "type": "bool"
        }
      ],
      "name": "ApprovalForAll",
      "type": "event"
    },
    {
      "anonymous": false,
      "inputs": [
        {
          "indexed": true,
          "internalType": "uint256",
          "name": "fromTokenId",
          "type": "uint256"
        },
        {
          "indexed": false,
          "internalType": "uint256",
          "name": "toTokenId",
          "type": "uint256"
        },
        {
          "indexed": true,
          "internalType": "address",
          "name": "from",
          "type": "address"
        },
        {
          "indexed": true,
          "internalType": "address",
          "name": "to",
          "type": "address"
        }
      ],
      "name": "ConsecutiveTransfer",
      "type": "event"
    },
    {
      "anonymous": false,
      "inputs": [
        {
          "indexed": true,
          "internalType": "address",
          "name": "previousOwner",
          "type": "address"
        },
        {
          "indexed": true,
          "internalType": "address",
          "name": "newOwner",
          "type": "address"
        }
      ],
      "name": "OwnershipTransferred",
      "type": "event"
    },
    {
      "anonymous": false,
      "inputs": [
        {
          "indexed": true,
          "internalType": "address",
          "name": "from",
          "type": "address"
        },
        {
          "indexed": true,
          "internalType": "address",
          "name": "to",
          "type": "address"
        },
        {
          "indexed": true,
          "internalType": "uint256",
          "name": "tokenId",
          "type": "uint256"
        }
      ],
      "name": "Transfer",
      "type": "event"
    },
    {
      "inputs": [
        {
          "internalType": "address",
          "name": "to",
          "type": "address"
        },
        {
          "internalType": "uint256",
          "name": "tokenId",
          "type": "uint256"
        }
      ],
      "name": "approve",
      "outputs": [],
      "stateMutability": "payable",
      "type": "function"
    },
    {
      "inputs": [
        {
          "internalType": "address",
          "name": "owner",
          "type": "address"
        }
      ],
      "name": "balanceOf",
      "outputs": [
        {
          "internalType": "uint256",
          "name": "",
          "type": "uint256"
        }
      ],
      "stateMutability": "view",
      "type": "function"
    },
    {
      "inputs": [
        {
          "internalType": "uint8",
          "name": "quantity",
          "type": "uint8"
        }
      ],
      "name": "devMint",
      "outputs": [],
      "stateMutability": "nonpayable",
      "type": "function"
    },
    {
      "inputs": [
        {
          "internalType": "uint256",
          "name": "tokenId",
          "type": "uint256"
        }
      ],
      "name": "getApproved",
      "outputs": [
        {
          "internalType": "address",
          "name": "",
          "type": "address"
        }
      ],
      "stateMutability": "view",
      "type": "function"
    },
    {
      "inputs": [
        {
          "internalType": "address",
          "name": "owner",
          "type": "address"
        },
        {
          "internalType": "address",
          "name": "operator",
          "type": "address"
        }
      ],
      "name": "isApprovedForAll",
      "outputs": [
        {
          "internalType": "bool",
          "name": "",
          "type": "bool"
        }
      ],
      "stateMutability": "view",
      "type": "function"
    },
    {
      "inputs": [],
      "name": "isPresaleActive",
      "outputs": [
        {
          "internalType": "bool",
          "name": "",
          "type": "bool"
        }
      ],
      "stateMutability": "view",
      "type": "function"
    },
    {
      "inputs": [
        {
          "internalType": "uint256",
          "name": "quantity",
          "type": "uint256"
        }
      ],
      "name": "mint",
      "outputs": [],
      "stateMutability": "payable",
      "type": "function"
    },
    {
      "inputs": [],
      "name": "name",
      "outputs": [
        {
          "internalType": "string",
          "name": "",
          "type": "string"
        }
      ],
      "stateMutability": "view",
      "type": "function"
    },
    {
      "inputs": [],
      "name": "owner",
      "outputs": [
        {
          "internalType": "address",
          "name": "",
          "type": "address"
        }
      ],
      "stateMutability": "view",
      "type": "function"
    },
    {
      "inputs": [
        {
          "internalType": "uint256",
          "name": "tokenId",
          "type": "uint256"
        }
      ],
      "name": "ownerOf",
      "outputs": [
        {
          "internalType": "address",
          "name": "",
          "type": "address"
        }
      ],
      "stateMutability": "view",
      "type": "function"
    },
    {
      "inputs": [],
      "name": "presaleMerkleRoot",
      "outputs": [
        {
          "internalType": "bytes32",
          "name": "",
          "type": "bytes32"
        }
      ],
      "stateMutability": "view",
      "type": "function"
    },
    {
      "inputs": [
        {
          "internalType": "uint256",
          "name": "_index",
          "type": "uint256"
        },
        {
          "internalType": "address",
          "name": "_account",
          "type": "address"
        },
        {
          "internalType": "uint256",
          "name": "_amount",
          "type": "uint256"
        },
        {
          "internalType": "bytes32[]",
          "name": "proof",
          "type": "bytes32[]"
        },
        {
          "internalType": "uint256",
          "name": "quantity",
          "type": "uint256"
        }
      ],
      "name": "privateMint",
      "outputs": [],
      "stateMutability": "payable",
      "type": "function"
    },
    {
      "inputs": [],
      "name": "renounceOwnership",
      "outputs": [],
      "stateMutability": "nonpayable",
      "type": "function"
    },
    {
      "inputs": [
        {
          "internalType": "address",
          "name": "from",
          "type": "address"
        },
        {
          "internalType": "address",
          "name": "to",
          "type": "address"
        },
        {
          "internalType": "uint256",
          "name": "tokenId",
          "type": "uint256"
        }
      ],
      "name": "safeTransferFrom",
      "outputs": [],
      "stateMutability": "payable",
      "type": "function"
    },
    {
      "inputs": [
        {
          "internalType": "address",
          "name": "from",
          "type": "address"
        },
        {
          "internalType": "address",
          "name": "to",
          "type": "address"
        },
        {
          "internalType": "uint256",
          "name": "tokenId",
          "type": "uint256"
        },
        {
          "internalType": "bytes",
          "name": "_data",
          "type": "bytes"
        }
      ],
      "name": "safeTransferFrom",
      "outputs": [],
      "stateMutability": "payable",
      "type": "function"
    },
    {
      "inputs": [
        {
          "internalType": "address",
          "name": "operator",
          "type": "address"
        },
        {
          "internalType": "bool",
          "name": "approved",
          "type": "bool"
        }
      ],
      "name": "setApprovalForAll",
      "outputs": [],
      "stateMutability": "nonpayable",
      "type": "function"
    },
    {
      "inputs": [
        {
          "internalType": "string",
          "name": "value",
          "type": "string"
        }
      ],
      "name": "setBaseTokenURI",
      "outputs": [],
      "stateMutability": "nonpayable",
      "type": "function"
    },
    {
      "inputs": [
        {
          "internalType": "uint256",
          "name": "value",
          "type": "uint256"
        }
      ],
      "name": "setMintPrice",
      "outputs": [],
      "stateMutability": "nonpayable",
      "type": "function"
    },
    {
      "inputs": [
        {
          "internalType": "uint8",
          "name": "value",
          "type": "uint8"
        }
      ],
      "name": "setPresaleMaxItemsPerWallet",
      "outputs": [],
      "stateMutability": "nonpayable",
      "type": "function"
    },
    {
      "inputs": [
        {
          "internalType": "bytes32",
          "name": "value",
          "type": "bytes32"
        }
      ],
      "name": "setPresaleMerkleRoot",
      "outputs": [],
      "stateMutability": "nonpayable",
      "type": "function"
    },
    {
      "inputs": [
        {
          "internalType": "uint256",
          "name": "value",
          "type": "uint256"
        }
      ],
      "name": "setPresalePrice",
      "outputs": [],
      "stateMutability": "nonpayable",
      "type": "function"
    },
    {
      "inputs": [],
      "name": "startPrivateMint",
      "outputs": [],
      "stateMutability": "nonpayable",
      "type": "function"
    },
    {
      "inputs": [],
      "name": "startPublicMint",
      "outputs": [],
      "stateMutability": "nonpayable",
      "type": "function"
    },
    {
      "inputs": [
        {
          "internalType": "bytes4",
          "name": "interfaceId",
          "type": "bytes4"
        }
      ],
      "name": "supportsInterface",
      "outputs": [
        {
          "internalType": "bool",
          "name": "",
          "type": "bool"
        }
      ],
      "stateMutability": "view",
      "type": "function"
    },
    {
      "inputs": [],
      "name": "symbol",
      "outputs": [
        {
          "internalType": "string",
          "name": "",
          "type": "string"
        }
      ],
      "stateMutability": "view",
      "type": "function"
    },
    {
      "inputs": [
        {
          "internalType": "uint256",
          "name": "tokenId",
          "type": "uint256"
        }
      ],
      "name": "tokenURI",
      "outputs": [
        {
          "internalType": "string",
          "name": "",
          "type": "string"
        }
      ],
      "stateMutability": "view",
      "type": "function"
    },
    {
      "inputs": [],
      "name": "totalSupply",
      "outputs": [
        {
          "internalType": "uint256",
          "name": "",
          "type": "uint256"
        }
      ],
      "stateMutability": "view",
      "type": "function"
    },
    {
      "inputs": [
        {
          "internalType": "address",
          "name": "from",
          "type": "address"
        },
        {
          "internalType": "address",
          "name": "to",
          "type": "address"
        },
        {
          "internalType": "uint256",
          "name": "tokenId",
          "type": "uint256"
        }
      ],
      "name": "transferFrom",
      "outputs": [],
      "stateMutability": "payable",
      "type": "function"
    },
    {
      "inputs": [
        {
          "internalType": "address",
          "name": "newOwner",
          "type": "address"
        }
      ],
      "name": "transferOwnership",
      "outputs": [],
      "stateMutability": "nonpayable",
      "type": "function"
    },
    {
      "inputs": [],
      "name": "withdraw",
      "outputs": [],
      "stateMutability": "nonpayable",
      "type": "function"
    }
  ],
  "transactionHash": "0x9eac916211d4d4debea4532b596faed0ae0eccc81abeb6d9b063aea5bc6963c8",
  "args": [],
  "numDeployments": 2,
  "solcInputHash": "b67ad2cb987a7feaa6b94f7c0de31b9e",
  "bytecode": "0x6080604052600a805462ff0000191662050000179055670429d069189e0000600b819055600c553480156200003357600080fd5b506040518060400160405280600b81526020016a16995c9bd2195c9bd3919560aa1b815250604051806040016040528060058152602001645a4845524f60d81b8152508160029081620000879190620001aa565b506003620000968282620001aa565b50506000805550620000a833620000b3565b600160095562000276565b600880546001600160a01b038381166001600160a01b0319831681179093556040519116919082907f8be0079c531659141344cd1fd0a4f28419497f9722a3daafe3b4186f6b6457e090600090a35050565b634e487b7160e01b600052604160045260246000fd5b600181811c908216806200013057607f821691505b6020821081036200015157634e487b7160e01b600052602260045260246000fd5b50919050565b601f821115620001a557600081815260208120601f850160051c81016020861015620001805750805b601f850160051c820191505b81811015620001a1578281556001016200018c565b5050505b505050565b81516001600160401b03811115620001c657620001c662000105565b620001de81620001d784546200011b565b8462000157565b602080601f831160018114620002165760008415620001fd5750858301515b600019600386901b1c1916600185901b178555620001a1565b600085815260208120601f198616915b82811015620002475788860151825594840194600190910190840162000226565b5085821015620002665787850151600019600388901b60f8161c191681555b5050505050600190811b01905550565b6122ad80620002866000396000f3fe6080604052600436106101cd5760003560e01c80636352211e116100f7578063a22cb46511610095578063e6a7e93311610064578063e6a7e933146104cf578063e985e9c5146104e4578063f2fde38b1461053a578063f4a0a5281461055a57600080fd5b8063a22cb46514610469578063b88d4fde14610489578063bd5204c11461049c578063c87b56dd146104af57600080fd5b806376c64c62116100d157806376c64c62146104015780638da5cb5b1461041657806395d89b4114610441578063a0712d681461045657600080fd5b80636352211e146103ac57806370a08231146103cc578063715018a6146103ec57600080fd5b806323b872dd1161016f5780633549345e1161013e5780633549345e1461034f5780633ccfd60b1461036f57806342842e0e1461038457806360d938dc1461039757600080fd5b806323b872dd146102dc57806328d7b276146102ef57806330176e131461030f5780633497d1651461032f57600080fd5b8063095ea7b3116101ab578063095ea7b31461026e57806318160ddd146102835780631a0ef8a9146102a657806322212e2b146102c657600080fd5b806301ffc9a7146101d257806306fdde0314610207578063081812fc14610229575b600080fd5b3480156101de57600080fd5b506101f26101ed366004611abe565b61057a565b60405190151581526020015b60405180910390f35b34801561021357600080fd5b5061021c61065f565b6040516101fe9190611b51565b34801561023557600080fd5b50610249610244366004611b64565b6106f1565b60405173ffffffffffffffffffffffffffffffffffffffff90911681526020016101fe565b61028161027c366004611ba6565b61075b565b005b34801561028f57600080fd5b50600154600054035b6040519081526020016101fe565b3480156102b257600080fd5b506102816102c1366004611bd0565b610846565b3480156102d257600080fd5b50610298600e5481565b6102816102ea366004611bf3565b610888565b3480156102fb57600080fd5b5061028161030a366004611b64565b610b18565b34801561031b57600080fd5b5061028161032a366004611d23565b610b25565b34801561033b57600080fd5b5061028161034a366004611bd0565b610b3d565b34801561035b57600080fd5b5061028161036a366004611b64565b610baa565b34801561037b57600080fd5b50610281610bb7565b610281610392366004611bf3565b610bfb565b3480156103a357600080fd5b506101f2610c1b565b3480156103b857600080fd5b506102496103c7366004611b64565b610c48565b3480156103d857600080fd5b506102986103e7366004611d6c565b610c53565b3480156103f857600080fd5b50610281610cd5565b34801561040d57600080fd5b50610281610ce7565b34801561042257600080fd5b5060085473ffffffffffffffffffffffffffffffffffffffff16610249565b34801561044d57600080fd5b5061021c610d1d565b610281610464366004611b64565b610d2c565b34801561047557600080fd5b50610281610484366004611d87565b610e22565b610281610497366004611dc3565b610eb9565b6102816104aa366004611e3f565b610f29565b3480156104bb57600080fd5b5061021c6104ca366004611b64565b611102565b3480156104db57600080fd5b5061028161119f565b3480156104f057600080fd5b506101f26104ff366004611f11565b73ffffffffffffffffffffffffffffffffffffffff918216600090815260076020908152604080832093909416825291909152205460ff1690565b34801561054657600080fd5b50610281610555366004611d6c565b6111d4565b34801561056657600080fd5b50610281610575366004611b64565b61128d565b60007f01ffc9a7000000000000000000000000000000000000000000000000000000007fffffffff000000000000000000000000000000000000000000000000000000008316148061060d57507f80ac58cd000000000000000000000000000000000000000000000000000000007fffffffff000000000000000000000000000000000000000000000000000000008316145b8061065957507f5b5e139f000000000000000000000000000000000000000000000000000000007fffffffff000000000000000000000000000000000000000000000000000000008316145b92915050565b60606002805461066e90611f44565b80601f016020809104026020016040519081016040528092919081815260200182805461069a90611f44565b80156106e75780601f106106bc576101008083540402835291602001916106e7565b820191906000526020600020905b8154815290600101906020018083116106ca57829003601f168201915b5050505050905090565b60006106fc8261129a565b610732576040517fcf4700e400000000000000000000000000000000000000000000000000000000815260040160405180910390fd5b5060009081526006602052604090205473ffffffffffffffffffffffffffffffffffffffff1690565b600061076682610c48565b90503373ffffffffffffffffffffffffffffffffffffffff8216146107c55761078f81336104ff565b6107c5576040517fcfb3b94200000000000000000000000000000000000000000000000000000000815260040160405180910390fd5b60008281526006602052604080822080547fffffffffffffffffffffffff00000000000000000000000000000000000000001673ffffffffffffffffffffffffffffffffffffffff87811691821790925591518593918516917f8c5be1e5ebec7d5bd14f71427d1e84f3dd0314c0f7b2291e5b200ac8c7c3b92591a4505050565b61084e6112da565b600a805460ff90921662010000027fffffffffffffffffffffffffffffffffffffffffffffffffffffffffff00ffff909216919091179055565b60006108938261135b565b90508373ffffffffffffffffffffffffffffffffffffffff168173ffffffffffffffffffffffffffffffffffffffff16146108fa576040517fa114810000000000000000000000000000000000000000000000000000000000815260040160405180910390fd5b600082815260066020526040902080543380821473ffffffffffffffffffffffffffffffffffffffff88169091141761096d5761093786336104ff565b61096d576040517f59c896be00000000000000000000000000000000000000000000000000000000815260040160405180910390fd5b73ffffffffffffffffffffffffffffffffffffffff85166109ba576040517fea553b3400000000000000000000000000000000000000000000000000000000815260040160405180910390fd5b80156109c557600082555b73ffffffffffffffffffffffffffffffffffffffff86811660009081526005602052604080822080547fffffffffffffffffffffffffffffffffffffffffffffffffffffffffffffffff019055918716808252919020805460010190554260a01b177c0200000000000000000000000000000000000000000000000000000000176000858152600460205260408120919091557c020000000000000000000000000000000000000000000000000000000084169003610ab457600184016000818152600460205260408120549003610ab2576000548114610ab25760008181526004602052604090208490555b505b838573ffffffffffffffffffffffffffffffffffffffff168773ffffffffffffffffffffffffffffffffffffffff167fddf252ad1be2c89b69c2b068fc378daa952ba7f163c4a11628f55a4df523b3ef60405160405180910390a45b505050505050565b610b206112da565b600e55565b610b2d6112da565b600d610b398282611fdd565b5050565b610b456112da565b600560ff8216610b586001546000540390565b610b629190612126565b1115610b9a576040517f5c9a0abb00000000000000000000000000000000000000000000000000000000815260040160405180910390fd5b610ba7338260ff16611412565b50565b610bb26112da565b600b55565b610bbf6112da565b610bc7611550565b610bef610be960085473ffffffffffffffffffffffffffffffffffffffff1690565b476115c3565b610bf96001600955565b565b610c1683838360405180602001604052806000815250610eb9565b505050565b600a5460009060ff1680610c375750600a54610100900460ff16155b15610c425750600190565b50600090565b60006106598261135b565b600073ffffffffffffffffffffffffffffffffffffffff8216610ca2576040517f8f4eb60400000000000000000000000000000000000000000000000000000000815260040160405180910390fd5b5073ffffffffffffffffffffffffffffffffffffffff1660009081526005602052604090205467ffffffffffffffff1690565b610cdd6112da565b610bf9600061171d565b610cef6112da565b600a80547fffffffffffffffffffffffffffffffffffffffffffffffffffffffffffff00ff16610100179055565b60606003805461066e90611f44565b610d34611550565b600a54610100900460ff16610d75576040517fb35ba98d00000000000000000000000000000000000000000000000000000000815260040160405180910390fd5b80600c54610d83919061213e565b341015610dbc576040517fcd1c886700000000000000000000000000000000000000000000000000000000815260040160405180910390fd5b600081610dcc6001546000540390565b610dd69190612126565b1115610e0e576040517f5c9a0abb00000000000000000000000000000000000000000000000000000000815260040160405180910390fd5b610e183382611412565b610ba76001600955565b33600081815260076020908152604080832073ffffffffffffffffffffffffffffffffffffffff87168085529083529281902080547fffffffffffffffffffffffffffffffffffffffffffffffffffffffffffffff001686151590811790915590519081529192917f17307eab39ab6107e8899845ad3d59bd9653f200f220920489ca2b5937696c31910160405180910390a35050565b610ec4848484610888565b73ffffffffffffffffffffffffffffffffffffffff83163b15610f2357610eed84848484611794565b610f23576040517fd1a57ed600000000000000000000000000000000000000000000000000000000815260040160405180910390fd5b50505050565b610f31611550565b600a5460ff161580610f4a5750600a54610100900460ff165b15610f81576040517fd23cd50900000000000000000000000000000000000000000000000000000000815260040160405180910390fd5b80600b54610f8f919061213e565b341015610fc8576040517fcd1c886700000000000000000000000000000000000000000000000000000000815260040160405180910390fd5b6107d081610fd96001546000540390565b610fe39190612126565b111561101b576040517f5c9a0abb00000000000000000000000000000000000000000000000000000000815260040160405180910390fd5b600a5460ff6201000090910416816110633373ffffffffffffffffffffffffffffffffffffffff166000908152600560205260409081902054901c67ffffffffffffffff1690565b61106d9190612126565b11156110a5576040517fd900aa8a00000000000000000000000000000000000000000000000000000000815260040160405180910390fd5b6110b18286868661190e565b6110e7576040517f5b0aa2ba00000000000000000000000000000000000000000000000000000000815260040160405180910390fd5b6110f18482611412565b6110fb6001600955565b5050505050565b606061110d8261129a565b611143576040517fa14c4b5000000000000000000000000000000000000000000000000000000000815260040160405180910390fd5b600061114d611990565b9050805160000361116d5760405180602001604052806000815250611198565b806111778461199f565b60405160200161118892919061217b565b6040516020818303038152906040525b9392505050565b6111a76112da565b600a80547fffffffffffffffffffffffffffffffffffffffffffffffffffffffffffffff00166001179055565b6111dc6112da565b73ffffffffffffffffffffffffffffffffffffffff8116611284576040517f08c379a000000000000000000000000000000000000000000000000000000000815260206004820152602660248201527f4f776e61626c653a206e6577206f776e657220697320746865207a65726f206160448201527f646472657373000000000000000000000000000000000000000000000000000060648201526084015b60405180910390fd5b610ba78161171d565b6112956112da565b600c55565b60008054821080156106595750506000908152600460205260409020547c0100000000000000000000000000000000000000000000000000000000161590565b60085473ffffffffffffffffffffffffffffffffffffffff163314610bf9576040517f08c379a000000000000000000000000000000000000000000000000000000000815260206004820181905260248201527f4f776e61626c653a2063616c6c6572206973206e6f7420746865206f776e6572604482015260640161127b565b6000816000548110156113e057600081815260046020526040812054907c0100000000000000000000000000000000000000000000000000000000821690036113de575b8060000361119857507fffffffffffffffffffffffffffffffffffffffffffffffffffffffffffffffff0160008181526004602052604090205461139f565b505b6040517fdf2d9b4200000000000000000000000000000000000000000000000000000000815260040160405180910390fd5b6000805490829003611450576040517fb562e8dd00000000000000000000000000000000000000000000000000000000815260040160405180910390fd5b73ffffffffffffffffffffffffffffffffffffffff831660008181526005602090815260408083208054680100000000000000018802019055848352600490915281206001851460e11b4260a01b178317905582840190839083907fddf252ad1be2c89b69c2b068fc378daa952ba7f163c4a11628f55a4df523b3ef8180a4600183015b81811461150c57808360007fddf252ad1be2c89b69c2b068fc378daa952ba7f163c4a11628f55a4df523b3ef600080a46001016114d4565b5081600003611547576040517f2e07630000000000000000000000000000000000000000000000000000000000815260040160405180910390fd5b60005550505050565b6002600954036115bc576040517f08c379a000000000000000000000000000000000000000000000000000000000815260206004820152601f60248201527f5265656e7472616e637947756172643a207265656e7472616e742063616c6c00604482015260640161127b565b6002600955565b8047101561162d576040517f08c379a000000000000000000000000000000000000000000000000000000000815260206004820152601d60248201527f416464726573733a20696e73756666696369656e742062616c616e6365000000604482015260640161127b565b60008273ffffffffffffffffffffffffffffffffffffffff168260405160006040518083038185875af1925050503d8060008114611687576040519150601f19603f3d011682016040523d82523d6000602084013e61168c565b606091505b5050905080610c16576040517f08c379a000000000000000000000000000000000000000000000000000000000815260206004820152603a60248201527f416464726573733a20756e61626c6520746f2073656e642076616c75652c207260448201527f6563697069656e74206d61792068617665207265766572746564000000000000606482015260840161127b565b6008805473ffffffffffffffffffffffffffffffffffffffff8381167fffffffffffffffffffffffff0000000000000000000000000000000000000000831681179093556040519116919082907f8be0079c531659141344cd1fd0a4f28419497f9722a3daafe3b4186f6b6457e090600090a35050565b6040517f150b7a0200000000000000000000000000000000000000000000000000000000815260009073ffffffffffffffffffffffffffffffffffffffff85169063150b7a02906117ef9033908990889088906004016121aa565b6020604051808303816000875af1925050508015611848575060408051601f3d9081017fffffffffffffffffffffffffffffffffffffffffffffffffffffffffffffffe0168201909252611845918101906121f3565b60015b6118bf573d808015611876576040519150601f19603f3d011682016040523d82523d6000602084013e61187b565b606091505b5080516000036118b7576040517fd1a57ed600000000000000000000000000000000000000000000000000000000815260040160405180910390fd5b805181602001fd5b7fffffffff00000000000000000000000000000000000000000000000000000000167f150b7a02000000000000000000000000000000000000000000000000000000001490505b949350505050565b6000611987600e548585856040516020016119619392919092835260609190911b7fffffffffffffffffffffffffffffffffffffffff000000000000000000000000166020830152603482015260540190565b6040516020818303038152906040528051906020012087611a019092919063ffffffff16565b95945050505050565b6060600d805461066e90611f44565b606060a06040510180604052602081039150506000815280825b600183039250600a81066030018353600a9004806119b957508190037fffffffffffffffffffffffffffffffffffffffffffffffffffffffffffffffe0909101908152919050565b600082611a0e8584611a17565b14949350505050565b600081815b8451811015611a5c57611a4882868381518110611a3b57611a3b612210565b6020026020010151611a64565b915080611a548161223f565b915050611a1c565b509392505050565b6000818310611a80576000828152602084905260409020611198565b5060009182526020526040902090565b7fffffffff0000000000000000000000000000000000000000000000000000000081168114610ba757600080fd5b600060208284031215611ad057600080fd5b813561119881611a90565b60005b83811015611af6578181015183820152602001611ade565b83811115610f235750506000910152565b60008151808452611b1f816020860160208601611adb565b601f017fffffffffffffffffffffffffffffffffffffffffffffffffffffffffffffffe0169290920160200192915050565b6020815260006111986020830184611b07565b600060208284031215611b7657600080fd5b5035919050565b803573ffffffffffffffffffffffffffffffffffffffff81168114611ba157600080fd5b919050565b60008060408385031215611bb957600080fd5b611bc283611b7d565b946020939093013593505050565b600060208284031215611be257600080fd5b813560ff8116811461119857600080fd5b600080600060608486031215611c0857600080fd5b611c1184611b7d565b9250611c1f60208501611b7d565b9150604084013590509250925092565b7f4e487b7100000000000000000000000000000000000000000000000000000000600052604160045260246000fd5b604051601f82017fffffffffffffffffffffffffffffffffffffffffffffffffffffffffffffffe016810167ffffffffffffffff81118282101715611ca557611ca5611c2f565b604052919050565b600067ffffffffffffffff831115611cc757611cc7611c2f565b611cf860207fffffffffffffffffffffffffffffffffffffffffffffffffffffffffffffffe0601f86011601611c5e565b9050828152838383011115611d0c57600080fd5b828260208301376000602084830101529392505050565b600060208284031215611d3557600080fd5b813567ffffffffffffffff811115611d4c57600080fd5b8201601f81018413611d5d57600080fd5b61190684823560208401611cad565b600060208284031215611d7e57600080fd5b61119882611b7d565b60008060408385031215611d9a57600080fd5b611da383611b7d565b915060208301358015158114611db857600080fd5b809150509250929050565b60008060008060808587031215611dd957600080fd5b611de285611b7d565b9350611df060208601611b7d565b925060408501359150606085013567ffffffffffffffff811115611e1357600080fd5b8501601f81018713611e2457600080fd5b611e3387823560208401611cad565b91505092959194509250565b600080600080600060a08688031215611e5757600080fd5b853594506020611e68818801611b7d565b945060408701359350606087013567ffffffffffffffff80821115611e8c57600080fd5b818901915089601f830112611ea057600080fd5b813581811115611eb257611eb2611c2f565b8060051b9150611ec3848301611c5e565b818152918301840191848101908c841115611edd57600080fd5b938501935b83851015611efb57843582529385019390850190611ee2565b999c989b50969960800135979650505050505050565b60008060408385031215611f2457600080fd5b611f2d83611b7d565b9150611f3b60208401611b7d565b90509250929050565b600181811c90821680611f5857607f821691505b602082108103611f91577f4e487b7100000000000000000000000000000000000000000000000000000000600052602260045260246000fd5b50919050565b601f821115610c1657600081815260208120601f850160051c81016020861015611fbe5750805b601f850160051c820191505b81811015610b1057828155600101611fca565b815167ffffffffffffffff811115611ff757611ff7611c2f565b61200b816120058454611f44565b84611f97565b602080601f83116001811461205e57600084156120285750858301515b7fffffffffffffffffffffffffffffffffffffffffffffffffffffffffffffffff600386901b1c1916600185901b178555610b10565b6000858152602081207fffffffffffffffffffffffffffffffffffffffffffffffffffffffffffffffe08616915b828110156120ab5788860151825594840194600190910190840161208c565b50858210156120e757878501517fffffffffffffffffffffffffffffffffffffffffffffffffffffffffffffffff600388901b60f8161c191681555b5050505050600190811b01905550565b7f4e487b7100000000000000000000000000000000000000000000000000000000600052601160045260246000fd5b60008219821115612139576121396120f7565b500190565b6000817fffffffffffffffffffffffffffffffffffffffffffffffffffffffffffffffff0483118215151615612176576121766120f7565b500290565b6000835161218d818460208801611adb565b8351908301906121a1818360208801611adb565b01949350505050565b600073ffffffffffffffffffffffffffffffffffffffff8087168352808616602084015250836040830152608060608301526121e96080830184611b07565b9695505050505050565b60006020828403121561220557600080fd5b815161119881611a90565b7f4e487b7100000000000000000000000000000000000000000000000000000000600052603260045260246000fd5b60007fffffffffffffffffffffffffffffffffffffffffffffffffffffffffffffffff8203612270576122706120f7565b506001019056fea26469706673582212206ad60cb2fc68822196885ddfbc2014df69a0bcb7077b005dd44e4c343ace26f564736f6c634300080f0033",
  "devdoc": {
    "kind": "dev",
    "methods": {
      "approve(address,uint256)": {
        "details": "Gives permission to `to` to transfer `tokenId` token to another account. The approval is cleared when the token is transferred. Only a single account can be approved at a time, so approving the zero address clears previous approvals. Requirements: - The caller must own the token or be an approved operator. - `tokenId` must exist. Emits an {Approval} event."
      },
      "balanceOf(address)": {
        "details": "Returns the number of tokens in `owner`'s account."
      },
      "getApproved(uint256)": {
        "details": "Returns the account approved for `tokenId` token. Requirements: - `tokenId` must exist."
      },
      "isApprovedForAll(address,address)": {
        "details": "Returns if the `operator` is allowed to manage all of the assets of `owner`. See {setApprovalForAll}."
      },
      "name()": {
        "details": "Returns the token collection name."
      },
      "owner()": {
        "details": "Returns the address of the current owner."
      },
      "ownerOf(uint256)": {
        "details": "Returns the owner of the `tokenId` token. Requirements: - `tokenId` must exist."
      },
      "renounceOwnership()": {
        "details": "Leaves the contract without owner. It will not be possible to call `onlyOwner` functions anymore. Can only be called by the current owner. NOTE: Renouncing ownership will leave the contract without an owner, thereby removing any functionality that is only available to the owner."
      },
      "safeTransferFrom(address,address,uint256)": {
        "details": "Equivalent to `safeTransferFrom(from, to, tokenId, '')`."
      },
      "safeTransferFrom(address,address,uint256,bytes)": {
        "details": "Safely transfers `tokenId` token from `from` to `to`. Requirements: - `from` cannot be the zero address. - `to` cannot be the zero address. - `tokenId` token must exist and be owned by `from`. - If the caller is not `from`, it must be approved to move this token by either {approve} or {setApprovalForAll}. - If `to` refers to a smart contract, it must implement {IERC721Receiver-onERC721Received}, which is called upon a safe transfer. Emits a {Transfer} event."
      },
      "setApprovalForAll(address,bool)": {
        "details": "Approve or remove `operator` as an operator for the caller. Operators can call {transferFrom} or {safeTransferFrom} for any token owned by the caller. Requirements: - The `operator` cannot be the caller. Emits an {ApprovalForAll} event."
      },
      "supportsInterface(bytes4)": {
        "details": "Returns true if this contract implements the interface defined by `interfaceId`. See the corresponding [EIP section](https://eips.ethereum.org/EIPS/eip-165#how-interfaces-are-identified) to learn more about how these ids are created. This function call must use less than 30000 gas."
      },
      "symbol()": {
        "details": "Returns the token collection symbol."
      },
      "tokenURI(uint256)": {
        "details": "Returns the Uniform Resource Identifier (URI) for `tokenId` token."
      },
      "totalSupply()": {
        "details": "Returns the total number of tokens in existence. Burned tokens will reduce the count. To get the total number of tokens minted, please see {_totalMinted}."
      },
      "transferFrom(address,address,uint256)": {
        "details": "Transfers `tokenId` from `from` to `to`. Requirements: - `from` cannot be the zero address. - `to` cannot be the zero address. - `tokenId` token must be owned by `from`. - If the caller is not `from`, it must be approved to move this token by either {approve} or {setApprovalForAll}. Emits a {Transfer} event."
      },
      "transferOwnership(address)": {
        "details": "Transfers ownership of the contract to a new account (`newOwner`). Can only be called by the current owner."
      }
    },
    "version": 1
  },
  "userdoc": {
    "errors": {
      "ApprovalCallerNotOwnerNorApproved()": [
        {
          "notice": "The caller must own the token or be an approved operator."
        }
      ],
      "ApprovalQueryForNonexistentToken()": [
        {
          "notice": "The token does not exist."
        }
      ],
      "BalanceQueryForZeroAddress()": [
        {
          "notice": "Cannot query the balance for the zero address."
        }
      ],
      "MintERC2309QuantityExceedsLimit()": [
        {
          "notice": "The `quantity` minted with ERC2309 exceeds the safety limit."
        }
      ],
      "MintToZeroAddress()": [
        {
          "notice": "Cannot mint to the zero address."
        }
      ],
      "MintZeroQuantity()": [
        {
          "notice": "The quantity of tokens minted must be more than zero."
        }
      ],
      "OwnerQueryForNonexistentToken()": [
        {
          "notice": "The token does not exist."
        }
      ],
      "OwnershipNotInitializedForExtraData()": [
        {
          "notice": "The `extraData` cannot be set on an unintialized ownership slot."
        }
      ],
      "TransferCallerNotOwnerNorApproved()": [
        {
          "notice": "The caller must own the token or be an approved operator."
        }
      ],
      "TransferFromIncorrectOwner()": [
        {
          "notice": "The token must be owned by `from`."
        }
      ],
      "TransferToNonERC721ReceiverImplementer()": [
        {
          "notice": "Cannot safely transfer to a contract that does not implement the ERC721Receiver interface."
        }
      ],
      "TransferToZeroAddress()": [
        {
          "notice": "Cannot transfer to the zero address."
        }
      ],
      "URIQueryForNonexistentToken()": [
        {
          "notice": "The token does not exist."
        }
      ]
    },
    "kind": "user",
    "methods": {},
    "version": 1
  },
  "storageLayout": {
    "storage": [
      {
        "astId": 1482,
        "contract": "contracts/nft/ZeroHeroNFT.sol:ZeroHeroNFT",
        "label": "_currentIndex",
        "offset": 0,
        "slot": "0",
        "type": "t_uint256"
      },
      {
        "astId": 1484,
        "contract": "contracts/nft/ZeroHeroNFT.sol:ZeroHeroNFT",
        "label": "_burnCounter",
        "offset": 0,
        "slot": "1",
        "type": "t_uint256"
      },
      {
        "astId": 1486,
        "contract": "contracts/nft/ZeroHeroNFT.sol:ZeroHeroNFT",
        "label": "_name",
        "offset": 0,
        "slot": "2",
        "type": "t_string_storage"
      },
      {
        "astId": 1488,
        "contract": "contracts/nft/ZeroHeroNFT.sol:ZeroHeroNFT",
        "label": "_symbol",
        "offset": 0,
        "slot": "3",
        "type": "t_string_storage"
      },
      {
        "astId": 1492,
        "contract": "contracts/nft/ZeroHeroNFT.sol:ZeroHeroNFT",
        "label": "_packedOwnerships",
        "offset": 0,
        "slot": "4",
        "type": "t_mapping(t_uint256,t_uint256)"
      },
      {
        "astId": 1496,
        "contract": "contracts/nft/ZeroHeroNFT.sol:ZeroHeroNFT",
        "label": "_packedAddressData",
        "offset": 0,
        "slot": "5",
        "type": "t_mapping(t_address,t_uint256)"
      },
      {
        "astId": 1501,
        "contract": "contracts/nft/ZeroHeroNFT.sol:ZeroHeroNFT",
        "label": "_tokenApprovals",
        "offset": 0,
        "slot": "6",
        "type": "t_mapping(t_uint256,t_struct(TokenApprovalRef)1414_storage)"
      },
      {
        "astId": 1507,
        "contract": "contracts/nft/ZeroHeroNFT.sol:ZeroHeroNFT",
        "label": "_operatorApprovals",
        "offset": 0,
        "slot": "7",
        "type": "t_mapping(t_address,t_mapping(t_address,t_bool))"
      },
      {
        "astId": 7,
        "contract": "contracts/nft/ZeroHeroNFT.sol:ZeroHeroNFT",
        "label": "_owner",
        "offset": 0,
        "slot": "8",
        "type": "t_address"
      },
      {
        "astId": 123,
        "contract": "contracts/nft/ZeroHeroNFT.sol:ZeroHeroNFT",
        "label": "_status",
        "offset": 0,
        "slot": "9",
        "type": "t_uint256"
      },
      {
        "astId": 1061,
        "contract": "contracts/nft/ZeroHeroNFT.sol:ZeroHeroNFT",
        "label": "privateMintStarted",
        "offset": 0,
        "slot": "10",
        "type": "t_bool"
      },
      {
        "astId": 1063,
        "contract": "contracts/nft/ZeroHeroNFT.sol:ZeroHeroNFT",
        "label": "publicMintStarted",
        "offset": 1,
        "slot": "10",
        "type": "t_bool"
      },
      {
        "astId": 1066,
        "contract": "contracts/nft/ZeroHeroNFT.sol:ZeroHeroNFT",
        "label": "presaleMaxItemsPerWallet",
        "offset": 2,
        "slot": "10",
        "type": "t_uint8"
      },
      {
        "astId": 1069,
        "contract": "contracts/nft/ZeroHeroNFT.sol:ZeroHeroNFT",
        "label": "presalePrice",
        "offset": 0,
        "slot": "11",
        "type": "t_uint256"
      },
      {
        "astId": 1072,
        "contract": "contracts/nft/ZeroHeroNFT.sol:ZeroHeroNFT",
        "label": "mintPrice",
        "offset": 0,
        "slot": "12",
        "type": "t_uint256"
      },
      {
        "astId": 1074,
        "contract": "contracts/nft/ZeroHeroNFT.sol:ZeroHeroNFT",
        "label": "baseTokenURI",
        "offset": 0,
        "slot": "13",
        "type": "t_string_storage"
      },
      {
        "astId": 1076,
        "contract": "contracts/nft/ZeroHeroNFT.sol:ZeroHeroNFT",
        "label": "presaleMerkleRoot",
        "offset": 0,
        "slot": "14",
        "type": "t_bytes32"
      }
    ],
    "types": {
      "t_address": {
        "encoding": "inplace",
        "label": "address",
        "numberOfBytes": "20"
      },
      "t_bool": {
        "encoding": "inplace",
        "label": "bool",
        "numberOfBytes": "1"
      },
      "t_bytes32": {
        "encoding": "inplace",
        "label": "bytes32",
        "numberOfBytes": "32"
      },
      "t_mapping(t_address,t_bool)": {
        "encoding": "mapping",
        "key": "t_address",
        "label": "mapping(address => bool)",
        "numberOfBytes": "32",
        "value": "t_bool"
      },
      "t_mapping(t_address,t_mapping(t_address,t_bool))": {
        "encoding": "mapping",
        "key": "t_address",
        "label": "mapping(address => mapping(address => bool))",
        "numberOfBytes": "32",
        "value": "t_mapping(t_address,t_bool)"
      },
      "t_mapping(t_address,t_uint256)": {
        "encoding": "mapping",
        "key": "t_address",
        "label": "mapping(address => uint256)",
        "numberOfBytes": "32",
        "value": "t_uint256"
      },
      "t_mapping(t_uint256,t_struct(TokenApprovalRef)1414_storage)": {
        "encoding": "mapping",
        "key": "t_uint256",
        "label": "mapping(uint256 => struct ERC721A.TokenApprovalRef)",
        "numberOfBytes": "32",
        "value": "t_struct(TokenApprovalRef)1414_storage"
      },
      "t_mapping(t_uint256,t_uint256)": {
        "encoding": "mapping",
        "key": "t_uint256",
        "label": "mapping(uint256 => uint256)",
        "numberOfBytes": "32",
        "value": "t_uint256"
      },
      "t_string_storage": {
        "encoding": "bytes",
        "label": "string",
        "numberOfBytes": "32"
      },
      "t_struct(TokenApprovalRef)1414_storage": {
        "encoding": "inplace",
        "label": "struct ERC721A.TokenApprovalRef",
        "members": [
          {
            "astId": 1413,
            "contract": "contracts/nft/ZeroHeroNFT.sol:ZeroHeroNFT",
            "label": "value",
            "offset": 0,
            "slot": "0",
            "type": "t_address"
          }
        ],
        "numberOfBytes": "32"
      },
      "t_uint256": {
        "encoding": "inplace",
        "label": "uint256",
        "numberOfBytes": "32"
      },
      "t_uint8": {
        "encoding": "inplace",
        "label": "uint8",
        "numberOfBytes": "1"
      }
    }
  }
}