{
  "abi": [
    {
      "inputs": [],
      "name": "decode",
      "outputs": [
        {
          "internalType": "enum ModuleType",
          "name": "moduleType",
          "type": "uint8"
        },
        {
          "internalType": "uint256",
          "name": "loanGasE4",
          "type": "uint256"
        },
        {
          "internalType": "uint256",
          "name": "repayGasE4",
          "type": "uint256"
        },
        {
          "internalType": "uint256",
          "name": "ethRefundForLoanGas",
          "type": "uint256"
        },
        {
          "internalType": "uint256",
          "name": "ethRefundForRepayGas",
          "type": "uint256"
        },
        {
          "internalType": "uint256",
          "name": "btcFeeForLoanGas",
          "type": "uint256"
        },
        {
          "internalType": "uint256",
          "name": "btcFeeForRepayGas",
          "type": "uint256"
        },
        {
          "internalType": "uint256",
          "name": "lastUpdateTimestamp",
          "type": "uint256"
        }
      ],
      "stateMutability": "view",
      "type": "function"
    },
    {
      "inputs": [
        {
          "internalType": "enum ModuleType",
          "name": "moduleType",
          "type": "uint8"
        },
        {
          "internalType": "uint256",
          "name": "loanGasE4",
          "type": "uint256"
        },
        {
          "internalType": "uint256",
          "name": "repayGasE4",
          "type": "uint256"
        },
        {
          "internalType": "uint256",
          "name": "ethRefundForLoanGas",
          "type": "uint256"
        },
        {
          "internalType": "uint256",
          "name": "ethRefundForRepayGas",
          "type": "uint256"
        },
        {
          "internalType": "uint256",
          "name": "btcFeeForLoanGas",
          "type": "uint256"
        },
        {
          "internalType": "uint256",
          "name": "btcFeeForRepayGas",
          "type": "uint256"
        },
        {
          "internalType": "uint256",
          "name": "lastUpdateTimestamp",
          "type": "uint256"
        }
      ],
      "name": "encode",
      "outputs": [],
      "stateMutability": "nonpayable",
      "type": "function"
    },
    {
      "inputs": [],
      "name": "getBitcoinGasFees",
      "outputs": [
        {
          "internalType": "uint256",
          "name": "btcFeeForLoanGas",
          "type": "uint256"
        },
        {
          "internalType": "uint256",
          "name": "btcFeeForRepayGas",
          "type": "uint256"
        }
      ],
      "stateMutability": "view",
      "type": "function"
    },
    {
      "inputs": [],
      "name": "getBtcFeeForLoanGas",
      "outputs": [
        {
          "internalType": "uint256",
          "name": "btcFeeForLoanGas",
          "type": "uint256"
        }
      ],
      "stateMutability": "view",
      "type": "function"
    },
    {
      "inputs": [],
      "name": "getBtcFeeForRepayGas",
      "outputs": [
        {
          "internalType": "uint256",
          "name": "btcFeeForRepayGas",
          "type": "uint256"
        }
      ],
      "stateMutability": "view",
      "type": "function"
    },
    {
      "inputs": [],
      "name": "getCached",
      "outputs": [
        {
          "internalType": "uint256",
          "name": "ethRefundForLoanGas",
          "type": "uint256"
        },
        {
          "internalType": "uint256",
          "name": "ethRefundForRepayGas",
          "type": "uint256"
        },
        {
          "internalType": "uint256",
          "name": "btcFeeForLoanGas",
          "type": "uint256"
        },
        {
          "internalType": "uint256",
          "name": "btcFeeForRepayGas",
          "type": "uint256"
        },
        {
          "internalType": "uint256",
          "name": "lastUpdateTimestamp",
          "type": "uint256"
        }
      ],
      "stateMutability": "view",
      "type": "function"
    },
    {
      "inputs": [],
      "name": "getEthRefundForLoanGas",
      "outputs": [
        {
          "internalType": "uint256",
          "name": "ethRefundForLoanGas",
          "type": "uint256"
        }
      ],
      "stateMutability": "view",
      "type": "function"
    },
    {
      "inputs": [],
      "name": "getEthRefundForRepayGas",
      "outputs": [
        {
          "internalType": "uint256",
          "name": "ethRefundForRepayGas",
          "type": "uint256"
        }
      ],
      "stateMutability": "view",
      "type": "function"
    },
    {
      "inputs": [],
      "name": "getGasParams",
      "outputs": [
        {
          "internalType": "uint256",
          "name": "loanGasE4",
          "type": "uint256"
        },
        {
          "internalType": "uint256",
          "name": "repayGasE4",
          "type": "uint256"
        }
      ],
      "stateMutability": "view",
      "type": "function"
    },
    {
      "inputs": [],
      "name": "getLastUpdateTimestamp",
      "outputs": [
        {
          "internalType": "uint256",
          "name": "lastUpdateTimestamp",
          "type": "uint256"
        }
      ],
      "stateMutability": "view",
      "type": "function"
    },
    {
      "inputs": [],
      "name": "getLoanGasE4",
      "outputs": [
        {
          "internalType": "uint256",
          "name": "loanGasE4",
          "type": "uint256"
        }
      ],
      "stateMutability": "view",
      "type": "function"
    },
    {
      "inputs": [],
      "name": "getLoanParams",
      "outputs": [
        {
          "internalType": "enum ModuleType",
          "name": "moduleType",
          "type": "uint8"
        },
        {
          "internalType": "uint256",
          "name": "ethRefundForLoanGas",
          "type": "uint256"
        }
      ],
      "stateMutability": "view",
      "type": "function"
    },
    {
      "inputs": [],
      "name": "getModuleType",
      "outputs": [
        {
          "internalType": "enum ModuleType",
          "name": "moduleType",
          "type": "uint8"
        }
      ],
      "stateMutability": "view",
      "type": "function"
    },
    {
      "inputs": [],
      "name": "getRepayGasE4",
      "outputs": [
        {
          "internalType": "uint256",
          "name": "repayGasE4",
          "type": "uint256"
        }
      ],
      "stateMutability": "view",
      "type": "function"
    },
    {
      "inputs": [],
      "name": "getRepayParams",
      "outputs": [
        {
          "internalType": "enum ModuleType",
          "name": "moduleType",
          "type": "uint8"
        },
        {
          "internalType": "uint256",
          "name": "ethRefundForRepayGas",
          "type": "uint256"
        },
        {
          "internalType": "uint256",
          "name": "btcFeeForRepayGas",
          "type": "uint256"
        }
      ],
      "stateMutability": "view",
      "type": "function"
    },
    {
      "inputs": [
        {
          "internalType": "uint256",
          "name": "btcFeeForLoanGas",
          "type": "uint256"
        }
      ],
      "name": "setBtcFeeForLoanGas",
      "outputs": [],
      "stateMutability": "nonpayable",
      "type": "function"
    },
    {
      "inputs": [
        {
          "internalType": "uint256",
          "name": "btcFeeForRepayGas",
          "type": "uint256"
        }
      ],
      "name": "setBtcFeeForRepayGas",
      "outputs": [],
      "stateMutability": "nonpayable",
      "type": "function"
    },
    {
      "inputs": [
        {
          "internalType": "uint256",
          "name": "ethRefundForLoanGas",
          "type": "uint256"
        },
        {
          "internalType": "uint256",
          "name": "ethRefundForRepayGas",
          "type": "uint256"
        },
        {
          "internalType": "uint256",
          "name": "btcFeeForLoanGas",
          "type": "uint256"
        },
        {
          "internalType": "uint256",
          "name": "btcFeeForRepayGas",
          "type": "uint256"
        },
        {
          "internalType": "uint256",
          "name": "lastUpdateTimestamp",
          "type": "uint256"
        }
      ],
      "name": "setCached",
      "outputs": [],
      "stateMutability": "nonpayable",
      "type": "function"
    },
    {
      "inputs": [
        {
          "internalType": "uint256",
          "name": "ethRefundForLoanGas",
          "type": "uint256"
        }
      ],
      "name": "setEthRefundForLoanGas",
      "outputs": [],
      "stateMutability": "nonpayable",
      "type": "function"
    },
    {
      "inputs": [
        {
          "internalType": "uint256",
          "name": "ethRefundForRepayGas",
          "type": "uint256"
        }
      ],
      "name": "setEthRefundForRepayGas",
      "outputs": [],
      "stateMutability": "nonpayable",
      "type": "function"
    },
    {
      "inputs": [
        {
          "internalType": "uint256",
          "name": "loanGasE4",
          "type": "uint256"
        },
        {
          "internalType": "uint256",
          "name": "repayGasE4",
          "type": "uint256"
        }
      ],
      "name": "setGasParams",
      "outputs": [],
      "stateMutability": "nonpayable",
      "type": "function"
    },
    {
      "inputs": [
        {
          "internalType": "uint256",
          "name": "lastUpdateTimestamp",
          "type": "uint256"
        }
      ],
      "name": "setLastUpdateTimestamp",
      "outputs": [],
      "stateMutability": "nonpayable",
      "type": "function"
    },
    {
      "inputs": [
        {
          "internalType": "uint256",
          "name": "loanGasE4",
          "type": "uint256"
        }
      ],
      "name": "setLoanGasE4",
      "outputs": [],
      "stateMutability": "nonpayable",
      "type": "function"
    },
    {
      "inputs": [
        {
          "internalType": "enum ModuleType",
          "name": "moduleType",
          "type": "uint8"
        }
      ],
      "name": "setModuleType",
      "outputs": [],
      "stateMutability": "nonpayable",
      "type": "function"
    },
    {
      "inputs": [
        {
          "internalType": "uint256",
          "name": "repayGasE4",
          "type": "uint256"
        }
      ],
      "name": "setRepayGasE4",
      "outputs": [],
      "stateMutability": "nonpayable",
      "type": "function"
    },
    {
      "inputs": [
        {
          "internalType": "enum ModuleType",
          "name": "moduleType",
          "type": "uint8"
        },
        {
          "internalType": "uint256",
          "name": "ethRefundForRepayGas",
          "type": "uint256"
        },
        {
          "internalType": "uint256",
          "name": "btcFeeForRepayGas",
          "type": "uint256"
        }
      ],
      "name": "setRepayParams",
      "outputs": [],
      "stateMutability": "nonpayable",
      "type": "function"
    }
  ],
  "bytecode": {
    "object": "0x6080806040523461001657610a99908161001c8239f35b600080fdfe60806040526004361015610013575b600080fd5b60003560e01c80630b9349b91461021b5780631b8905ab146102125780631f9d17561461020957806320600a37146102005780632210fcd2146101f75780634bf31e6e146101ee5780635ec08837146101e5578063630674fd146101dc57806372c6279d146101d35780637663cfd3146101ca57806376af5c00146101c1578063780fdd8c146101b85780637fb50448146101af57806388a33d20146101a65780639019301a1461019d578063abc1662714610194578063ba173c711461018b578063bd147a5c14610182578063c0f8940c14610179578063d244bfb514610170578063e1e4688214610167578063e59f8cbd1461015e578063e5e62b6e14610155578063eb9740d71461014c578063edcc4a45146101435763f268b75d1461013b57600080fd5b61000e610a14565b5061000e6109b4565b5061000e610955565b5061000e6108c3565b5061000e610871565b5061000e610849565b5061000e6107f4565b5061000e61076c565b5061000e610740565b5061000e610701565b5061000e6106dc565b5061000e6106b0565b5061000e61065c565b5061000e610635565b5061000e6105e3565b5061000e610599565b5061000e610540565b5061000e610519565b5061000e6104f4565b5061000e610461565b5061000e61040d565b5061000e6103b4565b5061000e610379565b5061000e6102d3565b5061000e610289565b5061000e610260565b9060038210156102315752565b7f4e487b7100000000000000000000000000000000000000000000000000000000600052602160045260246000fd5b503461000e57600060031936011261000e57602060005460fe1c6102876040518092610224565bf35b503461000e57600060031936011261000e576000546040805162ffffff605684901c81168252603e9390931c909216602083015290f35b0390f35b60043590600382101561000e57565b503461000e57606060031936011261000e576102ed6102c4565b600054906044359060243567ffffffffffffffff811162ffffff84111761034a577f3fffffffffffffffffffc0000000000000003fffffc000003fffffffffffffff92603e1b90606e1b179060fe1b179116176000556000604051f35b7f4e487b7100000000000000000000000000000000000000000000000000000000600052601160045260246000fd5b503461000e57600060031936011261000e5760406000548151906103a0828260fe1c610224565b60ae1c67ffffffffffffffff166020820152f35b503461000e57602060031936011261000e5760005460043567ffffffffffffffff811161034a577fffffffffffffffffffffc0000000000000003fffffffffffffffffffffffffff90606e1b9116176000556000604051f35b503461000e57602060031936011261000e5760005460043562ffffff811161034a577fffffffffffffffffffffffffffffffffffffc000003fffffffffffffffffffff9060561b9116176000556000604051f35b503461000e5761010060031936011261000e5761047c6102c4565b60243560443560643560843560a43560c43560e43562ffffff67ffffffffffffffff9063ffffffff83118185111790851117818611179086111760ff87111760ff88111761034a57601e1b90603e1b179060561b1790606e1b179060ae1b179060ee1b179060f61b179060fe1b176000556000604051f35b503461000e57600060031936011261000e57602060005460f61c60ff16604051908152f35b503461000e57600060031936011261000e57602060005460561c62ffffff16604051908152f35b503461000e57602060031936011261000e5760005460043567ffffffffffffffff811161034a577fffffc0000000000000003fffffffffffffffffffffffffffffffffffffffffff9060ae1b9116176000556000604051f35b503461000e57600060031936011261000e576060600054604051906105c1828260fe1c610224565b80606e1c67ffffffffffffffff166020830152603e1c62ffffff166040820152f35b503461000e57602060031936011261000e5760005460043560ff811161034a577fffc03fffffffffffffffffffffffffffffffffffffffffffffffffffffffffff9060ee1b9116176000556000604051f35b503461000e57600060031936011261000e576020600054603e1c62ffffff16604051908152f35b503461000e57602060031936011261000e5760005460043562ffffff811161034a577fffffffffffffffffffffffffffffffffffffffffffc000003fffffffffffffff90603e1b9116176000556000604051f35b503461000e57600060031936011261000e576020600054606e1c67ffffffffffffffff16604051908152f35b503461000e57600060031936011261000e57602060005460ee1c60ff16604051908152f35b503461000e57600060031936011261000e576102c06000546040519181839260ee1c60ff169060f61c60ff168360209093929193604081019481520152565b503461000e57600060031936011261000e57602060005460ae1c67ffffffffffffffff16604051908152f35b503461000e57600060031936011261000e5761010060005460405190610795828260fe1c610224565b8060f61c60ff1660208301528060ee1c60ff16604083015267ffffffffffffffff8160ae1c8116606084015281606e1c16608083015262ffffff8160561c811660a084015281603e1c1660c0830152601e1c63ffffffff1660e0820152f35b503461000e57602060031936011261000e5760005460043563ffffffff811161034a577fffffffffffffffffffffffffffffffffffffffffffffffffc00000003fffffff90601e1b9116176000556000604051f35b503461000e57600060031936011261000e576020600054601e1c63ffffffff16604051908152f35b503461000e57602060031936011261000e5760005460043560ff811161034a577fc03fffffffffffffffffffffffffffffffffffffffffffffffffffffffffffff9060f61b9116176000556000604051f35b503461000e5760a060031936011261000e5760005460843560043560243560443560643567ffffffffffffffff80851190841162ffffff80851190841163ffffffff89111717171761034a577fffffc0000000000000000000000000000000000000000000000000003fffffff94601e1b90603e1b179060561b1790606e1b179060ae1b179116176000556000604051f35b503461000e57600060031936011261000e5760a06000546040519067ffffffffffffffff8160ae1c8116835281606e1c16602083015262ffffff8160561c8116604084015281603e1c166060830152601e1c63ffffffff166080820152f35b503461000e57604060031936011261000e576004356024356000549160ff821160ff82111761034a577fc0003fffffffffffffffffffffffffffffffffffffffffffffffffffffffffff9160ee1b9060f61b179116176000556000604051f35b503461000e57602060031936011261000e57610a2e6102c4565b7f3fffffffffffffffffffffffffffffffffffffffffffffffffffffffffffffff6000549160fe1b9116176000556000604051f3fea2646970667358221220182838cb6eda23d49d539b0e11c10e0c3ff4aa220dfe78f585622658476dc9a764736f6c634300080f0033",
    "linkReferences": {}
  },
  "methodIdentifiers": {
    "decode()": "c0f8940c",
    "encode(uint8,uint256,uint256,uint256,uint256,uint256,uint256,uint256)": "5ec08837",
    "getBitcoinGasFees()": "1b8905ab",
    "getBtcFeeForLoanGas()": "72c6279d",
    "getBtcFeeForRepayGas()": "7fb50448",
    "getCached()": "eb9740d7",
    "getEthRefundForLoanGas()": "bd147a5c",
    "getEthRefundForRepayGas()": "9019301a",
    "getGasParams()": "ba173c71",
    "getLastUpdateTimestamp()": "e1e46882",
    "getLoanGasE4()": "630674fd",
    "getLoanParams()": "20600a37",
    "getModuleType()": "0b9349b9",
    "getRepayGasE4()": "abc16627",
    "getRepayParams()": "76af5c00",
    "setBtcFeeForLoanGas(uint256)": "4bf31e6e",
    "setBtcFeeForRepayGas(uint256)": "88a33d20",
    "setCached(uint256,uint256,uint256,uint256,uint256)": "e5e62b6e",
    "setEthRefundForLoanGas(uint256)": "7663cfd3",
    "setEthRefundForRepayGas(uint256)": "2210fcd2",
    "setGasParams(uint256,uint256)": "edcc4a45",
    "setLastUpdateTimestamp(uint256)": "d244bfb5",
    "setLoanGasE4(uint256)": "e59f8cbd",
    "setModuleType(uint8)": "f268b75d",
    "setRepayGasE4(uint256)": "780fdd8c",
    "setRepayParams(uint8,uint256,uint256)": "1f9d1756"
  },
  "id": 75
}