{
  "abi": [
    {
      "inputs": [
        {
          "internalType": "uint256",
          "name": "a",
          "type": "uint256"
        }
      ],
      "name": "x",
      "outputs": [],
      "stateMutability": "pure",
      "type": "function"
    }
  ],
  "bytecode": {
    "object": "0x60808060405234601457608b908161001a8239f35b600080fdfe6004361015600c57600080fd5b6000803560e01c633f4263ef14602157600080fd5b3460525760207ffffffffffffffffffffffffffffffffffffffffffffffffffffffffffffffffc3601126052576080f35b80fdfea26469706673582212209f40f80ff576a19a8cec73cf4f2100b78248142da45a23c2a2ff7069d42295db64736f6c634300080f0033",
    "linkReferences": {}
  },
  "methodIdentifiers": {
    "x(uint256)": "3f4263ef"
  },
  "id": 12
}