{
  "abi": [
    {
      "inputs": [
        {
          "internalType": "address",
          "name": "_asset",
          "type": "address"
        },
        {
          "internalType": "string",
          "name": "_name",
          "type": "string"
        },
        {
          "internalType": "string",
          "name": "_symbol",
          "type": "string"
        },
        {
          "internalType": "uint8",
          "name": "_decimals",
          "type": "uint8"
        },
        {
          "internalType": "address",
          "name": "_proxyContract",
          "type": "address"
        },
        {
          "internalType": "string",
          "name": "_version",
          "type": "string"
        }
      ],
      "stateMutability": "nonpayable",
      "type": "constructor"
    },
    {
      "inputs": [],
      "name": "InvalidCompactString",
      "type": "error"
    },
    {
      "inputs": [],
      "name": "InvalidSigner",
      "type": "error"
    },
    {
      "inputs": [],
      "name": "InvalidTypeHash",
      "type": "error"
    },
    {
      "inputs": [
        {
          "internalType": "uint256",
          "name": "deadline",
          "type": "uint256"
        },
        {
          "internalType": "uint256",
          "name": "timestamp",
          "type": "uint256"
        }
      ],
      "name": "PermitDeadlineExpired",
      "type": "error"
    },
    {
      "inputs": [],
      "name": "Reentrancy",
      "type": "error"
    },
    {
      "inputs": [],
      "name": "ZeroShares",
      "type": "error"
    },
    {
      "anonymous": false,
      "inputs": [
        {
          "indexed": true,
          "internalType": "address",
          "name": "owner",
          "type": "address"
        },
        {
          "indexed": true,
          "internalType": "address",
          "name": "spender",
          "type": "address"
        },
        {
          "indexed": false,
          "internalType": "uint256",
          "name": "value",
          "type": "uint256"
        }
      ],
      "name": "Approval",
      "type": "event"
    },
    {
      "anonymous": false,
      "inputs": [
        {
          "indexed": true,
          "internalType": "address",
          "name": "caller",
          "type": "address"
        },
        {
          "indexed": true,
          "internalType": "address",
          "name": "owner",
          "type": "address"
        },
        {
          "indexed": false,
          "internalType": "uint256",
          "name": "assets",
          "type": "uint256"
        },
        {
          "indexed": false,
          "internalType": "uint256",
          "name": "shares",
          "type": "uint256"
        }
      ],
      "name": "Deposit",
      "type": "event"
    },
    {
      "anonymous": false,
      "inputs": [
        {
          "indexed": true,
          "internalType": "address",
          "name": "from",
          "type": "address"
        },
        {
          "indexed": true,
          "internalType": "address",
          "name": "to",
          "type": "address"
        },
        {
          "indexed": false,
          "internalType": "uint256",
          "name": "value",
          "type": "uint256"
        }
      ],
      "name": "Transfer",
      "type": "event"
    },
    {
      "anonymous": false,
      "inputs": [
        {
          "indexed": true,
          "internalType": "address",
          "name": "caller",
          "type": "address"
        },
        {
          "indexed": true,
          "internalType": "address",
          "name": "receiver",
          "type": "address"
        },
        {
          "indexed": true,
          "internalType": "address",
          "name": "owner",
          "type": "address"
        },
        {
          "indexed": false,
          "internalType": "uint256",
          "name": "assets",
          "type": "uint256"
        },
        {
          "indexed": false,
          "internalType": "uint256",
          "name": "shares",
          "type": "uint256"
        }
      ],
      "name": "Withdraw",
      "type": "event"
    },
    {
      "inputs": [],
      "name": "DOMAIN_SEPARATOR",
      "outputs": [
        {
          "internalType": "bytes32",
          "name": "",
          "type": "bytes32"
        }
      ],
      "stateMutability": "view",
      "type": "function"
    },
    {
      "inputs": [
        {
          "internalType": "address",
          "name": "owner",
          "type": "address"
        },
        {
          "internalType": "address",
          "name": "spender",
          "type": "address"
        }
      ],
      "name": "allowance",
      "outputs": [
        {
          "internalType": "uint256",
          "name": "",
          "type": "uint256"
        }
      ],
      "stateMutability": "view",
      "type": "function"
    },
    {
      "inputs": [
        {
          "internalType": "address",
          "name": "spender",
          "type": "address"
        },
        {
          "internalType": "uint256",
          "name": "amount",
          "type": "uint256"
        }
      ],
      "name": "approve",
      "outputs": [
        {
          "internalType": "bool",
          "name": "",
          "type": "bool"
        }
      ],
      "stateMutability": "nonpayable",
      "type": "function"
    },
    {
      "inputs": [],
      "name": "asset",
      "outputs": [
        {
          "internalType": "address",
          "name": "",
          "type": "address"
        }
      ],
      "stateMutability": "view",
      "type": "function"
    },
    {
      "inputs": [
        {
          "internalType": "address",
          "name": "account",
          "type": "address"
        }
      ],
      "name": "balanceOf",
      "outputs": [
        {
          "internalType": "uint256",
          "name": "",
          "type": "uint256"
        }
      ],
      "stateMutability": "view",
      "type": "function"
    },
    {
      "inputs": [
        {
          "internalType": "uint256",
          "name": "shares",
          "type": "uint256"
        }
      ],
      "name": "convertToAssets",
      "outputs": [
        {
          "internalType": "uint256",
          "name": "",
          "type": "uint256"
        }
      ],
      "stateMutability": "view",
      "type": "function"
    },
    {
      "inputs": [
        {
          "internalType": "uint256",
          "name": "assets",
          "type": "uint256"
        }
      ],
      "name": "convertToShares",
      "outputs": [
        {
          "internalType": "uint256",
          "name": "",
          "type": "uint256"
        }
      ],
      "stateMutability": "view",
      "type": "function"
    },
    {
      "inputs": [],
      "name": "decimals",
      "outputs": [
        {
          "internalType": "uint8",
          "name": "",
          "type": "uint8"
        }
      ],
      "stateMutability": "view",
      "type": "function"
    },
    {
      "inputs": [
        {
          "internalType": "uint256",
          "name": "assets",
          "type": "uint256"
        },
        {
          "internalType": "address",
          "name": "receiver",
          "type": "address"
        }
      ],
      "name": "deposit",
      "outputs": [
        {
          "internalType": "uint256",
          "name": "shares",
          "type": "uint256"
        }
      ],
      "stateMutability": "nonpayable",
      "type": "function"
    },
    {
      "inputs": [
        {
          "internalType": "address",
          "name": "",
          "type": "address"
        }
      ],
      "name": "maxDeposit",
      "outputs": [
        {
          "internalType": "uint256",
          "name": "",
          "type": "uint256"
        }
      ],
      "stateMutability": "view",
      "type": "function"
    },
    {
      "inputs": [
        {
          "internalType": "address",
          "name": "",
          "type": "address"
        }
      ],
      "name": "maxMint",
      "outputs": [
        {
          "internalType": "uint256",
          "name": "",
          "type": "uint256"
        }
      ],
      "stateMutability": "view",
      "type": "function"
    },
    {
      "inputs": [
        {
          "internalType": "address",
          "name": "owner",
          "type": "address"
        }
      ],
      "name": "maxRedeem",
      "outputs": [
        {
          "internalType": "uint256",
          "name": "",
          "type": "uint256"
        }
      ],
      "stateMutability": "view",
      "type": "function"
    },
    {
      "inputs": [
        {
          "internalType": "address",
          "name": "owner",
          "type": "address"
        }
      ],
      "name": "maxWithdraw",
      "outputs": [
        {
          "internalType": "uint256",
          "name": "",
          "type": "uint256"
        }
      ],
      "stateMutability": "view",
      "type": "function"
    },
    {
      "inputs": [
        {
          "internalType": "uint256",
          "name": "shares",
          "type": "uint256"
        },
        {
          "internalType": "address",
          "name": "receiver",
          "type": "address"
        }
      ],
      "name": "mint",
      "outputs": [
        {
          "internalType": "uint256",
          "name": "assets",
          "type": "uint256"
        }
      ],
      "stateMutability": "nonpayable",
      "type": "function"
    },
    {
      "inputs": [],
      "name": "name",
      "outputs": [
        {
          "internalType": "string",
          "name": "",
          "type": "string"
        }
      ],
      "stateMutability": "view",
      "type": "function"
    },
    {
      "inputs": [
        {
          "internalType": "address",
          "name": "account",
          "type": "address"
        }
      ],
      "name": "nonces",
      "outputs": [
        {
          "internalType": "uint256",
          "name": "",
          "type": "uint256"
        }
      ],
      "stateMutability": "view",
      "type": "function"
    },
    {
      "inputs": [
        {
          "internalType": "address",
          "name": "owner",
          "type": "address"
        },
        {
          "internalType": "address",
          "name": "spender",
          "type": "address"
        },
        {
          "internalType": "uint256",
          "name": "value",
          "type": "uint256"
        },
        {
          "internalType": "uint256",
          "name": "deadline",
          "type": "uint256"
        },
        {
          "internalType": "uint8",
          "name": "",
          "type": "uint8"
        },
        {
          "internalType": "bytes32",
          "name": "",
          "type": "bytes32"
        },
        {
          "internalType": "bytes32",
          "name": "",
          "type": "bytes32"
        }
      ],
      "name": "permit",
      "outputs": [],
      "stateMutability": "nonpayable",
      "type": "function"
    },
    {
      "inputs": [
        {
          "internalType": "uint256",
          "name": "assets",
          "type": "uint256"
        }
      ],
      "name": "previewDeposit",
      "outputs": [
        {
          "internalType": "uint256",
          "name": "",
          "type": "uint256"
        }
      ],
      "stateMutability": "view",
      "type": "function"
    },
    {
      "inputs": [
        {
          "internalType": "uint256",
          "name": "shares",
          "type": "uint256"
        }
      ],
      "name": "previewMint",
      "outputs": [
        {
          "internalType": "uint256",
          "name": "",
          "type": "uint256"
        }
      ],
      "stateMutability": "view",
      "type": "function"
    },
    {
      "inputs": [
        {
          "internalType": "uint256",
          "name": "shares",
          "type": "uint256"
        }
      ],
      "name": "previewRedeem",
      "outputs": [
        {
          "internalType": "uint256",
          "name": "",
          "type": "uint256"
        }
      ],
      "stateMutability": "view",
      "type": "function"
    },
    {
      "inputs": [
        {
          "internalType": "uint256",
          "name": "assets",
          "type": "uint256"
        }
      ],
      "name": "previewWithdraw",
      "outputs": [
        {
          "internalType": "uint256",
          "name": "",
          "type": "uint256"
        }
      ],
      "stateMutability": "view",
      "type": "function"
    },
    {
      "inputs": [
        {
          "internalType": "uint256",
          "name": "shares",
          "type": "uint256"
        },
        {
          "internalType": "address",
          "name": "receiver",
          "type": "address"
        },
        {
          "internalType": "address",
          "name": "owner",
          "type": "address"
        }
      ],
      "name": "redeem",
      "outputs": [
        {
          "internalType": "uint256",
          "name": "assets",
          "type": "uint256"
        }
      ],
      "stateMutability": "nonpayable",
      "type": "function"
    },
    {
      "inputs": [],
      "name": "symbol",
      "outputs": [
        {
          "internalType": "string",
          "name": "",
          "type": "string"
        }
      ],
      "stateMutability": "view",
      "type": "function"
    },
    {
      "inputs": [],
      "name": "totalAssets",
      "outputs": [
        {
          "internalType": "uint256",
          "name": "",
          "type": "uint256"
        }
      ],
      "stateMutability": "view",
      "type": "function"
    },
    {
      "inputs": [],
      "name": "totalSupply",
      "outputs": [
        {
          "internalType": "uint256",
          "name": "",
          "type": "uint256"
        }
      ],
      "stateMutability": "view",
      "type": "function"
    },
    {
      "inputs": [
        {
          "internalType": "address",
          "name": "to",
          "type": "address"
        },
        {
          "internalType": "uint256",
          "name": "amount",
          "type": "uint256"
        }
      ],
      "name": "transfer",
      "outputs": [
        {
          "internalType": "bool",
          "name": "",
          "type": "bool"
        }
      ],
      "stateMutability": "nonpayable",
      "type": "function"
    },
    {
      "inputs": [
        {
          "internalType": "address",
          "name": "from",
          "type": "address"
        },
        {
          "internalType": "address",
          "name": "to",
          "type": "address"
        },
        {
          "internalType": "uint256",
          "name": "amount",
          "type": "uint256"
        }
      ],
      "name": "transferFrom",
      "outputs": [
        {
          "internalType": "bool",
          "name": "",
          "type": "bool"
        }
      ],
      "stateMutability": "nonpayable",
      "type": "function"
    },
    {
      "inputs": [
        {
          "internalType": "uint256",
          "name": "assets",
          "type": "uint256"
        },
        {
          "internalType": "address",
          "name": "receiver",
          "type": "address"
        },
        {
          "internalType": "address",
          "name": "owner",
          "type": "address"
        }
      ],
      "name": "withdraw",
      "outputs": [
        {
          "internalType": "uint256",
          "name": "shares",
          "type": "uint256"
        }
      ],
      "stateMutability": "nonpayable",
      "type": "function"
    }
  ],
  "bytecode": {
    "object": "0x6101a060405234620000a8576200002662000019620001c2565b9493909392919262000274565b60405161194b908162000480823960805181610318015260a05181610bbc015260c0518161072f015260e051816113c5015261010051816113010152610120518161132701526101405181611373015261016051816113990152610180518181816107d9015281816108c601528181610ae801528181610df8015261152c0152f35b600080fd5b50634e487b7160e01b600052604160045260246000fd5b60405190608082016001600160401b03811183821017620000e457604052565b620000ee620000ad565b604052565b6040519190601f01601f191682016001600160401b03811183821017620000e457604052565b51906001600160a01b0382168203620000a857565b81601f82011215620000a8578051906001600160401b038211620001b2575b60209062000164601f8401601f19168301620000f3565b93838552828483010111620000a85782906000905b8383831062000199575050116200018f57505090565b6000918301015290565b8193508281939201015182828801015201839162000179565b620001bc620000ad565b6200014d565b62001dcb80380380620001d581620000f3565b928339810160c082820312620000a857620001f08262000119565b60208301516001600160401b039190828111620000a85783620002159186016200012e565b946040850151838111620000a85784620002319187016200012e565b9460608101519460ff86168603620000a857620002516080830162000119565b9460a0830151908111620000a8576200026b92016200012e565b91959493929190565b949391926200029360a0946200028a846200045c565b6080526200045c565b845260c0528160e05246610100526020815191012092836101405260208151910120908161016052604051917f8b73c3c69bb8fe3d512ecc4cf759cc79239f7b179b0ffacaa9a75d522b39400f9485845260208401526040830152466060830152600180841b0316608082015220610120526200030f620003e4565b60208151910120036200035a57620003266200036c565b602081519101207f6e71edae12b1b97f4d1f60370fef10105fa2faae0126114a169c64845d6126c9036200035a5761018052565b6040516316b17d2960e21b8152600490fd5b62000376620000c4565b9060528252712c75696e7432353620646561646c696e652960701b6060837f5065726d69742861646472657373206f776e65722c616464726573732073706560208201527f6e6465722c75696e743235362076616c75652c75696e74323536206e6f6e636560408201520152565b620003ee620000c4565b906052825271766572696679696e67436f6e74726163742960701b6060837f454950373132446f6d61696e28737472696e67206e616d652c737472696e672060208201527f76657273696f6e2c75696e7432353620636861696e49642c616464726573732060408201520152565b601f8151116200046d57601f015190565b604051636e29c55b60e01b8152600490fdfe60806040526004361015610013575b600080fd5b60003560e01c806301e1d1141461022857806306fdde031461021f57806307a2d13a146101d7578063095ea7b3146102165780630a28a4771461020d57806318160ddd1461020457806323b872dd146101fb578063313ce567146101f25780633644e515146101e957806338d52e0f146101e0578063402d267d146101865780634cdad506146101d75780636e553f65146101ce57806370a08231146101625780637ecebe00146101c557806394bf804d146101bc57806395d89b41146101b3578063a9059cbb146101aa578063b3d7f6b9146101a1578063b460af9414610198578063ba0876521461018f578063c63d75b614610186578063c6e6f5921461017d578063ce96cb7714610174578063d505accf1461016b578063d905777e14610162578063dd62ed3e146101595763ef8b30f71461015157600080fd5b61000e61101c565b5061000e611221565b5061000e6109bb565b5061000e6110bf565b5061000e611059565b5061000e61101c565b5061000e6107fd565b5061000e610eda565b5061000e610d5d565b5061000e610cc0565b5061000e610bf9565b5061000e610b84565b5061000e610a87565b5061000e610a21565b5061000e610860565b5061000e610365565b5061000e61078d565b5061000e610753565b5061000e6106f6565b5061000e610525565b5061000e6104e8565b5061000e6104ab565b5061000e6103e8565b5061000e6102e0565b503461000e5760007ffffffffffffffffffffffffffffffffffffffffffffffffffffffffffffffffc36011261000e5760206102626114e2565b604051908152f35b919091602080825283519081818401526000945b8286106102ca575050601f817fffffffffffffffffffffffffffffffffffffffffffffffffffffffffffffffe09260409596116102bd575b0116010190565b60008582860101526102b6565b858101820151848701604001529481019461027e565b503461000e5760007ffffffffffffffffffffffffffffffffffffffffffffffffffffffffffffffffc36011261000e576103616103557f0000000000000000000000000000000000000000000000000000000000000000906040519160408301604052601f8360008152600060208201520152565b6040519182918261026a565b0390f35b503461000e5760207ffffffffffffffffffffffffffffffffffffffffffffffffffffffffffffffffc36011261000e576020610262600435611617565b6004359073ffffffffffffffffffffffffffffffffffffffff8216820361000e57565b6024359073ffffffffffffffffffffffffffffffffffffffff8216820361000e57565b503461000e5760407ffffffffffffffffffffffffffffffffffffffffffffffffffffffffffffffffc36011261000e576104206103a2565b73ffffffffffffffffffffffffffffffffffffffff60243591336000526002602052826104718260406000209073ffffffffffffffffffffffffffffffffffffffff16600052602052604060002090565b5560405192835216907f8c5be1e5ebec7d5bd14f71427d1e84f3dd0314c0f7b2291e5b200ac8c7c3b92560203392a3602060405160018152f35b503461000e5760207ffffffffffffffffffffffffffffffffffffffffffffffffffffffffffffffffc36011261000e576020610262600435611653565b503461000e5760007ffffffffffffffffffffffffffffffffffffffffffffffffffffffffffffffffc36011261000e576020600054604051908152f35b503461000e5760607ffffffffffffffffffffffffffffffffffffffffffffffffffffffffffffffffc36011261000e5761055d6103a2565b6105656103c5565b907fddf252ad1be2c89b69c2b068fc378daa952ba7f163c4a11628f55a4df523b3ef6044359273ffffffffffffffffffffffffffffffffffffffff9061063082851694856000526002602052866105df60406000203373ffffffffffffffffffffffffffffffffffffffff16600052602052604060002090565b547fffffffffffffffffffffffffffffffffffffffffffffffffffffffffffffffff8103610685575b505073ffffffffffffffffffffffffffffffffffffffff166000526001602052604060002090565b61063b8682546112e7565b90556106678173ffffffffffffffffffffffffffffffffffffffff166000526001602052604060002090565b8054860190556040519485521692602090a360405160018152602090f35b8181106106e9575b036106e1336106bc8473ffffffffffffffffffffffffffffffffffffffff166000526002602052604060002090565b9073ffffffffffffffffffffffffffffffffffffffff16600052602052604060002090565b558638610608565b6106f16112b7565b61068d565b503461000e5760007ffffffffffffffffffffffffffffffffffffffffffffffffffffffffffffffffc36011261000e57602060405160ff7f0000000000000000000000000000000000000000000000000000000000000000168152f35b503461000e5760007ffffffffffffffffffffffffffffffffffffffffffffffffffffffffffffffffc36011261000e5760206102626112fe565b503461000e5760007ffffffffffffffffffffffffffffffffffffffffffffffffffffffffffffffffc36011261000e57602060405173ffffffffffffffffffffffffffffffffffffffff7f0000000000000000000000000000000000000000000000000000000000000000168152f35b503461000e5760207ffffffffffffffffffffffffffffffffffffffffffffffffffffffffffffffffc36011261000e576108356103a2565b5060206040517fffffffffffffffffffffffffffffffffffffffffffffffffffffffffffffffff8152f35b503461000e5760407ffffffffffffffffffffffffffffffffffffffffffffffffffffffffffffffffc36011261000e5760043561089b6103c5565b6001600454036109915760026004556108b3826115f8565b90811561096757826108ea6103619430337f00000000000000000000000000000000000000000000000000000000000000006116d0565b6108f483836113ed565b7fdcbc1c05240f31ff3ad067ef1ee35ce4997762752e3a095284754544f4c709d773ffffffffffffffffffffffffffffffffffffffff6040519316928061094a8633958360209093929193604081019481520152565b0390a36109576001600455565b6040519081529081906020820190565b60046040517f9811e0c7000000000000000000000000000000000000000000000000000000008152fd5b60046040517fab143c06000000000000000000000000000000000000000000000000000000008152fd5b503461000e5760207ffffffffffffffffffffffffffffffffffffffffffffffffffffffffffffffffc36011261000e5773ffffffffffffffffffffffffffffffffffffffff610a086103a2565b1660005260016020526020604060002054604051908152f35b503461000e5760207ffffffffffffffffffffffffffffffffffffffffffffffffffffffffffffffffc36011261000e5773ffffffffffffffffffffffffffffffffffffffff610a6e6103a2565b1660005260036020526020604060002054604051908152f35b503461000e5760407ffffffffffffffffffffffffffffffffffffffffffffffffffffffffffffffffc36011261000e57600435610ac26103c5565b9060016004540361099157610361916002600455610adf82611635565b91610b0c8330337f00000000000000000000000000000000000000000000000000000000000000006116d0565b610b1681836113ed565b7fdcbc1c05240f31ff3ad067ef1ee35ce4997762752e3a095284754544f4c709d773ffffffffffffffffffffffffffffffffffffffff60405193169280610b6c3394878360209093929193604081019481520152565b0390a360016004556040519081529081906020820190565b503461000e5760007ffffffffffffffffffffffffffffffffffffffffffffffffffffffffffffffffc36011261000e576103616103557f0000000000000000000000000000000000000000000000000000000000000000906040519160408301604052601f8360008152600060208201520152565b503461000e5760407ffffffffffffffffffffffffffffffffffffffffffffffffffffffffffffffffc36011261000e57610c316103a2565b73ffffffffffffffffffffffffffffffffffffffff602435913360005260016020526040600020838154818110610cb3575b039055169081600052600160205260406000208181540190556040519081527fddf252ad1be2c89b69c2b068fc378daa952ba7f163c4a11628f55a4df523b3ef60203392a3602060405160018152f35b610cbb6112b7565b610c63565b503461000e5760207ffffffffffffffffffffffffffffffffffffffffffffffffffffffffffffffffc36011261000e576020610262600435611635565b7ffffffffffffffffffffffffffffffffffffffffffffffffffffffffffffffffc606091011261000e576004359073ffffffffffffffffffffffffffffffffffffffff90602435828116810361000e5791604435908116810361000e5790565b503461000e57610d6c36610cfd565b906001600454036109915761036192610e1c916002600455610d8d82611653565b9373ffffffffffffffffffffffffffffffffffffffff610db78682841693843303610e2657611460565b60408051858152602081018890529184169133917ffbde797d201c681b91056529119e0b02407c7bb96a4a2c75c01fc9667232c8db9190819081015b0390a47f0000000000000000000000000000000000000000000000000000000000000000611787565b6109576001600455565b84600052600260205281610e5e3360406000209073ffffffffffffffffffffffffffffffffffffffff16600052602052604060002090565b547fffffffffffffffffffffffffffffffffffffffffffffffffffffffffffffffff8103610e8e575b5050611460565b818110610ecd575b03610ec5336106bc8473ffffffffffffffffffffffffffffffffffffffff166000526002602052604060002090565b558138610e87565b610ed56112b7565b610e96565b503461000e57610ee936610cfd565b9160016004540361099157600260045573ffffffffffffffffffffffffffffffffffffffff9283811692833303610f7e575b610f2483611617565b938415610967576103619584610f3e610e1c968896611460565b6040805186815260208101929092529184169133917ffbde797d201c681b91056529119e0b02407c7bb96a4a2c75c01fc9667232c8db9181908101610df3565b610fac336106bc8473ffffffffffffffffffffffffffffffffffffffff166000526002602052604060002090565b54837fffffffffffffffffffffffffffffffffffffffffffffffffffffffffffffffff8203610fdd575b5050610f1b565b610fe6916112e7565b611014336106bc8573ffffffffffffffffffffffffffffffffffffffff166000526002602052604060002090565b553883610fd6565b503461000e5760207ffffffffffffffffffffffffffffffffffffffffffffffffffffffffffffffffc36011261000e5760206102626004356115f8565b503461000e5760207ffffffffffffffffffffffffffffffffffffffffffffffffffffffffffffffffc36011261000e5773ffffffffffffffffffffffffffffffffffffffff6110a66103a2565b1660005260016020526020610262604060002054611617565b503461000e5760e07ffffffffffffffffffffffffffffffffffffffffffffffffffffffffffffffffc36011261000e576110f76103a2565b6110ff6103c5565b604435916064359160843560ff81160361000e574283106111e9579081846111cd7f8c5be1e5ebec7d5bd14f71427d1e84f3dd0314c0f7b2291e5b200ac8c7c3b925946106bc73ffffffffffffffffffffffffffffffffffffffff956111a7878216998a600052600360205260406000208054907fffffffffffffffffffffffffffffffffffffffffffffffffffffffffffffffff82146111dc575b60018201905583611838565b73ffffffffffffffffffffffffffffffffffffffff166000526002602052604060002090565b556040519485521692602090a3005b6111e46112b7565b61119b565b6040517fc4773cba00000000000000000000000000000000000000000000000000000000815260048101849052426024820152604490fd5b503461000e5760407ffffffffffffffffffffffffffffffffffffffffffffffffffffffffffffffffc36011261000e5760206112ae61125e6103a2565b73ffffffffffffffffffffffffffffffffffffffff61127b6103c5565b91166000526002835260406000209073ffffffffffffffffffffffffffffffffffffffff16600052602052604060002090565b54604051908152f35b507f4e487b7100000000000000000000000000000000000000000000000000000000600052601160045260246000fd5b8181106112f2570390565b6112fa6112b7565b0390565b467f000000000000000000000000000000000000000000000000000000000000000003611349577f000000000000000000000000000000000000000000000000000000000000000090565b60a06040517f8b73c3c69bb8fe3d512ecc4cf759cc79239f7b179b0ffacaa9a75d522b39400f81527f000000000000000000000000000000000000000000000000000000000000000060208201527f000000000000000000000000000000000000000000000000000000000000000060408201524660608201527f000000000000000000000000000000000000000000000000000000000000000060808201522090565b7fddf252ad1be2c89b69c2b068fc378daa952ba7f163c4a11628f55a4df523b3ef602073ffffffffffffffffffffffffffffffffffffffff60009385855481198111611453575b01855516938484526001825260408420818154019055604051908152a3565b61145b6112b7565b611434565b907fddf252ad1be2c89b69c2b068fc378daa952ba7f163c4a11628f55a4df523b3ef602073ffffffffffffffffffffffffffffffffffffffff600094169283855260018252604085208181548181106114c6575b039055808554038555604051908152a3565b6114ce6112b7565b6114b4565b9081602091031261000e575190565b604051907f70a0823100000000000000000000000000000000000000000000000000000000825230600483015260208260248173ffffffffffffffffffffffffffffffffffffffff7f0000000000000000000000000000000000000000000000000000000000000000165afa9182156115ec5760009261155f5750565b60203d81116115e5575b7fffffffffffffffffffffffffffffffffffffffffffffffffffffffffffffffe0601f820116820182811067ffffffffffffffff8211176115b8576115b59394506040528101906114d3565b90565b6024857f4e487b710000000000000000000000000000000000000000000000000000000081526041600452fd5b503d611569565b6040513d6000823e3d90fd5b60005480611604575090565b906115b5916116116114e2565b91611672565b60005480611623575090565b6115b59161162f6114e2565b90611672565b60005480611641575090565b6115b59161164d6114e2565b9061168a565b6000548061165f575090565b906115b59161166c6114e2565b9161168a565b8181029181830414901517821515161561000e570490565b9190918281029281840414901517811515161561000e576001907fffffffffffffffffffffffffffffffffffffffffffffffffffffffffffffffff830104019015150290565b9060006064926020958295604051947f23b872dd0000000000000000000000000000000000000000000000000000000086526004860152602485015260448401525af13d15601f3d116001600051141617161561172957565b60646040517f08c379a000000000000000000000000000000000000000000000000000000000815260206004820152601460248201527f5452414e534645525f46524f4d5f4641494c45440000000000000000000000006044820152fd5b60009182604492602095604051937fa9059cbb000000000000000000000000000000000000000000000000000000008552600485015260248401525af13d15601f3d11600160005114161716156117da57565b60646040517f08c379a000000000000000000000000000000000000000000000000000000000815260206004820152600f60248201527f5452414e534645525f4641494c454400000000000000000000000000000000006044820152fd5b91608051916118d960a05194604051936118506112fe565b906000947f6e71edae12b1b97f4d1f60370fef10105fa2faae0126114a169c64845d6126c986526060600460203760805260a05260c08420907f190100000000000000000000000000000000000000000000000000000000000085526002526022526042832083526060608460203760208360808160015afa9083518114901515161615151590565b6118eb5760605260405260805260a052565b60046040517f815e1d64000000000000000000000000000000000000000000000000000000008152fdfea26469706673582212209df4be3cfc89df02e64d753f2478ee8bc5c0858201196636948df4bcbcaa4a3964736f6c634300080f0033",
    "linkReferences": {}
  },
  "methodIdentifiers": {
    "DOMAIN_SEPARATOR()": "3644e515",
    "allowance(address,address)": "dd62ed3e",
    "approve(address,uint256)": "095ea7b3",
    "asset()": "38d52e0f",
    "balanceOf(address)": "70a08231",
    "convertToAssets(uint256)": "07a2d13a",
    "convertToShares(uint256)": "c6e6f592",
    "decimals()": "313ce567",
    "deposit(uint256,address)": "6e553f65",
    "maxDeposit(address)": "402d267d",
    "maxMint(address)": "c63d75b6",
    "maxRedeem(address)": "d905777e",
    "maxWithdraw(address)": "ce96cb77",
    "mint(uint256,address)": "94bf804d",
    "name()": "06fdde03",
    "nonces(address)": "7ecebe00",
    "permit(address,address,uint256,uint256,uint8,bytes32,bytes32)": "d505accf",
    "previewDeposit(uint256)": "ef8b30f7",
    "previewMint(uint256)": "b3d7f6b9",
    "previewRedeem(uint256)": "4cdad506",
    "previewWithdraw(uint256)": "0a28a477",
    "redeem(uint256,address,address)": "ba087652",
    "symbol()": "95d89b41",
    "totalAssets()": "01e1d114",
    "totalSupply()": "18160ddd",
    "transfer(address,uint256)": "a9059cbb",
    "transferFrom(address,address,uint256)": "23b872dd",
    "withdraw(uint256,address,address)": "b460af94"
  },
  "id": 39
}