{
  "abi": [
    {
      "inputs": [
        {
          "internalType": "address",
          "name": "_proxyContract",
          "type": "address"
        },
        {
          "internalType": "string",
          "name": "_name",
          "type": "string"
        },
        {
          "internalType": "string",
          "name": "_symbol",
          "type": "string"
        },
        {
          "internalType": "uint8",
          "name": "_decimals",
          "type": "uint8"
        },
        {
          "internalType": "string",
          "name": "_version",
          "type": "string"
        }
      ],
      "stateMutability": "nonpayable",
      "type": "constructor"
    },
    {
      "inputs": [],
      "name": "InvalidCompactString",
      "type": "error"
    },
    {
      "inputs": [],
      "name": "InvalidSigner",
      "type": "error"
    },
    {
      "inputs": [],
      "name": "InvalidTypeHash",
      "type": "error"
    },
    {
      "inputs": [
        {
          "internalType": "uint256",
          "name": "deadline",
          "type": "uint256"
        },
        {
          "internalType": "uint256",
          "name": "timestamp",
          "type": "uint256"
        }
      ],
      "name": "PermitDeadlineExpired",
      "type": "error"
    },
    {
      "anonymous": false,
      "inputs": [
        {
          "indexed": true,
          "internalType": "address",
          "name": "owner",
          "type": "address"
        },
        {
          "indexed": true,
          "internalType": "address",
          "name": "spender",
          "type": "address"
        },
        {
          "indexed": false,
          "internalType": "uint256",
          "name": "value",
          "type": "uint256"
        }
      ],
      "name": "Approval",
      "type": "event"
    },
    {
      "anonymous": false,
      "inputs": [
        {
          "indexed": true,
          "internalType": "address",
          "name": "from",
          "type": "address"
        },
        {
          "indexed": true,
          "internalType": "address",
          "name": "to",
          "type": "address"
        },
        {
          "indexed": false,
          "internalType": "uint256",
          "name": "value",
          "type": "uint256"
        }
      ],
      "name": "Transfer",
      "type": "event"
    },
    {
      "inputs": [],
      "name": "DOMAIN_SEPARATOR",
      "outputs": [
        {
          "internalType": "bytes32",
          "name": "",
          "type": "bytes32"
        }
      ],
      "stateMutability": "view",
      "type": "function"
    },
    {
      "inputs": [
        {
          "internalType": "address",
          "name": "owner",
          "type": "address"
        },
        {
          "internalType": "address",
          "name": "spender",
          "type": "address"
        }
      ],
      "name": "allowance",
      "outputs": [
        {
          "internalType": "uint256",
          "name": "",
          "type": "uint256"
        }
      ],
      "stateMutability": "view",
      "type": "function"
    },
    {
      "inputs": [
        {
          "internalType": "address",
          "name": "spender",
          "type": "address"
        },
        {
          "internalType": "uint256",
          "name": "amount",
          "type": "uint256"
        }
      ],
      "name": "approve",
      "outputs": [
        {
          "internalType": "bool",
          "name": "",
          "type": "bool"
        }
      ],
      "stateMutability": "nonpayable",
      "type": "function"
    },
    {
      "inputs": [
        {
          "internalType": "address",
          "name": "account",
          "type": "address"
        }
      ],
      "name": "balanceOf",
      "outputs": [
        {
          "internalType": "uint256",
          "name": "",
          "type": "uint256"
        }
      ],
      "stateMutability": "view",
      "type": "function"
    },
    {
      "inputs": [],
      "name": "decimals",
      "outputs": [
        {
          "internalType": "uint8",
          "name": "",
          "type": "uint8"
        }
      ],
      "stateMutability": "view",
      "type": "function"
    },
    {
      "inputs": [],
      "name": "name",
      "outputs": [
        {
          "internalType": "string",
          "name": "",
          "type": "string"
        }
      ],
      "stateMutability": "view",
      "type": "function"
    },
    {
      "inputs": [
        {
          "internalType": "address",
          "name": "account",
          "type": "address"
        }
      ],
      "name": "nonces",
      "outputs": [
        {
          "internalType": "uint256",
          "name": "",
          "type": "uint256"
        }
      ],
      "stateMutability": "view",
      "type": "function"
    },
    {
      "inputs": [
        {
          "internalType": "address",
          "name": "owner",
          "type": "address"
        },
        {
          "internalType": "address",
          "name": "spender",
          "type": "address"
        },
        {
          "internalType": "uint256",
          "name": "value",
          "type": "uint256"
        },
        {
          "internalType": "uint256",
          "name": "deadline",
          "type": "uint256"
        },
        {
          "internalType": "uint8",
          "name": "",
          "type": "uint8"
        },
        {
          "internalType": "bytes32",
          "name": "",
          "type": "bytes32"
        },
        {
          "internalType": "bytes32",
          "name": "",
          "type": "bytes32"
        }
      ],
      "name": "permit",
      "outputs": [],
      "stateMutability": "nonpayable",
      "type": "function"
    },
    {
      "inputs": [],
      "name": "symbol",
      "outputs": [
        {
          "internalType": "string",
          "name": "",
          "type": "string"
        }
      ],
      "stateMutability": "view",
      "type": "function"
    },
    {
      "inputs": [],
      "name": "totalSupply",
      "outputs": [
        {
          "internalType": "uint256",
          "name": "",
          "type": "uint256"
        }
      ],
      "stateMutability": "view",
      "type": "function"
    },
    {
      "inputs": [
        {
          "internalType": "address",
          "name": "to",
          "type": "address"
        },
        {
          "internalType": "uint256",
          "name": "amount",
          "type": "uint256"
        }
      ],
      "name": "transfer",
      "outputs": [
        {
          "internalType": "bool",
          "name": "",
          "type": "bool"
        }
      ],
      "stateMutability": "nonpayable",
      "type": "function"
    },
    {
      "inputs": [
        {
          "internalType": "address",
          "name": "from",
          "type": "address"
        },
        {
          "internalType": "address",
          "name": "to",
          "type": "address"
        },
        {
          "internalType": "uint256",
          "name": "amount",
          "type": "uint256"
        }
      ],
      "name": "transferFrom",
      "outputs": [
        {
          "internalType": "bool",
          "name": "",
          "type": "bool"
        }
      ],
      "stateMutability": "nonpayable",
      "type": "function"
    }
  ],
  "bytecode": {
    "object": "0x610180604052346200008157620000256200001962000195565b909392809293620002b7565b604051610c0f9081620004488239608051816101ba015260a051816106c1015260c05181610557015260e05181610a9a015261010051816109d6015261012051816109fc01526101405181610a4801526101605181610a6e0152f35b600080fd5b50634e487b7160e01b600052604160045260246000fd5b60405190608082016001600160401b03811183821017620000bd57604052565b620000c762000086565b604052565b6040519190601f01601f191682016001600160401b03811183821017620000bd57604052565b81601f8201121562000081578051906001600160401b03821162000176575b60209062000128601f8401601f19168301620000cc565b93838552828483010111620000815782906000905b838383106200015d575050116200015357505090565b6000918301015290565b819350828193920101518282880101520183916200013d565b6200018062000086565b62000111565b519060ff821682036200008157565b620010579081380380620001a981620000cc565b93843982019060a083830312620000815782516001600160a01b0381168103620000815760208401516001600160401b039290838111620000815784620001f2918701620000f2565b9460408101518481116200008157856200020e918301620000f2565b946200021d6060830162000186565b9460808301519081116200008157620002379201620000f2565b919493929190565b620002496200009d565b9060528252712c75696e7432353620646561646c696e652960701b6060837f5065726d69742861646472657373206f776e65722c616464726573732073706560208201527f6e6465722c75696e743235362076616c75652c75696e74323536206e6f6e636560408201520152565b9260a094620002ce620002d7929793949762000424565b60805262000424565b845260c0528160e05246610100526020815191012092836101405260208151910120908161016052604051917f8b73c3c69bb8fe3d512ecc4cf759cc79239f7b179b0ffacaa9a75d522b39400f9485845260208401526040830152466060830152600180841b03166080820152206101205262000353620003ac565b60208151910120036200039a576200036a6200023f565b602081519101207f6e71edae12b1b97f4d1f60370fef10105fa2faae0126114a169c64845d6126c9036200039a57565b6040516316b17d2960e21b8152600490fd5b620003b66200009d565b906052825271766572696679696e67436f6e74726163742960701b6060837f454950373132446f6d61696e28737472696e67206e616d652c737472696e672060208201527f76657273696f6e2c75696e7432353620636861696e49642c616464726573732060408201520152565b601f8151116200043557601f015190565b604051636e29c55b60e01b8152600490fdfe60806040526004361015610013575b600080fd5b60003560e01c806306fdde0314610103578063095ea7b3146100fa57806318160ddd146100f157806323b872dd146100e8578063313ce567146100df5780633644e515146100d657806370a08231146100cd5780637ecebe00146100c457806395d89b41146100bb578063a9059cbb146100b2578063d505accf146100a95763dd62ed3e146100a157600080fd5b61000e6108f6565b5061000e6107c5565b5061000e6106fe565b5061000e610689565b5061000e610623565b5061000e6105bd565b5061000e61057b565b5061000e61051e565b5061000e61034d565b5061000e610310565b5061000e61024d565b5061000e610182565b919091602080825283519081818401526000945b82861061016c575050601f817fffffffffffffffffffffffffffffffffffffffffffffffffffffffffffffffe092604095961161015f575b0116010190565b6000858286010152610158565b8581018201518487016040015294810194610120565b503461000e5760007ffffffffffffffffffffffffffffffffffffffffffffffffffffffffffffffffc36011261000e576102036101f77f0000000000000000000000000000000000000000000000000000000000000000906040519160408301604052601f8360008152600060208201520152565b6040519182918261010c565b0390f35b6004359073ffffffffffffffffffffffffffffffffffffffff8216820361000e57565b6024359073ffffffffffffffffffffffffffffffffffffffff8216820361000e57565b503461000e5760407ffffffffffffffffffffffffffffffffffffffffffffffffffffffffffffffffc36011261000e57610285610207565b73ffffffffffffffffffffffffffffffffffffffff60243591336000526002602052826102d68260406000209073ffffffffffffffffffffffffffffffffffffffff16600052602052604060002090565b5560405192835216907f8c5be1e5ebec7d5bd14f71427d1e84f3dd0314c0f7b2291e5b200ac8c7c3b92560203392a3602060405160018152f35b503461000e5760007ffffffffffffffffffffffffffffffffffffffffffffffffffffffffffffffffc36011261000e576020600054604051908152f35b503461000e5760607ffffffffffffffffffffffffffffffffffffffffffffffffffffffffffffffffc36011261000e57610385610207565b61038d61022a565b907fddf252ad1be2c89b69c2b068fc378daa952ba7f163c4a11628f55a4df523b3ef6044359273ffffffffffffffffffffffffffffffffffffffff90610458828516948560005260026020528661040760406000203373ffffffffffffffffffffffffffffffffffffffff16600052602052604060002090565b547fffffffffffffffffffffffffffffffffffffffffffffffffffffffffffffffff81036104ad575b505073ffffffffffffffffffffffffffffffffffffffff166000526001602052604060002090565b6104638682546109bc565b905561048f8173ffffffffffffffffffffffffffffffffffffffff166000526001602052604060002090565b8054860190556040519485521692602090a360405160018152602090f35b818110610511575b03610509336104e48473ffffffffffffffffffffffffffffffffffffffff166000526002602052604060002090565b9073ffffffffffffffffffffffffffffffffffffffff16600052602052604060002090565b558638610430565b61051961098c565b6104b5565b503461000e5760007ffffffffffffffffffffffffffffffffffffffffffffffffffffffffffffffffc36011261000e57602060405160ff7f0000000000000000000000000000000000000000000000000000000000000000168152f35b503461000e5760007ffffffffffffffffffffffffffffffffffffffffffffffffffffffffffffffffc36011261000e5760206105b56109d3565b604051908152f35b503461000e5760207ffffffffffffffffffffffffffffffffffffffffffffffffffffffffffffffffc36011261000e5773ffffffffffffffffffffffffffffffffffffffff61060a610207565b1660005260016020526020604060002054604051908152f35b503461000e5760207ffffffffffffffffffffffffffffffffffffffffffffffffffffffffffffffffc36011261000e5773ffffffffffffffffffffffffffffffffffffffff610670610207565b1660005260036020526020604060002054604051908152f35b503461000e5760007ffffffffffffffffffffffffffffffffffffffffffffffffffffffffffffffffc36011261000e576102036101f77f0000000000000000000000000000000000000000000000000000000000000000906040519160408301604052601f8360008152600060208201520152565b503461000e5760407ffffffffffffffffffffffffffffffffffffffffffffffffffffffffffffffffc36011261000e57610736610207565b73ffffffffffffffffffffffffffffffffffffffff6024359133600052600160205260406000208381548181106107b8575b039055169081600052600160205260406000208181540190556040519081527fddf252ad1be2c89b69c2b068fc378daa952ba7f163c4a11628f55a4df523b3ef60203392a3602060405160018152f35b6107c061098c565b610768565b503461000e5760e07ffffffffffffffffffffffffffffffffffffffffffffffffffffffffffffffffc36011261000e576107fd610207565b61080561022a565b604435916064359160843560ff81160361000e574283106108bf579081846108b07f8c5be1e5ebec7d5bd14f71427d1e84f3dd0314c0f7b2291e5b200ac8c7c3b925946104e473ffffffffffffffffffffffffffffffffffffffff9561088a878216998a6000526003602052604060002080549061088282610ac2565b905583610afc565b73ffffffffffffffffffffffffffffffffffffffff166000526002602052604060002090565b556040519485521692602090a3005b604483604051907fc4773cba0000000000000000000000000000000000000000000000000000000082526004820152426024820152fd5b503461000e5760407ffffffffffffffffffffffffffffffffffffffffffffffffffffffffffffffffc36011261000e576020610983610933610207565b73ffffffffffffffffffffffffffffffffffffffff61095061022a565b91166000526002835260406000209073ffffffffffffffffffffffffffffffffffffffff16600052602052604060002090565b54604051908152f35b507f4e487b7100000000000000000000000000000000000000000000000000000000600052601160045260246000fd5b8181106109c7570390565b6109cf61098c565b0390565b467f000000000000000000000000000000000000000000000000000000000000000003610a1e577f000000000000000000000000000000000000000000000000000000000000000090565b60a06040517f8b73c3c69bb8fe3d512ecc4cf759cc79239f7b179b0ffacaa9a75d522b39400f81527f000000000000000000000000000000000000000000000000000000000000000060208201527f000000000000000000000000000000000000000000000000000000000000000060408201524660608201527f000000000000000000000000000000000000000000000000000000000000000060808201522090565b6001907fffffffffffffffffffffffffffffffffffffffffffffffffffffffffffffffff8114610af0570190565b610af861098c565b0190565b9160805191610b9d60a0519460405193610b146109d3565b906000947f6e71edae12b1b97f4d1f60370fef10105fa2faae0126114a169c64845d6126c986526060600460203760805260a05260c08420907f190100000000000000000000000000000000000000000000000000000000000085526002526022526042832083526060608460203760208360808160015afa9083518114901515161615151590565b610baf5760605260405260805260a052565b60046040517f815e1d64000000000000000000000000000000000000000000000000000000008152fdfea2646970667358221220c45bbc65ba909e43dce704a043c75bd3561715578a0d7f06c231e63f2e9745ec64736f6c634300080f0033",
    "linkReferences": {}
  },
  "methodIdentifiers": {
    "DOMAIN_SEPARATOR()": "3644e515",
    "allowance(address,address)": "dd62ed3e",
    "approve(address,uint256)": "095ea7b3",
    "balanceOf(address)": "70a08231",
    "decimals()": "313ce567",
    "name()": "06fdde03",
    "nonces(address)": "7ecebe00",
    "permit(address,address,uint256,uint256,uint8,bytes32,bytes32)": "d505accf",
    "symbol()": "95d89b41",
    "totalSupply()": "18160ddd",
    "transfer(address,uint256)": "a9059cbb",
    "transferFrom(address,address,uint256)": "23b872dd"
  },
  "id": 38
}