{
  "abi": [
    {
      "inputs": [
        {
          "internalType": "uint8",
          "name": "decimals",
          "type": "uint8"
        }
      ],
      "stateMutability": "nonpayable",
      "type": "constructor"
    },
    {
      "anonymous": false,
      "inputs": [
        {
          "indexed": true,
          "internalType": "address",
          "name": "owner",
          "type": "address"
        },
        {
          "indexed": true,
          "internalType": "address",
          "name": "spender",
          "type": "address"
        },
        {
          "indexed": false,
          "internalType": "uint256",
          "name": "amount",
          "type": "uint256"
        }
      ],
      "name": "Approval",
      "type": "event"
    },
    {
      "anonymous": false,
      "inputs": [
        {
          "indexed": true,
          "internalType": "address",
          "name": "from",
          "type": "address"
        },
        {
          "indexed": true,
          "internalType": "address",
          "name": "to",
          "type": "address"
        },
        {
          "indexed": false,
          "internalType": "uint256",
          "name": "amount",
          "type": "uint256"
        }
      ],
      "name": "Transfer",
      "type": "event"
    },
    {
      "inputs": [],
      "name": "DOMAIN_SEPARATOR",
      "outputs": [
        {
          "internalType": "bytes32",
          "name": "",
          "type": "bytes32"
        }
      ],
      "stateMutability": "view",
      "type": "function"
    },
    {
      "inputs": [
        {
          "internalType": "address",
          "name": "",
          "type": "address"
        },
        {
          "internalType": "address",
          "name": "",
          "type": "address"
        }
      ],
      "name": "allowance",
      "outputs": [
        {
          "internalType": "uint256",
          "name": "",
          "type": "uint256"
        }
      ],
      "stateMutability": "view",
      "type": "function"
    },
    {
      "inputs": [
        {
          "internalType": "address",
          "name": "spender",
          "type": "address"
        },
        {
          "internalType": "uint256",
          "name": "amount",
          "type": "uint256"
        }
      ],
      "name": "approve",
      "outputs": [
        {
          "internalType": "bool",
          "name": "",
          "type": "bool"
        }
      ],
      "stateMutability": "nonpayable",
      "type": "function"
    },
    {
      "inputs": [
        {
          "internalType": "address",
          "name": "",
          "type": "address"
        }
      ],
      "name": "balanceOf",
      "outputs": [
        {
          "internalType": "uint256",
          "name": "",
          "type": "uint256"
        }
      ],
      "stateMutability": "view",
      "type": "function"
    },
    {
      "inputs": [
        {
          "internalType": "bool",
          "name": "blocking",
          "type": "bool"
        }
      ],
      "name": "blockTransfer",
      "outputs": [],
      "stateMutability": "nonpayable",
      "type": "function"
    },
    {
      "inputs": [],
      "name": "blocked",
      "outputs": [
        {
          "internalType": "bool",
          "name": "",
          "type": "bool"
        }
      ],
      "stateMutability": "view",
      "type": "function"
    },
    {
      "inputs": [],
      "name": "decimals",
      "outputs": [
        {
          "internalType": "uint8",
          "name": "",
          "type": "uint8"
        }
      ],
      "stateMutability": "view",
      "type": "function"
    },
    {
      "inputs": [
        {
          "internalType": "address",
          "name": "to",
          "type": "address"
        },
        {
          "internalType": "uint256",
          "name": "amount",
          "type": "uint256"
        }
      ],
      "name": "mint",
      "outputs": [
        {
          "internalType": "bool",
          "name": "",
          "type": "bool"
        }
      ],
      "stateMutability": "nonpayable",
      "type": "function"
    },
    {
      "inputs": [],
      "name": "name",
      "outputs": [
        {
          "internalType": "string",
          "name": "",
          "type": "string"
        }
      ],
      "stateMutability": "view",
      "type": "function"
    },
    {
      "inputs": [],
      "name": "noReturnData",
      "outputs": [
        {
          "internalType": "bool",
          "name": "",
          "type": "bool"
        }
      ],
      "stateMutability": "view",
      "type": "function"
    },
    {
      "inputs": [
        {
          "internalType": "address",
          "name": "",
          "type": "address"
        }
      ],
      "name": "nonces",
      "outputs": [
        {
          "internalType": "uint256",
          "name": "",
          "type": "uint256"
        }
      ],
      "stateMutability": "view",
      "type": "function"
    },
    {
      "inputs": [
        {
          "internalType": "address",
          "name": "owner",
          "type": "address"
        },
        {
          "internalType": "address",
          "name": "spender",
          "type": "address"
        },
        {
          "internalType": "uint256",
          "name": "value",
          "type": "uint256"
        },
        {
          "internalType": "uint256",
          "name": "deadline",
          "type": "uint256"
        },
        {
          "internalType": "uint8",
          "name": "v",
          "type": "uint8"
        },
        {
          "internalType": "bytes32",
          "name": "r",
          "type": "bytes32"
        },
        {
          "internalType": "bytes32",
          "name": "s",
          "type": "bytes32"
        }
      ],
      "name": "permit",
      "outputs": [],
      "stateMutability": "nonpayable",
      "type": "function"
    },
    {
      "inputs": [
        {
          "internalType": "bool",
          "name": "noReturn",
          "type": "bool"
        }
      ],
      "name": "setNoReturnData",
      "outputs": [],
      "stateMutability": "nonpayable",
      "type": "function"
    },
    {
      "inputs": [],
      "name": "symbol",
      "outputs": [
        {
          "internalType": "string",
          "name": "",
          "type": "string"
        }
      ],
      "stateMutability": "view",
      "type": "function"
    },
    {
      "inputs": [],
      "name": "totalSupply",
      "outputs": [
        {
          "internalType": "uint256",
          "name": "",
          "type": "uint256"
        }
      ],
      "stateMutability": "view",
      "type": "function"
    },
    {
      "inputs": [
        {
          "internalType": "address",
          "name": "to",
          "type": "address"
        },
        {
          "internalType": "uint256",
          "name": "amount",
          "type": "uint256"
        }
      ],
      "name": "transfer",
      "outputs": [
        {
          "internalType": "bool",
          "name": "",
          "type": "bool"
        }
      ],
      "stateMutability": "nonpayable",
      "type": "function"
    },
    {
      "inputs": [
        {
          "internalType": "address",
          "name": "from",
          "type": "address"
        },
        {
          "internalType": "address",
          "name": "to",
          "type": "address"
        },
        {
          "internalType": "uint256",
          "name": "amount",
          "type": "uint256"
        }
      ],
      "name": "transferFrom",
      "outputs": [
        {
          "internalType": "bool",
          "name": "ok",
          "type": "bool"
        }
      ],
      "stateMutability": "nonpayable",
      "type": "function"
    }
  ],
  "bytecode": {
    "object": "0x60e0604090808252346200044c57806200171e80380380916200002382856200046d565b83396020928391810103126200044c57519060ff821682036200044c578251926200004e8462000451565b600684526505465737432360d41b8285015280516200006d8162000451565b60059081815264054535432360dc1b8482015285519460018060401b0396878711620004365760009680620000a3895462000491565b92601f93848111620003e7575b5088908483116001146200037f578a9262000373575b50508160011b916000199060031b1c19161787555b8251908882116200035f578190600194620000f7865462000491565b8281116200030c575b5088918311600114620002a85789926200029c575b5050600019600383901b1c191690831b1782555b6080524660a0528251908186875492620001438462000491565b93848452888085019783831692836000146200027d575050506001146200023d575b5062000174925003826200046d565b519020928151928301937f8b73c3c69bb8fe3d512ecc4cf759cc79239f7b179b0ffacaa9a75d522b39400f8552828401527fc89efdaa54c0f20c7adf612882df0950f5a951637e0307cdcb4c672f298b8bc660608401524660808401523060a084015260a0835260c08301948386109086111762000229575083905251902060c05261ffff196006541660065561124f9081620004cf823960805181610627015260a05181610ec3015260c05181610eea0152f35b634e487b7160e01b81526041600452602490fd5b8791508880528189209089915b858310620002645750506200017493508201013862000165565b805483880185015286945089939092019181016200024a565b60ff1916895262000174961515901b8501019250389150620001659050565b01519050388062000115565b858a52888a208694509190601f1984168b5b8b828210620002f55750508411620002db575b505050811b01825562000129565b015160001960f88460031b161c19169055388080620002cd565b8385015186558997909501949384019301620002ba565b90919250858a52888a2083808601891c8201928b871062000355575b9186958992959493018a1c01915b8281106200034657505062000100565b8c815586955088910162000336565b9250819262000328565b634e487b7160e01b88526041600452602488fd5b015190503880620000c6565b8a8052898b209250601f1984168b5b8b828210620003d0575050908460019594939210620003b6575b505050811b018755620000db565b015160001960f88460031b161c19169055388080620003a8565b60018596829396860151815501950193016200038e565b909150898052888a2084808501891c8201928b86106200042c575b90859493929101891c01905b8181106200041d5750620000b0565b8b81558493506001016200040e565b9250819262000402565b634e487b7160e01b600052604160045260246000fd5b600080fd5b604081019081106001600160401b038211176200043657604052565b601f909101601f19168101906001600160401b038211908210176200043657604052565b90600182811c92168015620004c3575b6020831014620004ad57565b634e487b7160e01b600052602260045260246000fd5b91607f1691620004a156fe60806040526004361015610013575b600080fd5b60003560e01c806306fdde0314610167578063095ea7b31461015e57806318160ddd146101555780631b2438451461014c57806323b872dd14610143578063303bdd2c1461013a578063313ce567146101315780633644e5151461012857806340c10f191461011f57806370a08231146101165780637ecebe001461010d57806395d89b4114610104578063a9059cbb146100fb578063cd1b5b71146100f2578063d505accf146100e9578063dd62ed3e146100e05763e074d6a9146100d857600080fd5b61000e610d5b565b5061000e610cc5565b5061000e610a20565b5061000e6109d6565b5061000e6108d6565b5061000e610812565b5061000e6107ac565b5061000e610746565b5061000e61068d565b5061000e61064b565b5061000e6105ee565b5061000e6105ac565b5061000e610554565b5061000e61050f565b5061000e6104d2565b5061000e61040f565b5061000e6102a9565b90600182811c921680156101b9575b602083101461018a57565b7f4e487b7100000000000000000000000000000000000000000000000000000000600052602260045260246000fd5b91607f169161017f565b90601f7fffffffffffffffffffffffffffffffffffffffffffffffffffffffffffffffe0910116810190811067ffffffffffffffff82111761020457604052565b7f4e487b7100000000000000000000000000000000000000000000000000000000600052604160045260246000fd5b919091602080825283519081818401526000945b828610610293575050601f817fffffffffffffffffffffffffffffffffffffffffffffffffffffffffffffffe0926040959611610286575b0116010190565b600085828601015261027f565b8581018201518487016040015294810194610247565b503461000e576000807ffffffffffffffffffffffffffffffffffffffffffffffffffffffffffffffffc3601126103c657604051908080546102ea81610170565b8085529160019180831690811561037e5750600114610324575b61032085610314818703826101c3565b60405191829182610233565b0390f35b80809450527f290decd9548b62a8d60345a988386fc84ba6bc95484008f6362f93160ef3e5635b82841061036657505050810160200161031482610320610304565b8054602085870181019190915290930192810161034b565b869550610320969350602092506103149491507fffffffffffffffffffffffffffffffffffffffffffffffffffffffffffffff001682840152151560051b8201019293610304565b80fd5b6004359073ffffffffffffffffffffffffffffffffffffffff8216820361000e57565b6024359073ffffffffffffffffffffffffffffffffffffffff8216820361000e57565b503461000e5760407ffffffffffffffffffffffffffffffffffffffffffffffffffffffffffffffffc36011261000e576104476103c9565b73ffffffffffffffffffffffffffffffffffffffff60243591336000526004602052826104988260406000209073ffffffffffffffffffffffffffffffffffffffff16600052602052604060002090565b5560405192835216907f8c5be1e5ebec7d5bd14f71427d1e84f3dd0314c0f7b2291e5b200ac8c7c3b92560203392a3602060405160018152f35b503461000e5760007ffffffffffffffffffffffffffffffffffffffffffffffffffffffffffffffffc36011261000e576020600254604051908152f35b503461000e5760007ffffffffffffffffffffffffffffffffffffffffffffffffffffffffffffffffc36011261000e57602060ff60065460081c166040519015158152f35b503461000e5760607ffffffffffffffffffffffffffffffffffffffffffffffffffffffffffffffffc36011261000e5760206105a26105916103c9565b6105996103ec565b60443591611096565b6040519015158152f35b503461000e5760007ffffffffffffffffffffffffffffffffffffffffffffffffffffffffffffffffc36011261000e57602060ff600654166040519015158152f35b503461000e5760007ffffffffffffffffffffffffffffffffffffffffffffffffffffffffffffffffc36011261000e57602060405160ff7f0000000000000000000000000000000000000000000000000000000000000000168152f35b503461000e5760007ffffffffffffffffffffffffffffffffffffffffffffffffffffffffffffffffc36011261000e576020610685610ebe565b604051908152f35b503461000e5760407ffffffffffffffffffffffffffffffffffffffffffffffffffffffffffffffffc36011261000e576106c56103c9565b60007fddf252ad1be2c89b69c2b068fc378daa952ba7f163c4a11628f55a4df523b3ef602073ffffffffffffffffffffffffffffffffffffffff602435948560025481198111610739575b0160025516938484526003825260408420818154019055604051908152a3602060405160018152f35b610741610da0565b610710565b503461000e5760207ffffffffffffffffffffffffffffffffffffffffffffffffffffffffffffffffc36011261000e5773ffffffffffffffffffffffffffffffffffffffff6107936103c9565b1660005260036020526020604060002054604051908152f35b503461000e5760207ffffffffffffffffffffffffffffffffffffffffffffffffffffffffffffffffc36011261000e5773ffffffffffffffffffffffffffffffffffffffff6107f96103c9565b1660005260056020526020604060002054604051908152f35b503461000e576000807ffffffffffffffffffffffffffffffffffffffffffffffffffffffffffffffffc3601126103c6576040519080600180549161085683610170565b8086529282811690811561037e575060011461087c5761032085610314818703826101c3565b92508083527fb10e2d527612073b26eecdfd717e6a320cf44b4afac2b0732d9fcbe2b7fa0cf65b8284106108be57505050810160200161031482610320610304565b805460208587018101919091529093019281016108a3565b503461000e5760407ffffffffffffffffffffffffffffffffffffffffffffffffffffffffffffffffc36011261000e5761090e6103c9565b73ffffffffffffffffffffffffffffffffffffffff602435913360005260036020526040600020838154818110610990575b039055169081600052600360205260406000208181540190556040519081527fddf252ad1be2c89b69c2b068fc378daa952ba7f163c4a11628f55a4df523b3ef60203392a3602060405160018152f35b610998610da0565b610940565b7ffffffffffffffffffffffffffffffffffffffffffffffffffffffffffffffffc602091011261000e57600435801515810361000e5790565b503461000e576109e53661099d565b15157fffffffffffffffffffffffffffffffffffffffffffffffffffffffffffff00ff61ff006006549260081b169116176006556000604051f35b503461000e5760e07ffffffffffffffffffffffffffffffffffffffffffffffffffffffffffffffffc36011261000e57610a586103c9565b610a606103ec565b604435906064359060843560ff8116810361000e5760006020917f8c5be1e5ebec7d5bd14f71427d1e84f3dd0314c0f7b2291e5b200ac8c7c3b92594610aa842821015610de7565b610bd4610be0610ab6610ebe565b928a8a610b5e610ae68373ffffffffffffffffffffffffffffffffffffffff166000526005602052604060002090565b938454946001860190556040519485938d8d8601968791959493909260a09360c08401977f6e71edae12b1b97f4d1f60370fef10105fa2faae0126114a169c64845d6126c9855273ffffffffffffffffffffffffffffffffffffffff8092166020860152166040840152606083015260808201520152565b0391610b907fffffffffffffffffffffffffffffffffffffffffffffffffffffffffffffffe0938481018352826101c3565b519020604051938491898301968790916042927f19010000000000000000000000000000000000000000000000000000000000008352600283015260228201520190565b039081018352826101c3565b5190206040805191825260ff92909216602082015260a4359181019190915260c435606082015281805260809060015afa15610cb8575b6000519083610c9a82610c7573ffffffffffffffffffffffffffffffffffffffff95610c4f8782168015159081610cac575b50610e59565b73ffffffffffffffffffffffffffffffffffffffff166000526004602052604060002090565b9073ffffffffffffffffffffffffffffffffffffffff16600052602052604060002090565b556040519384528116931691602090a3005b9050888c161438610c49565b610cc0610e4c565b610c17565b503461000e5760407ffffffffffffffffffffffffffffffffffffffffffffffffffffffffffffffffc36011261000e576020610d52610d026103c9565b73ffffffffffffffffffffffffffffffffffffffff610d1f6103ec565b91166000526004835260406000209073ffffffffffffffffffffffffffffffffffffffff16600052602052604060002090565b54604051908152f35b503461000e57610d6a3661099d565b151560ff7fffffffffffffffffffffffffffffffffffffffffffffffffffffffffffffff00600654169116176006556000604051f35b507f4e487b7100000000000000000000000000000000000000000000000000000000600052601160045260246000fd5b818110610ddb570390565b610de3610da0565b0390565b15610dee57565b60646040517f08c379a000000000000000000000000000000000000000000000000000000000815260206004820152601760248201527f5045524d49545f444541444c494e455f455850495245440000000000000000006044820152fd5b506040513d6000823e3d90fd5b15610e6057565b60646040517f08c379a000000000000000000000000000000000000000000000000000000000815260206004820152600e60248201527f494e56414c49445f5349474e45520000000000000000000000000000000000006044820152fd5b6000467f000000000000000000000000000000000000000000000000000000000000000003610f0c57507f000000000000000000000000000000000000000000000000000000000000000090565b6040518154919081610f1d84610170565b80835260209485840194600191878382169182600014611053575050600114610ffb575b5050509181610f58610ff593610fc99503826101c3565b519020604080517f8b73c3c69bb8fe3d512ecc4cf759cc79239f7b179b0ffacaa9a75d522b39400f95810195865260208601929092527fc89efdaa54c0f20c7adf612882df0950f5a951637e0307cdcb4c672f298b8bc69085015246606085015230608085015291829060a0850190565b037fffffffffffffffffffffffffffffffffffffffffffffffffffffffffffffffe081018352826101c3565b51902090565b91908693508280527f290decd9548b62a8d60345a988386fc84ba6bc95484008f6362f93160ef3e5635b82841061103e5750505082010181610f58610ff5610f41565b80548685018601528794909301928101611025565b7fffffffffffffffffffffffffffffffffffffffffffffffffffffffffffffff0016885293151560051b86019093019350849250610f589150610ff59050610f41565b9060ff60065416611211577fddf252ad1be2c89b69c2b068fc378daa952ba7f163c4a11628f55a4df523b3ef9073ffffffffffffffffffffffffffffffffffffffff90611168828516948560005260046020528661111760406000203373ffffffffffffffffffffffffffffffffffffffff16600052602052604060002090565b547fffffffffffffffffffffffffffffffffffffffffffffffffffffffffffffffff81036111c5575b505073ffffffffffffffffffffffffffffffffffffffff166000526003602052604060002090565b611173868254610dd0565b905561119f8173ffffffffffffffffffffffffffffffffffffffff166000526003602052604060002090565b8054860190556040519485521692602090a360065460081c60ff166111c357600190565b005b818110611204575b036111fc33610c758473ffffffffffffffffffffffffffffffffffffffff166000526004602052604060002090565b558638611140565b61120c610da0565b6111cd565b50505060009056fea26469706673582212201125cc96bb2752e8b7fe3dadef9ef7c5f7a3d1ba4abc33c4145ca5983b88ce1e64736f6c634300080f0033",
    "linkReferences": {}
  },
  "methodIdentifiers": {
    "DOMAIN_SEPARATOR()": "3644e515",
    "allowance(address,address)": "dd62ed3e",
    "approve(address,uint256)": "095ea7b3",
    "balanceOf(address)": "70a08231",
    "blockTransfer(bool)": "e074d6a9",
    "blocked()": "303bdd2c",
    "decimals()": "313ce567",
    "mint(address,uint256)": "40c10f19",
    "name()": "06fdde03",
    "noReturnData()": "1b243845",
    "nonces(address)": "7ecebe00",
    "permit(address,address,uint256,uint256,uint8,bytes32,bytes32)": "d505accf",
    "setNoReturnData(bool)": "cd1b5b71",
    "symbol()": "95d89b41",
    "totalSupply()": "18160ddd",
    "transfer(address,uint256)": "a9059cbb",
    "transferFrom(address,address,uint256)": "23b872dd"
  },
  "id": 79
}