{
  "abi": [
    {
      "inputs": [
        {
          "internalType": "contract TestERC20",
          "name": "wbtc",
          "type": "address"
        }
      ],
      "stateMutability": "nonpayable",
      "type": "constructor"
    },
    {
      "inputs": [
        {
          "internalType": "contract TestERC20",
          "name": "",
          "type": "address"
        }
      ],
      "name": "getGatewayByToken",
      "outputs": [
        {
          "internalType": "contract MockGateway",
          "name": "",
          "type": "address"
        }
      ],
      "stateMutability": "view",
      "type": "function"
    }
  ],
  "bytecode": {
    "object": "0x6080346100d2576001600160401b0390601f61050638819003918201601f1916830191848311848410176100bc578084926020946040528339810103126100d257516001600160a01b038082169290918390036100d25760405190610367808301918211838310176100bc57602091839161019f83398581520301906000f09182156100b05760005260006020526040600020911660018060a01b031982541617905560405160c790816100d88239f35b6040513d6000823e3d90fd5b634e487b7160e01b600052604160045260246000fd5b600080fdfe6080806040526004361015601257600080fd5b600090813560e01c631b95e30514602857600080fd5b34608d5760207ffffffffffffffffffffffffffffffffffffffffffffffffffffffffffffffffc360112608d5760043573ffffffffffffffffffffffffffffffffffffffff9081811680910360895783604091602095528085522054168152f35b8380fd5b5080fdfea2646970667358221220cc7dd4df304a12309d11e67c752fb539457a96e43ab70750ba5846d0c84b76a464736f6c634300080f003360a03461006a57601f61036738819003918201601f19168301916001600160401b0383118484101761006f5780849260209460405283398101031261006a57516001600160a01b038116810361006a576080526040516102e190816100868239608051816101650152f35b600080fd5b634e487b7160e01b600052604160045260246000fdfe60806040818152600436101561001457600080fd5b600091823560e01c63159ab14d1461002b57600080fd5b346101c85760807ffffffffffffffffffffffffffffffffffffffffffffffffffffffffffffffffc3601126101c8576024356064359067ffffffffffffffff928383116101dd57366023840112156101dd5782600401359084821161020e57866020946100bf867fffffffffffffffffffffffffffffffffffffffffffffffffffffffffffffffe0601f870116018461023b565b8383528583019336602482840101116101c85780602488930186378301015251902090845191838301600435815282878501526044356060850152606084526080840195848710908711176101e15785875283519020036101dd577f40c10f1900000000000000000000000000000000000000000000000000000000845233608483015260a482015281836044818873ffffffffffffffffffffffffffffffffffffffff7f0000000000000000000000000000000000000000000000000000000000000000165af180156101d357610198575b50505051f35b813d83116101cc575b6101ab818561023b565b810103126101c85751801515036101c457388080610192565b5080fd5b8280fd5b503d6101a1565b84513d87823e3d90fd5b8580fd5b6024887f4e487b710000000000000000000000000000000000000000000000000000000081526041600452fd5b6024877f4e487b710000000000000000000000000000000000000000000000000000000081526041600452fd5b90601f7fffffffffffffffffffffffffffffffffffffffffffffffffffffffffffffffe0910116810190811067ffffffffffffffff82111761027c57604052565b7f4e487b7100000000000000000000000000000000000000000000000000000000600052604160045260246000fdfea2646970667358221220d532a233e09d4a5d01107a16368ea04f80e7bd84fc4bcff2b38fd2a94fb081cd64736f6c634300080f0033",
    "linkReferences": {}
  },
  "methodIdentifiers": {
    "getGatewayByToken(address)": "1b95e305"
  },
  "id": 78
}