{
  "abi": [
    {
      "inputs": [
        {
          "internalType": "contract TestERC20",
          "name": "_wbtc",
          "type": "address"
        }
      ],
      "stateMutability": "nonpayable",
      "type": "constructor"
    },
    {
      "inputs": [
        {
          "internalType": "bytes32",
          "name": "_pHash",
          "type": "bytes32"
        },
        {
          "internalType": "uint256",
          "name": "_amount",
          "type": "uint256"
        },
        {
          "internalType": "bytes32",
          "name": "_nHash",
          "type": "bytes32"
        },
        {
          "internalType": "bytes",
          "name": "_sig",
          "type": "bytes"
        }
      ],
      "name": "mint",
      "outputs": [],
      "stateMutability": "nonpayable",
      "type": "function"
    }
  ],
  "bytecode": {
    "object": "0x60a03461006a57601f61036738819003918201601f19168301916001600160401b0383118484101761006f5780849260209460405283398101031261006a57516001600160a01b038116810361006a576080526040516102e190816100868239608051816101650152f35b600080fd5b634e487b7160e01b600052604160045260246000fdfe60806040818152600436101561001457600080fd5b600091823560e01c63159ab14d1461002b57600080fd5b346101c85760807ffffffffffffffffffffffffffffffffffffffffffffffffffffffffffffffffc3601126101c8576024356064359067ffffffffffffffff928383116101dd57366023840112156101dd5782600401359084821161020e57866020946100bf867fffffffffffffffffffffffffffffffffffffffffffffffffffffffffffffffe0601f870116018461023b565b8383528583019336602482840101116101c85780602488930186378301015251902090845191838301600435815282878501526044356060850152606084526080840195848710908711176101e15785875283519020036101dd577f40c10f1900000000000000000000000000000000000000000000000000000000845233608483015260a482015281836044818873ffffffffffffffffffffffffffffffffffffffff7f0000000000000000000000000000000000000000000000000000000000000000165af180156101d357610198575b50505051f35b813d83116101cc575b6101ab818561023b565b810103126101c85751801515036101c457388080610192565b5080fd5b8280fd5b503d6101a1565b84513d87823e3d90fd5b8580fd5b6024887f4e487b710000000000000000000000000000000000000000000000000000000081526041600452fd5b6024877f4e487b710000000000000000000000000000000000000000000000000000000081526041600452fd5b90601f7fffffffffffffffffffffffffffffffffffffffffffffffffffffffffffffffe0910116810190811067ffffffffffffffff82111761027c57604052565b7f4e487b7100000000000000000000000000000000000000000000000000000000600052604160045260246000fdfea2646970667358221220d532a233e09d4a5d01107a16368ea04f80e7bd84fc4bcff2b38fd2a94fb081cd64736f6c634300080f0033",
    "linkReferences": {}
  },
  "methodIdentifiers": {
    "mint(bytes32,uint256,bytes32,bytes)": "159ab14d"
  },
  "id": 78
}